:020000040000fa
:080000000001040000000000f3
:020000040000fa
:100200002fe220000eff20000e01880000000000f9
:100210000c000700e083240001002000110007000b
:10022000000020000000e000020032000000020098
:1002300000000000384e0200000000000040da001c
:100240000000fe004440a900208320000000e000e0
:100250000300320000002000a00188004440a800f4
:100260000000060091018800800078000000eb008b
:1002700015003700e280400032a0b4009101ba00be
:10028000e280400032a0b4009102ba00e280400057
:1002900032a0b4000002eb00472bde00f507b200ed
:1002a000602ce10004003a000059eb008301e900f2
:1002b000fdff3e00040037006128e100010032002c
:1002c0000082eb00040007001101ba000200e00008
:1002d000e8ff3a00000006003159ba008301e90046
:1002e0000c0032002159ba008301e90008003200f5
:1002f0000400e00003003a00e280400032a0b400b5
:10030000f5ff370011d9ba008301e900faff3a007e
:100310008100e800e180400032a0b4000000060047
:100320001004b100030035009001b10001003c0051
:100330001000050000000500800078001104b100e5
:10034000030035009101b10001003c000050a00005
:10035000000006001004b100070035009001b10054
:10036000040034007000b100030035009001b100ba
:1003700001003c0010000500000005006900e100dc
:10038000040035006d00e100030034000002b100fc
:100390000100320000000500100005000a00fa000c
:1003a00080017800e20f500028003e00f0708000cd
:1003b000e10f500008003200e02120000000e000c2
:1003c000050032006421200085212000a6212000a4
:1003d0008001780004003700c4202000e5202000c0
:1003e0000621200043212000144090000004e0007a
:1003f000040035008009eb00144090000074a00058
:1004000010429800154090000028a30003003a0015
:10041000154090000024a000904298008001eb005d
:1004200007003700154090000008a300fdff3200d0
:1004300063c078000000fb00000b78008301e80037
:10044000828f5100f7ff3a0008003700300020008b
:10045000b0bf9f00c3bf9f00d1bf9f00e2bf9f00fe
:100460006a80570000c0da006fb997000200780078
:100470000080fa00000006000a00fa00881f7800d9
:10048000800178000000e00029003a00f070800050
:10049000e10f500008003200e02120000000e000e1
:1004a000050032006421200085212000c7212000a2
:1004b0008001780004003700c4202000e5202000df
:1004c0002721200043212000144090000004e00078
:1004d000040035008009eb00144090000074a00077
:1004e000104298000002eb000c003700130a2000b5
:1004f000154478006140640002003a008301e9007d
:10050000fbff3a000402e8009541780061c06100f9
:10051000050032001700780080587800040351006d
:10052000820f5200f1ff3a00060051000800370028
:1005300020002000a0bf9f00b3bf9f00c1bf9f004d
:10054000d2bf9f006c80570000c0da005fb89700f0
:100550004f0478000080fa0000000600020ab9008b
:10056000001bb9000200b800810042008100430076
:1005700000000600140020008d013700889fbe0097
:100580008a9fbe00010578000100e00004003500ec
:1005900008003c000000e0002000320005003700a9
:1005a00060001000e080180002003b0001f02c0009
:1005b0001a0037000004be006011b8006b0920006b
:1005c0000982cf00020039000882cf000441b00048
:1005d000694252000e00320008003b008281710027
:1005e000610164008904d1000884d3008b05e80010
:1005f0000442e800f9ff3a0005003700080444000f
:1006000089844c008b05e9000442e900fbff3a00b5
:10061000820107000af0a70001f0a0004f05be000c
:100620004f04be000000060003f0a200889fbe0039
:100630008a9fbe008c1f78009e010700a501330031
:100640006450e1004f0032006420e10052003200ab
:1006500003826c0007003b000905d0000306d000b0
:10066000820f54000c065d000200390002003200c7
:1006700089017800030678008582550004003d005a
:100680000003fd008103fd008502ea008b85420026
:10069000840f720002003b0060001000e080180030
:1006a0006011b8000005eb007a28e1000a0039006b
:1006b00006007800c75ddd00f707b200878075008f
:1006c0002d003700828171000a0178006105600009
:1006d0008180d1000080d3008502e900f9ff3b0052
:1006e000060440008784480002003b0060041400b8
:1006f000e0841c000988a300070032008a81710091
:1007000082817100610164008904d1000884d300f2
:100710008b05e800170037000978a30013003a00a2
:100720000b00e000130034008b05e90008044400ce
:1007300089844c000a4474000978a3000d003a0033
:100740000b00e000070034008b05e90008044400ba
:1007500089844c0001003a000b0020000978a300b6
:10076000f7ff32000001eb000200370082817100c8
:100770000a017800290107000cf0a70001f0a00091
:100780005d0137006420e10002003a00838f6c00b5
:100790005d0133000801be000200be0056013700b3
:1007a000f4ff2f0002013700889fbe008a9fbe0021
:1007b0008c1f78003f0107004601330003866c0060
:1007c0006450e100240032006420e1002700320080
:1007d0006150e100220032006120e100210032007e
:1007e0008b854200eb07b1000134b800003ab80035
:1007f0000804420089844a00013ab8000030b80079
:100800008880400009014a000400330000004000d5
:1008100081804800020149008b05e900c909dd001b
:10082000830170000100320013002000c814de00b4
:100830004814dd004709de001200b200c808de00df
:1008400008847000f500070001f0a1000cf0a7007b
:1008500001f0a000280137006120e1002a013200e8
:100860000801be000200be00f7ff37006150e10042
:10087000fcff3a0024013700889fbe008a9fbe001b
:100880008c1f78000b0107001201330003866c00f7
:100890006450e1002e0032006420e1003300320099
:1008a0006150e1002f0032006120e1003100320090
:1008b00085855500eb07b0000900200008042000e2
:1008c000050037000804440089844c000a00310008
:1008d0000603430087834b000001530081815b00c6
:1008e000f8ff33000203be000800a0000804440023
:1008f00089844c00f6ff3900c639dd00830173009e
:1009000001003200130020008904d1000884d300c4
:100910000998a300050032000800a7000300a0000a
:100920008904d1000884d3008b05e8008904d10034
:100930000884d3000001eb000281d200b700070059
:1009400001f0a1000cf0a70001f0a000ea003700c0
:100950006420e100ec0032000801be000200be008d
:10096000f7ff37006120e100e70032006000b800c7
:10097000f3ff37000000200001f82700f0ff3700e8
:100980000001be00e30007000470a70003f0a1000f
:1009900003f8a30013003a006509b100100032000b
:1009a000090035006928e100020035000100280037
:1009b0000000050000004000818048008502e90039
:1009c000fcff3a0000000600f88f420005003500e9
:1009d0008100d1000080d3008502e800fcff3a00ce
:1009e000000006008000eb0000000500889fbe00ac
:1009f0008a9fbe008c1f78000004be00c50007005f
:100a00000478a30026003a006120e10025003200ae
:100a100009f8a30025003a006420e100210032001b
:100a2000f507b1000508a3000200320000004000f5
:100a3000818048006044b8000310200002002000bc
:100a400000004000818048000805440089854c0072
:100a50000a0541008b8549000a0550008b85580026
:100a6000030033000a00be00020474008384740093
:100a70008301d1000281d300830f7100f0ff3a009f
:100a80008904d1000884d300600149008201780004
:100a9000c1adde00fb07b000600007009600370024
:100aa0000960a0000800be00930037001202200079
:100ab000325e8800f0ff2f00f1ff27008e00370024
:100ac0000001eb00a8000700040032000200200033
:100ad00003f8230001f0a700d3fe07000000060082
:100ae0000001be008b0007000470a70003f0a10006
:100af0006509b100160032000d0035006828e100dc
:100b000006003500f0ff2f00f1ff27000300e00092
:100b100013003b0001002800000005000000400019
:100b2000818048008502e900fcff3a000800370098
:100b3000f88f420002003c008000eb00000005003e
:100b40008100d1000080d3008502e800fcff3a005c
:100b50000300e00002003b0060001000e08018008d
:100b600000000600020007000400be0000000600ae
:100b70006022b800060220000000d0008180d20070
:100b80000482d2008582d2000000a000020252003e
:100b900083825a00030031000202420083824a002d
:100ba0000000a1000603e900f3ff3a000000060080
:100bb000889fbe008a9fbe00841f78003d0007000a
:100bc0004f00780011003300f0ff2f00838f6c007e
:100bd00006003b00040565000a00a7000800370076
:100be00009f0a6001000200008003700820f540012
:100bf000838f5c00030039001000200001003e00dc
:100c00000000200009f0a7000000ea004f05be0028
:100c10004f04be000000e00000000600810020003c
:100c2000618055000b003d000b00200061fe2f008d
:100c30000100e1001d003400828171006101640047
:100c40008904d1000884d3000000e800faff3a00cc
:100c50007100200061006400030070000200600069
:100c60000900320061044400e0844c000988a500ba
:100c7000050032008b05e8006808e10002003a0038
:100c80008904d1000884d300f20f20000258e1004b
:100c900005003d00c75ddd00f907b20089807500e1
:100ca00008007800000006000bf827008b00780091
:100cb000000005000004be00160007000003be008f
:100cc0000405be000200be0012000700844f75003c
:100cd000000006000200be006450e100050036007e
:100ce0006420e100020036000968a30001003a0018
:100cf0000800be000160a0004f0678004f05be004e
:100d00004f04be0000000600f0ff2f00f1ff270097
:100d1000f9ff3700c70ade00f107b200f50fb20095
:100d200008003200e1cf4200020032000170a00052
:100d300024000500810f7000010032000408050046
:100d400044000500810f700002003a001400050005
:100d50008502e9000000400081c04800fcff3b0024
:100d60000170a00024000500889fbe008a9fbe007d
:100d70000003be00e7ff070085057800828152006e
:100d8000020020006220e10004003a00f307b100f5
:100d9000040035007718e100040035000600be00ad
:100da000140037006000b8000f003700f50f200076
:100db000faff2f008502d1000a85d3008301e900e4
:100dc000fcff3b008184620000046500890f740011
:100dd000f2ff32008582ea000a85ea00818462001f
:100de000000465008dff070007f0a70001f0a000d8
:100df0000081eb000200e0004f05be004f04be0082
:100e000000000600881f7800000478005001be0032
:100e10004000be00040040008580480006014900f3
:100e200087814900009cbe000294be000400e100de
:100e30000588e1000690e1000798e100020031001a
:100e4000680044001008e8004f0478000000060025
:100e5000f4874700889fbe008a9fbe008c9fbe001b
:100e60008e1f78000205be000004be00d4b79f00ac
:100e7000e5b79f00f6b79f0087bf9f000000eb001b
:100e8000c0b79f00b0b79f00a0b79f0090b79f006a
:100e900080b79f000d042000bfb097004fb09700af
:100ea000000140000000e0000f003d004f08de00a0
:100eb00000007100c0b79f009e00070001003d00c8
:100ec00012002000a100070001003d0012002000d8
:100ed000a6000700b1000700b60007000f004000a1
:100ee000c8ff0700220037004f08de00000671002f
:100ef000ccb79f008f00070001003d0012002000ca
:100f00009200070001003d0012002000970007003a
:100f1000a20007000fb297009fb297002fb397006f
:100f2000bfb39700a90007000000520081805a005b
:100f300002015b0083815b0080b79f0091b79f0037
:100f4000a2b79f00b3b79f000007eb009f00070008
:100f50000020e10001a8e10002b0e10003b8e100d7
:100f6000010031001e0020000e005600c0b79f0097
:100f70004fb297000400e000070035001000200089
:100f8000010020006011b80008047000898470001e
:100f90000a0571008b8571008d06e900beff3a00dd
:100fa0000400e00003003d00820007000f00400045
:100fb00094ff07004fa897000000e00004003a00eb
:100fc0000fb497009fb497002fb59700bfb5970057
:100fd000940007004f0778004f06be004f05be0083
:100fe0004f04be004f01b10000000600881f7800ca
:100ff00018002000881f780095ff07008f87e90000
:101000004f04780000000600801feb0090ff0700ef
:101010008f87e90000000600889fbe008a9fbe00ff
:101020008c1f78006e00070007003d00730007006a
:10103000e00f5b00e08f5b0007003d00320007001f
:101040000006eb00040037003400070002003d00fa
:101050002a0007001c00200072000700e3ff0700c1
:101060000203be000002be000c00e00001003200de
:10107000220007000400be000601be004f067800f3
:101080004f05be004f04be0000000600889fbe0052
:101090008a9fbe008c1f78005100070005003d00ac
:1010a00056000700e00f5b00e08f5b0006003d008c
:1010b000040037001900070003003d006000b8007d
:1010c0006011b8001000070056000700ceff0700af
:1010d0000203be000002be000c00e000010032006e
:1010e000060007000400be000601be004f0678009f
:1010f0004f05be004f04be00000006006000b800af
:101100006011b800000037000402500085825800ca
:101110000603590087835900000006000006eb0013
:10112000e00f5200e08f5a00e00f5b00e08f5b00a1
:10113000000006000180400090b79f000001eb0016
:101140008fb097000100e000000006000200700070
:1011500090b79f000180400080b79f000001eb0026
:10116000ffa897000100e0000000060002007000e8
:1011700080b79f00018040006faa9700cf20de005b
:1011800001007000f0af9f0004024200250007003c
:101190004f18de000002720000000600e4af9f005e
:1011a0000804440089844c000a054d008b854d00dd
:1011b000000006003fb29700cfb297005fb39700e0
:1011c000efb3970000fe2f00000006003fb097002d
:1011d000cfb097005fb19700efb197000000060015
:1011e0000205be000004be00e00f5000e08f580072
:1011f000e00f5900e08f5900000006006000b800c1
:101200006011b80008045000898458000a0559008c
:101210008b8559001c002000e00f5200e08f5a001f
:10122000000006000800be000a01be000000060023
:101230002800fa00889fbe008a9fbe008c9fbe00d7
:1012400003866b000f0207000028a30064003a0029
:101250000128a30067003a000008a30062003a00da
:101260000108a30065003a001e009000be0890002f
:1012700081064000ed3fb100f4805700ee01900080
:10128000111ab8008e099000311bb8009e09900019
:10129000311cb800511db800f48557004600070006
:1012a000fe0190003a0007008b85e8003e00070031
:1012b0008e09900040000700ee0190003400070006
:1012c0008b85e800380007008e0990004000070079
:1012d0009e0990001b18b800890440000a85480048
:1012e000fe019000340007008b85e80038000700fd
:1012f000ee019000300007008e0990001b18b80026
:10130000890440000a8548000a98a30008003a00b2
:101310000402420085824a0006034b0087834b008b
:1013200008044c0089844c000a054d008d06e90034
:1013300084827200850273004c3add0085027200df
:101340000100320015002000443ade001400b20013
:101350004538de00cb45dd000b007000c540de00e7
:10136000cb4ddd008b8070004549de00cb55dd00a4
:101370000b017100c551de000d037800da01070092
:1013800003f0a1000cf0a70003f0a000d10137008a
:101390001b18b8008502400006834800e0834b001c
:1013a00060044c00070037001b18b800060340001b
:1013b00087834800faff37001b18b80087034000f6
:1013c00008844800e0844c0060054d0000000600e1
:1013d0001b18b8000804400089844800faff370051
:1013e0000108a300b8013a005800be005801be0031
:1013f000e3ff37000008a300b3013a0009047800b6
:10140000f9ff37008103780042fe07000001be00ab
:101410006000b8000478a30013003a006220e100e5
:1014200015003e000d0039008301d1000281d30078
:101430008180d3008301d1000281d3008180d30059
:101440008301d1000281d3008180d3000538b00030
:10145000c42add00f300b2008381720007f0a70008
:1014600003f0a00000000600f3ff2700f2ff2f00aa
:101470006110b900fbff370003ff2700f7ff3700bb
:101480008f1fd100c40107008f87e9000000e00032
:1014900000000600801feb00bf0107008f87e900f6
:1014a0000000e000000006001400fa00889fbe0063
:1014b0008a9fbe008c9fbe000005be000206be00d3
:1014c000680047000c90be000a90be00db010700d8
:1014d0006400e1001a00320016003e006100e100e5
:1014e0001a0032006e049000fe0490000e0b900073
:1014f0009e0b90006011b8009e0590000b38b10063
:10150000d501200082817100610164008703d10050
:101510000683d3008984d3000884d3008502e900c0
:10152000f8ff3a00bdfd07000df0a70001f0a00094
:1015300068013700f1ff2700f0ff2f006501370039
:1015400001f8270000002000f7ff37006000b80016
:10155000f5ff3700e00107000509780000000600ec
:10156000809feb008c0107008f87e9000000e000fe
:10157000000006002800fa00889fbe008a9fbe0077
:101580008c9fbe0007067800878669000c003b0030
:10159000030478008704780008f0a10009f0a10096
:1015a000840f5000858f5800860f5900890f5c000a
:1015b000030033000cf0a20001003a000cf0a1007f
:1015c000300107006400e1005f003200780147004d
:1015d0006408e100610032006c0147007485570027
:1015e0003200be001201be003a04be001a05be0061
:1015f0001e039000be0a90008503530006003d00c4
:101600000004fd008104fd000205fd008305fd00ce
:101610008703ea00050378000df8a30004003200f8
:1016200060041400e0841c0060051d00e0851d00be
:101630006022b8007d0320000d38e1008006eb0039
:101640000b0039004433dd00f300b2008301730066
:1016500039003700848272000d027800e1066400d0
:101660008b85d1000a85d3008984d3000884d300f8
:101670008703e900f7ff3b0008004000898048002d
:101680000a0149008b81490004003b006000100002
:10169000e080180060011900e08119000358a300e0
:1016a000090032008d827200848272006102600043
:1016b0008301d1000281d3008180d3000080d30058
:1016c0000603e8001b0037000348a30017003a0098
:1016d0000600e000170034000603e9000d00a30037
:1016e00000004800818048000201490083814900d0
:1016f0000348a3000f003a000600e0000900340090
:101700000603e90000004000818048000201490012
:101710008381490001003a000003eb000348a30065
:10172000f5ff32006022b8000200370084827200a8
:1017300061826600ec00070003f0a1000cf0a70036
:1017400003f0a000e3003700640147006408e100f3
:1017500002003a000df8a300db003a003200be00a0
:101760001201be00db0037001400fa00889fbe00a3
:101770008a9fbe008c9fbe000004be000205be0012
:10178000680047000a90be000890be002b010700c9
:101790000070a7000bf0a1000bf8a30020003a0096
:1017a0009e0990000e099000fe0090006e009000cf
:1017b0009e0290003443200084825200c500320013
:1017c0000a003c00b4fc2f000428e100140034009f
:1017d0008301d1000281d3008180d3000080d30037
:1017e0008502e800faff3a00ba003700b400200092
:1017f0000428e10007003c00000040008180480010
:1018000002014900838149008502e900faff3a009c
:10181000b00037000300280002002000010037005c
:101820006011b8006000b800aa0037002800fa0074
:10183000889fbe008a9fbe008c9fbe0003866b00ff
:10184000900007006400e100440032006408e100f9
:101850004a0032006100e100460032006108e10008
:1018600049003200ec0647006000b8003d02be00af
:101870003d03be00f48657006011b8003d04be0071
:101880003d05be007d0320000b0037000000a000d6
:101890008d06e900130032000402420085824a00ee
:1018a00006034b0087834b00000040008180480006
:1018b00002014900838149000802520089825a00ce
:1018c0000a035b008b835b00f0ff3b0008024200d1
:1018d00089824a000a034b008b834b008d06e90086
:1018e000edff3a008482720086827200f707b20030
:1018f0008782720001003200150020001e04900053
:101900003e0b900006035400e63fb0000368a300be
:10191000070032000000a7000500a0008301d100ed
:101920000281d3008180d3000080d3000603e80049
:101930008301d1000281d3008180d3000080d300d5
:101940000002eb000482d2006700070003f0a10050
:101950000cf0a70003f0a0005e003700640247000f
:101960006408e100580032003400be003401be00bb
:10197000f6ff37006108e100530032006011b80043
:101980006000b800f1ff370003ff270002002000cd
:10199000fbff3700889fbe00830478000300e0004f
:1019a0002c00350003003c0000827000040271002e
:1019b0002600320036432000c50020008383cf007c
:1019c0000a0039000541b1008283cf0007003900c9
:1019d0000541b1008183cf00040039000541b10009
:1019e0008083cf00010039000541b10085c3530059
:1019f0006022b800120032000a003b0084827200ac
:101a0000610260008301d1000281d3008180d30094
:101a10000080d3000603e8008743e800f7ff3a00a0
:101a200007003700000040008180480002014900a3
:101a3000838149000603e9008743e900f9ff3a0082
:101a40002900070009f0a70003f0a0004f04be0022
:101a50000000060060001000e0801800600119001e
:101a6000e0811900d3ff3b00033e2c00f7ff370055
:101a700007f0a200bffe37004f89de008201780028
:101a8000c4ff3700680447000294be000094be0003
:101a9000fc0447008694be008494be0009007800d0
:101aa00066000700080078006400070099007800cd
:101ab000814f70000b003b000800be009300070040
:101ac0004f00b10003003700f3ff2700f2ff2f00a3
:101ad0006110b9004f06be004f05be004f04be00a6
:101ae0000080fa00000006001800200057002000c7
:101af000080453000d003d000600200097fc2f0055
:101b00000740e1001e003400848272006102600020
:101b10008301d1000281d3008180d3000080d300f3
:101b20000804e800f8ff3a00470020006104600064
:101b300005047400040464000d00320061004000dc
:101b4000e080480060014900e081490003b8a50039
:101b5000070032000603e8006538e10004003a009f
:101b60008301d1000281d3008180d3000080d300a3
:101b7000f87f20000830e1000300350008037800fa
:101b80006000b8006011b8004433dd00f300b2001b
:101b90008301730000000600889fbe008a9fbe007c
:101ba0008c9fbe000404be000605be00809fbe00e0
:101bb000829fbe0063000700040678000800be0094
:101bc0000a01be005f000700840678004f03be00d4
:101bd0004f02be008d4f76007fb097001300330098
:101be000f0ff2f008b8f6b0006003b000d06660098
:101bf0000c00a7000a00370007f0a6001000200024
:101c00000a003700880f5200898f5a008a0f5b0044
:101c10008b8f5b00030039001000200001003e00a4
:101c20000000200007f0a7000000ea004f06be00f9
:101c30004f05be004f04be00000006008000780083
:101c40005002be005003be004439de00f700b2006f
:101c5000f37f200003016100090032000218e10057
:101c600016003a00850172008301730083817300be
:101c70000008200015003a00400020001300370043
:101c800085017200830173008381730005003a00af
:101c900004a8be0006a8be00100020000b003700fc
:101ca0000201e9000402420085824a0006034b005b
:101cb00087834b000748a300f9ff32000740a000cc
:101cc00004a8be0006a8be002000200080009800e6
:101cd00092009800000006000003be000dfc070003
:101ce0006220e100020032000600be00050005008f
:101cf000e507b100f107b20004f023008480700012
:101d000007f0a70001f0a00024000500e4824000d5
:101d10001078a30007003200640240001178a3008d
:101d20003400be001401be00040032000330a700de
:101d3000000006003500be001501be000330a00003
:101d40000000060005ff2700058261000700320041
:101d50000428e1000100320024000500060007000d
:101d600001003a00440005000408050002000700d5
:101d7000f9ff3a00140005006f82610081027000d3
:101d80008502710085027200000006008001780063
:101d90000001780031407800005978000004e0002c
:101da000fcff3a00030078000000060010417800b4
:101db000b141510003003a000000e8000204e000d5
:101dc000faff3a000300fb00000006000000fa00e2
:101dd000cfb897006881570000e02000b3000700eb
:101de0000080fa00000006000c00fa00a0bf9f006f
:101df000c0bf9f0032000700b0bf9f00f0bf9f0030
:101e0000100c2000d0bf9f0074815700efb09700e6
:101e10006c805700cf0507000080fa000000060024
:101e20000c00fa00889fbe0000047800cfb0970035
:101e3000f0ff2700d0bf9f008004eb0099bf9f00f8
:101e400088bf9f00a8bf9f00200c2000b0bf9f004c
:101e50007881570070805700940007000fb89700f2
:101e6000094878000fb8970008045000080078006f
:101e70004f04be000080fa000000060081017800d7
:101e80000002eb000b003700e44078000104e000a2
:101e9000030032000402e80093cf50000400320037
:101ea0008180fb001380fb000080500000000600d2
:101eb0008301e800820f5200f3ff3a0000000500a2
:101ec000800078003004e000feff3a00010050007e
:101ed0000000e9000000060000037800800278009e
:101ee000020278008001eb00080037000402e900dc
:101ef00063c07800805a78008301e8000004e000a5
:101f000002003a008000eb0006003700828f51008b
:101f1000f6ff3a00fbff37000040eb0080f07a004c
:101f20008100e800848f5000fbff3a000600780033
:101f3000000006008001eb000200370061f079002c
:101f40008301e800828f5100fcff3a000000060088
:101f5000889fbe008a1f7800804078000004e0005f
:101f600021003d008040ea00d0c6b30080cf500081
:101f7000090034008104fb00420620001100090022
:101f80008204d80000017800010078004311dd00d0
:101f90008abc20001f0037000100fb0083bc20002a
:101fa00039003700a2002000110009000200d8000b
:101fb00000017800010078004311dd0003014100b9
:101fc0004300dd00030040003002be002003be00dd
:101fd00042209000d2209000f221900062219000d7
:101fe00093fc07002e003700d0c6b30080cf50000e
:101ff000230034008104fb00420620001100090088
:102000008204d80000017800010078004311dd004f
:102010008ac720000a014100a80020001100090021
:102020000800d8004300dd000a0040004022900074
:10203000d022900060239000f0239000028890004e
:1020400092889000b28990002289900078fc070065
:10205000801f780001027800110009008804d80070
:102060000102fd004f0078000402fb004322dd0066
:102070000a0242005403be004402be00d8ff3700eb
:102080000100fb0083c72000eacf5000c5ff3c00e1
:102090004300dd00030040005001be004000be00d0
:1020a0004f0578004f04be00000006008f03b0000b
:1020b000889fbe008a9fbe008c9fbe008e1f780046
:1020c000e0b79f00f1b79f0082bf9f000000eb00c8
:1020d000a0b79f00e60437008001eb0050c2b300b8
:1020e00080cf5000090032000100fb00efb09700e4
:1020f000e6060700e10f4000dd043200afb09700b4
:102100008100e800a1b79f00d90437007fb1970094
:1021100092407800d0c2b30080cf50000c00320053
:1021200007003c006d40500080cf50000d00320091
:102130006b40400080cf500019003a000e0037007d
:1021400000c3b30080cf500015003a000f003700e5
:102150000330a0007fb297000402e800f4b79f00ac
:10216000eaff37000300a000ffb297008502e800f5
:10217000f5b79f00e5ff37000310a0007fb697007a
:102180000c06e800fcb79f00e0ff37000320a0002a
:102190007fb097000000e800f0b79f00dbff37003a
:1021a0000318a300010032000300a1000338a300bc
:1021b000010032000320a1000100fb0002fd2f00fe
:1021c00002004000e90f500010003e008000eb00cc
:1021d000c1b79f00020278004fb197006a10b900a2
:1021e000ffb297001501fb0000014100040141000e
:1021f000c2b79f005500fb00f5b79f0004004000e8
:10220000e90f50000d003e00f3ff37000006eb0021
:10221000ccb79f00a0c2b30080cf500007003a00a7
:102220000fb89700c000780080bf9f00c1b79f0023
:102230007fb197000201e800f2b79f00e0c2b3004f
:102240007fb29700944f100021003a008306780077
:102250000de0a0008400e80064405000914f1000a1
:1022600004003200f1b79f008002eb00b5b79f0079
:10227000100037000fbe97004c0078008cbf9f0005
:10228000b0b79f00ffb097008180e800f1b79f00d2
:10229000130037003fb297006a20b90000004100e8
:1022a00003004000b0b79f00ffb297008502e8002e
:1022b000f5b79f007fb697001c01fb0003fd2f00c0
:1022c00003004100e90f5000f2ff36000400370020
:1022d000830678000dc0a0000000eb00b0b79f009f
:1022e0007fb19700b2407800f2b79f00c17f9f0096
:1022f000c0c6b30080cf50002700320014003c005d
:102300006840500080cf50009d00320009003c0022
:102310006c40500080cf5000290032006b404000dc
:1023200080cf5000720032000104e00056043200f9
:102330008e00370060c6b30080cf50001c00320012
:102340006340400080cf500088003a008c00370086
:1023500030c7b30080cf50001c00320007003c00a3
:102360006440500080cf5000130032000040e8006d
:1023700080cf50007d003a001100370050c7b300f5
:1023800080cf50007d0032006340400080cf50007d
:1023900076003a000b003700000028000d48a3002b
:1023a00001003a000001200080867600ccff370053
:1023b0000da0a000720037000d60a0007000370073
:1023c0000d50a0000d70a0006d0037008fb9970070
:1023d0004300780083bf9f00000478000000e00005
:1023e00001003a0088dc20008004eb000100370087
:1023f0008104e80089007800088044001004e000af
:10240000fbff3a003fb297000400e00003003200f7
:10241000890f520001003100840478000007eb00ae
:10242000cfb29700898f5200010036000987520011
:102430004368de00e106600019003a000d067800ee
:1024400009003700efb09700000220000f060700d8
:10245000e10f4000030032002fb097000000e800b9
:10246000a0b79f000c06e8008e0f5600f5ff3a005b
:102470000087eb000a003700880078003100fb007d
:1024800001047800efb0970000060700e10f40005c
:1024900003003200afb097008100e800a1b79f00b1
:1024a0000900e90080047800e10f4000f2ff3a00e3
:1024b0000006eb000d00e0000a003a00ec033700d4
:1024c000efb0970000022000f0050700e10f400088
:1024d000030032002fb197000201e800a2b79f006d
:1024e0000c06e8008e0f5600f5ff3a00e0033700b7
:1024f0008fb997004300780083bf9f00cf80de0034
:1025000001017800820178000205be000004be00cf
:102510000203be000002be004822de00482edd009d
:1025200004027600c47f9f000d48a3000a00320019
:102530000404e00008003200e14f420006003200cf
:10254000d1fb2f0001804700044878001840980014
:102550002900200002003700d07f9f0019002000d2
:10256000d2fb2f0002844700a6ff3700c3fb2f00d9
:102570000384470019002000a2ff37000d0cb300b0
:102580000070200000826600270232000dc8a30000
:102590000200320064002000b4b79f000d48a30081
:1025a000050032000fba97004401be004400be008f
:1025b00084bf9f00040037008fba97004500be001b
:1025c00085bf9f008ffb0700e0af9f00f1af9f002a
:1025d00082b79f0093b79f006022b8006033b800b5
:1025e0006fa89700ffa897000fb197009fb19700c1
:1025f000a3fb07000000e0000a003d006fa8970061
:10260000ffa897000fb197009fb1970003f0a200b9
:10261000e0af9f00f1af9f0082b79f0093b79f008c
:102620003d00b3000000eb0080a79f006022b800cf
:102630006033b8006fa89700ffa897000fb197000c
:102640009fb1970093fb07000000e00034003200c8
:102650006fa89700ffa897000fb197009fb1970050
:1026600091fb070003fc2f0003814700b9fb070023
:102670000fa097000000e9006300b900a20020004d
:10268000110009000200d8008000fd0081a79f0012
:102690000100e00002003d000100e90080a79f006a
:1026a0000fa497000840ea0029fe07006faa9700d0
:1026b000ffaa97000fb397009fb39700dcfa0700bb
:1026c000a0af9f00b1af9f00c2af9f00d3af9f00ec
:1026d0006022b8000600200007ff230068fb070007
:1026e0000000e00002003d000800e9000b00370098
:1026f0006022b80006002000470224002fa897009f
:10270000bfa897004fa99700dfa9970094fb070087
:102710000000e000020035000800e80080a79f00ec
:102720003fb29700f80f520057003c00d0c6b300ec
:10273000804f5200290036000485fb00420620002d
:10274000110009000285d80000017800010478001a
:102750004311dd008bbc20000b0141006022b8005a
:102760000600200007fe2300028890009288900057
:10277000b289900022899000adfa0700a9002000dc
:10278000809fbe00110009000984d8000004780071
:102790004f00be004344dd000b044400482290007b
:1027a000d822900068239000f8239000a0fa070038
:1027b000801f780001027800110009000985d80007
:1027c0000102fd004f0078004322dd000b024200b1
:1027d0005403be004402be001f0037000480fb000b
:1027e00089bc2000ea4f520014003600a2002000ed
:1027f000110009000280d80000017800010478006f
:102800004311dd00090141006022b80006002000ec
:1028100007fe230042209000d2209000f221900079
:102820006221900082fa07004344dd00090444005d
:102830003802be002803be00070037004300dd0059
:10284000090040006022b8000600200007fe2300b7
:102850005001be004000be0075fa07000002be0035
:102860000203be006fa89700ffa897000fb1970062
:102870009fb197003ffb0700e0af9f00f1af9f00c3
:1028800082b79f0093b79f000fa49700e90f5400f1
:1028900015003c006022b8006033b8006fa89700b4
:1028a000ffa897000fb197009fb19700f9fa0700b2
:1028b0000000e000320032006fa89700ffa89700e8
:1028c0000fb197009fb19700a7fb0700e00f5000e2
:1028d000e08f5800e00f5900e08f590028003a00bf
:1028e000e10f5400260034000400200005002e00f3
:1028f000b6e02200170124002fa89700bfa8970078
:102900004fa99700dfa99700ddfa07000000e0005b
:1029100002003d00730054000100370072005400b3
:1029200080a79f000fc0970089fd0700a0af9f0000
:10293000b1af9f00c2af9f00d3af9f000002be00a7
:102940000203be006fa89700ffa897000fb1970081
:102950009fb19700b5fb070083fb07000205be008f
:102960000004be006000b8006011b800a0a79f007e
:10297000b1a79f00c2a79f00d3a79f002e003700da
:102980006fa89700ffa897000fb197009fb197001d
:1029900075fb07000205be000004be00e00f5000fa
:1029a000e08f5800e00f5900e08f59000200350019
:1029b000f8fb070013003700100020000100200082
:1029c0006011b80008006000898060000a016100a1
:1029d0008b8161008b03d1000a83d3008982d300ed
:1029e0000882d3000000720081807200020173002f
:1029f00083817300e7fb07000002be000203be00f4
:102a0000dcfa07000002be000203be006fa89700b8
:102a1000ffa897000fb197009fb1970014fc070023
:102a2000a0a79f00b1a79f00c2a79f00d3a79f00a8
:102a30000000eb0080a79f0014c0b30085d22000e7
:102a40000b0037000400fb004300dd0005004000e0
:102a50005001be004000be000040e10001c8e1009e
:102a600002d0e10003d8e100030039000442e8008d
:102a7000f44f5200f3ff3a00c47f9f000400fb00b4
:102a8000bfb09700008040008fa097000100400079
:102a90004fb1970000075100bfb197000300e0005d
:102aa000010032000e07e900638066000100320079
:102ab0000e07e9000d28a30026003200e180660021
:102ac0000d18a3000c003200d00220000100e0002d
:102ad00001003a000080e900efb097006b040700a6
:102ae000e10f4000180032002fb297000402e80006
:102af000a4b79f00140037000100e000120032006c
:102b0000efb097000002200060040700e10f4000d2
:102b10000d003200afb297008502e800a5b79f0014
:102b200009003700efb097000003200057040700aa
:102b3000e10f4000030032002fb697000c06e800ba
:102b4000acb79f000e07e9000e00e000f5ff3c0067
:102b50003d0037000d38a3000a0032000b0037009b
:102b6000efb097000002200048040700e10f40008a
:102b7000030032002fb097000000e800a0b79f00cc
:102b80000e07e9000e00e000f5ff3c00e180660062
:102b90000d18a3000c003200d00220000100e0005c
:102ba00001003a000080e900efb097003704070009
:102bb000e10f400024003200afb097008100e80030
:102bc000a1b79f00200037000100e0001e00320086
:102bd000efb09700000220002c040700e10f400036
:102be000190032002fb197000201e800a2b79f0040
:102bf000150037000000fb004300dd0081d22000fb
:102c0000010040003002be002003be000800be00ec
:102c10000a01be00f5f80700a4002000050020000e
:102c20006033b800f8f807000003b000efb0970079
:102c300016040700e10f400003003200afb1970017
:102c40008301e800a3b79f004f7a97000440e90092
:102c5000c07f9f00e14f4000e6ff3a000b003700c5
:102c6000efb097000003200008040700e10f4000c8
:102c700003003200afb297008502e800a5b79f00bd
:102c80000fa097000000e90080a79f000fa0970009
:102c90000000e000f2ff3c003fb6970020c1b30007
:102ca000f20f560001003c006fe09700c07f9f00cc
:102cb000cf7897000100fb003fb197000000510062
:102cc000e0a79f000104e00008003200efb0970089
:102cd000e0022000ed030700e10f40000300320096
:102ce000afb197008301e800a3b79f004f7897002a
:102cf00097fc07000002be000203be002fa0970051
:102d0000bfa097004fa19700dfa1970048f90700e7
:102d100095fa07001e0037000000fb004300dd00ad
:102d20008cd220000c0040003002be002003be0008
:102d30000800be000a01be00acf80700a400200095
:102d4000050020006033b800aff807000003b000b2
:102d5000efb09700cd030700e10f40000300320001
:102d60002fb297000402e800a4b79f00cf7a970023
:102d70000500fb004300dd000c0040003002be00f7
:102d80002003be000800be000a01be009ef8070036
:102d90000205be000004be004f7e97000c40e90013
:102da000c07f9f00e14f4000dbff3a000006eb00d0
:102db00009003700efb0970000032000b3030700bd
:102dc000e10f4000030032002fb097000000e80040
:102dd000a0b79f000c06e800efa09700810f5600f7
:102de000f4ff3a000d38a300a10132000e00e0000c
:102df0009f0134000006eb00efb0970000022000b6
:102e0000a2030700e10f4000030032002fb197003a
:102e10000201e800a2b79f000c06e8008e0f5600e2
:102e200093013200f4ff37000d007800000cb2006f
:102e300028003a000d00e00005003d008fb9970022
:102e40004305be004304be0083bf9f00140037004b
:102e50000d48a3000b0032000fba97004400be00db
:102e600084bf9f004f89de00cf91de000002be00cc
:102e700002037800820378000605be000404be0049
:102e8000070037008fba97004500780085bf9f0084
:102e900000047800cfc4de00090578008a057800b8
:102ea000e00f5400e08f5c00e00f5d00e08f5d00fc
:102eb00020003d003d00b3006000b8006011b80084
:102ec00008045000898458000a0559008b85590070
:102ed000180037000d00e00005003d000fbe970010
:102ee0004c05be004c04be008cbf9f001100370093
:102ef0000d48a300080032008fba97004500be00bd
:102f000085bf9f0004017800840178000205be009f
:102f10000004be00070037000fbe97004c00780089
:102f20008cbf9f0000047800090020000a002000e8
:102f30000b0020003fb097000000e00007003a00bf
:102f4000e00f5400e08f5c00e00f5d00e08f5d005b
:102f500002003a0011002000b1b79f000d07780071
:102f60000e0cb20000042000800f57002f0032002a
:102f700003003c000e00e000070032003f00370075
:102f800000082000800f570014003200000c2000c1
:102f9000800f570039003a0014c0b30085d22000da
:102fa0000b0037000400fb004300dd00050040007b
:102fb0005001be004000be000040e10001c8e10039
:102fc00002d0e10003d8e1002b0039000442e80000
:102fd000f44f5200f3ff3a002700370000012000b1
:102fe000010020006011b80014c0b3000040e100ef
:102ff00001c8e10002d0e10003d8e1001e00390061
:10300000450020000000d0008180d2000281d20063
:103010008381d2008502e900faff3a000442e80009
:10302000f04f5200f1ff3a001300370080002000fb
:10303000010020006011b80014c0b3000040e1009e
:1030400001c8e10002d0e10003d8e1000a00390024
:103050003c0020000000d0008180d2000281d2001c
:103060008381d2000c06e900faff3a000442e8002e
:10307000f54f5200f1ff3a00c47f9f00cf789700d0
:103080000100fb003fb19700820f500002003d009d
:10309000c27f9f0004003700bfb19700808f5100ae
:1030a00001003d00b0b79f004fb297000400e00060
:1030b0000400320063806600020032000402e9006e
:1030c000c4b79f000de8a3000b003200cfb29700f9
:1030d0003fb697008c8f520003003c000000eb00cd
:1030e000c0b79f0004003700cfb097003fb19700f2
:1030f00082805000c1b79f00cf7997000300fb008a
:103100000002eb0094a79f00cfb29700808f52007f
:10311000020034000080520090a79f000d28a300f9
:1031200037003200e18066000d18a3000c00320069
:10313000d00220000100e00001003a000080e90018
:10314000efb09700d1020700e10f40000e003200ff
:103150002fb697000c06e800acb79f000a003700b6
:103160000100e00008003200efb0970000022000ec
:10317000c6020700e10f4000030032002fb09700a5
:103180000000e800a0b79f009fa097000100e000aa
:103190000f0032000006eb00efb0970000032000a4
:1031a000ba020700e10f4000030032002fb1970080
:1031b0000201e800a2b79f000c06e8009fa197005b
:1031c000830f5600f4ff3a000002eb0094a79f0023
:1031d000bfb29700c328dd0000d2200080804000ed
:1031e00091af9f004228dd006400500080af9f0037
:1031f0006328b900f0a79f006306500082003700e3
:103200001fa697000c00e0001100320068806600e5
:103210000f003a0000067800efb09700000220008f
:103220009a020700e10f4000030032002fb0970020
:103230000000e800a0b79f000c06e8009fa09700e0
:10324000810f5600f4ff3a000001eb0092a79f00a7
:10325000e18066000d18a3000c003200d0022000af
:103260000100e00001003a000080e900efb09700a3
:1032700086020700e10f4000d5ff3200afb1970092
:103280008301e800a3b79f00d1ff37000100e000f1
:10329000cfff3200efb09700000220007b02070052
:1032a000e10f4000caff32002fb297000402e8008d
:1032b000a4b79f00c6ff370000042000800f57000e
:1032c0003000320003003c000e00e0000700320036
:1032d0003d00370000082000800f57001100320029
:1032e000000c2000800f570037003a001fa89700fd
:1032f0003002be002003be000800be000a01be006e
:103300003af70700a4002000050020006033b80051
:103310003df7070004c3b30004424000c47f9f0090
:1033200029003700f5dc2000d5b79f000d58a30019
:1033300002003a0000de2000d0b79f0014002000f9
:10334000050020006033b8008fa897008100e900d5
:10335000050033000402d0008582d2000683d2002b
:103360008783d200f9ff37000800be000a01be00c3
:103370001ef707006f0060005fb1970062407800a1
:103380001000370014002000050020006033b80052
:103390008c0178008301e900050033000402d000ad
:1033a0008582d2000683d2008783d200f9ff3700de
:1033b0000800be000a01be000cf70700674060006d
:1033c0000043b000c07f9f004f7a97000400fb00cd
:1033d000efb097002d020700e10f4000030032001c
:1033e000afb297008502e800a5b79f001fa897001d
:1033f0006800500090af9f008fa89700e4805000b5
:1034000081af9f0063065600d0ff2f003fb19700a9
:103410000090b900ffa197000080410063005000b8
:10342000800f5600a4ff3a000d38a30010003200b0
:103430001fa297000400e0000d0034000006eb001e
:10344000efb097000002200010020700e10f4000db
:1034500003003200afb297008502e800a5b79f00d5
:103460000c06e8001fa09700800f5600f4ff3a00fa
:103470007fb19700b2407800f2b79f00c17f9f00f4
:103480000104e00014fb3a002fb097004f077800ca
:103490004f06be004f05be004f04be008f03b100b3
:1034a00000000600889fbe00000478008144780078
:1034b00000fd2f0000004400e90f500002003e0014
:1034c000000178000d0037000800780094f3070031
:1034d0000000e000030032000800780096f30700c7
:1034e00000047800080078009af307000000e0006c
:1034f0000700320090fa2f00000144000980fb0011
:10350000800f510002003d000280fb0001003700e7
:10351000f00f20004f04be0000000600881f780056
:1035200000718000200207000004780093f3070078
:103530000000e000faff3a00e10f4400030032000f
:1035400001718000080078004b0207004f047800ea
:10355000000006008f04b000889fbe008a9fbe0056
:103560008c9fbe008e1f780081bf9f00820678006e
:10357000007188000040eb00e0ef9f00af013700d2
:103580008884fb00090078007cf307008000780045
:103590000000e00002003200e0ff0700a701370052
:1035a00050c2b300804f540092013a000fbd970003
:1035b00022c0b300c2ef9f00d1ef9f000147780007
:1035c0000300370041c0b300c1ef9f000fbd97005b
:1035d0000fb99700b240780082bf9f008184fb0042
:1035e00070c6b30080cf50001d003e0000c0e9004f
:1035f00080cf50003a0031007940500080cf500019
:10360000b60032000e003e006740500080cf5000f0
:103610003300320006003e000104e00028003200c2
:103620007b40500080cf5000fb003a00280037005c
:1036300070c4b30080cf5000f7003a002800370074
:1036400030c6b30080cf5000dd003200a9003e003c
:103650006b40500080cf5000ef003a00110137005e
:10366000f0c6b30080cf5000a400320008003e0036
:103670006640500080cf50009e0032000e0039009e
:103680006340400080cf5000e3003a0093003700d1
:1036900050c7b30080cf5000960032006340400016
:1036a00080cf5000ff0032006540500080cf5000b6
:1036b000d9003a009300370020c0b3008b003700d8
:1036c000efe897000104e000f3003a000f01370033
:1036d0005fe997000241e800d2ef9f00bbff37008f
:1036e0008eff07000e04e00001003a00bec3b300e5
:1036f00000718000ac01070000017800d0022000ba
:10370000800f510005003200c0fa2f000f0040006a
:10371000d0b79f000044eb0014003700c1fa2f001f
:103720008f80400082587800d1b79f0000718000e0
:103730009d010700000178000e47e900f5ff370002
:103740005fb0970002587800d0b79f00e0022000d9
:10375000800f510001003a000844e8000071800029
:1037600091010700000178000e47e9000e04e00017
:103770000400320000fd2f0000004100e90f50005e
:10378000efff36000804e00003003a00e0022000ea
:10379000800f5100eaff32000e04e0002d003200dd
:1037a00050062000800f510003003200500420001a
:1037b000800f510027003a005fb49700025c780048
:1037c0000071800078010700000178008e44e90054
:1037d00002003a00d8b79f001e003700d002200038
:1037e000800f5100050032000080e900800f510079
:1037f00002003200d8b79f0012003700024c780058
:10380000dfb097008180e800d1b79f000071800091
:1038100065010700000178008ec4e9000700370049
:103820005fb0970002587800d0b79f000071800009
:103830005d010700000178008944e9000904e00007
:103840000400320000fd2f0000004100e90f50008d
:10385000f3ff3600dfb097008048eb00e10f410036
:10386000030032000171800002007800820107002d
:103870005fb19700c0fa2f000f004000800f510089
:1038800004003a00efe897000104e000f5003a0078
:103890009e0037005fe997000204e000e7003a006d
:1038a0006fe897000040e800e0ef9f000d81e9001d
:1038b000cfe89700e2cf5000d8003e0082067800a3
:1038c000120478008000eb00c0fa2f000f004000c7
:1038d00086010700008cbe00d80037004fe9970032
:1038e000e24f510037ff320080c0b300c0ef9f00ad
:1038f00036ff3700acc0b3006b0037008cc0b3009c
:103900006900370005ff0700dfe897000104e000c9
:1039100002003a004d017800d2b79f00007180008c
:103920002101070000047800e10f4000530032003d
:103930008e447800120037000a85e8008abf9f0095
:10394000160037000fb997001200fb00800f5400db
:10395000f9ff32005fe897000004e00003003a003e
:10396000dfb0970088587800d1b79f008944e900fc
:103970000a003200007180000b010700000478008b
:103980000800e800e10f500004003600080078004d
:103990007af207000000e000eaff32005fe99700da
:1039a0000204e000a5003a006fe897000040e8003c
:1039b000e0ef9f00dfb09700824878009f0037005b
:1039c0005fe997000204e00005003a006fe8970005
:1039d0000040e800e0ef9f00cd007800d1b79f00e5
:1039e00000718000f0000700e10f40008700320006
:1039f000dfe897000104e00003003a005fb19700a0
:103a000000597800d2b79f000e47e9004240a90054
:103a10008a003400f2ff37000180fb0008fd2f0010
:103a200008004000e90f50000e003e000a00780038
:103a30002202070000477800880078000300370062
:103a40000fb897000000e80080bf9f000fb99700f3
:103a50001200fb0001004000e90f5000f8ff3600a3
:103a6000dafe370000718000cf000700808f54001d
:103a700072003200e10f400005003a006fe8970045
:103a80000004e0007a0032008040780076003700c1
:103a900001718000f80007006fe997000280fb00c9
:103aa000740037000cc1b3009cfe07000071800059
:103ab000bd000700000578000040eb0080ef9f008c
:103ac000d0022000800f550005003a0000718000f0
:103ad000b50007000005780011c0b30081ef9f001a
:103ae0008c4078000a0078006efe0700e14f40002d
:103af0000b003a00017180000a007800de00070028
:103b00006fe997000204e000e3ff3a0000718000d3
:103b1000300090000048a3004e00320054003700ef
:103b20008e4578006044b8000c81fb000300200043
:103b30000800be0089f207000004be008c40780037
:103b40000a00780057fe07000080fb0001002000fb
:103b500008044000898448008b45e90007003200d2
:103b60000071800090000700000578008c4078000c
:103b70004cfe0700e14f4000ebff3a008c4078001c
:103b80000a00780047fe0700e14f400003003a00ba
:103b9000017180000a007800b70007000fe8970065
:103ba0000004e0000200320060041400e0841c0005
:103bb000dfe897000104e00020003a006fe9970079
:103bc0000241e800e2ef9f004fe89700e44f500009
:103bd00003003a004d0078000888be001700370047
:103be0000d81e9008206780012007800080878004c
:103bf00012003700007180006b000700808f5400b6
:103c00000e003200e10f400014003a006fe9970007
:103c10000204e00016003200a0ff370082067800a0
:103c2000120478008000eb00c0fa2f000f00400063
:103c3000c6010700009cbe000294be000fb89700aa
:103c40003044780080bf9f000804e0004cfe3a003a
:103c5000040037000000eb0006003700017180000f
:103c600085000700efe897000180fb0001003700a6
:103c70000080eb004f0778004f06be004f05be00e6
:103c80004f04be008f04b10000000600889fbe00f4
:103c90000001780001047800b10090000118a30031
:103ca0003d0032000198a30003003a001800900084
:103cb0000000e00038003a000190a00031049800b4
:103cc00082047800f90fb200180090000000e000b4
:103cd00002003a0028009000000c7800ea8f54009f
:103ce00006003a00380090000078a30003003a0074
:103cf00088007800d0002000e4ff070098009000c2
:103d000058009000808f50000b0032000100e80046
:103d1000100498001800780009587800000c78000a
:103d200011c0b300c0e1200001487800ea8f5400c0
:103d3000060032001900370088007800094078003a
:103d4000e602070080047800140037003800900075
:103d50000088a3001100320018019000a800900014
:103d6000480090008df1070098009000810f5000ee
:103d700004003200380090000003b30030049800c3
:103d80008084eb000000eb001004980028009000f5
:103d9000000c7800010037008084eb0009007800f7
:103da0004f04be0000000600881f78000004780061
:103db000b00090000148a30007003a000108a300ea
:103dc000050032000198a3000800320010009000a6
:103dd0000000e00005003200380090000040a00024
:103de000300498008080eb00200037000190a10093
:103df00031049800180090000000e0000600340034
:103e00000000e9001004980018007800b080fb0062
:103e1000000c780006003700380090000068a3000e
:103e2000edff3a0008007800ef02070080007800fc
:103e3000380090000078a3000c003a00fa8f500080
:103e400008003a00280090000000e000e2ff320085
:103e5000180090000000e80010049800180ce90019
:103e6000ddff3700ed8f5000e2ff320001007800e7
:103e70004f0478000000060080017800e10f400048
:103e800017003200310090000008a3001400320037
:103e90000098a30012003a00210290000400e00004
:103ea0000f0032001101900051009000800f51006e
:103eb0000b00320011007800840f500002003a001d
:103ec0008008e800020037000200e8009000980037
:103ed0001100e900800878000348780001003700ed
:103ee0008081eb000300780000000600e6874700b1
:103ef000889fbe008a9fbe008c9fbe008e1f7800e8
:103f000000047800810678000100e0000300320020
:103f1000800e7800010037000804e800984478001b
:103f20000900fb0015f10700800078000000e000a8
:103f3000f9ff3a00d0c2b30080cf540003003a002a
:103f40000804e8001bc0b30005003700b0c2b3008e
:103f500080cf540001003a000804e8008145780051
:103f60000005eb000a0778006000b800f0b79f007a
:103f700081bf9f000b48a30005003a00e0c2b300d8
:103f8000984f100002003a000b44a0001e003700ba
:103f9000984478000900fb000cfd2f000c00400045
:103fa000e90f50001a003e000b14a0000b00fb00ac
:103fb000e90f5500110032000048a3000100320053
:103fc0000e07e9000a05e800a20020000300200017
:103fd0007fb097008fb8970060f107000cc14400d4
:103fe0000281fb00030020000000410081804900a5
:103ff000f0b79f0081bf9f00030037000048a30077
:1040000001003a000e07e8000804e800d9ff370075
:1040100050c6b30080cf5400040032000002eb0011
:1040200050c4b30080cf540032003a008801e80049
:1040300093407800d0c2b30080cf500002003a0015
:104040000b34a00003003700b0c2b30080cf500093
:1040500003003a008881e800010037008301e8008e
:104060009340780006c3b30086cf5000fbff3200b8
:104070000100fb0005fd2f0005004000e90f500086
:1040800003003600030478000002eb00160037003e
:1040900006c050000082fb000304e80018417800cd
:1040a0000200fb0005004000e90f50000e003e003a
:1040b0006a20b900064151000281fb000002410064
:1040c0000384e800984078000100fb0005004000f0
:1040d000e90f500004003e006a21b90006c05000fc
:1040e0000080fb00020240000b38a30001003200f8
:1040f0000402ea00040547000d00e000030032005e
:104100000b18a30001003200880e78007fb09700e2
:104110008fb8970019f107000004be000006be002a
:104120006011b80013f107006011b8000000e00052
:104130005900320030f82f00800f550003003d0079
:1041400020022000305e8800530037000008200065
:10415000800f55000a00340020022000305e8800e5
:104160000b08a300030032000200200003f82f0018
:10417000490037000200200003f8270046003700fe
:104180000a00e0001c003d000a05ea0006003700b6
:10419000922f2000530125000800be00b6f1070051
:1041a0000004be006a055500e90f5500f8ff3c0009
:1041b0000006eb0006003700020020000312240076
:1041c0000800be00acf107000004be000c06e800c9
:1041d0008a0f5600f8ff3a000806be0002002000d1
:1041e000030820000800be00e2f007000000e00025
:1041f00025003d001c0037000a00e00007003c00dd
:1042000021003700922f2000530125000800be0036
:1042100065f107000004be006a055500e94f55002e
:10422000f8ff3e000006eb00060037000200200009
:10423000031224000800be005bf107000004be006a
:104240000c06e8008a0f5600f8ff3a000806be0088
:10425000f2ff2f00f3f727000800be0050f107001f
:104260000000e000080034000b08a3000300320047
:104270000200200003082800070037000200200089
:1042800003082000040037000b08a30001003200df
:104290000df0a2000c01be000200be004f07780026
:1042a0004f06be004f05be004f04be006f00b100b8
:1042b000000006008000eb000cff370000017800d2
:1042c00000c2b300010037000201e800924078000c
:1042d00080cf5000fcff3200e9cf5000faff3200df
:1042e000d0c2b30080cf500003003a000201e800c2
:1042f00014c0b300050037000042eb00b0c2b300a9
:1043000080cf500001003a000201e8008000eb007d
:1043100005fd2f00040037006a08b9000080410045
:10432000850040000201e8009201fb000580410089
:10433000e90f5000f8ff36000404e00001003200ed
:104340008100ea000100780000000600f0874700c5
:10435000889fbe008a9fbe008c9fbe008e1f780083
:104360000006780081bf9f000100e00003003200da
:1043700080087800010037000c06e8001c44780033
:104380000800fb00fdef0700800078000000e0005f
:10439000f9ff3a00d0c2b300804f540003003a0046
:1043a0000c06e8001ec0b30005003700b0c2b30021
:1043b000804f540001003a000c06e80001477800e5
:1043c0000000eb00a0b79f00b0b79f006000b800ee
:1043d0006011b800c0b79f00d1b79f00e2b79f003f
:1043e000f3b79f000e48a30005003a00e0c2b300f7
:1043f0009c4f100002003a000e44a000300037002d
:104400009c4678000d00fb000003b100e90f50004e
:104410002d003e000e14a0000e00fb002fb19700ef
:10442000f20f5100210032000048a30003003200c7
:10443000bfb197008301e900b3b79f002fb0970089
:104440000000e800a0b79f006022b800060020002e
:10445000470224004fb09700dfb097006fb197007c
:10446000ffb1970072f307000004be000205be0012
:1044700001cdb30001c046000080fb00cf80de000c
:104480007df507000002be000203be000800be006a
:104490000a01be0037f40700c0b79f00d1b79f00e4
:1044a000e2b79f00f3b79f00050037000048a30064
:1044b00003003a003fb197000201e800b2b79f0045
:1044c0000c06e800c7ff370050c6b30080cf560087
:1044d000040032000002eb0050c4b30080cf56004d
:1044e00032003a008c01e80093407800d0c2b3005b
:1044f00080cf500002003a000e34a00003003700c5
:10450000b0c2b30080cf500003003a008c81e800b5
:10451000010037008301e8009340780006c3b30030
:1045200086cf5000fbff32000100fb0005fd2f008d
:1045300005004000e90f5000030036000306780034
:104540000002eb001600370006c050000082fb009e
:104550000306e8001c4178000200fb000500400053
:10456000e90f50000e003e006a20b90006415100dc
:104570000281fb00000241000386e8009c407800b5
:104580000100fb0005004000e90f500004003e0060
:104590006a21b90006c050000080fb000202400002
:1045a0000e38a300010032000402ea00bfb19700f8
:1045b000848641000fb897000000e000030032003d
:1045c0000e18a300010032000c0878004fb09700cd
:1045d000dfb097006fb19700ffb197000004be00f5
:1045e0000205be006022b8006033b800a4f30700e3
:1045f0006022b8006033b8000000e000ad00320077
:1046000030c02f00808f560003003d0020022000a4
:10461000305e8800a700370000402000808f5600e1
:104620000e00340020022000305e88000e08a30037
:1046300005003200f4ff2f00f5ff2f00f6ff2f00da
:10464000f7fe2f009b003700f4ff2f00f5ff2f002f
:10465000f6ff2f00f7fe2700960037000d00e00060
:1046600042003d000d04ea000e003700d4372c0054
:1046700045592200d69a2400274b25004fb09700b9
:10468000dfb097006fb19700ffb1970067f40700a4
:10469000c0b79f00d1b79f00e2b79f00f3b79f005c
:1046a0004806b10030062000800f5400efff3c00a8
:1046b0000e0037000400200005002200f6052a0045
:1046c000272024004fb09700dfb097006fb197000c
:1046d000ffb1970055f40700c0b79f00d1b79f0006
:1046e000e2b79f00f3b79f006a045400e90f54003b
:1046f000f0ff3c008004eb000d0037006022b800a2
:1047000006002000470224004fb09700dfb097005a
:104710006fb19700ffb1970044f40700c0b79f0046
:10472000d1b79f00e2b79f00f3b79f008904e8006c
:10473000888f5400f1ff3a004fb09700dfb0970028
:104740006fb19700ffb197000004be000205be00e4
:104750006022b800060020000701200048f307008f
:104760000000e0004e003d00430037000d00e00077
:104770000f003c004a003700d4372c004559220076
:10478000d69a2400274b25004fb09700dfb0970042
:104790006fb19700ffb19700a5f20700c0b79f0067
:1047a000d1b79f00e2b79f00f3b79f004d06b1005d
:1047b00030062000808f5600efff3c000e003700cf
:1047c0000400200005002200f6052a00272024000e
:1047d0004fb09700dfb097006fb19700ffb197001f
:1047e00093f20700c0b79f00d1b79f00e2b79f00c8
:1047f000f3b79f00ea865600e9cf5600f0ff3e006f
:104800000004eb000d0037006022b8000600200015
:10481000470224004fb09700dfb097006fb19700b8
:10482000ffb1970082f20700c0b79f00d1b79f0089
:10483000e2b79f00f3b79f000804e8008d0f540013
:10484000f1ff3a004fb09700dfb097006fb19700cb
:10485000ffb197000004be000205be00f4ff2f0068
:10486000f5ff2f00f6ff2f00f7fe27003cf30700af
:104870000000e0000a0034000e08a300040032002b
:104880006022b80006002000070128000900370058
:104890006022b80006002000070120000500370054
:1048a0000e08a300010032000bf0a2000802be00b7
:1048b0000a03be000400be000601be004f077800d8
:1048c0004f06be004f05be004f04be000f01b100f1
:1048d000000006008000eb009cfe37000200fa009a
:1048e000889fbe00a0ff9f0001047800b1009000e7
:1048f000810478000904b200020032000000fb00cd
:10490000360037000118a30005003a000103b30088
:1049100031049800190498000080eb002f00370044
:10492000580090000000e00006003a0048009000a7
:1049300012002000e680570098ee07001904980046
:1049400024003700280090000000e00008003a0032
:1049500080e1200020049800000c78002000200056
:1049600050049800100498000130a0003104980011
:1049700018019000a80090004800900087ee070002
:1049800028009000000c78000080eb0010049800d4
:1049900018007800aff8970001587800000c7800f4
:1049a0002ff89700ea4f50000a003a0038009000b4
:1049b0000088a3000700320018019000a8009000b2
:1049c0004800900075ee070019049800a8009000b8
:1049d000010c7800aff897000100fb004f04be0007
:1049e0000080fa00000006000200fa00889fbe0066
:1049f0008a1f7800000478000000eb001004980083
:104a0000380090008080eb000008a3003f003200d7
:104a1000c0e120001004e0001000320049df200057
:104a2000aadf20001a0078006c0545002010b200b3
:104a300021102000810f500002003a000900780088
:104a400037000700ec84440080e12000808f540090
:104a5000f4ff3a00c0e120000048eb00480090005d
:104a6000580190000200e0000d003a001204980086
:104a700012002000e88057007fee0700e10f500091
:104a800003003a000ff897008080fb001f003700fa
:104a9000380090000040a000300498001200370059
:104aa000a800900074ee0700100498000000e000d9
:104ab00003003200e10f40000d003a000300370010
:104ac000380090000040a00002003700380090003d
:104ad0000003b30030049800a8009000010c780097
:104ae0000000eb00100498008080eb000700370006
:104af000a8009000010c78000000e9001004980064
:104b000001007800b080fb00000c78000100780004
:104b10004f0578004f04be000080fa000000060038
:104b2000881f780000047800300090000008a3007f
:104b300007003200800078000120b20004003a0033
:104b400011049800a8009000010c780017003700ad
:104b50000018a300190032000098a30017003200cb
:104b6000a80090000100e00014003200180190003d
:104b70000200e000110032004800900007ee07003c
:104b800098009000810f5000030032003800900020
:104b90000003b300300498000000eb0010049800fc
:104ba00028009000000c7800380090000058a30006
:104bb000020032000080eb00010037000000eb0033
:084bc0004f047800000006001c
:020000040000fa
:0200000401f009
:04000000f4bf000049
:020000040000fa
:0200000401f009
:04000400ffff0000fa
:020000040000fa
:10000800fa500000fa4f00001a5000003a50000061
:100018005a500000fa500000fa500000fa50000050
:10002800fa500000fa500000fa5000004e3f00005d
:10003800fa500000fa500000fa500000f24f000099
:10004800fa500000fa500000fa500000e651000093
:10005800fa500000fa500000fa500000a8350000dd
:10006800fa500000fa500000fa500000fa50000060
:10007800fa500000a6470000783a0000fa50000045
:100088002e350000fa500000fa500000fa50000027
:10009800fa500000fa500000fa500000fa50000030
:1000a800fa500000fa500000fa500000fa50000020
:1000b800fa500000fa500000fa500000fa50000010
:1000c800fa500000fa500000fa500000fa50000000
:1000d800fa500000fa500000fa500000fa500000f0
:1000e800fa500000fa500000fa500000fa500000e0
:0800f800fa500000fa5000006c
:020000040000fa
:10010800fa5000007a5000009a500000ba500000df
:10011800da500000fa500000fa500000fa500000cf
:10012800fa500000fa500000fa5000004e3f00005c
:10013800fa500000fa500000fa500000f24f000098
:10014800fa500000fa500000fa500000e651000092
:10015800fa500000fa500000fa500000a8350000dc
:10016800fa500000fa500000fa500000fa5000005f
:10017800fa500000a6470000783a0000fa50000044
:100188002e350000fa500000fa500000fa50000026
:10019800fa500000fa500000fa500000fa5000002f
:1001a800fa500000fa500000fa500000fa5000001f
:1001b800fa500000fa500000fa500000fa5000000f
:1001c800fa500000fa500000fa500000fa500000ff
:1001d800fa500000fa500000fa500000fa500000ef
:1001e800fa500000fa500000fa500000fa500000df
:0801f800fa500000fa5000006b
:020000040000fa
:104bc80063750000720000004355000052090000a0
:104bd8002575000009250000750d00000073000010
:104be8007472000000530000545200000d000000d1
:104bf800737400007000000053540000500d000052
:104c0800007200007374000000520000535400004a
:104c18000d00000069640000730000006366000076
:104c280067090000257500000925000075000000cf
:104c380043460000470900002575000009250000cb
:104c480075000000257300000d000000737400005b
:104c58006f70000020620000616c00006c000000b2
:104c6800535400004f50000020420000414c000007
:104c78004c2000004f4b00000d0000007072000037
:104c88006570000061720000652000006c61000022
:104c9800756e0000636800002025000075000000a4
:104ca80050520000455000004152000045200000cd
:104cb8004c410000554e00004348000020250000ec
:104cc800642000004f4b00000d0000006c610000e4
:104cd800756e00006368000020620000616c0000cf
:104ce8006c0000004c410000554e00004348000095
:104cf80020420000414c00004c2000004f4b0000b7
:104d08000d0000007465000073740000206c000042
:104d18006173000065720000004c00004153000000
:104d28004552000020490000532000004f4b00006e
:104d38000d0000004c4100005345000052200000c7
:104d480049530000204e00004f540000204f00003f
:104d58004b0d0000006700006f200000746f00001a
:104d6800206f000072690000676900006e20000073
:104d780025750000004700004f200000544f000038
:104d8800204f000052490000474900004e20000013
:104d980025750000204f00004b0d0000006d00003d
:104da8006f76000065200000666f000072770000d3
:104db80061720000642000002575000020250000b5
:104dc800750000004d4f00005645000020460000c9
:104dd8004f520000574100005244000020250000b7
:104de8007520000025750000204f00004b0d0000c5
:104df800006d00006f760000652000006261000011
:104e0800636b0000776100007264000020250000d9
:104e18006420000025640000004d00004f5600008b
:104e28004520000042410000434b0000574100006c
:104e38005244000020250000752000002575000060
:104e4800204f00004b0d0000006d00006f76000041
:104e580065200000746f000020700000686f00007b
:104e6800746f0000646900006f6400006520000032
:104e780025640000004d00004f560000452000004a
:104e8800544f000020500000484f0000544f0000cd
:104e9800444900004f4400004520000025750000eb
:104ea800204f00004b0d00000073000065740000e7
:104eb8002073000070680000657200006520000023
:104ec80064690000616d000065740000657200008f
:104ed80020250000660000005350000048450000ef
:104ee8005245000020440000494100004d450000a3
:104ef80054450000523a00002025000066200000ba
:104f0800636d0000204f00004b0d0000007300008f
:104f18006574000020700000656e00006475000074
:104f28006c7500006d2000006c6500006e67000065
:104f3800746800002025000066000000504500004d
:104f48004e440000554c0000554d0000204c000018
:104f5800454e000047540000483a00002025000054
:104f6800662000006d2000004f4b00000d0000007f
:104f78007365000074200000646900007374000009
:104f8800616e00006365000020660000726f00001b
:104f98006d2000006c610000736500007220000045
:104fa800746f0000207300007461000072740000c8
:104fb800202500006600000044490000535400000a
:104fc800414e00004345000020460000524f0000bb
:104fd8004d2000004c4100005345000052200000c5
:104fe800544f000020530000544100005254000068
:104ff8003a20000025660000206300006d200000b4
:105008004f4b00000d000000736500007420000085
:105018007374000065700000706500007220000065
:105028006d61000078200000667200006571000064
:105038002025000064000000535400004550000083
:1050480050450000522000004d410000582000004b
:1050580046520000455100003a2000002564000037
:10506800204800007a2000004f4b00000d0000008f
:10507800726500006c650000617300006520000027
:105088007374000065700000706500007200000015
:10509800524500004c4500004153000045200000e7
:1050a80053540000455000005045000052200000b5
:1050b8004f4b00000d000000686f00006c6400009a
:1050c80020730000746500007070000065720000b5
:1050d800004800004f4c00004420000053540000da
:1050e8004550000050450000522000004f4b000082
:1050f8000d000000626c000075650000206c000067
:1051080065640000206f00006e000000424c000043
:1051180055450000204c000045440000204f000089
:105128004e2000004f4b00000d000000626c000094
:1051380075650000206c000065640000206f0000a9
:1051480066660000004200004c5500004520000043
:105158004c450000442000004f4600004620000057
:105168004f4b00000d0000006c61000073650000eb
:10517800722000006f6e0000004c000041530000d8
:1051880045520000204f00004e2000004f4b000009
:105198000d0000006c6100007365000072200000c3
:1051a8006f660000660000004c4100005345000097
:1051b800522000004f460000462000004f4b0000e0
:1051c8000d00000072650000626f00006f7400003f
:1051d80000520000454200004f4f000054490000b3
:1051e8004e4700002e2e00002e0d00000073000018
:1051f80065740000206700006c6f000062610000a9
:105208006c2000006f730000636900006c6c000084
:1052180061740000696f00006e200000636f000079
:10522800756e00007465000072200000256c000097
:1052380075000000474c00004f420000414c000040
:10524800204f000053430000494c00004c4100002f
:10525800544900004f4e0000204300004f55000005
:105268004e540000455200003a200000256c000012
:10527800752000004f4b00000d0000007365000012
:10528800742000004944000020730000747200007c
:10529800696e0000672000000049000044200000fb
:1052a80053540000524900004e4700003a200000c5
:1052b80025730000204f00004b0d0000000d00007a
:1052c8000d0d000000480000454c0000503a000059
:1052d8000d0000000d00000063750000720d000055
:1052e80000730000747200000d0000007374000069
:1052f800700d000000720000737400000d000000c3
:1053080069640000730d0000006300006667000018
:1053180009640000656c000074610000585b0000bf
:10532800257500003a250000755d0000094e000053
:105338005b250000753a0000257500005d0d000032
:1053480000730000746f00007020000062610000ac
:105358006c6c00000d0000007072000065700000a9
:1053680061720000652000006c610000756e00002d
:105378006368000020640000656c00007461000030
:10538800585b0000257500003a250000755d000097
:105398000d0000006c610000756e0000636800007d
:1053a80020620000616c00006c0d000000740000b9
:1053b80065730000742000006c61000073650000d4
:1053c800720d0000006700006f200000746f00007d
:1053d800206f000072690000676900006e200000fd
:1053e80066720000657100005b3100003a2500001c
:1053f800755d00000d0000006d6f0000766500000f
:10540800206600006f72000077610000726400007f
:1054180020640000656c000074610000585b0000a7
:10542800313a0000257500005d200000667200001a
:10543800657100005b3100003a250000755d0000d1
:105448000d0000006d6f000076650000206200000e
:10545800616300006b770000617200006420000047
:10546800646500006c740000615800005b31000046
:105478003a250000755d0000206600007265000096
:10548800715b0000313a0000257500005d0d0000d9
:10549800006d00006f76000065200000746f00004a
:1054a80020700000686f0000746f000064690000dd
:1054b8006f640000652000006672000065710000de
:1054c8005b3100003a250000755d00000d0000000a
:1054d800726500006c6500006173000065200000c3
:1054e800737400006570000070650000720d0000a4
:1054f800006800006f6c00006420000073740000f6
:105508006570000070650000720d00000062000008
:105518006c750000652000006c65000064200000c8
:105528006f6e00000d000000626c000075650000e1
:10553800206c000065640000206f000066660000b3
:105548000d0000006c61000073650000722000000f
:105558006f6e00000d0000006c61000073650000b4
:10556800722000006f660000660d000000720000e7
:10557800656200006f6f0000740d0000007300008a
:1055880065740000207300007068000065720000f8
:105598006520000064690000616d0000657400000a
:1055a8006572000020250000256600000d0000003f
:1055b8007365000074200000706500006e640000d0
:1055c800756c0000756d0000206c0000656e0000b1
:1055d800677400006820000025250000660d0000a3
:1055e8000073000065740000206400006973000007
:1055f800746100006e6300006520000066720000a0
:105608006f6d0000206c000061730000657200007f
:10561800207400006f2000007374000061720000a5
:105628007420000025250000662000005b2500008e
:1056380064200000256400005d0d00000073000078
:10564800657400002073000074650000707000002d
:1056580065720000206d000061780000206600007f
:1056680072650000712000002525000064200000fc
:105678005b31000030300000203500003030000081
:105688005d0d0000007300006574000020670000d5
:105698006c6f0000626100006c2000006f730000f6
:1056a800636900006c6c000061740000696f0000a1
:1056b8006e200000636f0000756e000074650000c6
:1056c80072200000252500006c7500000d00000008
:1056d8007365000074200000494400002073000036
:1056e80074720000696e0000672000002525000024
:1056f800730d000000730000706800006572000000
:105708006520000064690000616d00006574000098
:10571800657200003a200000256600002063000042
:105728006d0d000000700000656e000064750000db
:105738006c7500006d2000006c6500006e6700004d
:10574800746800003a20000025660000206d000003
:105758000d0000006469000073740000616e0000b1
:105768006365000020660000726f00006d20000075
:105778006c6100007365000072200000746f000007
:105788002073000074610000727400003a20000069
:1057980025660000206300006d0d00000073000006
:1057a800746500007070000065720000206d0000d4
:1057b800617800002066000072650000713a000000
:1057c8002025000064200000487a00000d00000039
:1057d800657800007065000063740000656400006f
:1057e8002070000065720000696f0000643a0000d4
:1057f8002025000066200000730d000000670000ef
:105808006c6f0000626100006c2000006f73000084
:10581800636900006c6c000061740000696f00002f
:105828006e200000636f0000756e00007465000054
:10583800723a0000202500006c7500000d00000081
:1058480075700000746900006d6500003a20000062
:10585800256c000064200000730d00000049000062
:105868004420000073740000726900006e67000035
:105878003a200000257300000d0000007965000043
:10588800730000006e6f000000730000686f000076
:10589800766500006c20000069730000206100003c
:1058a800742000006f72000069670000696e0000d4
:1058b8003a200000257300000d0000006c61000014
:1058c800736500007220000069730000206f0000fb
:1058d8006e3a000020250000730d000000700000e3
:1058e800686f0000746f0000646900006f64000056
:1058f8006520000069730000206f00006e3a000008
:1059080020250000730d000000740000656d000084
:105918007065000072610000747500007265000017
:105928003a200000252e000031660000430d0000db
:10593800003f00000d0d00000d0000000d0a0000e2
:105948005f4f000073630000696c00006c61000029
:10595800746f000072460000616900006c2000004e
:105968007472000061700000210d00000a00000040
:105978000d0a00005f4100006464000072650000c9
:105988007373000045720000726f000072200000ff
:105998007472000061700000210d00000a00000010
:1059a8000d0a00005f53000074610000636b000083
:1059b80045720000726f0000722100000d0a00009d
:1059c800000d00000a5f00004d61000074680000cf
:1059d80045720000726f00007220000074720000af
:1059e80061700000210d00000a0000000d0a00008f
:1059f8005f4100006c7400004f7300006369000091
:105a08006c6c0000617400006f7200004661000059
:105a1800696c0000207400007261000070210000b1
:105a28000d0a0000000d00000a5f0000416c000034
:105a38007441000064640000726500007373000024
:105a480045720000726f000072200000747200003e
:105a580061700000210d00000a0000000d0a00001e
:105a68005f4100006c740000537400006163000023
:105a78006b450000727200006f7200002074000015
:105a880072610000702100000d0a0000000d000086
