:020000040000fa
:080000000001040000000000f3
:020000040000fa
:1000080090010000900100009001000090010000a4
:100018009001000090010000900100009001000094
:100028009001000090010000900100009001000084
:10003800900100009001000090010000ea2d0000ee
:1000480090010000fa33000072340000342e0000e2
:100058009001000090010000900100009001000054
:100068009001000090010000900100009001000044
:100078009001000090010000900100009001000034
:10008800123900009001000090010000900100006a
:100098009001000090010000900100009001000014
:1000a8009001000090010000900100009001000004
:1000b80090010000900100009001000090010000f4
:1000c80090010000900100009001000090010000e4
:1000d80090010000900100009001000090010000d4
:1000e80090010000900100009001000090010000c4
:0800f8009001000090010000de
:020000040000fa
:1001080090010000900100009001000090010000a3
:100118009001000090010000900100009001000093
:100128009001000090010000900100009001000083
:10013800900100009001000090010000ea2d0000ed
:1001480090010000fa33000072340000342e0000e1
:100158009001000090010000900100009001000053
:100168009001000090010000900100009001000043
:100178009001000090010000900100009001000033
:100188001239000090010000900100009001000069
:100198009001000090010000900100009001000013
:1001a8009001000090010000900100009001000003
:1001b80090010000900100009001000090010000f3
:1001c80090010000900100009001000090010000e3
:1001d80090010000900100009001000090010000d3
:1001e80090010000900100009001000090010000c3
:0801f8009001000090010000dd
:020000040000fa
:10020000cfc520000eff20000e0188000000000076
:100210000c00070060092300010020001100070006
:10022000000020000000e000020032000000020098
:1002300000000000be3c0200000000000040da00a8
:100240000000fe004440a900c01620000000e000ad
:100250000300320000002000a00188004440a800f4
:100260000000060091018800800078000000eb008b
:1002700015003700e280400032a0b4009101ba00be
:10028000e280400032a0b4009102ba00e280400057
:1002900032a0b4000002eb00472bde00f507b200ed
:1002a000602ce10004003a000059eb008301e900f2
:1002b000fdff3e00040037006128e100010032002c
:1002c0000082eb00040007001101ba000200e00008
:1002d000e8ff3a00000006003159ba008301e90046
:1002e0000c0032002159ba008301e90008003200f5
:1002f0000400e00003003a00e280400032a0b400b5
:10030000f5ff370011d9ba008301e900faff3a007e
:100310008100e800e180400032a0b4000000060047
:100320000040da000000fe001004b10007003500b4
:100330009001b100040034007000b10003003500ea
:100340009001b10001003c00100005000000050014
:100350006900e100040035006d00e1000300340095
:100360000002b1000100320000000500100005008d
:100370001004b100030035009001b10001003c0001
:100380001000050000000500800078001104b10095
:10039000030035009101b10001003c000050a000b5
:1003a00000000600b010800066006000e60f5000fc
:1003b00002003a00e010800000000600e01080001b
:1003c000f00fb2000000060003f0a200889fbe00fc
:1003d0008a9fbe008c1f7800f3000700fa003300ec
:1003e0006450e1004f0032006420e100520032000e
:1003f00003826c0007003b000905d0000306d00013
:10040000820f54000c065d00020039000200320029
:1004100089017800030678008582550004003d00bc
:100420000003fd008103fd008502ea008b85420088
:10043000840f720002003b0060001000e080180092
:100440006011b8000005eb007a28e1000a003900cd
:1004500006007800c75ddd00f707b20087807500f1
:100460002d003700828171000a017800610560006b
:100470008180d1000080d3008502e900f9ff3b00b4
:10048000060440008784480002003b00600414001a
:10049000e0841c000988a300070032008a817100f3
:1004a00082817100610164008904d1000884d30055
:1004b0008b05e800170037000978a30013003a0005
:1004c0000b00e000130034008b05e9000804440031
:1004d00089844c000a4474000978a3000d003a0096
:1004e0000b00e000070034008b05e900080444001d
:1004f00089844c0001003a000b0020000978a30019
:10050000f7ff32000001eb0002003700828171002a
:100510000a0178007e0007000cf0a70001f0a0009f
:10052000b20037006420e10002003a00838f6c00c3
:10053000b20033000801be000200be00ab0037006d
:10054000889fbe008a9fbe008c1f7800960007001f
:100550009d00330003866c006450e1002e003200e1
:100560006420e100330032006150e1002f003200ce
:100570006120e1003100320085855500eb07b000b5
:10058000090020000804200005003700080444008a
:1005900089844c000a0031000603430087834b0026
:1005a0000001530081815b00f8ff33000203be00ad
:1005b0000800a0000804440089844c00f6ff3900bc
:1005c000c639dd00830173000100320013002000f2
:1005d0008904d1000884d3000998a30005003200e3
:1005e0000800a7000300a0008904d1000884d300fc
:1005f0008b05e8008904d1000884d3000001eb00da
:100600000281d2004200070001f0a1000cf0a70017
:1006100001f0a000750037006420e100770032008f
:100620000801be000200be00f7ff37006120e100b4
:10063000720032006000b800f3ff370000002000b5
:1006400001f82700f0ff3700140020001b023700dc
:10065000f4ff2f0019023700881f7800010478008a
:100660000100e00005003d0060001000e08018007f
:1006700002003b0001f02c000300370004000700db
:1006800008f0a70001f0a0004f0478000000060069
:10069000889fbe008a9fbe00010578000000e00030
:1006a000180032000004be006011b8006b09200081
:1006b0000982cf00020039000882cf000441b00057
:1006c000694252000e00320008003b008281710036
:1006d000610164008904d1000884d3008b05e8001f
:1006e0000442e800f9ff3a0005003700080444001e
:1006f00089844c008b05e9000442e900fbff3a00c5
:10070000030007004f05be004f04be0000000600b6
:1007100081002000618055000b003d000b0020008f
:1007200061fe2f000100e1001d0034008281710094
:10073000610164008904d1000884d3000000e8004e
:10074000faff3a00710020006100640003007000ad
:10075000020060000900320061044400e0844c00a3
:100760000988a500050032008b05e8006808e10053
:1007700002003a008904d1000884d300f20f20005f
:100780000258e10005003d00c75ddd00f907b20039
:100790008980750008007800000006000bf827002b
:1007a0008b007800000005000004be00ff01070078
:1007b0000003be000405be000200be00fb010700ee
:1007c000844f7500000006000200be006450e10086
:1007d000050036006420e100020036000968a3002d
:1007e00001003a000800be000160a0004f0678003a
:1007f0004f05be004f04be0000000600f0ff2f00b2
:10080000f1ff2700f9ff3700889fbe008a9fbe00d6
:100810008c1f7800e4ff0700ebff330003866c00b9
:100820006450e100240032006420e100270032001f
:100830006150e100220032006120e100210032001d
:100840008b854200eb07b1000134b800003ab800d4
:100850000804420089844a00013ab8000030b80018
:100860008880400009014a00040033000000400075
:1008700081804800020149008b05e900c909dd00bb
:10088000830170000100320013002000c814de0054
:100890004814dd004709de001200b200c808de007f
:1008a000088470009aff070001f0a1000cf0a70077
:1008b00001f0a000cdff37006120e100cfff320042
:1008c0000801be000200be00f7ff37006150e100e2
:1008d000fcff3a00c9ff37000c00fa00889fbe00f9
:1008e0008a9fbe008c9fbe00afff07000206be00bd
:1008f000840578000200be000200200048010700c5
:1009000005003a008b02b3001200200044010700ea
:1009100001003a00f8856d000c01be00c60007001a
:100920000800be009b0032000b08a3009e003a00a6
:100930000df0a7000be0a00009f0a7000bf0a0004d
:1009400009f0a1000801be00bb0007000bf0a600e3
:100950009500320001003c000bd0a0008acf75004a
:10096000b20033006000b8006250e1009900390025
:10097000a1003e000b28a300a2003a000bf8a30040
:10098000060032000b58a300a70032000801be0089
:10099000a90007000800be00940032000800be0055
:1009a000b00007000004be00050578000bf0a700aa
:1009b0000b30a6000bf0a1005b079800324f20001f
:1009c00053f3230020ff070005003d000800be0090
:1009d000120020008a0107000004be000a05e90099
:1009e0004a0798006150b9001bff0700008fbe0046
:1009f0000c01be0084ff07004b0107003007980080
:100a00000100e00002003d0060001000e0801800de
:100a1000f2ff2700820f5000e08f580064003e0074
:100a20000c00be004001070020079800f2072000dc
:100a3000820f5000e08f580005003c0012f82f0094
:100a4000f3ff2f00820f5000838f580009003d00f4
:100a50000a00e0000300320001003c000201ea004d
:100a6000020578006000b800200798003a07980057
:100a7000190037003e0090006100b900f6fe070043
:100a8000809fbe000c00be004109dd004811de0061
:100a90007208b100e20007000005be001e01be00a2
:100aa00059ff07004f01be0047fe0700809fbe00b0
:100ab0000c00be000a01be0043fe07001e01be007e
:100ac00051ff07004f01be0040fe070082212700b2
:100ad00013f323004cff07000005be002e0090001a
:100ae0006100b900dcfe070001f0a2000c01be00ad
:100af00036fe07000006be000800be0062010700c7
:100b00000c01be0040ff07000a01be002ffe0700d7
:100b1000809fbe004a0007002e0590000af0a70043
:100b20000a05ea00050037000800be000801be0003
:100b300035ff07000004be000c00be000801be0027
:100b40000a00a70030ff07000006be000a05d1001a
:100b5000f5ff3a005e01900002e0a60003003700b6
:100b60000001be003600070075fe07000004be004d
:100b70004f00be00480007000801be0022ff07002a
:100b80003e0190001e010700de0590000bf0a7005b
:100b900001f0a2004f06be004f05be004f04be008c
:100ba0000080fa000000060025000700f9ff37006a
:100bb000270007006000b8000bd0a7000bc0a00002
:100bc0000be0a7000bc0a2000bc0a70001f8270094
:100bd000f0ff37000df8a300020032001e000700ee
:100be000190007000bf8a300eaff32000b30a70042
:100bf00001f0a200e7ff37000df8a300f9ff3a006b
:100c0000f7ff37000801be000b000700e6ff3200c7
:100c100001003c000df0a2006000b8000df0a7003c
:100c200009000700dbff37000b000700f1ff27007a
:100c3000f0ff2f00d7ff37000100070082fe3700ca
:100c400001f823000000050001f82700000005005e
:100c50002002200001003700100220000048880018
:100c6000000006000003be00d00007006220e10083
:100c7000020032000600be0005000500e507b100d5
:100c8000f107b20004f023008480700007f0a70091
:100c900001f0a00024000500889fbe008a9fbe00ce
:100ca0008c9fbe000004be00c00007000800be000c
:100cb0006420e10048003e00550032007221270008
:100cc000132b240062fe070047003c000800be0012
:100cd000c2ec2800e32c2c005bfe07004700350027
:100ce0000800be0001f0a10002002000033823002c
:100cf00055fe0700430035000800be00b2a32a00dd
:100d000083fb2300c0fe07000200200003f0230045
:100d100001f0a70003f0a000acfd0700820007006f
:100d20000005be004cfe070001f0a2000006be0058
:100d30000200280013f32300b3fe07000801be00e1
:100d4000a2fd0700809fbe000c00be0032082800f4
:100d5000e3952b00acfe07004f01be009bfd070092
:100d60000006be000001be00a7fe0700809fbe0077
:100d70004241250083b82300a3fe070002002000a3
:100d800003e8230091fd07000c01be009efe070052
:100d90000006be004f00be00f2f92b00c3d42300b2
:100da00099fe07000200200003f0230087fd0700e2
:100db0000c01be0084fd07000001be000c00be0057
:100dc000dffd07000200200003f023007ffd070085
:100dd000610145008a0007004f06be004f05be00b6
:100de0004f04be000000060001f8270000002000ac
:100df0002202200002488800f7ff37006000b80098
:100e0000fbff370001f8230000002000f2ff37004d
:100e100009f8a300f0ff32006000b800eeff3700d1
:100e2000889fbe008a9fbe000003be005f000700cf
:100e30008505780082815200020020006220e100d6
:100e400004003a00f307b100040035007718e10010
:100e5000040035000600be00140037006000b80032
:100e60000f003700f50f2000faff2f008502d10098
:100e70000a85d3008301e900fcff3b008184620006
:100e800000046500890f7400f2ff32008582ea00d9
:100e90000a85ea0081846200000465001cfe0700e8
:100ea00007f0a70001f0a0000081eb000200e000c5
:100eb0004f05be004f04be0000000600889fbe0024
:100ec0008a9fbe00841f780037fe07004f0078001d
:100ed00011003300f0ff2f00838f6c0006003b00f1
:100ee000040565000a00a7000800370009f0a60005
:100ef0001000200008003700820f5400838f5c0030
:100f0000030039001000200001003e000000200016
:100f100009f0a7000000ea004f05be004f04be0024
:100f20000000e000000006000001be001f000700f6
:100f30000470a70003f0a1006509b100160032009b
:100f40000d0035006828e10006003500f0ff2f0095
:100f5000f1ff27000300e00013003b000100280020
:100f60000000050000004000818048008502e90083
:100f7000fcff3a0008003700f88f420002003c00f6
:100f80008000eb00000005008100d1000080d3004c
:100f90008502e800fcff3a000300e00002003b008d
:100fa00060001000e080180000000600c70ade00a4
:100fb000f107b200f50fb20008003200e1cf4200a5
:100fc000020032000170a00024000500810f7000b3
:100fd000010032000408050044000500810f700084
:100fe00002003a00140005008502e90000004000fc
:100ff00081c04800fcff3b000170a00024000500f8
:101000000003be00e9ff07006220e1000200320099
:101010000600be000000060085024100e30f20002c
:101020000328e10005003c00a3fe2f000328e10097
:1010300007003d000500200001003700f50f2000eb
:1010400020022000004888006000b8000800370037
:10105000130020008381520005003d008100d10073
:101060000080d3008301e800fcff3a000500200067
:10107000c72add00f107b2008580700007f0a700e5
:1010800001f0a00000000600889fbe008a9fbe00fd
:101090008c9fbe00f3fe0700850478000005be00ab
:1010a0006420e10049003e006220e10003003200bc
:1010b000090035000bf8a300440032000bf8a30030
:1010c000080032001002200000488800f0ff2f00c6
:1010d000f1ff27003d00370001f82f00000020003d
:1010e0003a0037003d000700b7fc07000006be00cd
:1010f0000a00be00324f200053f3230054fd0700c6
:10110000060034000c00be0034000700aefc0700ef
:101110000006be000a00be00020037008904e90094
:101120000c00be002d000700b7fd07002b000700d4
:10113000a6fc07000001be000c00be0000fd070079
:101140000005be000001be00affd07000006be00a6
:10115000a2f32300430d2c009cfc0700809fbe00df
:101160000c00be00d2e32700d3f02b00a6fd070041
:101170004f01be00f2fc07000006be000a01be00df
:10118000a1fd07000a01be0090fc07000006be009a
:101190006148b90030fd07000005be003208280094
:1011a000e3952b0098fd07000c01be0087fc0700ab
:1011b0000006be000a00be000200280013f3230050
:1011c00091fd07000c01be0080fc07004f06be0029
:1011d0004f05be004f04be000000060003f02300d0
:1011e00002000500889fbe0001047800b80090004e
:1011f000628160008084eb003c0032008101780055
:101200000320b2001801900002003a00830f510041
:1012100036003a000190a000310498008004780064
:10122000f90fb200e00f510002003a0028009000d0
:10123000000c7800ea8f540006003a0001007800a4
:101240000008b20003003a0088007800d0002000b7
:10125000e4ff070018009000d8009000810f5000b4
:101260000b0032000000e80010049800180078001d
:1012700009487800000ce80010c0b30021b5200038
:1012800080487800ea8f540018003a0005003700c3
:101290008800780009407800bd02070080047800cb
:1012a00012003700380090000010b2000f0032002a
:1012b00018019000a800900048009000790b0700ea
:1012c00098009000810f5000040032003800900018
:1012d0000003b300300498008084eb000000eb00b2
:1012e0001004980028009000000c78000900780095
:1012f0004f04be0000000600e68747008e1f7800fe
:10130000d0bf9f0066875700012f78000e0037007e
:101310005fba970014407800efb9970093407800c7
:101320000201e900814f5000040032000080fb0000
:101330008180fb0001005000060037000402e80035
:10134000d4bf9f00030fe800e00f5100f0ff3a0008
:10135000020078004f0778006f00b100000006001f
:101360008001780002003700b15978000201e900dd
:10137000e00f5100fcff3a0000000600b041780089
:1013800031c1510002003a0082cf5100fbff3a0008
:101390000200fb00000006000b003700b04178009f
:1013a000e0cf5100030032000201e900b1cf51004b
:1013b000050032008381fb00144278000480fb00aa
:1013c000008051000000060001027800e00f51008b
:1013d000f2ff3a0002007800000006000000fa0068
:1013e00068815700cfb8970080b320003203070010
:1013f0000080fa00000006000c00fa00a0bf9f0069
:10140000c0bf9f00a3020700b0bf9f00f0bf9f00b6
:10141000100c2000d0bf9f0074815700efb09700e0
:101420006c805700340007000080fa0000000600be
:10143000881f7800d05a8000d4010700000478008b
:1014400008007800c2fb0700e00f5000f9ff3a00e7
:10145000e10f440003003200d15a800008007800f8
:10146000930207004f04780000000600889fbe002a
:101470008a1f780000047800814478000205780013
:1014800000fd2f0008004000e90f500002003e0060
:10149000000478001000370008007800b4fb070053
:1014a000e00f500005003200e00f5500030032004d
:1014b00008007800b4fb07000004780008007800fa
:1014c00099fb07008000780000c0eb00e08f50001f
:1014d000060032007805b1008984fb0000c0eb00f3
:1014e000890f540001003d00084078004f05780046
:1014f0004f04be0000000600f4874700889fbe002e
:101500008a9fbe008c9fbe008e1f780080017800ed
:10151000e1b79f00c2b79f00d35a88000000eb00dc
:10152000a0b79f0080407800e1ef9f006c0137007a
:101530006fb097000000e800e0b79f000885fb004f
:101540000a00780082fb0700e00f50000200320022
:10155000b7ff07006201370051c2b300814f54004a
:1015600050013a0021c0b3006fb297008046780066
:101570000145780004067800040037004ac0b30033
:10158000010037002ac0b3000c027800bc4178008b
:1015900081c6b30081cf5100faff320015003e0032
:1015a000f0c0500081cf5100330032000a003e00ed
:1015b000ecc0500081cf51002b00320091003e0062
:1015c000e0cf510022003200a1c2b30081cf510010
:1015d0008c003a002200370031c6b30081cf5100a1
:1015e000690032008140e80081cf510085003a0057
:1015f0009800370031c7b30081cf51002600320078
:1016000007003e00e7c0500081cf510016003200b5
:10161000e3c0400081cf51007a003a0094003700c7
:1016200051c7b30081cf51008a003200e3c04000af
:1016300081cf510073003a00adef9f009ae79f0001
:1016400000477800ecb79f000000eb000f00370068
:101650006fe89700834f5000aa003200a7003700c0
:101660008d46e800c8ff3700e24f5500c3ff320047
:101670008ac0b300c4ff3700adef9f009ae79f0018
:1016800000477800ecb79f0010002000a0b79f0033
:1016900001c1b3007b003700adef9f000047780029
:1016a000ecb79f0062ff0700afee9700e0cf560057
:1016b00004003a004fb09700c0007800c0b79f0008
:1016c000b1b79f00d05a80003001070000047800b5
:1016d000e10f440015003a0008007800fc003700d4
:1016e000efb097001100fb00800f540005003a0096
:1016f0000a007800b0b79f008100e800e1b79f00c2
:1017000018003700afe89700e0cf500001003a0022
:10171000085d78000e47e9000d003200d05a8000c5
:101720001a01070000047800010037003fb5970058
:101730000800e800e10f50000800360008007800bb
:1017400003fb0700e00f5000e5ff32000300370005
:101750008a007800b1b79f00020037000a007800c5
:10176000b0b79f00afe89700e0cf5000dc003a0030
:101770006fe897000040e800e0ef9f003fb097005f
:1017800001487800d6003700adef9f000047780091
:10179000ecb79f00e0cf560008003a00efe8970052
:1017a0008140e800e1ef9f004fb09700c000780053
:1017b000c0b79f0001047800010037003fb49700d4
:1017c000d05a8000f100070080007800e18f4000cf
:1017d00002003a0001007800bd0037002fe89700b2
:1017e000e04f500001003a00015c78000e47e9002c
:1017f0004240a900f2ff3c0088007800b1b79f008a
:10180000b70037000384fb0000fd2f0008004000f4
:10181000e90f500009003e0004007800bc000700fa
:101820008c007800010678003101fb000203b10052
:10183000e90f5100fbff360053ff3700ecb79f0064
:10184000d05a8000d1000700800f54009b003a005e
:10185000a3003700adef9f009ae79f000047780094
:10186000ecb79f00a0c0b300a0e79f0006003700c0
:10187000adef9f009ae79f0000477800ecb79f000c
:1018800081c0b300a1e79f00e9fe0700d05a8000a5
:10189000be000700000378000040eb0080e79f00d7
:1018a000d3022000830f530005003a00d05a800075
:1018b000b60007000003780011c0b30081e79f0065
:1018c0002fb19700afe097000600780086bf9f0019
:1018d000e6fe0700804178000fbb9700e1cf410092
:1018e0000e003a00d15a800006007800700107000f
:1018f0006fe89700e04f500002003200804078000f
:101900007c003700d05a80003000900070006000ea
:10191000790032000080eb007700370003032000dd
:10192000830f530019003a00d05a80009700070037
:101930000003780083072000830f530004003a005f
:101940002fb09700e00f5000070032000a00370068
:1019500083052000830f530007003a00afb09700c3
:10196000e08f500004003200d05a8000870007004a
:101970000003780005003700d15a80000600780087
:1019800086bf9f004a0107000fbb97006044b80064
:101990002fe097000085fb000b0020000a01be002d
:1019a0000800be0086bf9f00470c070000067800b5
:1019b000810678002fb19700afe097000fb897002d
:1019c000aafe0700004478000884fb0009002000fc
:1019d0000804460089844e000e47e9000fbb9700bb
:1019e0000c003200d05a8000680007000003780025
:1019f0002fb19700afe097000600780086bf9f00e8
:101a00009afe0700804178000fbb9700e1cf4100ac
:101a1000e2ff3a002fb19700afe097000600780090
:101a200086bf9f0091fe0700804078000fbb9700a3
:101a3000e1cf400003003a00d15a80000600780050
:101a40001b0107008fe09700e0cf5000020032003a
:101a500060041400e0841c002fe89700e04f500061
:101a60001f003a00efe897008140e800e1ef9f0097
:101a7000cfb097000180e9009fe09700e4cf5000cd
:101a800004003a00c0b79f00900078008888be002c
:101a900013003700c0b79f009000780088087800d6
:101aa0000f003700d05a800038000700800078000f
:101ab000810f55000a00320001007800e10f40005c
:101ac00003003200d15a8000f900070008003700f7
:101ad000efe89700e0cf500006003a00060037001c
:101ae0006fb0970010447800e04f540090fe3a0029
:101af000efe897000180fb004f0778004f06be001b
:101b00004f05be004f04be004f01b10000000600ab
:101b100003c2b3000001780002007800b0407800f2
:101b200083cf5000fbff3200e9cf5000f9ff3200b5
:101b3000d3c2b30083cf500003003a000001780005
:101b400013c0b300050037008041eb00b4c2b300fe
:101b500084cf500001003a00000178000000eb0043
:101b6000020037006a00b900000042003202fb00a8
:101b70000403b100e90f5200faff3600e0cf510034
:101b8000010032000000ea0000000600881f780013
:101b90000004780038009000f1006000e18f5000f0
:101ba00006003a00800078000120b20008003200f0
:101bb00098009000e08f500005003200380090003f
:101bc0000040a000300498000080eb0020003700a7
:101bd0000090a1003004980018009000e00f500021
:101be000070034000000e900100498009800780015
:101bf000114178000280fb00010ce800050037006d
:101c0000380090000004b200ecff3a0008007800b1
:101c100011000700b80090000108b2000c003a0063
:101c2000fa0f500008003a0028009000e00f500022
:101c3000e2ff3200180090000000e8001004980055
:101c4000180ce900ddff3700ed0f5000e2ff320015
:101c50004f047800000006000200fa00889fbe00d2
:101c60008a9fbe00000478000000eb00100498007a
:101c7000b8009000e18060000080eb00400032007e
:101c800020b520008040eb0090cf10000f00320004
:101c90000bb52000c9fd2f008b8444002a102000c2
:101ca000390090002010b2008a0f500002003a0064
:101cb000090078009e080700ec8444008b8f5400d4
:101cc000f7ff3a0020b520000048eb0058019000d3
:101cd000e00f51000e003a0012049800120020009c
:101ce000ea80570048009000bb080700e10f500051
:101cf00003003a006ff197000280fb0020003700dc
:101d0000380090000040a000300498001300370015
:101d1000a800900048009000af0807001004980049
:101d2000e00f500003003200e10f40000d003a00c8
:101d300003003700380090000040a0000200370088
:101d4000380090000003b300300498002800900091
:101d5000000c78000000eb00100498000080eb00fd
:101d600007003700a8009000010c78000000e9008f
:101d700010049800114178000280fb00010ce8007b
:101d80004f05be004f04be000080fa0000000600b0
:101d90000200fa00889fbe00a0ff9f0001047800a7
:101da00038009000000178000204b20034003a00cc
:101db000e2006000828f500005003a000003b3008b
:101dc00030049800110498000080eb002e003700ca
:101dd000d8049000e08f540006003a001200200062
:101de000e680570048009000ae08070019049800ec
:101df00023003700a8009000e08f500008003a0050
:101e000051b5200021049800010c78002100200029
:101e100051049800110498000030a000300498008c
:101e200018019000a8009000480090009d0807004d
:101e3000280090008080eb0011049800aff8970014
:101e400001487800000ce8002ff89700ea4f500096
:101e50000b003a00380090000010b2000800320079
:101e600018019000a8009000480090008d0807001d
:101e70000000eb0010049800a8009000010c78000e
:101e8000aff897000100fb004f04be000080fa008d
:101e900000000600800078000041eb00b14f110007
:101ea000fdff3a000080ea000080400000000600cc
:101eb000e10f400019003200310190001220b20001
:101ec000e10f510012003a0021029000e00f520091
:101ed0000f00320011019000d1019000830f5100da
:101ee0000d00320091017800848f510002003a0009
:101ef0008308e800020037000201e8009200980021
:101f00001101e9008208780000497800000006000d
:101f10000080eb00000006000080eb0000000600df
:101f2000889fbe008a9fbe00d1c6b300e04f50001c
:101f300025003d000040ea000004fb00814f5000f6
:101f40000b00340042062000110009000204d800f2
:101f500001007800a9002000110009000900d80044
:101f6000690040004300dd002a9b20002300370069
:101f7000ea4f500011003400a200200011000900b7
:101f80000204d8000104780080007800e980400055
:101f9000c308dd00209b2000810040004344dd0099
:101fa000080040003002be002003be005101be0008
:101fb0004100be00120a0700340037004344dd0030
:101fc000209b20002c0037000004fb00814f5000b4
:101fd0001c00340042062000110009000204d80051
:101fe00001007800a9002000110009000900d800b4
:101ff000690040004300dd002a90200000004500f9
:102000003002be002003be008b0920008a854500f7
:102010003b00be002b01be00f9090700809fbe00f7
:10202000110009000904d800010478004f00be0027
:102030004344dd00080545003a02be002a03be0005
:10204000dcff3700ea4f500009003400a2002000f6
:10205000110009000204d800010478008000780013
:10206000e9804000c308dd0020902000caff37004f
:102070004344dd0020902000080440001800780050
:102080009800900028019000b8019000800378002b
:1020900001037800820278000302780007007800cc
:1020a0008600780005017800840178004f05be00a5
:1020b0004f04be0000000600ef03b000889fbe0082
:1020c0008a9fbe008c9fbe008e1f7800c0b79f0005
:1020d000c1a79f00b2af9f000000eb00a0b79f0018
:1020e00087073700cfa097008100e800c1a79f00b5
:1020f00055c2b30085cf550006003a008102780032
:102100008005eb0001c3b3000cc2b300b7c2b3003b
:10211000130037004fb19700b20290000504b200df
:1021200004003200920378008b4b78000709e80026
:10213000070037008b02fb00cfb097000500780046
:1021400028fc070080027800e18f42006c07320013
:10215000afb197008301e800a3b79f00680737007d
:102160008506780035477800d4c2b300844f570005
:102170000900320005003c008c4f57000800320077
:10218000874f57000c003a0007003700814f570077
:1021900009003a00060037000b30a000f0ff3700be
:1021a0000b00a000eeff37000b10a000ecff370083
:1021b0000b20a000eaff3700e28365000100320037
:1021c0000b00a100e8836500010032000b20a10094
:1021d0008e03fb000703b100e98f53000d003e00a2
:1021e0008d037800020020006a10b9003701fb005f
:1021f0000203b10000014100870678001700fb00d0
:102200000003b100e90f5000f7ff3600c2af9f0096
:102210000a0037000003eb00c6af9f00a5c2b30061
:10222000854f570005003a00bfab97004704780080
:10223000b7af9f00c8af9f008d06e800e5c2b300ae
:102240009dcf12001a003a000be0a000bbb79f0020
:102250000d077800e4c25200decf12000300320006
:102260008e037800000020000a0037003fad970081
:10227000ca057800baaf9f00dbaf9f008e06e8006a
:10228000ccc6b3003fb197000e0037006a00b9001a
:102290000000410087067800b700fb0002fd2f0018
:1022a00001014100e90f5100f8ff3600030037003b
:1022b0000bc0a000bbb79f000000eb00d0af9f0099
:1022c000efff37000d007800304778008006780077
:1022d0008c4f57002e003200b2b79f00c0a79f005e
:1022e000c5c6b300854f570014003c004bc6b30071
:1022f0008b4f57002400320009003c00f4c252000a
:10230000854f570032003200ebc24200854f570024
:10231000af003200e04f5700d1003a00fd06370011
:1023200065c6b300854f57001f003200e3c242006c
:10233000854f5700ca003a00130037003bc7b3006f
:102340008b4f57002a00320007003c00f5c6b3004f
:10235000854f5700190032008542e800854f57002d
:10236000bf003a001a00370055c7b300854f570029
:10237000c2003200e3c24200854f5700b8003a0065
:10238000ee779f0016003700ee779f00bf00370002
:1023900070006100010120000100320001002800ee
:1023a00001017100c7ff3700ee779f00bfb09700b3
:1023b00001a0a000b1b79f00b4003700ee779f00e6
:1023c0003fb197000260a000b2b79f00af00370096
:1023d000ee779f00bfb197000350a000b3b79f00f6
:1023e0003fb297000470a000b4b79f00a700370069
:1023f000ee779f00bfaa970045077800b5af9f0012
:10240000deb79f00e00f570002003a0047b22000fd
:10241000d7b79f00dfb397000007eb00010037003c
:102420000e07e80067407f00e04f5000fcff3a00d5
:102430000e047800e8b79f00dfac9700e08f5400ef
:10244000050032006fb597008a8f540002003100fa
:1024500089057800ebb79f00efb397000007eb000a
:102460004fa89700870f5000010036000707500063
:10247000bfb09700688660002f003a008e05780094
:102480000dc2b300afb497004fb497000e003700f1
:10249000380090000004b2000400320018007800f8
:1024a0000d487800000ce80005003700880078002f
:1024b000000220004bfb0700e10f4000010032004a
:1024c0008904e8008b05e900e08f5500f0ff3a0031
:1024d000a9b79f000087eb00170037003d00900070
:1024e0000004b200090032009d0178000801780064
:1024f0003240780080497800830ee80002047800ba
:10250000e04f500008003a00100037000801780042
:102510003200fb00020478008d00780031fb0700d8
:10252000e10f4000090032002fb197000201e800de
:10253000a2b79f00050037005fb49700efb4970083
:102540007fb597008fbd9700cfb6970089037800bd
:102550008704e900e08f5300e0ff3a00d8b79f00fe
:10256000e9b79f00fab79f008bbf9f00870f560007
:10257000630632008e0578000dc2b300afb4970039
:102580004fb497000e003700380090000004b200ee
:1025900004003200180078000d487800000ce800b4
:1025a0000500370088007800000220000dfb0700be
:1025b000e10f4000010032008904e8008b05e900ca
:1025c000e08f5500f0ff3a00a9b79f004c06370096
:1025d000bfa8970041077800b1af9f000e027800b6
:1025e000cfa2de000503780086037800e4af9f00e9
:1025f000f5af9f0086b79f0097b79f004822de0087
:10260000482cdd0004027400e4779f00bfb49700fb
:10261000708764000a003200e04f52000800320068
:10262000e14f420006003200f4779f004fdd970033
:102630008a7f9f002b002000ebb79f00040037002b
:102640004fd89700f0779f0011002000e1b79f005e
:1026500072fb2f0002814700d2b79f0076ff370040
:10266000ee779f0063fb2f0083814700d3b79f0065
:1026700014002000e4b79f006fff3700ee779f0043
:10268000bfb29700050cb300b5b79f000e702000d5
:102690003fb397008e046300ac0332000e002100ac
:1026a0000e0763000200320067002000d7af9f00d2
:1026b0003fb4970070076400090032003faa9700fa
:1026c0004401be004400be00b4af9f00e0af9f00d5
:1026d000f1af9f0082b79f0093b79f0015003700ae
:1026e000bfaa97004500be00b5af9f00c70707000f
:1026f00080037800810478000205780007067800de
:10270000090478008a067800030778000c00780036
:10271000880078000d0178008e0178000004be006a
:102720000205be00e8af9f00f9af9f008ab79f0087
:102730009bb79f006022b8006033b8006fa8970075
:10274000ffa897000fb197009fb1970001070700fe
:10275000e00f50000c003d006fa89700ffa8970005
:102760000fb197009fb1970003f0a200e0af9f0068
:10277000f1af9f0082b79f0093b79f00bfb0970053
:102780003100b300b1b79f000007eb00de9f9f0050
:102790006022b8006033b8006fa89700ffa89700c8
:1027a0000fb197009fb197004e0707008e0f5000a2
:1027b000470032006fa89700ffa897000fb197005d
:1027c0009fb1970085080700a2fb2f000f01410071
:1027d000080807005f9897000000e9006300b9004f
:1027e000a2002000811f7800110009000200d8001b
:1027f000cf007800d09f9f008e0f500002003d0058
:102800000000e900d09f9f005f999700d2b79f001a
:102810000240ea00c2fd07006faa9700ffaa9700d6
:102820000fb397009fb39700f5070700b0a79f006d
:10283000a1a79f0092a79f0083a79f006022b800d6
:102840000600200007ff2300010678000207780039
:1028500083067800000478008c0478000e05780068
:102860008d0578000800be000a01be00b906070009
:10287000e00f500003003d00dfb197000307e900bf
:10288000120037006022b800060020004702240032
:102890003fa097002fa697001fa797008fa697002d
:1028a000000478008c0478000e0578008d0578000f
:1028b0000800be000a01be00ab060700e00f500092
:1028c000030035005fb297000407e800de9f9f0019
:1028d000dfaa9700f88f520076003c00854378000d
:1028e0000783fb00d6b79f00d0c6b30080cf53004c
:1028f0002a0036004b062000110009000b83d80087
:102900008005780081067800f2854500c35cdd0013
:102910002c9b2000890446006022b800060020009d
:1029200007fe23003900be002901be00b4070700de
:10293000ae00200080037800811f7800110009009c
:102940008e86d8008003fd00cf007800e983430025
:10295000c33bdd00870346003702be001703be00fd
:10296000a70707000004be000205be00dfb3970002
:10297000801f780001037800110009008e83d800c1
:102980000103fd004f0078004333dd0006034600dd
:102990003602be001603be0018003700eacf53000f
:1029a00019003600aa0020005fb49700110009004a
:1029b0000a84d80000037800010778006903430007
:1029c000c335dd002d9b20008b8546006022b800ba
:1029d0000600200007fe23003b00be002b01be00c6
:1029e000870707000004be000205be004377dd0034
:1029f0000e8746003e02be002e03be000800be0049
:102a00000a01be0009003700dfb49700434ddd0026
:102a10002e9b20000a0747006022b8000600200015
:102a200007fe23003e00be002e01be007407070013
:102a300001077800800278000e0678008206780090
:102a400083037800050478008c0478000d05780075
:102a5000870578000802be000a03be006fa8970031
:102a6000ffa897000fb197009fb19700bc05070022
:102a7000800378008104780002057800070678005a
:102a8000090478008a067800030778000c007800b3
:102a9000880078000d0178008e0178000002be00e9
:102aa0000203be00e4af9f00f5af9f0086b79f0012
:102ab00097b79f00df9a9700d5b79f00e98f520024
:102ac00016003c006022b8006033b8006fa8970081
:102ad000ffa897000fb197009fb1970081060700ec
:102ae000e00f50004c0032006fa89700ffa897003d
:102af0000fb197009fb19700e3060700e00f500069
:102b0000e08f5800e00f5900e08f590042003a0072
:102b10005fb39700e10f53003f0034000400200032
:102b200005002e00b6e02200170124003fa1970007
:102b30002fa697009fa697000fa797000204780082
:102b40008c0478000d0578008e0578000800be0022
:102b50000a01be00ff050700e00f500003003d0022
:102b6000dfb3970073805300020037005fb4970013
:102b700072005400d09f9f002f789700e8fc070058
:102b8000b0a79f00a1a79f0092a79f0083a79f00c7
:102b90000006be0082037800030778000c04be0024
:102ba000070578008e0578000802be000a03be0003
:102bb0006fa89700ffa897000fb197009fb19700eb
:102bc000ee050700b0060700800378008104780056
:102bd0000205780087027800030778000504780072
:102be0008e0578000800be000a01be00d0b79f0025
:102bf000e1b79f00f2b79f0083bf9f008000eb000a
:102c0000e1af9f00a1af9f00d1a79f000102780014
:102c1000f49f9f001c0037006fa89700ffa8970043
:102c20000fb197009fb19700970607000002be0002
:102c3000d4b79f00e5b79f00f2b79f0083bf9f0006
:102c40000400be00c10607000002be000203be0071
:102c50006fa89700ffa897000fb197009fb197004a
:102c60005c0707008005780001077800ebaf9f0044
:102c70008e037800a7af9f00d2a79f00f39f9f000d
:102c80000007eb00de9f9f00a7a620001bc0b3003b
:102c9000070478000c0037003800be003801be0081
:102ca0005fb29700efb297007fb397008fbb97009a
:102cb0000020e10001a8e10002b0e10003b8e1005a
:102cc000030039008b45e800f4cf5500f2ff3a00cd
:102cd000eb779f00df9e9700cfaa97008d8652006a
:102ce0005fab9700868656008b05fb008b855600f0
:102cf000cbaf9f00e00f5300020032008b05e900cc
:102d0000cbaf9f00bfb39700e385630003003200a1
:102d10004fac97000804e900c8af9f00bfb497000c
:102d2000e48364004c003200e28364006186640046
:102d3000e08f53001b0032004fb59700ba0390009c
:102d40000704b200090032009a037800bec2b30043
:102d5000e00f5600010032000ec7e8008e4b7800ed
:102d6000cfb59700870de8000a003700bd022000ac
:102d7000870f5600010032008d86e800cfb0970023
:102d80000d00780017f9070080037800e18f4300f9
:102d9000280032002fb097000000e800a0b79f0085
:102da00024003700870f560022003200cfb0970072
:102db000b10590000b04b2000500320091037800c9
:102dc00005c2b300854b78008708e800060037008d
:102dd000cfb097000002200002f9070080037800be
:102de000e18f4300130032002fb197000201e80089
:102df000a2b79f000f003700380090000004b20017
:102e000004003200180078000d487800000ce8003b
:102e1000050037008800780000032000f1f8070063
:102e2000e10f4000010032000a05e8008904e900d2
:102e3000040037000dc3b300cfac97002fb5970047
:102e40004fb49700e08f5400ebff3c00c9af9f00e8
:102e5000aab79f00a2003700bfb19700e8856100c4
:102e6000878f550018003a000f0037003800900097
:102e70000004b20004003200180078000d48780009
:102e8000000ce800050037008800780000022000f0
:102e9000d4f80700e10f4000010032000a05e80005
:102ea0008904e900040037000dc2b300cfac9700dd
:102eb0002fb597004fb49700e08f5400ebff3c0014
:102ec000c9af9f00aab79f003fb29700e20362001c
:102ed00061066200e08f53001b003200cfb2970002
:102ee000b50390000704b200090032009503780092
:102ef000bec2b300e00f5600010032000ec7e8006a
:102f00008e4b78004fb39700070be8000a0037009c
:102f1000bd022000870f5600010032008d86e800b8
:102f2000cfb097000d007800aef80700800378005e
:102f3000e18f43006a003200afb397008703e800d7
:102f4000a7b79f0066003700870f56006400320065
:102f50004fb49700b80590000b04b2000500320092
:102f60009803780005c2b300854b7800070ce80091
:102f700006003700cfb097000002200099f8070044
:102f800080037800e18f430055003200afb4970012
:102f90008904e800a9b79f0051003700bc019000e8
:102fa0000304b2000200fb00e08f51002700320052
:102fb0001c077800bfb09700e08f500008003d006c
:102fc0004300dd00008046003002be002003be004a
:102fd0000800be000a01be007e0707000f00370090
:102fe0005fb19700e00f5100060032004300dd00a2
:102ff000008046001001be000800be00a2060700c7
:10300000060037004300dd006d017800811f780065
:10301000110009000284d800cf007800a20020002f
:10302000811f7800110009000200d800010078001b
:10303000cf0078000043b000004f78000e0ee8008b
:10304000e04f500022003a002e0037003fb29700b8
:10305000830f520008003d004300dd000080460061
:103060003002be002003be000800be000a01be0000
:10307000580707000d003700dfb29700e08f5200bd
:10308000060032004300dd00008046001001be0053
:103090000800be007c060700040037004300dd0086
:1030a0006d017800110009000284d800a200200000
:1030b000110009000200d800010078000003b000f0
:1030c0008c00780047f80700e10f40000d00320047
:1030d0002fb397000603e800a6b79f00090037004a
:1030e000bfb39700708663002da620005fb49700e1
:1030f000efb497007fb597008fbd9700dcb79f00b6
:103100004fb697006f7097000041e900e2779f008b
:10311000e04f5000a1ff3a00110037003800900046
:103120000004b20004003200180078000a48780059
:10313000000ce8000500370088007800000320003c
:1031400028f80700e10f4000010032008904e80080
:103150005f9897000000e900d09f9f0003003700b0
:103160000ac3b300afb497004fb497005f989700bd
:10317000e00f5000e9ff3c00a9b79f005fac97004b
:10318000f20f54000300340027012000e7779f006e
:1031900002003700afdc9700e9779f006f77970058
:1031a0008e03fb005fad970087035500d7af9f00ec
:1031b000e04f570011003200cfb59700bb039000dd
:1031c0000704b200050032001b057800e5c2b30019
:1031d000054d78008a0de80005003700cfb0970054
:1031e000e0022000fff70700e10f4000030032007b
:1031f0002fb097000000e800a0b79f006f70970005
:1032000047fb07000002be000203be00efae9700be
:103210002fae9700dfa497007f9d97000d007800e8
:103220008c007800090178008a0178007405070095
:103230001505070000067800810478000205780073
:103240008c02780003077800050478008e0578006a
:103250000802be000a03be00d4b79f00e5b79f0076
:10326000f6b79f0087bf9f00bfb2970070826200d1
:10327000850678004fb69700040778007a0037007b
:103280008401fb00e08f56000b003d00c319dd00f8
:1032900026a62000830143003302be002303be00a4
:1032a0005fb09700efb097007fb197008fb997009c
:1032b000c806070009003700e00f57000900320078
:1032c000c319dd0027a62000838143001301be003f
:1032d0005fb09700efb09700eb050700000478009f
:1032e00009003700c319dd0029a620006984790090
:1032f0005fb59700809fbe00110009000885d800c7
:10330000000478004f00be00bc0190000304b2002e
:10331000080032001c0278000bc3b3008b4144004c
:10332000034a7800040ee800e0cf510009003a009b
:103330000b00370003032000888141008c007800d7
:1033400003007800a7f7070080017800e18f4100b3
:10335000030032002fb097000000e800a0b79f00e4
:10336000ef7097008101fb00e08f560014003d00d4
:10337000cfc4de00090578008a057800c319dd0096
:1033800022a62000830141003302be002303be00b9
:103390000800be000a01be000a0707005fb29700de
:1033a000efb297007fb397008fbb970000025200e7
:1033b00081825a0002035b0083835b001e0037009a
:1033c000e00f570012003200cfc4de00c319dd0049
:1033d00025a62000838142001301be000800be0024
:1033e000b90507005fb39700efb3970000015300e2
:1033f00081815b00e2a79f00f3a79f008004eb00a0
:1034000089af9f000005eb009aaf9f000e003700c8
:10341000c319dd002ba62000eb81790003c0b900a1
:103420005fb1970000005100000278000500200005
:103430000600200007002000e4a79f00f5a79f00da
:1034400086af9f0097af9f006fa49700ffa49700df
:103450000fad97009fad9700d8b79f00e9b79f00c9
:10346000fab79f008bbf9f00ef7197000342e900fe
:10347000e4779f00e0cf510081ff3a000f00370052
:10348000380090000004b2000400320018007800f8
:103490000e487800000ce80005003700880078002e
:1034a000000320004ff70700e10f40000100320049
:1034b0000a05e8008904e900040037000ec3b300e0
:1034c000dfac97002fb597004fb49700e08f540002
:1034d000ebff3a00d9af9f00aab79f00bfb4970097
:1034e000e88264005fad97008a8f52008402320048
:1034f000cfad9700e08f5500810234000ec2b300bb
:103500008b0478002fb597004fb4970038009000d7
:103510000004b20004003200180078000e48780061
:10352000000ce80005003700880078000002200049
:103530002cf70700e10f4000010032000a05e80007
:103540008904e900f1ff3a006c0237003fb59700ab
:103550000a0cb200890f550045003a003fb09700b1
:103560008a0f500005003d003fac97004803be00a5
:103570004802be00b8af9f0012003700bfb49700ea
:10358000f08364008a8f5300130032003fa8970035
:103590004005be00b0af9f00100790004ff7de005f
:1035a0008a0278000b0678008e0378000504780004
:1035b0008c0478000e057800870578000802be00ac
:1035c0000a03be00d4b79f00e5b79f00f6b79f007f
:1035d00087bf9f000b003700bfaa97004504780003
:1035e000b5af9f0008007800cf80de0001017800b1
:1035f00082017800d0b79f00e1b79f00f2b79f002b
:1036000083bf9f005fb29700efb297007fb3970030
:103610008fbb9700e00f5200e08f5a00e00f5b0075
:10362000e08f5b003a003d00bfb297003500b30069
:10363000b5b79f006022b8006033b8005fb4970050
:10364000efb497007fb597008fbd97000804520034
:1036500089845a000a055b008b855b00d8b79f0000
:10366000e9b79f00fab79f008bbf9f002800370083
:103670003fb59700e00f550005003d003faa9700b9
:103680004401be004400be00b4af9f0010003700ec
:10369000bfb29700f0836200120032003fac970087
:1036a0004803be00b8af9f00860278000706780086
:1036b0000907780089067800050478008c047800f2
:1036c0000e0578008d0578000800be000a01be00d6
:1036d000d0b79f00e1b79f00f2b79f0083bf9f0064
:1036e0000b003700bfa8970041047800b1af9f00de
:1036f00008027800050020000600200007002000d6
:10370000d4b79f00e5b79f00f6b79f0087bf9f0023
:10371000dfaa9700e08f52000d003a00160020004b
:10372000d6af9f005fb49700efb497007fb59700c6
:103730008fbd9700e00f5400e08f5c00e00f5d004c
:10374000e08f5d00020032008004eb00d9af9f00e3
:103750003fb597000a0cb200eaaf9f000e042000ac
:103760008e0f55003400320003003c00e00f55007e
:1037700049003a000700370007082000efad970026
:10378000878f550014003200070c2000878f5500ea
:1037900041003a00a7a620001ec0b3003700be00bb
:1037a0003701be005fb49700efb497007fb5970074
:1037b0008fbd97000040e10001c8e10002d0e100a8
:1037c00003d8e100330039000e47e800f44f5700fa
:1037d000f2ff3a002f0037001ec0b30000012000a6
:1037e000010020006011b8005fb29700efb29700af
:1037f0007fb397008fbb97000020e10001a8e10094
:1038000002b0e10003b8e1002200390045002000c9
:103810000000d0008180d2000281d2008381d200da
:103820008502e900faff3a000e47e800f04f570022
:10383000edff3a00170037001ec0b30080002000e3
:10384000010020006011b8005fb49700efb497004a
:103850007fb597008fbd97000040e10001c8e100ef
:1038600002d0e10003d8e1000a003900390020004d
:103870000000d0008180d2000281d2008381d2007a
:103880008904e900faff3a000e47e800f54f5700b7
:10389000edff3a00ee779f006f7597000a07fb0077
:1038a000dfad97008b0f570002003d00eb779f00c4
:1038b000050037005fa897008e0f500002003d0002
:1038c0008e007800d1af9f004fa99700e00f510004
:1038d00005003200bfb19700e383610002003200af
:1038e0000201e900c2af9f00070024003fb2970029
:1038f0008703620009003200cfaa97005fab9700f0
:10390000868f52000300340086825200c5af9f00ac
:10391000020037008003eb00c7af9f006f74970071
:103920000807fb008004eb00a9af9f004fad970094
:103930008e0f5500020034008e055500abaf9f007e
:103940003fb09700e40560004c003200e2056000e3
:1039500061076000e08f55001b003200cfb0970078
:10396000b10590000b04b200090032009106780006
:10397000bbc2b300e00f5700010032008bc5e80066
:103980008b4e78004fb197000d09e8000a00370010
:10399000bd0220008b0f5700010032008d86e80029
:1039a000cfb097000d0078000ef607008002780077
:1039b000e18f420018003200afb197008301e800a8
:1039c000a3b79f00140037008b0f5700120032007e
:1039d0004fb29700b40390000704b2000500320014
:1039e0009405780005c2b300854d78000b0ae80005
:1039f00006003700cfb0970000022000f9f507005d
:103a000080027800e18f420003003200afb29700dd
:103a10008502e800a5b79f002fab9700e00f530089
:103a2000650032000dc3b300860478002fb59700ff
:103a30004fb49700380090000004b2000400320038
:103a4000180078000d487800000ce80005003700e9
:103a50008800780000032000e2f50700e10f400035
:103a6000010032000a05e8008904e900f1ff3a008c
:103a7000a9af9f00aab79f004f003700afab9700d8
:103a80008b8f5300180032003fb49700e8036400a6
:103a900015003a000dc2b300afac97002fb59700e8
:103aa0004fb49700380090000004b20004003200c8
:103ab000180078000d487800000ce8000500370079
:103ac0008800780000022000c6f50700e10f4000e2
:103ad000010032000a05e8008904e900f1ff3a001c
:103ae000a9af9f00aab79f00bfb49700e28564000a
:103af00061876400e08f55001b0032004fb59700ce
:103b0000ba0590000b04b200090032009a06780052
:103b1000bbc2b300e00f5700010032008bc5e800c4
:103b20008b4e7800cfb597008d0de8000a00370066
:103b3000bd0220008b0f5700010032008d86e80087
:103b4000cfb097000d007800a6f50700800278003e
:103b5000e18f4200180032002fb097000000e8000b
:103b6000a0b79f00140037008b0f570012003200df
:103b7000cfb09700b10390000704b20005003200f7
:103b80009105780005c2b300854d78008b08e800e8
:103b900006003700cfb097000002200091f5070023
:103ba00080027800e18f4200030032002fb19700bd
:103bb0000201e800a2b79f00dfa997008305e90092
:103bc000425add00c4af9f00635eb9008c027800ea
:103bd000d5a79f00c35ddd0027a62000878545008f
:103be0003fb3970070036300f69f9f00bfb3970039
:103bf0000702b200e79f9f000b077800a200370082
:103c00005fac97000804e900d8af9f00efac9700c5
:103c10000a0420008a8f54007100320003003c0027
:103c2000e08f54007d003a000700370000082000b4
:103c3000efad9700808f550055003200000c20003a
:103c4000808f550075003a003fb09700e00f50009c
:103c50001f003d003e02be002e03be005fb0970075
:103c6000efb097007fb197008fb997005904070014
:103c700000047800e8779f000804fb00cfc4de0052
:103c8000090578008a0578003e02be002e03be00ba
:103c90000800be000a01be00ca0407005fb4970016
:103ca000efb497007fb597008fbd970000045400d4
:103cb00081845c0002055d0083855d00d8b79f00ac
:103cc000e9b79f00fab79f008bbf9f002c00370019
:103cd000ff9c9700e08f54001c0032005fb69700f5
:103ce000efb697003e04be002e05be000801be00e0
:103cf0000c00be0064030700e0779f000000fb009b
:103d0000cf80de000801be006f03070000005600f0
:103d100081805e0080037800010378000002eb00e0
:103d2000070078008600780004017800840178009c
:103d30000203be000002be00d4b79f00e5b79f009b
:103d4000f6b79f0087bf9f000d0037009e047800e4
:103d5000dfb29700811f7800110009008982d80026
:103d6000cf007800a2002000811f78001100090018
:103d70000280d80001007800cf007800e0779f0033
:103d80006f7397000643b000e6779f00230037006b
:103d900034b12000ef9b9700e08f53000100320008
:103da00024b020005fb09700efb097007fb197007c
:103db0008fb997004fac97000804e9000500330065
:103dc0008301d1000281d3008180d3000080d30021
:103dd000f9ff37006f006000644078000e00370084
:103de0005fb09700efb097007fb197008fb9970051
:103df000dfa497008904e900050033008301d100a6
:103e00000281d3008180d3000080d300f9ff370006
:103e1000674060000043b000e0779f004fb5970017
:103e20003a0090000004b200070032001a01780046
:103e30006f70970000497800020de800e04f5000d5
:103e400007003a0009003700ef7597000b00fb00f0
:103e5000cfb09700e3f40700e10f40000300320009
:103e60002fb097000000e800a0b79f00cfa89700f0
:103e7000e4805000c1af9f005fa197006301510033
:103e8000d2a79f0068075700dfa99700e08f510075
:103e90005bff3a003fb29700e8026200838f520056
:103ea00017003200afaa9700e08f520014003400d0
:103eb0000bc2b300850478002fb597004fb497006c
:103ec000380090000004b2000400320018007800ae
:103ed0000b487800000ce8000500370088007800e7
:103ee00000022000bff40700e10f40000100320093
:103ef0000a05e8008904e900f1ff3a00aab79f002b
:103f00004fa3970096457800eb779f00e0cf5500d0
:103f100074f83a002fb097004f0778004f06be00a4
:103f20004f05be004f04be00ef03b10000000600c5
:103f3000881f780000047800380090008000780026
:103f40001120b200e18f500005003a008000eb0024
:103f500011049800a8009000010c780019003700a7
:103f6000000178002220b2000000eb002120200098
:103f7000810f510016003a00a8009000808f500079
:103f80001300320018019000800f51001000320021
:103f9000480090004300070098009000810f5000f7
:103fa00003003200380090000003b3003004980092
:103fb0000000eb001004980028009000000c78002e
:103fc000380090000002b200010032000080eb00d7
:103fd0004f047800000006000a00fa00e00f5000cd
:103fe00026003a00c05a8000e10f5000060032005f
:103ff000e0212000c5212000842120006321200031
:10400000e00f500004003a0040212000252120004c
:10401000e4202000c3202000060028009303630052
:1040200002003a0007087800930973000200780044
:104030000c0037008301e90094037800618363007a
:1040400002003a00868f5100faff3a00140378000c
:10405000e101630007003200950178008358780081
:104060000000e900e00f500002003200030a2000c7
:10407000f1ff370000005100080037002300200046
:10408000b3bf9f00c0bf9f00d1bf9f00e2bf9f0092
:104090006a80570000c0da006fb897000080fa000d
:1040a000000006000a00fa00e20f500021003e0066
:1040b000c05a8000e10f500006003200e5212000c8
:1040c000a42120008321200060212000e08f5200e5
:1040d00004003a004521200004212000e3202000b4
:1040e000c0202000060028009003630002003a0070
:1040f000870a780010087300004020001300600059
:1041000001003a0013a0a00002007800060037006a
:10411000930278000510b200fdff3200b102fb00ef
:10412000050a78000000e900e00f5000f8ff3a00af
:104130000800370033002000b3bf9f00c0bf9f00be
:10414000d1bf9f00e2bf9f006a80570000c0da0025
:104150006fb99700020078000080fa0000000600a6
:104160002800fa00889fbe008a9fbe008c9fbe0078
:1041700007067800878669000c003b00030478007e
:104180008704780008f0a10009f0a100840f500016
:10419000858f5800860f5900890f5c00030033009b
:1041a0000cf0a20001003a000cf0a100fe00070094
:1041b0006400e1005f003200780147006408e1001c
:1041c000610032006c014700748557003200be0068
:1041d0001201be003a04be001a05be001e03900084
:1041e000be0a90008503530006003d000004fd0058
:1041f0008104fd000205fd008305fd008703ea0040
:10420000050378000df8a3000400320060041400d8
:10421000e0841c0060051d00e0851d006022b800e0
:104220007d0320000d38e1008006eb000b00390013
:104230004433dd00f300b20083017300390037001e
:10424000848272000d027800e10664008b85d10043
:104250000a85d3008984d3000884d3008703e9004a
:10426000f7ff3b0008004000898048000a01490030
:104270008b81490004003b0060001000e0801800c2
:1042800060011900e08119000358a3000900320001
:104290008d82720084827200610260008301d1000d
:1042a0000281d3008180d3000080d3000603e800a0
:1042b0001b0037000348a30017003a000600e00087
:1042c000170034000603e9000d00a30000004800b9
:1042d0008180480002014900838149000348a3000e
:1042e0000f003a000600e000090034000603e90070
:1042f000000040008180480002014900838149009c
:1043000001003a000003eb000348a300f5ff320070
:104310006022b80002003700848272006182660069
:104320007500070003f0a1000cf0a70003f0a00047
:10433000b1003700640147006408e10002003a0060
:104340000df8a300a9003a003200be001201be0021
:10435000a90037008f1fd100470307008f87e900ae
:104360000000e00000000600809feb004203070011
:104370008f87e9000000e000000006002800fa0036
:10438000889fbe008a9fbe008c9fbe0003866b0084
:10439000850007006400e100440032006408e10089
:1043a0004a0032006100e100460032006108e1008d
:1043b00049003200ec0647006000b8003d02be0034
:1043c0003d03be00f48657006011b8003d04be00f6
:1043d0003d05be007d0320000b0037000000a0005b
:1043e0008d06e900130032000402420085824a0073
:1043f00006034b0087834b0000004000818048008b
:1044000002014900838149000802520089825a0052
:104410000a035b008b835b00f0ff3b000802420055
:1044200089824a000a034b008b834b008d06e9000a
:10443000edff3a008482720086827200f707b200b4
:104440008782720001003200150020001e049000d7
:104450003e0b900006035400e63fb0000368a30043
:10446000070032000000a7000500a0008301d10072
:104470000281d3008180d3000080d3000603e800ce
:104480008301d1000281d3008180d3000080d3005a
:104490000002eb000482d2001700070003f0a10025
:1044a0000cf0a70003f0a00053003700640247009f
:1044b0006408e1004d0032003400be003401be004b
:1044c000f6ff37006108e100480032006011b800d3
:1044d0006000b800f1ff370003ff27000200200052
:1044e000fbff3700801feb00e30207008f87e90026
:1044f0000000e00000000600180020005700200027
:10450000080453000d003d000600200097fc2f001a
:104510000740e1001e0034008482720061026000e6
:104520008301d1000281d3008180d3000080d300b9
:104530000804e800f8ff3a0047002000610460002a
:1045400005047400040464000d00320061004000a2
:10455000e080480060014900e081490003b8a500ff
:10456000070032000603e8006538e10004003a0065
:104570008301d1000281d3008180d3000080d30069
:10458000f87f20000830e1000300350008037800c0
:104590006000b8006011b8004433dd00f300b200e1
:1045a0008301730000000600680447000294be0007
:1045b0000094be00fc0447008694be008494be00b4
:1045c00009007800f502070008007800f3020700f0
:1045d00099007800814f70000b003b000800be007e
:1045e000ce0207004f00b10003003700f3ff2700a1
:1045f000f2ff2f006110b9004f06be004f05be004c
:104600004f04be000080fa0000000600810378001d
:1046100066f207000001be006000b8000478a30045
:1046200013003a006220e10015003e000d00390041
:104630008301d1000281d3008180d3008301d100a6
:104640000281d3008180d3008301d1000281d30095
:104650008180d3000538b000c42add00f300b20029
:104660008381720007f0a70003f0a000000006009d
:10467000f3ff2700f2ff2f006110b900fbff3700a6
:1046800003ff2700f7ff37001400fa00889fbe00e1
:104690008a9fbe008c9fbe000004be000205be00c3
:1046a000680047000a90be000890be00bb020700e9
:1046b0000070a7000bf0a1000bf8a30020003a0047
:1046c0009e0990000e099000fe0090006e00900080
:1046d0009e0290003443200084825200c6ff3200c4
:1046e0000a003c00b4fc2f000428e1001400340050
:1046f0008301d1000281d3008180d3000080d300e8
:104700008502e800faff3a00bbff3700b400200042
:104710000428e10007003c000000400081804800c0
:1047200002014900838149008502e900faff3a004d
:10473000b1ff37000300280002002000010037000d
:104740006011b8006000b800abff3700889fbe0062
:104750000082700004027100240032003643200001
:10476000c50020008383cf000a0039000541b10055
:104770008283cf00070039000541b1008183cf005b
:10478000040039000541b1008083cf0001003900e9
:104790000541b10085c353006022b8001200320009
:1047a0000a003b0084827200610260008301d10034
:1047b0000281d3008180d3000080d3000603e8008b
:1047c0008743e800f7ff3a00070037000000400089
:1047d0008180480002014900838149000603e90005
:1047e0008743e900f9ff3a0043ff07004f04be008a
:1047f000000006001bf10700050978000000060014
:104800002800fa00889fbe008a9fbe008c9fbe00d1
:1048100003866b0064ff07000028a30064003a00d1
:104820000128a30067003a000008a30062003a00d4
:104830000108a30065003a001e009000be08900029
:1048400081064000ed3fb100f4805700ee0190007a
:10485000111ab8008e099000311bb8009e09900013
:10486000311cb800511db800f48557004600070000
:10487000fe0190003a0007008b85e8003e0007002b
:104880008e09900040000700ee0190003400070000
:104890008b85e800380007008e0990004000070073
:1048a0009e0990001b18b800890440000a85480042
:1048b000fe019000340007008b85e80038000700f7
:1048c000ee019000300007008e0990001b18b80020
:1048d000890440000a8548000a98a30008003a00ad
:1048e0000402420085824a0006034b0087834b0086
:1048f00008044c0089844c000a054d008d06e9002f
:1049000084827200850273004c3add0085027200d9
:104910000100320015002000443ade001400b2000d
:104920004538de00cb45dd000b007000c540de00e1
:10493000cb4ddd008b8070004549de00cb55dd009e
:104940000b017100c551de000d037800eafe07007f
:1049500003f0a1000cf0a70003f0a00026ff370031
:104960001b18b8008502400006834800e0834b0016
:1049700060044c00070037001b18b8000603400015
:1049800087834800faff37001b18b80087034000f0
:1049900008844800e0844c0060054d0000000600db
:1049a0001b18b8000804400089844800faff37004b
:1049b0000108a3000dff3a005800be005801be00d8
:1049c000e3ff37000008a30008ff3a00090478005d
:1049d000f9ff370007f0a200e1fd37001400fa00ec
:1049e000889fbe008a9fbe008c9fbe000005be004f
:1049f0000206be00680047000c90be000a90be0090
:104a0000e60107006400e1001a00320016003e00d3
:104a10006100e1001a0032006e049000fe04900074
:104a20000e0b90009e0b90006011b8009e05900048
:104a30000b38b100d5012000828171006101640052
:104a40008703d1000683d3008984d3000884d30070
:104a50008502e900f8ff3a002def07000df0a700ee
:104a600001f0a000e4fe3700f1ff2700f0ff2f0067
:104a7000e1fe370001f8270000002000f7ff3700b3
:104a80006000b800f5ff37006022b8000602200081
:104a90000000d0008180d2000482d2008582d20042
:104aa0000000a0000202520083825a00030031007d
:104ab0000202420083824a000000a1000603e900ce
:104ac000f3ff3a0000000600020ab900001bb9001b
:104ad0000200b8008100420081004300000006008f
:104ae0000800fa00889fbe008a9fbe0084bf9f0016
:104af00095bf9f00a6bf9f00b7bf9f003004be00b8
:104b00002005be000fba97009fba97002fbb9700f1
:104b1000bfbb97000404440085844c0006054d008b
:104b200087854d000898be000a90be000440e10051
:104b300005c8e10006d0e10007d8e100020031001d
:104b4000680040001008e8004f05be004f04be009a
:104b50000080fa0000000600fe874700889fbe0024
:104b60008a9fbe008c9fbe008e1f7800d0b79f002a
:104b7000e1b79f00f2b79f0083bf9f0084b79f00fb
:104b800095b79f00a6b79f00b7b79f008000eb00c6
:104b9000f1af9f00e1af9f00d1af9f00c1af9f0079
:104ba000b1af9f00010678000d042000ccb79f0034
:104bb0000605be000404be007fae97006faf9700ed
:104bc0005fa89700e00f56000f003d00cf71de0098
:104bd0000c01460002817100f2af9f005d000700ea
:104be0004f20de00818040008100700064000700db
:104bf0000802be000a03be0060fd2f000f00400047
:104c0000b7ff07001d003700520007004f21de00ec
:104c10008180400081007100590007003faa970081
:104c2000cfaa97005fab9700efab97000800520048
:104c300089805a000a015b008b815b00b0af9f0046
:104c4000c1af9f00d2af9f00e3af9f004f70de0067
:104c50000c01460002007000130020000820e10053
:104c600009a8e1000ab0e1000bb8e1000100390039
:104c70008001eb0003005000f0af9f007fae970073
:104c8000e00f56000f00350010002000010020004a
:104c90006011b8005fb29700efb297007fb3970042
:104ca0008fbb9700040270008582700006037100bc
:104cb00087837100d4b79f00e5b79f00f6b79f00c8
:104cc00087bf9f00cfb297008502e800c5b79f005d
:104cd0008d8f5200b8ff3a000c017800e00f5100b0
:104ce00007003d000fb297009fb297002fb39700c7
:104cf000bfb3970060fd2f000f00400078ff070052
:104d0000ffa09700e08f500008003a003fac9700ea
:104d1000cfac97005fad9700efad9700d8b79f007d
:104d2000e9b79f00fab79f008bbf9f005fb0970065
:104d3000efb097007fb197008fb997004f077800c9
:104d40004f06be004f05be004f04be00ef01b1008c
:104d5000000006004f01de008e0047008100710058
:104d6000c1af9f00afa897004f09de0000004000d0
:104d700000007100b0af9f001faa9700000006005e
:104d8000a1af9f000e0007004f18de000402420092
:104d90000002720094af9f0009000700000040006d
:104da000818048000201490083814900b0b79f001b
:104db000c1b79f00d2b79f00e3b79f000000060075
:104dc0001fb09700afb097003fb19700cfb19700e9
:104dd00000000600881f780018002000881f780057
:104de0005dff07008f87e9004f0478000000060090
:104df000801feb0058ff07008f87e90000000600c6
:104e0000889fbe008a9fbe008c1f78006044b80057
:104e10006055b8000800e1000988e1000a90e1004f
:104e20000b98e1000d003d000000540081805c0003
:104e300002015d0083815d001c0020000820e1006c
:104e400009a8e1000ab0e1000bb8e1000b003d0049
:104e5000210007000006eb00080037000006eb0009
:104e6000e00f5200e08f5a00e00f5b00e08f5b0024
:104e700002003d00180007001c002000d5ff0700bd
:104e8000800578000105780082047800030478002a
:104e90000b0278008a027800090378008803780002
:104ea000e00f5600060032006000b8006011b80044
:104eb0000402500085825800060359008783590078
:104ec0000400be000601be004f0678004f05be007c
:104ed0004f04be00000006000402540085825c00fe
:104ee00006035d0087835d0000000600889fbe000a
:104ef0008a9fbe008c1f78006044b8006055b800df
:104f00000800e1000988e1000a90e1000b98e10047
:104f10000b003d000000540081805c0002015d0038
:104f200083815d001c0020000820e10009a8e10049
:104f30000ab0e1000bb8e1000b003d0006003700ad
:104f40000006eb00e00f5200e08f5a00e00f5b001c
:104f5000e08f5b0004003d000402540085825c0089
:104f600006035d0087835d00a1ff070080057800d0
:104f70000105780082047800030478000b027800b1
:104f80008a0278000903780088037800e00f560051
:104f9000060032006000b8006011b8000402500042
:104fa0008582580006035900878359000400be001b
:104fb0000601be004f0678004f05be004f04be003c
:104fc00000000600889fbe008a9fbe008c1f7800ec
:104fd0000006eb00e00f5000e08f5800e00f590092
:104fe000e08f590007003d006044b8006055b800ec
:104ff0000000540081805c0002015d0083815d003f
:105000001c002000e00f5200e08f5a00e00f5b0010
:10501000e08f5b0007003d006044b8006055b800b9
:105020000402540085825c0006035d0087835d00f6
:105030000c00a200800007000203be000002be00b8
:10504000e00f5600060032006000b8006011b800a2
:1050500004025000858258000603590087835900d6
:105060000400be000601be004f0678004f05be00da
:105070004f04be0000000600889fbe008a9fbe004d
:105080008c9fbe000404be000605be00809fbe00cb
:10509000829fbe002f000700040678000800be00b3
:1050a0000a01be002b000700840678004f03be00f3
:1050b0004f02be008d4f76007fb097001300330083
:1050c000f0ff2f008b8f6b0006003b000d06660083
:1050d0000c00a7000a00370007f0a600100020000f
:1050e0000a003700880f5200898f5a008a0f5b0030
:1050f0008b8f5b00030039001000200001003e0090
:105100000000200007f0a7000000ea004f06be00e4
:105110004f05be004f04be0000000600e4824000c0
:105120001078a30007003200640240001178a30049
:105130003400be001401be00040032000330a7009a
:10514000000006003500be001501be000330a000bf
:105150000000060005ff27000582610007003200fd
:105160000428e100010032002400050006000700c9
:1051700001003a0044000500040805000200070091
:10518000f9ff3a00140005006f826100810270008f
:105190008502710085027200000006008000780020
:1051a0005002be005003be004439de00f700b200da
:1051b000f37f200003016100090032000218e100c2
:1051c00016003a0085017200830173008381730029
:1051d0000008200015003a004000200013003700ae
:1051e00085017200830173008381730005003a001a
:1051f00004a8be0006a8be00100020000b00370067
:105200000201e9000402420085824a0006034b00c5
:1052100087834b000748a300f9ff32000740a00036
:1052200004a8be0006a8be00200020008000980050
:105230009200980000000600889fbe008a9fbe0072
:105240008c9fbe000404b8000506b800890446001f
:1052500060854e000606b8000a054600e0854e004f
:105260000706b8008b054600040eb8008904460006
:105270000a854e00e0854d00050eb8000a0546007f
:105280008b854e00060eb8008b0546000416b8004c
:105290000a0546008b854e000516b8008b054600b2
:1052a000041eb8008b0546000800be000a01be00bf
:1052b0004f06be004f05be004f04be0000000600b2
:020000040000fa
:1052c0004944000053090000454c000041420000e1
:1052d0005f4c0000414e0000474d00005549000062
:1052e000525f0000505200004f420000455f000036
:1052f0004453000050490000435f00005630000056
:105300002e31000009250000730d0000005300003d
:10531000544f00005045000044000000535400006a
:105320004f500000504900004e470000005200005e
:105330004553000045540000494e0000470000005e
:1053400069640000730000006366000067000000ed
:10535000252a0000730900002564000009250000cb
:1053600064090000256400000925000064090000ac
:105370002564000009250000640900002564000080
:105380000d000000434600004709000025640000ae
:1053900009250000640900002564000009250000bb
:1053a000640900002564000009250000640900006c
:1053b000256400000d000000434f00004e46000031
:1053c0004947000055520000494e000047000000c8
:1053d0006375000072000000435500005209000090
:1053e0000025000064090000256400000925000074
:1053f000640900002564000009250000640900001c
:105400002564000009250000640d00000073000001
:105410007472000000530000544100005254000018
:10542000494e00004700000053540000520d000098
:1054300000530000545000000d00000053540000c1
:105440004f500000504900004e470000005300003c
:10545000544f000050450000440000005354000029
:10546000504f00004b0d0000004300004f4e000065
:105470004649000047550000524900004e470000d1
:10548000005300005441000052540000494e0000f7
:1054900047000000524500005345000054490000f9
:1054a0004e470000004300004f4e000046490000f8
:1054b00047550000524500004400000043460000ec
:1054c000474f00004b0d0000005300005441000006
:1054d00052540000454400000053000054520000a4
:1054e0004f4b00000d0000005245000053450000e6
:1054f000544500004400000052530000544f000087
:105500004b0d000000000000303000003030000083
:10551000303000000030000030310000303000003a
:105520003734000030300000323d00003f310000d1
:105530003036000000300000303100003130000013
:1055400037340000303000003600000044410000d5
:10555000540d0000000d000035300000320900003d
:105560003433000030090000256600000a00000006
:10557000454e0000440d00000000000053540000a0
:105580004f5000004544000000000000525300004e
:08559000540d000000000000b2
:020000040000fa
:105598000000fa000080fa00000006000000fa008f
:1055a800d1458000401f2000808f50000200340049
:1055b800401f2000d0458800d14580000000eb0046
:1055c800808f500002003d000000eb00d0458800ad
:1055d800d0458000a0468800e045800090468800bd
:1055e800f0458000b046880000468000c04688002c
:1055f80091468000b0468000000178001100090043
:105608008200d80050468800a04680000000400074
:1056180080007800b0468000000178001100090081
:105628008200d80080468800514680000000eb00c8
:10563800808f500002003a00100020005046880079
:10564800814680000000eb00808f500002003a0085
:10565800100020008046880030468000e046880020
:105668000080fa00000006003000fa00881f780069
:105678000000eb00300798000000eb00000f7800f6
:10568800dec2a900e2c2a9000000200001f82b0038
:1056980010079800210798006000b800400798009c
:1056a800510798006000b8006007980071079800db
:1056b8006000b800000f9800110f98006000b80053
:1056c800200f9800310f98006000b800400f980034
:1056d800510f98006000b800600f9800710f980093
:1056e8006000b80000179800111798006000b80013
:1056f80020179800311798006000b80040179800ec
:10570800511798006000b80060179800711798004a
:1057180010468000cf80de00cdeb0700020020009d
:10572800a347240084eb070040079800510798001e
:1057380020468000cf80de00c5eb07000200200075
:10574800a34724007ceb07006007980071079800c6
:1057580011e1a800d0242000600888006501070036
:105768001007980021079800d202a900d602a800c5
:105778000000eb00000f780060aa2a00801f780064
:1057880014ef07008f87e9000e0037005901070062
:1057980010079800210798001e009000ae009000a6
:1057a800809fbe00b0aa2a00801f780009ef07007a
:1057b800e687570040062000320807000060fe0018
:1057c8001e0fe80018c0b3006e019000fe019000a3
:1057d8001e009000ae0090009beb07008000eb00dd
:1057e800810f500001003c000044eb000040eb003a
:1057f800804f540004003200703e20009e00780064
:10580800808f5000e1ff3400d602a900c05d20005f
:105818001c080700e2c2a800c05d200019080700a4
:10582800d882a900dc82a80060088000000040003f
:105838008000780030002000000178001100090085
:105848008280d800600c88000000eb00000f780010
:105858000e0037002701070010079800210798005d
:1058680020032000070807001e0fe8001e00900014
:10587800ae009000809fbe00b0aa2a00801f78006a
:10588800d4ee0700e68757000060fe0018c0b3009a
:105898004e019000de0190001e009000ae009000c6
:1058a80067eb07008000eb00810f50000100350016
:1058b8000044eb000040eb00804f5400040032002d
:1058c800f07c20009e007800808f5000e1ff3400bb
:1058d8000000eb00600c880011e1a900d024200032
:1058e800700888000000eb00404688000000eb00cc
:1058f800704688000000eb00900c880013e1a800b7
:10590800a1e2a80084e0a9008560a9000000eb00de
:10591800d046880075003700d1468000100020006e
:10592800808f500071003a000000eb00d0468800dc
:1059380051478000803e2000808f500002003400d4
:10594800703e20005047880061478000803e20005c
:10595800808f500002003400703e200060478800ad
:10596800514780004006200000017800110009001e
:105978008200d800f046880052478000f146800037
:10598800c0f92f000088b9000000780080004100ad
:10599800a000200000017800110009008200d80052
:1059a8000047880051478000a000200000017800cf
:1059b800110009008200d8008000fd00104788000f
:1059c80061478000400620000001780011000900ae
:1059d8008200d80020478800624780002147800065
:1059e800c0f92f000088b90000007800800041004d
:1059f800a000200000017800110009008200d800f2
:105a08003047880061478000a0002000000178002e
:105a1800110009008200d8008000fd00404788007e
:105a280081b32000d0002000eced0700f046800094
:105a3800004078000000fb000003b00081b32000a4
:105a4800e6ed070000478000004078000000fb00fa
:105a58000003b00081b32000e0ed0700104780008c
:105a6800004078000000fb000003b00081b3200074
:105a7800daed070081b3200090002000d7ed070081
:105a880020478000004078000000fb000003b000c1
:105a980081b32000d1ed0700304780000040780036
:105aa8000000fb000003b00081b32000cbed07002d
