:020000040000fa
:080000000001040000000000f3
:020000040000fa
:1000080090010000900100009001000090010000a4
:100018009001000090010000900100009001000094
:10002800900100005423000090010000900100009e
:100038009001000090010000900100009001000074
:100048009001000090010000900100009001000064
:100058009001000090010000900100009001000054
:100068009001000090010000900100009001000044
:100078009001000090010000900100009001000034
:100088009a1f0000900100009001000090010000fc
:100098009001000090010000900100009001000014
:1000a8009001000090010000900100009001000004
:1000b80090010000900100009001000090010000f4
:1000c80090010000900100009001000090010000e4
:1000d80090010000900100009001000090010000d4
:1000e80090010000900100009001000090010000c4
:0800f8009001000090010000de
:020000040000fa
:1001080090010000900100009001000090010000a3
:100118009001000090010000900100009001000093
:10012800900100005423000090010000900100009d
:100138009001000090010000900100009001000073
:100148009001000090010000900100009001000063
:100158009001000090010000900100009001000053
:100168009001000090010000900100009001000043
:100178009001000090010000900100009001000033
:100188009a1f0000900100009001000090010000fb
:100198009001000090010000900100009001000013
:1001a8009001000090010000900100009001000003
:1001b80090010000900100009001000090010000f3
:1001c80090010000900100009001000090010000e3
:1001d80090010000900100009001000090010000d3
:1001e80090010000900100009001000090010000c3
:0801f8009001000090010000dd
:020000040000fa
:100200008fa120000eff20000e01880000000000da
:100210000c000700c00222000100200011000700ae
:10022000000020000000e000020032000000020098
:1002300000000000b0240200000000000040da00ce
:100240000000fe004440a900401820000000e0002b
:100250000300320000002000a00188004440a800f4
:100260000000060091018800800078000000eb008b
:1002700015003700e280400032a0b4009101ba00be
:10028000e280400032a0b4009102ba00e280400057
:1002900032a0b4000002eb00472bde00f507b200ed
:1002a000602ce10004003a000059eb008301e900f2
:1002b000fdff3e00040037006128e100010032002c
:1002c0000082eb00040007001101ba000200e00008
:1002d000e8ff3a00000006003159ba008301e90046
:1002e0000c0032002159ba008301e90008003200f5
:1002f0000400e00003003a00e280400032a0b400b5
:10030000f5ff370011d9ba008301e900faff3a007e
:100310008100e800e180400032a0b4000000060047
:100320000040da000000fe001004b10007003500b4
:100330009001b100040034007000b10003003500ea
:100340009001b10001003c00100005000000050014
:100350006900e100040035006d00e1000300340095
:100360000002b1000100320000000500100005008d
:100370001004b100030035009001b10001003c0001
:100380001000050000000500800078001104b10095
:10039000030035009101b10001003c000050a000b5
:1003a00000000600b010800066006000e60f5000fc
:1003b00002003a00e010800000000600e01080001b
:1003c000f00fb20000000600889fbe008a9fbe00aa
:1003d0008c1f7800ba000700c100330003866c0050
:1003e0006450e1002e0032006420e100330032004e
:1003f0006150e1002f0032006120e1003100320045
:1004000085855500eb07b000090020000804200096
:10041000050037000804440089844c000a003100bc
:100420000603430087834b000001530081815b007a
:10043000f8ff33000203be000800a00008044400d7
:1004400089844c00f6ff3900c639dd008301730052
:1004500001003200130020008904d1000884d30079
:100460000998a300050032000800a7000300a000bf
:100470008904d1000884d3008b05e8008904d100e9
:100480000884d3000001eb000281d2005100070074
:1004900001f0a1000cf0a70001f0a00099003700c6
:1004a0006420e1009b0032000801be000200be0093
:1004b000f7ff37006120e100960032006000b800cd
:1004c000f3ff37000000200001f82700f0ff37009d
:1004d0000001be00650007000470a70003f0a10042
:1004e0006509b100160032000d0035006828e100f2
:1004f00006003500f0ff2f00f1ff27000300e000a9
:1005000013003b000100280000000500000040002f
:10051000818048008502e900fcff3a0008003700ae
:10052000f88f420002003c008000eb000000050054
:100530008100d1000080d3008502e800fcff3a0072
:100540000300e00002003b0060001000e0801800a3
:10055000000006000001be00440007000470a70070
:1005600003f0a10003f8a30013003a006509b100ed
:1005700010003200090035006928e1000200350052
:1005800001002800000005000000400081804800b4
:100590008502e900fcff3a0000000600f88f4200e7
:1005a000050035008100d1000080d3008502e800fd
:1005b000fcff3a00000006008000eb000000050090
:1005c0004f89de0082017800890037006011b80091
:1005d0009700370081002000618055000b003d002e
:1005e0000b00200061fe2f000100e1001d0034001f
:1005f00082817100610164008904d1000884d30004
:100600000000e800faff3a00710020006100640079
:100610000300700002006000090032006104440021
:10062000e0844c000988a500050032008b05e80035
:100630006808e10002003a008904d1000884d30070
:10064000f20f20000258e10005003d00c75ddd000b
:10065000f907b200898075000800780000000600e4
:100660000bf827008b00780000000500c70ade00a9
:10067000f107b200f50fb20008003200e1cf4200ee
:10068000020032000170a00024000500810f7000fc
:10069000010032000408050044000500810f7000cd
:1006a00002003a00140005008502e9000000400045
:1006b00081c04800fcff3b000170a0002400050041
:1006c0000004be00e9ff07000003be000405be00f1
:1006d0000200be00e5ff0700844f75000000060021
:1006e0000200be006450e100050036006420e10015
:1006f000020036000968a30001003a000800be00ad
:100700000160a0004f0678004f05be004f04be00f8
:1007100000000600f0ff2f00f1ff2700f9ff37006f
:10072000889fbe008a9fbe008c1f7800e4ff0700f0
:10073000ebff330003866c006450e10024003200bc
:100740006420e100270032006150e1002200320005
:100750006120e100210032008b854200eb07b100ef
:100760000134b800003ab8000804420089844a0005
:10077000013ab8000030b8008880400009014a0002
:10078000040033000000400081804800020149005d
:100790008b05e900c909dd0083017000010032000a
:1007a00013002000c814de004814dd004709de00f5
:1007b0001200b200c808de000884700085ff070040
:1007c00001f0a1000cf0a70001f0a000cdff370060
:1007d0006120e100cfff32000801be000200be0030
:1007e000f7ff37006150e100fcff3a00c9ff370016
:1007f000881f7800030478000300e00007003d0034
:1008000060001000e080180060011900e08119000c
:1008100002003b0001f02d00030037000400070038
:1008200008f0a70001f0a0004f04780000000600c7
:10083000889fbe008a9fbe00008270000402710083
:1008400004827100260032000004be000200be00d7
:100850006011b8006b092000950220000182cf00d2
:100860000a0039000541b1000082cf0007003900bd
:100870000541b1000982cf00040039000541b100f3
:100880000882cf00010039000541b1000542520045
:10089000120032000a003b00828171006101640095
:1008a0008100d1000080d3008984d3000884d30064
:1008b0008b05e8000442e800f7ff3a000700370024
:1008c0000804440089844c000000480081804800ee
:1008d0008b05e9000442e900f9ff3a003dff0700fb
:1008e0004f05be004f04be0000000600889fbe00fa
:1008f00001047800b8009000628160008084eb0001
:100900003c003200810178000320b2001801900001
:1009100002003a00e00f510036003a000190a000ba
:100920003104980080047800f90fb200e00f510004
:1009300002003a0028009000000c7800ea8f540072
:1009400006003a00010078000008b20003003a00f7
:1009500088007800d0002000e4ff07001800900015
:10096000d8009000810f50000b0032000000e8001a
:10097000100498001800780009487800000ce8007e
:1009800010c0b300e1a0200080487800ea8f540036
:1009900018003a0005003700880078000940780008
:1009a000a002070080047800120037003800900091
:1009b0000010b2000f00320018019000a800900053
:1009c000480090003507070098009000810f500004
:1009d00004003200380090000003b3003004980097
:1009e0008084eb000000eb001004980028009000c9
:1009f000000c7800090078004f04be0000000600db
:100a00008001780002003700b159780004017800b5
:100a10000202e900e00f5100fbff3a00000006006f
:100a20009041780031c1510004003a00e0cf5100fc
:100a3000020032000000e800f9ff37000200fb006e
:100a4000000006000d00370010417800e04f510013
:100a500002003200914f5100050032000281fb007c
:100a6000914078000180fb0000005100000006006a
:100a70000000e8008100e800030178008201e9003d
:100a8000e00f5100f0ff3a0002007800000006007d
:100a9000419f200095ff37000c00fa00a0bf9f0087
:100aa000c0bf9f009f020700b0bf9f00f0bf9f0024
:100ab000100c2000d0bf9f0074815700efb097004a
:100ac0006c805700340007000080fa000000060028
:100ad000881f7800b0508000d10107000004780022
:100ae000080078001afe0700e00f5000f9ff3a00f6
:100af000e10f440003003200b1508000080078008c
:100b00008f0207004f04780000000600889fbe0097
:100b10008a1f78000004780081447800020578007c
:100b200000fd2f0008004000e90f500002003e00c9
:100b30000004780010003700080078000cfe070061
:100b4000e00f500005003200e00f550003003200b6
:100b5000080078000cfe0700000478000800780008
:100b6000f1fd07008000780000c0eb00e08f50002e
:100b7000060032007805b1008984fb0000c0eb005c
:100b8000890f540001003d00084078004f057800af
:100b90004f04be0000000600f2874700889fbe0099
:100ba0008a9fbe008c9fbe008e1f78008001780057
:100bb000e1b79f00d2b79f00b35088000000eb0060
:100bc000b0b79f0080407800e1ef9f005d013700e3
:100bd0006fb097000000e800e0b79f000885fb00b9
:100be0000a007800dafd0700e00f50000200320032
:100bf000b7ff07005301370051c2b300814f5400c3
:100c000041013a0021c0b300004778006fb297005d
:100c10000145780084067800040037002ac0b3003c
:100c2000010037004ac0b3000d0278003d4478004f
:100c300081c6b300814f5400f8ff320015003e001a
:100c4000f0c05000814f54002f0032000a003e00d7
:100c5000ecc05000814f54002700320086003e0057
:100c6000e04f5400bb003200a1c2b300814f5400da
:100c700081003a001e00370031c6b300814f540096
:100c8000600032008140e800814f54007a003a0051
:100c90008d00370031c7b300814f5400210032006e
:100ca00007003e00e7c05000814f540012003200a0
:100cb000e3c04000814f54006f003a0087003700c6
:100cc00051c7b300814f54007f003200e3c04000a1
:100cd000814f540068003a00cae79f000046780040
:100ce000edb79f000000eb00b0b79f000b0037008e
:100cf0000e47e800ccff3700e24f5500c9ff320035
:100d00008ac0b300c8ff3700cae79f0000467800da
:100d1000edb79f0011002000b1b79f000dc1b300d7
:100d20007200370000467800edb79f0068ff0700ab
:100d3000e04f570004003a005fb09700c000780011
:100d4000d0b79f00c1b79f00b050800034010700aa
:100d500000047800e10f440014003a000800780015
:100d6000f4003700efb097001100fb00800f540033
:100d700005003a000a007800c0b79f008100e80033
:100d8000e1b79f0017003700e04f570001003a001d
:100d9000085d78000c46e9000d003200b05080007c
:100da0001f01070000047800010037004fb59700cd
:100db0000800e800e10f5000080036000800780045
:100dc00063fd0700e00f5000e6ff3200030037002c
:100dd0000a007800c0b79f00020037008a00780040
:100de000c1b79f00e04f5700d6003a006fe8970068
:100df0000040e800e0ef9f00cfb097008e487800f9
:100e0000d000370000467800edb79f00e04f570054
:100e100008003a006fe897000040e800e0ef9f000c
:100e2000dfb0970041007800d1b79f000004780040
:100e3000010037004fb49700b0508000f800070061
:100e400080007800e18f400002003a000100780045
:100e5000b8003700e04f570001003a00015c78000d
:100e60000c46e9004240a900f3ff3c00080078006e
:100e7000c0b79f00b30037000884fb0000fd2f00bf
:100e800008004000e90f500009003e00040078000f
:100e9000bf000700010037008d06e8009d00fb0041
:100ea0000103b100e98f5000fbff36005eff370001
:100eb000edb79f00b0508000d9000700800f5400ac
:100ec00097003a009f003700cae79f00004678006d
:100ed000edb79f00adc0b30004003700cae79f0024
:100ee00000467800edb79f008dc0b300f8fe070004
:100ef000b0508000ca000700800278000040eb007c
:100f0000b0e79f00d3022000838f520005003a0013
:100f1000b0508000c20007008002780011c0b3000a
:100f2000b1e79f003fb197008d4078000500780041
:100f300085bf9f00f5fe0700804178008fba9700bb
:100f4000e1cf41000e003a00b1508000050078006a
:100f50007b0107006fe89700e04f5000020032006d
:100f6000804078007c003700b05080003000900056
:100f700070006000790032000080eb0077003700dd
:100f800003032000838f52001b003a00b050800002
:100f900085bf9f00a2000700800178008407200021
:100fa0008fba9700848f510004003a003fb0970039
:100fb000e00f5000070032000a00370084052000cf
:100fc000848f510007003a00bfb09700e08f5000b7
:100fd00004003200b05080009100070080027800c9
:100fe00005003700b15080000300780085bf9f00e6
:100ff000530107008fba97006044b8000d85fb00cd
:101000000b0020000e407800a0e79f000507780045
:101010000a01be000800be00df0507000004be0094
:101020003fb197008d4078000e007800b7fe0700b2
:10103000004278000482fb00050020000404440004
:1010400085844c000c46e9000a003200b050800054
:1010500073000700000778003fb197008d407800cb
:101060000e007800a9fe070080417800e1cf410022
:10107000e7ff3a008e0278002fe797003fb1970014
:101080008d4078000500780085bf9f009ffe070017
:10109000804078008fba9700e1cf400003003a000b
:1010a000b15080000500780025010700bfe09700df
:1010b000e0cf50000200320060041400e0841c0005
:1010c000e04f57001f003a006fe897000040e8002b
:1010d000e0ef9f00dfb097000180e900cfe09700cc
:1010e000e4cf500004003a00d0b79f009000780091
:1010f0008888be0013003700d0b79f0090007800aa
:10110000880878000f003700b050800044000700c6
:1011100080007800810f55000a003200010078003d
:10112000e10f400003003200b150800004010700cd
:1011300008003700efe89700e0cf500006003a00c3
:10114000060037006fb0970010447800e04f54005d
:101150009ffe3a00efe897000180fb004f07780000
:101160004f06be004f05be004f04be002f01b10068
:10117000000006000000fa0068815700cfb8970011
:10118000409f20000d0107000080fa0000000600cb
:1011900002c2b300010037000000e8009040780070
:1011a00082cf5000fcff3200e9cf5000faff32003e
:1011b000d2c2b30082cf500003003a000000e80022
:1011c00012c0b300050037000041eb00b3c2b3000a
:1011d00083cf500001003a000000e8008000eb00df
:1011e000050037006a0ab90001fd2f008480400025
:1011f000838040000000e8009001fb0004fd2f0008
:1012000003024200e90f5200f6ff3600e04f5100a2
:10121000010032008100ea000100780000000600b1
:10122000881f78000004780038009000f10060000a
:10123000e18f500006003a00800078000120b200e3
:101240000800320098009000e08f50000500320046
:10125000380090000040a000300498000080eb00af
:10126000200037000090a100300498001800900082
:10127000e00f5000070034000000e900100498005f
:1012800098007800114178000280fb00010ce80012
:1012900005003700380090000004b200ecff3a006f
:1012a0000800780011000700b80090000108b200a3
:1012b0000c003a00fa0f500008003a002800900095
:1012c000e00f5000e2ff3200180090000000e8003c
:1012d00010049800180ce900ddff3700ed0f5000f6
:1012e000e2ff32004f047800000006000200fa001e
:1012f000889fbe008a9fbe00000478000000eb00bb
:1013000010049800b8009000e18060000080eb00bd
:1013100040003200e0a020008040eb0090cf1000a1
:101320000f003200899e20002b1020004a0220006e
:1013300009054500390090002010b2008b0f5000c5
:1013400002003a000900780073040700ec844400ae
:101350008a8f5400f7ff3a00e0a020000048eb001d
:1013600058019000e00f51000e003a00120498005e
:1013700012002000ea805700480090009204070005
:10138000e10f500003003a006ff197000280fb006c
:1013900020003700380090000040a0003004980082
:1013a00013003700a8009000480090008604070052
:1013b00010049800e00f500003003200e10f4000dd
:1013c0000d003a0003003700380090000040a000f4
:1013d00002003700380090000003b300300498008a
:1013e00028009000000c78000000eb00100498002a
:1013f0000080eb0007003700a8009000010c780087
:101400000000e90010049800114178000280fb0000
:10141000010ce8004f05be004f04be000080fa003a
:10142000000006000200fa00889fbe00a0ff9f0097
:101430000104780038009000800078000104b200b8
:1014400033003a00e200600005003a000003b300f8
:1014500030049800110498000080eb002e00370043
:10146000d8049000e08f540006003a0012002000db
:10147000e68057004800900088040700190498008f
:1014800023003700a8009000e08f500008003a00c9
:1014900011a1200021049800010c780021002000f7
:1014a00051049800110498000030a0003004980006
:1014b00018019000a80090004800900077040700f1
:1014c000280090008080eb0011049800aff897008e
:1014d00001487800000ce8002ff89700ea4f500010
:1014e0000b003a00380090000010b20008003200f3
:1014f00018019000a80090004800900067040700c1
:101500000000eb0010049800a8009000010c780087
:10151000aff897000100fb004f04be000080fa0006
:1015200000000600800078000041eb00b14f110080
:10153000fdff3a000080ea00008040000000060045
:10154000e10f40001c003200310190001220b20077
:10155000e10f510015003a0021029000e00f520007
:101560001200320011019000d1019000830f510050
:101570001000320091017800848f510002003a007f
:101580008308e800020037000201e800920098009a
:101590001101e90082087800b10090000104b20056
:1015a00005003a0000497800000006000080eb00ca
:1015b000000006000080eb00000006000f04b000f1
:1015c000889fbe008a9fbe008c9fbe008e1f780041
:1015d000c0b79f00d1af9f00a2b79f000000eb00f3
:1015e000c0033700dfa897008100e800d1af9f005b
:1015f00052c2b30082cf520006003a000007eb004f
:1016000006c3b30003c2b300b1c2b3005fa8970022
:1016100014003700cfb19700330190000204b200ec
:1016200005003200030278009401780085497800b3
:10163000030ae800070037000501fb00cfb0970060
:1016400002007800a9fc070000017800e10f4100ca
:10165000a5033200bfb297008502e800b5b79f002e
:10166000a103370090427800d7c2b30087cf520061
:101670000b0032000001e80087cf520005003c005b
:1016800083cf52000900320081cf52000e003a0091
:101690000800370086cf52000b003a0007003700e1
:1016a0000e30a0000000e800eeff37000e00a000a2
:1016b000030037000e10a000010037000e20a0002c
:1016c00002007800e7ff3700d0af9f00e20167001b
:1016d000010032000e00a100e801670001003200a5
:1016e0000e20a1008501fb000303b100e98f51002a
:1016f0000d003e00000020005fa997006a00b900bd
:101700000003b1009200fb0001004000d200fb008a
:101710000103b100e98f5000f8ff3600c0af9f0011
:10172000d2af9f000c0037008004eb00c9af9f00d0
:10173000a3c2b30083cf520007003a002fb5970031
:10174000ca057800aab79f00cbaf9f005fa897009b
:101750000000e800d0af9f008000eb00e1af9f00e9
:10176000e3c2b3005fa9970092cf11001e003a00b8
:101770000ee0a000e4c151000201e800d2af9f00da
:1017800012427800834f52000d003a00afb297002a
:1017900045037800a5b79f00e6af9f00820378005d
:1017a0008703e80007017800100037006a00b900dd
:1017b0000003b100020040008301e800020037008e
:1017c0006fa89700dfa997001301fb0001fd2f0010
:1017d00082804000e98f5000f4ff3600e0af9f00a8
:1017e00003017800010037005fa9970032427800ba
:1017f000c4779f00c8c6b300884f52002300320050
:10180000d2af9f000f003c0035c6b300854f520099
:10181000a700320004003c00e04f520037033200c2
:1018200083c5b3000f00370043c6b300834f520097
:10183000c4003200e5c14100834f5200ba003a00b3
:10184000c000370035c7b300854f52001a00320080
:1018500007003c00f3c6b300834f52001100320072
:101860008341e800834f5200af003a000f00370079
:1018700053c7b300834f5200b1003200e3c14100af
:10188000834f5200a8003a0009003700700067003b
:101890000100280001003a00010120000107770043
:1018a000d2ff37000e60a000a60037000e50a00047
:1018b0000e70a000a3003700afb49700c9027800f3
:1018c000a9b79f00d5b79f00e08f520002003a00f1
:1018d0000b9e2000dbb79f000000eb00e0b79f00ed
:1018e0005fb09700efb097007fb197008fb9970076
:1018f000010037008500e80081027800614278002d
:10190000e04f5200fbff3a00d0b79f00e1b79f00c5
:10191000f2b79f0083bf9f00efaa9700e08f5200ad
:10192000050032006fb39700868f5200020031002d
:1019300085037800e7b79f00efb297000006eb0041
:101940004fac9700850f5400010036000506540087
:10195000680767002f003a008c01780008c2b300c6
:10196000cfb69700100037003d0090000004b20091
:10197000040032001d00780008487800800ee8005e
:10198000050037008d00780000022000d7fb07001b
:10199000e10f400003003200bfb497008904e80063
:1019a000b9b79f008c0178000c06e900e08f510068
:1019b000edff3a00170037003d0090000004b20030
:1019c000090032009d01780008017800324078005b
:1019d00080497800830ee80002047800e04f500050
:1019e00008003a0010003700080178003200fb00c0
:1019f000020478008d007800bcfb0700e10f400076
:101a0000090032003fb097000000e800b0b79f0027
:101a1000050037005fb49700efb497007fb59700db
:101a20008fbd9700cfb69700090078008004e900c9
:101a3000e00f5000e0ff3a00d8b79f00e9b79f00e1
:101a4000fab79f008bbf9f00e00f5700a60232003d
:101a500011003700380090000004b200040032008a
:101a6000180078000d487800000ce80005003700e9
:101a700088007800000220009cfb0700e10f400076
:101a800003003200bfb297008502e800b5b79f009f
:101a90000e067800020037000dc2b3004fb4970065
:101aa0000c07e900e00f5600eaff3a008e0237000b
:101ab0002fb3970046047800a6b79f00cfc4de007e
:101ac000090578008a0578000802be000a03be00f6
:101ad0004822de004828dd0004027000c4779f0021
:101ae0007006670009003200e04f52000700320024
:101af000e14f420005003200d4779f00e8779f0055
:101b000021002000e1b79f0003003700d8779f0035
:101b100012002000e2b79f0053fb2f008381470093
:101b2000d3b79f007cff370044fb2f00048247009f
:101b3000d4b79f0015002000e5b79f0076ff37005f
:101b40000e0cb3000e007800000cb2003b003a000f
:101b5000e00f570005003d002fb097004005be0084
:101b60004004be00a0b79f000f0037007000670060
:101b7000120032002fb297004401be00a4b79f00ac
:101b8000e29f9f00f39f9f00140090004f80de00b3
:101b900080a79f0090a79f006f9c9700ff9c9700d5
:101ba0000fa597009fa59700d8b79f00e9b79f00a2
:101bb000fab79f008bbf9f000b003700afb49700b0
:101bc00049027800a9b79f0004007800cf80de00aa
:101bd0000101780082017800d0b79f00e1b79f0033
:101be000f2b79f0083bf9f005fb29700efb29700ec
:101bf0007fb397008fbb9700e00f5200e08f5a0031
:101c0000e00f5b00e08f5b0032003d003e00b30060
:101c10006022b8006033b8005fb49700efb497005b
:101c20007fb597008fbd97000804520089845a0041
:101c30000a055b008b855b0022003700e00f570030
:101c400005003d002fb297004401be004400be00d5
:101c5000a4b79f000f003700700067001200320029
:101c60002fb497004803be00a8b79f00e6a79f00c7
:101c7000f7a79f008004eb0089af9f000005eb00f1
:101c80009aaf9f006fa09700ffa097000fa9970041
:101c90009fa99700d0b79f00e1b79f00f2b79f00c0
:101ca00083bf9f000b003700afb097004102780060
:101cb000a1b79f0004047800090020000a0020005a
:101cc0000b002000d8b79f00e9b79f00fab79f002c
:101cd0008bbf9f00efac9700e08f54000d003a00df
:101ce0001a002000eaaf9f005fb09700efb09700a6
:101cf0007fb197008fb99700e00f5000e08f580038
:101d0000e00f5900e08f5900020032008000eb0024
:101d1000e1af9f000e017800020cb200b2af9f004d
:101d200005042000850f51003f00320003003c00f5
:101d3000e00f510008003200560037000408200070
:101d4000bfa99700848f51001b003200040c2000b3
:101d5000848f51004f003a0013c0b300c3779f0037
:101d6000e1912000100037000200fb004300dd007d
:101d7000008040003002be002003be005fb4970028
:101d8000efb497007fb597008fbd97000440e10046
:101d900005c8e10006d0e10007d8e1003d003900a8
:101da0000241e800c2779f004f719700f44f510045
:101db000edff3a003700370013c0b300c3779f0030
:101dc00004012000050020006033b8001200370035
:101dd0005fb49700efb497007fb597008fbd970071
:101de0000440e10005c8e10006d0e10007d8e100a9
:101df00028003900490020000402d0008582d2006a
:101e00000683d2008783d2008904e900faff3a00f2
:101e10000040e800c0779f004f709700f04f5000df
:101e2000ebff3a001b00370013c0b300c3779f00dd
:101e300084002000050020006033b8001200370045
:101e40005fb49700efb497007fb597008fbd970000
:101e50000440e10005c8e10006d0e10007d8e10038
:101e60000c003900390020000402d0008582d20025
:101e70000683d2008783d2008904e900faff3a0082
:101e80000040e800c0779f004f709700f54f50006a
:101e9000ebff3a004f7597008a02fb00efad970009
:101ea0008b8f520002003d00cb779f00040037006b
:101eb0006fa89700850f500001003d00e5af9f001f
:101ec000cfa89700e08f5000040032006302670043
:101ed000020032008100e900c1af9f00040024002d
:101ee00004026700090032004fa99700efa997008c
:101ef000830f51000300340003015100c2af9f0063
:101f0000020037000002eb00c4af9f004f73970040
:101f10008602fb008003eb00a7af9f004fac970049
:101f2000850f54000200340085025400a5af9f00c5
:101f3000640267004c003200e20267006103670040
:101f4000e08f52001b003200cfb49700390290009e
:101f50000404b2000900320099037800b5c2b3004e
:101f6000e00f53000100320085c2e800854b780085
:101f70004fb59700070de8000a003700d502200092
:101f8000e00f530001003a008582e900cfb09700ce
:101f90000500780055fa070000027800e10f4200c2
:101fa00018003200bfb597008b05e800bbb79f0053
:101fb00014003700e00f5300120032004fb09700ba
:101fc000300290000404b200050032009002780054
:101fd00003c2b300834a78000508e8000600370012
:101fe000cfb097000002200040fa070000027800fe
:101ff000e10f420003003200bfb097008100e8000b
:10200000b1b79f002fa99700e00f510011013200d6
:1020100008c3b300820678004fb697003c009000da
:102020000004b200040032001c0078000848780068
:10203000000ee800050037008c0078000003200047
:102040002afa0700e10f400003003200bfb19700f9
:102050008301e800b3b79f008d06e900efff3a0067
:10206000adaf9f00fb0037002faa9700e00f520092
:10207000170032006802670015003a0008c2b3007a
:10208000afae97004fb697003c0090000004b2003e
:10209000040032001c00780008487800000ee800b8
:1020a000050037008c007800000220000ffa0700be
:1020b000e10f400003003200bfb297008502e80044
:1020c000b5b79f008d06e900efff3a00adaf9f0066
:1020d000e202670061036700e08f52001c003200db
:1020e000cfb39700370290000404b2000a00320018
:1020f0000704780098037800b5c2b300e00f5300de
:102100000100320085c2e800854b7800cfb497000b
:10211000870ce8000a003700d5022000e00f5300ca
:1021200001003a008582e900cfb0970005007800f1
:10213000eef9070000027800e10f4200c50032000e
:102140003fb597000a05e800bab79f00c100370005
:10215000e00f5300bf003200cfb597003b02900064
:102160000404b200050032009b02780003c2b300f1
:10217000834a7800850de80006003700cfb097004d
:1021800000022000d9f9070000027800e10f4200a8
:10219000b00032003fb097000000e800b0b79f00e9
:1021a000ac0037000e07e90000042000bfa897002c
:1021b000808f50008200320003003c00e08f50000e
:1021c000080032008e003700000820003fa9970069
:1021d000800f510065003200000c2000800f51007c
:1021e00087003a004370dd00cfa99700e08f5100cf
:1021f0002a003d00e4912000000042003004be00af
:102200002005be00e8af9f00f9af9f008ab79f008e
:102210009bb79f000802be000a03be005fb0970094
:10222000efb097007fb197008fb99700ee010700dc
:10223000c0779f000004fb00cfc4de0009057800d2
:102240008a0578006faa9700ffaa97000fb397003e
:102250009fb397000800be000a01be004e020700af
:102260000203be000002be005fb09700efb097000f
:102270007fb197008fb99700040050008580580007
:102280000601590087815900d0b79f00e1b79f0030
:10229000f2b79f0083bf9f0030003700df989700a0
:1022a000e08f50001f0032005fb69700efb6970036
:1022b000e2912000000041003004be002005be0075
:1022c0000801be000c00be0023010700c0779f007c
:1022d0000000fb00cf80de000801be002e010700d9
:1022e0000002560081825e00a4a79f00b5a79f0050
:1022f0008002eb00c5a79f000003eb00d6a79f005c
:102300002fa49700bfa497004fa59700dfa59700c3
:10231000d8b79f00e9b79f00fab79f008bbf9f0017
:102320000e003700e9912000690178005fb5970041
:10233000811f7800110009000285d800cf007800c5
:10234000a2002000811f7800110009000280d8003f
:1023500001007800cf007800c0779f00cf7597000c
:102360000b43b000cb779f0025003700e49b200093
:102370004f989700e00f500001003a00f49c2000b5
:102380004270dd005fb49700efb497007fb597000f
:102390008fbd9700800278008502e90005003300b8
:1023a0008b05d1000a85d3008984d3000884d3002b
:1023b000f9ff37006f006400644078000f003700b9
:1023c0006370b9005fb49700efb497007fb59700d2
:1023d0008fbd9700000278000402e9000500330079
:1023e0008b05d1000a85d3008984d3000884d300eb
:1023f000f9ff3700674064000043b000c0779f00da
:10240000cfb29700350090000004b2000700320000
:10241000150178004f70970000497800820ae800a3
:10242000e04f500007003a00120037004f7397004a
:102430000600fb00cfb097002cf90700e10f400029
:102440000c003200bfb397008703e800b7b79f00c6
:102450000800370070046700d89f9f008e04780042
:102460000902b200c99f9f000e057800caaf9f0005
:102470006faf9700e00f57004aff3a004faf970049
:102480006801670018003200afad9700e08f55007b
:102490001500340008c2b3008b0678003fb79700e0
:1024a0004fb697003c0090000004b20004003200d8
:1024b0001c00780008487800000ee800050037008e
:1024c0008c0078000002200008f90700e10f4000ae
:1024d000010032000e07e8008d06e900f1ff3a0026
:1024e0000e007800b0b79f00dfa8970091427800f7
:1024f000c5779f00e0cf52003afc3a003fb097000a
:102500004f0778004f06be004f05be004f04be00c7
:102510000f04b10000000600881f78000004780056
:1025200038009000800078001120b200e18f500048
:1025300005003a008000eb0011049800a80090000c
:10254000010c780019003700000178002220b20049
:102550000000eb0021202000810f510016003a00fe
:10256000a8009000808f50001300320018019000e6
:10257000800f510010003200480090004700070013
:1025800098009000810f5000030032003800900046
:102590000003b300300498000000eb001004980022
:1025a00028009000000c7800380090000002b20073
:1025b000010032000080eb004f04780000000600ac
:1025c00000c0da00000006000a00fa00e00f500028
:1025d00026003a00a0508000e10f500006003200b3
:1025e000e0212000c521200084212000632120005b
:1025f000e00f500004003a00402120002521200077
:10260000e4202000c320200006002800930363007c
:1026100002003a000708780093097300020078006e
:102620000c0037008301e9009403780061836300a4
:1026300002003a00e08f5100faff3a0014037800dc
:10264000e1016300070032009501780083587800ab
:102650000000e900e00f500002003200030a2000f1
:10266000f1ff370000005100080037002300200070
:10267000b3bf9f00c0bf9f00d1bf9f00e2bf9f00bc
:102680006a805700ceff07006fb897000080fa00fd
:102690000000060000c0da00000006000a00fa0090
:1026a000e20f500021003e00a0508000e10f5000da
:1026b00006003200e5212000a42120008321200013
:1026c00060212000e08f520004003a0045212000e4
:1026d00004212000e3202000c02020000600280064
:1026e0009003630002003a00870a78001008730024
:1026f000004020001300600001003a0013a0a00079
:102700000200780006003700930278000510b2003e
:10271000fdff3200b102fb00050a78000000e9006d
:10272000e00f5000f8ff3a000800370033002000a7
:10273000b3bf9f00c0bf9f00d1bf9f00e2bf9f00fb
:102740006a805700d3ff07006fb997000200780036
:102750000080fa00000006006022b8000602200097
:102760000000d0008180d2000482d2008582d20095
:102770000000a0000202520083825a0003003100d0
:102780000202420083824a000000a1000603e90021
:10279000f3ff3a0000000600020ab900001bb9006e
:1027a0000200b800810042008100430000000600e2
:1027b000889fbe008a9fbe003004be002005be0078
:1027c0000404440085844c0006054d0087854d00b7
:1027d0000898be000a90be000440e10005c8e10070
:1027e00006d0e10007d8e100020031006800400097
:1027f0001008e8004f05be004f04be0000000600b0
:10280000889fbe008a9fbe008c1f7800000678005b
:102810003c04be002c05be000400540085805c0012
:1028200006015d0087815d00009ebe00029ebe0025
:10283000100020000440e10005c8e10006d0e100de
:1028400007d8e100010039000000eb001c0e100069
:102850004f0678004f05be004f04be000000060082
:102860001200fa00889fbe008a9fbe008c9fbe00a7
:102870000205be000004be00e4b79f00f5b79f004c
:1028800086bf9f0097bf9f000000eb00d0b79f005e
:10289000c0b79f00b0b79f00a0b79f0090b79f0040
:1028a00000067800fd032000dfb197004fb09700cd
:1028b00003814100bfb09700e08f510004003d004c
:1028c000290007007e805700b9ff0700030037008a
:1028d000250007007e805700c9ff0700dfb0970082
:1028e000e08f500007003500140020000500200094
:1028f0006033b80008047200898472000a0573000e
:102900008b8573000c06e8008d0f5600e6ff34003f
:10291000e08f500006003d006fb29700ffb29700b5
:102920000fbb97009fbb97007e805700a0ff07005a
:102930005fa89700e00f500004003a001fb4970012
:10294000afb497003fb59700cfb597000800be0021
:102950000a01be004f06be004f05be004f04be0078
:102960000080fa0000000600cf01de000281710045
:10297000b2b79f004f09de00000040000000710068
:10298000a0b79f000fb097004f01de00818040008c
:102990008100710091b79f007faa9700cf20de00d1
:1029a000000040000080700080b79f000800be005b
:1029b0000a01be004f18de0004024200000272004d
:1029c000f4af9f000804440089844c000a054d00c0
:1029d0008b854d004fb29700dfb297006fb3970021
:1029e000ffb3970000000600881f78001800200041
:1029f000881f78009aff07008f87e9004f0478004e
:102a000000000600801feb0095ff07008f87e9009c
:102a100000000600889fbe008a9fbe008c1f7800c1
:102a2000e00f5000e08f5800e00f5900e08f590090
:102a30000f003d006044b8006055b800000054002d
:102a400081805c0002015d0083815d001c0020002c
:102a50000820e10009a8e1000ab0e1000bb8e1009c
:102a60000d003d00190007000006eb000a003700ca
:102a70000006eb00e00f5200e08f5a00e00f5b0011
:102a8000e08f5b0004003d006044b8006055b80072
:102a90000e0007001c002000d3ff0700e00f5600c7
:102aa000060032006022b8006033b8000000520017
:102ab00081805a0002015b0083815b004f06780031
:102ac0004f05be004f04be00000006000402540083
:102ad00085825c0006035d0087835d0000000600c0
:102ae000889fbe008a9fbe008c1f7800e00f5000b8
:102af000e08f5800e00f5900e08f59000d003d00b5
:102b00006044b8006055b8000000540081805c004b
:102b100002015d0083815d001c0020000820e100af
:102b200009a8e1000ab0e1000bb8e1000d003d008a
:102b3000080037000006eb00e00f5200e08f5a005b
:102b4000e00f5b00e08f5b0006003d006044b800d2
:102b50006055b8000402540085825c0006035d00e5
:102b600087835d00a7ff0700e00f560006003200d4
:102b70006022b8006033b8000000520081805a0023
:102b800002015b0083815b004f0678004f05be00a9
:102b90004f04be0000000600889fbe008a9fbe0052
:102ba0008c1f78000006eb00e00f5000e08f58000b
:102bb000e00f5900e08f590007003d006044b80065
:102bc0006055b8000000540081805c0002015d0087
:102bd00083815d001c002000e00f5200e08f5a004e
:102be000e00f5b00e08f5b0007003d006044b80031
:102bf0006055b8000402540085825c0006035d0045
:102c000087835d000c00a2000c000700e00f560057
:102c1000060032006022b8006033b80000005200a5
:102c200081805a0002015b0083815b004f067800bf
:102c30004f05be004f04be0000000600889fbe0086
:102c40008a9fbe008c9fbe000404b8000506b80031
:102c50008904460060854e000606b8000a05460055
:102c6000e0854e000706b8008b054600040eb8004c
:102c7000890446000a854e00e0854d00050eb80027
:102c80000a0546008b854e00060eb8008b054600ef
:102c90000416b8000a0546008b854e000516b800dc
:102ca0008b054600041eb8008b0546000800be00d8
:102cb0000a01be004f06be004f05be004f04be0015
:042cc000000006000a
:020000040000fa
:102cc4004944000053090000454c00004142000003
:102cd4005f42000052410000595400004f4e000072
:102ce4005f44000053500000494300005f56000059
:102cf400312e000030090000257300000a0d000089
:102d040000530000544f00005045000044000000f0
:102d1400535400004f500000504900004e4700003b
:102d2400005200004553000045540000494e000085
:102d3400470000006964000073000000636600003f
:102d440067000000252a00007309000025640000c4
:102d54000925000064000000434600004709000004
:102d64002564000009250000640a00000d0000002d
:102d7400434f00004e4600004947000055520000f2
:102d8400494e000047000000637500007200000017
:102d94004355000052090000256400000925000085
:102da400640a00000d00000073740000720000004b
:102db4005354000041520000544900004e470000a3
:102dc40000530000545200000a0d0000005300009c
:102dd400545000000a0d000000000000312d0000d6
:102de400732f000069740000726300006f6f0000ad
:102df4006c7200002c6100006265000072740000b7
:102e04006f090000322d0000732f00006974000068
:102e1400726300006f6f00006c7200002c6300008e
:102e24002e6300002e090000332d0000732f0000d4
:102e340069740000726300006f6f00006c72000020
:102e44002c6300002f720000657300000934000039
:102e54002d6300002f69000074720000636f00008e
:102e64006f6c0000722c000061620000657200004b
:102e7400746f0000093500002d6300002f69000005
:102e840074720000636f00006f6c0000722c00000d
:102e9400632e0000632e0000093600002d6300003d
:102ea4002f69000074720000636f00006f6c0000f3
:102eb400722c0000632f0000726500007300000094
:102ec400535400004f5000004544000000440000eb
:102ed400415400000d000000535400004f50000006
:102ee400504900004e47000000530000544f0000ba
:102ef400504500004400000053540000504f0000af
:102f04004b0a00000d000000434f00004e46000035
:102f14004947000055520000494e00004700000098
:102f24005354000041520000544900004e47000031
:102f3400005200004553000045540000494e000073
:102f440047000000434f00004e4600004947000080
:102f5400555200004544000000430000464700006d
:102f64004f4b00000a0d00000053000054410000c4
:102f74005254000045440000005300005452000025
:102f84004f4b00000a0d00000052000045530000a2
:102f94004554000045440000005200005354000012
:102fa4004f4b00000a0d00000000000053540000c5
:102fb4004f50000045440000000000005253000040
:082fc400540d000000000000a4
:020000040000fa
:102fcc000000fa00006f2900801f780066f80700e7
:102fdc008f87e900720020002176290000802000f4
:102fec0084f607000080fa00000006000000fa00da
:102ffc00a045800040488800404880000a06070031
:10300c000080fa00000006000000fa00a0458000d5
:10301c004048880040488000030607000080fa0002
:10302c00000006000000fa00a0458000404888001f
:10303c0040488000fc0507000080fa0000000600f4
:10304c000000fa00a04580004048880040488000fd
:10305c00f50507000080fa00000006000000fa00e9
:10306c00a04580004048880040488000ee050700dd
:10307c000080fa00000006000000fa00a045800065
:10308c004048880040488000e70507000080fa00af
:10309c00000006000000fa0013e1a800810c80007b
:1030ac0080ff2f00008060006000b300800c88005f
:1030bc000000eb00be0507000000eb00cb0507008d
:1030cc000080fa00000006000000fa0013e1a800de
:1030dc00810c800080ff2f00008060006000b30036
:1030ec00800c880010002000b10507000000eb00e8
:1030fc00be0507000080fa00000006000000fa0080
:10310c0013e1a800810c800080ff2f00008060007c
:10311c006000b300800c88000000eb00a4050700e1
:10312c0010002000b10507000080fa000000060026
:10313c000000fa0013e1a800810c800080ff2f0032
:10314c00008060006000b300800c88000000eb0081
:10315c00970507000000eb00a40507000080fa00ab
:10316c00000006000000fa0013e1a800810c8000aa
:10317c0080ff2f00008060006000b300800c88008e
:10318c00100020008a0507000000eb0097050700df
:10319c000080fa00000006000000fa0013e1a8000d
:1031ac00810c800080ff2f00008060006000b30065
:1031bc00800c88000000eb007d050700100020004b
:1031cc008a0507000080fa00000006000000fa00e3
:1031dc0090762900801f7800e3f707008f87e900bd
:1031ec00d602a800401f2000d1040700d602a90077
:1031fc000100370000000000a0488000e10f5000e3
:10320c00fcff3a000000eb00a048880010002000f2
:10321c00ab0407006500b90000007800cf80de0029
:10322c00e4f40700f22621003308240063f40700bd
:10323c00a4f407000000780060488800b0488000c3
:10324c0001002000def40700e2382e00a300240069
:10325c0030f507009bf4070070488800814888000f
:10326c0070488000814880006709b900020178002d
:10327c006002b90084017800030141007300200052
:10328c000300b8000101410082007800c9f4070076
:10329c000001be00001c2e0041c6240047f40700ac
:1032ac0088f40700000078005048880050488000df
:1032bc00dc030700419f20009000200088f50700e8
:1032cc0060488000d7030700419f2000d0002000f9
:1032dc0083f50700419f2000a000200080f5070027
:1032ec00c5ff37000000fa0090762900801f780097
:1032fc009df707008f87e900d602a800401f200029
:10330c008b040700d602a900010037000000000062
:10331c00a0488000e10f5000fcff3a000000eb00d9
:10332c00a048880010002000650407006500b90063
:10333c0000007800cf80de009ef40700f22621000a
:10334c00330824001df407005ef407000000780029
:10335c0060488800b04880000100200098f4070005
:10336c00e2382e00a3002400eaf4070055f407000d
:10337c00704888008148880070488000814880002f
:10338c006709b900020178006002b9008401780075
:10339c0003014100730020000300b800010141004b
:1033ac008200780083f407000001be00001c2e0090
:1033bc0041c6240001f4070042f407000000780025
:1033cc00504888005048800096030700419f200019
:1033dc009000200042f50700604880009103070030
:1033ec00419f2000d00020003df50700419f2000a8
:1033fc00a00020003af50700c5ff37000000fa00d6
:10340c0090762900801f780057f707008f87e90016
:10341c00d602a800401f200045040700d602a900d0
:10342c000100370000000000a0488000e10f5000b0
:10343c00fcff3a000000eb00a048880010002000c0
:10344c001f0407006500b90000007800cf80de0083
:10345c0058f40700f226210033082400d7f30700a4
:10346c0018f407000000780060488800b04880001d
:10347c000100200052f40700e2382e00a3002400c3
:10348c00a4f407000ff407007048880081488800f6
:10349c0070488000814880006709b90002017800fb
:1034ac006002b90084017800030141007300200020
:1034bc000300b80001014100820078003df40700d0
:1034cc000001be00001c2e0041c62400bbf3070007
:1034dc00fcf307000000780050488800504880003a
:1034ec0050030700419f200090002000fcf40700cf
:1034fc00604880004b030700419f2000d000200053
:10350c00f7f40700419f2000a0002000f4f407000e
:10351c00c5ff37000000fa0090762900801f780064
:10352c0011f707008f87e900d602a800401f200082
:10353c00ff030700d602a9000100370000000000bd
:10354c00a0488000e10f5000fcff3a000000eb00a7
:10355c00a048880010002000d90307006500b900be
:10356c0000007800cf80de0012f40700f226210064
:10357c003308240091f30700d2f307000000780011
:10358c0060488800b0488000010020000cf407005f
:10359c00e2382e00a30024005ef40700c9f30700f4
:1035ac0070488800814888007048800081488000fd
:1035bc006709b900020178006002b9008401780043
:1035cc0003014100730020000300b8000101410019
:1035dc0082007800f7f307000001be00001c2e00eb
:1035ec0041c6240075f30700b6f30700000078000d
:1035fc0050488800504880000a030700419f200073
:10360c0090002000b6f40700604880000503070016
:10361c00419f2000d0002000b1f40700419f200002
:10362c00a0002000aef40700c5ff37000000fa0030
:10363c0090762900801f7800cbf607008f87e90071
:10364c00d602a800401f2000b9030700d602a9002b
:10365c000100370000000000a0488000e10f50007e
:10366c00fcff3a000000eb00a0488800100020008e
:10367c00930307006500b90000007800cf80de00de
:10368c00ccf30700f2262100330824004bf307008b
:10369c008cf307000000780060488800b048800078
:1036ac0001002000c6f30700e2382e00a30024001e
:1036bc0018f4070083f307007048880081488800dd
:1036cc0070488000814880006709b90002017800c9
:1036dc006002b900840178000301410073002000ee
:1036ec000300b8000101410082007800b1f307002b
:1036fc000001be00001c2e0041c624002ff3070061
:10370c0070f3070000007800504888005048800093
:10371c00c4020700419f20009000200070f40700b5
:10372c0060488000bf020700419f2000d0002000ad
:10373c006bf40700419f2000a000200068f40700f4
:10374c00c5ff37000000fa0090762900801f780032
:10375c0085f607008f87e900d602a800401f2000dd
:10376c0073030700d602a900010037000000000017
:10377c00a0488000e10f5000fcff3a000000eb0075
:10378c00a0488800100020004d0307006500b90018
:10379c0000007800cf80de0086f30700f2262100bf
:1037ac003308240005f3070046f3070000007800f7
:1037bc0060488800b04880000100200080f30700ba
:1037cc00e2382e00a3002400d2f307003df30700db
:1037dc0070488800814888007048800081488000cb
:1037ec006709b900020178006002b9008401780011
:1037fc0003014100730020000300b80001014100e7
:10380c00820078006bf307000001be00001c2e0044
:10381c0041c62400e9f207002af3070000007800f3
:10382c0050488800504880007e020700419f2000cd
:10383c00900020002af407006048800079020700fd
:10384c00419f2000d000200025f40700419f20005c
:10385c00a000200022f40700c5ff37000000fa008a
:10386c0011e1a9000080fa00000006000000fa0037
:10387c00e17629000080200066f40700e00f50007c
:10388c0005003a00f5ff070072002000717729004f
:10389c000080200057f40700717729000080200079
:1038ac005cf40700e00f500019003a00e0772900a3
:1038bc00801f78002cf607008f87e9000500370081
:1038cc0072002000717729000080200049f4070065
:1038dc00d800070061782900008020004df4070013
:1038ec00e00f50000a0032002179290000802000ee
:1038fc0048f40700e00f500005003200b1792900b0
:10390c000080200043f40700e00f5000ecff3a0069
:10391c0061782900008020003ef40700e00f500081
:10392c0020003a00e0488000e00f500001003a000f
:10393c00a3fd0700e0488000e10f500001003a00b1
:10394c00aafd0700e0488000e20f500001003a0099
:10395c00adfd0700e0488000e30f500001003a0085
:10396c00b0fd0700e0488000e40f500001003a0071
:10397c00b3fd0700e0488000e50f500001003a005d
:10398c00b6fd0700e0488000e60f500001003a0049
:10399c00b9fd0700b2002000417a29000080200008
:1039ac0014f40700417a29000080200019f4070064
:1039bc00e00f500023003a00f07a2900801f7800b5
:1039cc00e9f507008f87e90005003700b2002000f9
:1039dc00417a29000080200006f4070095000700ba
:1039ec0021792900008020000af40700e00f500024
:1039fc0014003200b17929000080200005f4070082
:103a0c00e00f50000f003200e1762900008020000a
:103a1c0000f40700e00f50000a003200b1792900d1
:103a2c0000802000fbf30700e00f5000050032007f
:103a3c006178290000802000f6f30700e00f5000a9
:103a4c00e2ff3a002179290000802000f1f3070001
:103a5c00e00f500020003a00e0488000e00f5000da
:103a6c0001003a0056fd0700e0488000e10f5000cd
:103a7c0001003a0087fd0700e0488000e20f50008b
:103a8c0001003a0090fd0700e0488000e30f500071
:103a9c0001003a0099fd0700e0488000e40f500057
:103aac0001003a00a2fd0700e0488000e50f50003d
:103abc0001003a00abfd0700e0488000e60f500023
:103acc0001003a00b4fd070082002000717b290040
:103adc0000802000c7f30700717b290000802000c4
:103aec00ccf30700e00f50002e003a00f07b2900c9
:103afc00801f78009cf507008f87e900e048800064
:103b0c00e10f500001003a00b0fd0700e0488000d2
:103b1c00e20f500001003a00f2fd0700e04880007f
:103b2c00e30f500001003a0034fe0700e04880002b
:103b3c00e40f500001003a0076fe0700e0488000d8
:103b4c00e50f500001003a00b8fe0700e048800085
:103b5c00e60f500008003a00fafe07000700370095
:103b6c0082002000717b290000802000a1f3070057
:103b7c00300007000100370000000000e17629004a
:103b8c0000802000a3f30700e00f50000500320076
:103b9c00b1792900008020009ef30700e00f50004f
:103bac00efff3a00b17929000080200099f307005b
:103bbc00e00f500004003a0082002000717c2900c4
:103bcc00008020008bf30700717c2900008020000e
:103bdc0090f30700e00f500014003a00f07c29002d
:103bec00801f780060f507008f87e900050037001b
:103bfc0082002000717c2900008020007df30700ea
:103c0c000c000700617829000080200081f3070078
:103c1c00e00f500005003200e17629000080200002
:103c2c007cf30700e00f5000f1ff3a000080fa002f
:103c3c00000006000000fa0020048000680060000c
:103c4c00e00f5000190032008460a90000802000b1
:103c5c00801f780020662900801f780042f507003d
:103c6c00e4875700316829000080200069f30700c1
:103c7c00e00f500003003200d04880000000e80044
:103c8c00d0488800d1488000300b2000808f500035
:103c9c000600340092002000a1682900008020005a
:103cac0054f307000000eb00d0488800013a800074
:103cbc000004200000806000e00f500004003a0077
:103ccc00003a800070006000e00f500006003200e7
:103cdc0040c7a9004087a900920020003169290043
:103cec000080200043f307007a000700e00f50002b
:103cfc0003003a00c0488000e10f500050003a0029
:103d0c0032002000c1692900608b20004af30700b3
:103d1c00e00f500006003a0000802000801f780061
:103d2c0020662900801f78000ff50700e4875700f4
:103d3c0032002000016a2900608b20003ef307004e
:103d4c00e00f500015003a00408b2000801f7800d7
:103d5c00c0912000801f7800406a2900801f7800e5
:103d6c00608b200049f30700e6875700a1458000cf
:103d7c00e0488000811f7800801f7800e06a2900ed
:103d8c00801f7800f8f40700e6875700c200200077
:103d9c00a16b29000080200016f3070032002000e0
:103dac00616c2900608b200023f30700e00f5000aa
:103dbc0008003a00a1458000e0488000811f78008f
:103dcc00801f7800a06c2900801f7800e6f40700a3
:103ddc00e687570032002000616d2900608b2000bf
:103dec0015f30700e00f500008003a009200200085
:103dfc00a16d290000802000fef20700306e290022
:103e0c00801f7800d8f407008f87e900c048800035
:103e1c00e10f50000a003a000000eb00c048880097
:103e2c00906e2900801f7800cff407008f87e9007f
:103e3c0092002000a168290000802000edf207000c
:103e4c000080fa00000006000000fa00608b2000e1
:103e5c003048880017e2a80017a2a90016e2a800b3
:103e6c0016c2a90016a2a900b110800090ff2f0065
:103e7c0000806000b01088001602a90019e2a800aa
:103e8c001962a9001942a800c1108000f0f32f009c
:103e9c0000806000c010880018a2a900f00020006b
:103eac00f01088008700a9008f20a9008f00a800bf
:103ebc000105800080ff2f00008060003000b300ff
:103ecc000005880020002000a05088000080fa0027
:103edc00000006000000fa0031488000608b2000d2
:103eec00808f50000d003200304880000000e90047
:103efc0010407800ed4f500008003a003048800028
:103f0c008000e9000040eb0080487800608b2000c6
:103f1c003048880010002000010037000000eb0042
:103f2c000080fa00000006003600f800809fbe00fa
:103f3c00829fbe00849fbe00869fbe00881f7800b3
:103f4c003400f80000002000a00188000000fa00f6
:103f5c008700a900384880000ff107000040780066
:103f6c00004c7800304880000000e80030488800a1
:103f7c00b9c8bf00ed4f50002b003a00618b2000f8
:103f8c009140780030c7b30080cf500010003a0049
:103f9c00718b20009140780040c7b30080cf500057
:103fac000b003a00818b20009140780000c7b300d1
:103fbc0080cf500006003a0010002000c048880056
:103fcc000040eb00b9e8b700608b20003048880057
:103fdc00618b20009140780020c7b30080cf500047
:103fec0011003a00718b20009140780030c7b3006b
:103ffc0080cf50000c003a00818b2000914078005b
:10400c0040c7b30080cf500007003a00007e290063
:10401c00801f780054f407008f87e900401f2000b0
:10402c00430107000000fe000080fa003400f90094
:10403c004f0478004f03be004f02be004f01be007c
:0c404c004f00be003600f90000400600e6
:020000040000fa
:104058001209000006000000000000000809000026
:104068000a0000000000000000080000b600000080
:10407800000000001809000006000000020000000f
:104088000000000000000000b60800005200000018
:1040980000000000140a00000200000002000000f6
:1040a800010000000e0a00000600000000000000e9
:1040b800e809000026000000020000000f0a0000c6
:1040c800000f0a000900000000020000110a0000a9
:1040d80000110a000e0201000000000000000000ac
:1040e800000000000602020000000000e8090000cd
:1040f800160a00000200000000000000be090000cf
:104108002a0000000200000030313200333435004c
:1041180036373800394142004344450046003000f4
:104128003132330034353600373839006162630084
:104138006465660000286e00756c6c00290000003c
:104148001e090000a000000002000000010000009d
:104158000000000000000a0000000000000000004d
:10416800006400000000000000000000e8030000f8
:104178000000000000001000270000000000000000
:1041880000a08600010000000000000040420f006f
:104198000000000000008000969800000000000069
:1041a8000000e100f50500000000000000ca9a00c8
:1041b8003b00000000000000e40b54000200000077
:1041c8000000e80076481700000000000010a50075
:1041d800d4e8000000000000a0724e00180900009a
:1041e800000040007a10f3005a0000000080c6006a
:1041f800a47e8d000300000000c16f00f28623003a
:10420800000000008a5d780045630100000064003a
:10421800a7b3b600e00d000000e889000423c7003a
:084228008a0000000000000004
:020000040000fa
:104230000c00fa00500798005e009000cf80de006e
:10424000008fbe001e00be00ddf00700020020004f
:10425000a34724005cf007009df0070020079800aa
:10426000310798002e0090000003b000400798002e
:104270004e00900006f20700be00900080c12f00a3
:104280000088b90000017800ae0090000080eb00cb
:104290000088b9000000780000014100ae009000e5
:1042a00080c12f000008b8000101410082007800a1
:1042b0001e0f40005e9748001e00be00c0f00700c1
:1042c00002002000832c24003ff0070080f007004c
:1042d00020079800310798002e0090000003b000de
:1042e000400798004e009000e9f10700be009000e2
:1042f000c0f92f000088b90000017800ae009000de
:104300000080eb000088b900000078000001410047
:10431000ae009000c0f92f000008b8000101410074
:10432000820078001e0f40005e9748001e00be000d
:10433000a3f00700020020000312240022f007006f
:1043400063f0070020079800310798002e009000c6
:104350000003b000400798004e009000ccf1070029
:10436000be00900060ff2f000088b90000017800b7
:10437000ae0090000080eb000088b90000007800db
:1043800000014100ae00900060ff2f000008b8005f
:1043900001014100820078001e0f40005e97480036
:1043a0001e0078000003b000400798004e00900007
:1043b000b7f107000080fa00000006000000fa00d4
:1043c000a1e2a800a1a2a90001158000f0cf2f0052
:1043d000008060000015880001158000000e20009c
:1043e0000080700000158800a042a900a022a9004a
:1043f00011158000f0ff210000806000101588007a
:10440000a342a900a2e2a9001115800030fc2f00f0
:104410000080600010158800a222a900a202a90055
:1044200021158000f00f2e008080600000302000f9
:104430000080700020158800a4e2a90021158000ea
:1044400000fc2f00008060004001b30020158800b0
:10445000a782a90031158000f00f2f0000806000b6
:1044600030158800a682a9003115800000ff2f00ba
:1044700000806000301588000080fa00000006000f
:104480000200fa00000f7800110020001e007800e2
:104490000008dd0080007800301680000080700089
:1044a00030168800110020001e0078000008dd0092
:1044b0000080ea00800078004015800000806000e5
:1044c000401588000080fa00000006000400fa0091
:1044d000100798001e009000004078006f406000b8
:1044e0000080fb006f0060003215800001ff2f008c
:1044f000810061000080700030158800a022a800b3
:10450000000000000015800062006000e00f500015
:10451000fcff3a0000000000001580006100600010
:10452000e00f5000fcff320000148000000f780004
:104530001e0078000080fa00000006000400fa0067
:10454000100798000a003700c0cc2100000f780047
:10455000010037001e0fe9001e007800e00f500038
:10456000fcff3a001e0090000000e90010079800d0
:104570001e009000e00f5000f3ff3a000080fa00a8
:10458000000006000400fa00100798000a00370037
:10459000102e2000000f7800010037001e0fe900e8
:1045a0001e007800e00f5000fcff3a001e00900053
:1045b0000000e900100798001e009000e00f500076
:1045c000f3ff3a000080fa00000006000400fa0041
:1045d000100798000a00370090042000000f7800b0
:1045e000010037001e0fe9001e007800e00f5000a8
:1045f000fcff3a001e0090000000e9001007980040
:104600001e009000e00f5000f3ff3a000080fa0017
:10461000000006000000fa008420a90043a1a900c0
:1046200042e1a800110a8000f0f92f00008060002c
:10463000100a88000080fa00000006000000fa005e
:1046400011e1a900110a800080ff2f0000806000a6
:10465000100a88008c20a9000000eb009048880018
:104660000080fa00000006000000fa000000eb00e5
:10467000300888000000eb00000a8800110a800062
:1046800080ff2f00008060000010a000100a88004a
:104690008c20a80011e1a8000000eb0090488800e1
:1046a0000080fa0000000600801f78003400f80047
:1046b00000002000a00188000000fa008420a9006a
:1046c0000000eb0030088800000a8000b048880035
:1046d00010002000a04888000080fa003400f90093
:1046e0004f007800004006000000fa000000eb00d8
:1046f0000008880005e1a80005a1a90004c1a900df
:10470000210880000003200000807000200888003d
:104710000421a90000082700100888008460a9006f
:104720008c60a800a1048000f0ff28008080600059
:104730000000230000807000a00488004227a90028
:104740000080fa00000006000000fa000000eb0004
:104750000008880005e1a80005a1a90004c1a9007e
:1047600021088000000320000080700020088800dd
:104770000421a9000080eb00100888008460a900d3
:104780008c60a900a1048000f0ff28000080600078
:10479000a00488004227a9000080fa00000006005b
:1047a0000000fa00cae2a900cb02a900c6e2a900f3
:1047b000c702a9000080fa00000006000200fa000b
:1047c000000f78001e007800004078006140600013
:1047d0000080fb00610060004700dd005216800091
:1047e000f1f72f00810061000080700050168800f2
:1047f0000080fa00000006000200fa00000f7800b6
:104800001e00780000407800614060000080fb00de
:10481000610060004800dd0052168000f1ef2f00bb
:104820008100610000807000501688000080fa004e
:10483000000006000200fa00889fbe00000f78000a
:10484000810c800080ff2f0000806000800c8800b9
:104850001e007800cf80de0059ef07000200200024
:10486000832c2400d8ee07000004be0070088000ee
:104870000100200055ef07000001be000800be0047
:10488000a7ef070033ef070000007800600c8800f6
:104890009061a8004f04be000080fa0000000600ee
:1048a0000200fa00000f780013e1a9000000eb00fd
:1048b000500888001040220070088800210c8000f9
:1048c00080ff2f00008060006000b300200c880093
:1048d0008461a8001221a90091088000f0fc2f003b
:1048e0008080600000022000008070009008880036
:1048f0001e007800000c880013e1a8000080fa0078
:10490000000006000000fa000000eb00900888009c
:104910000000eb0050088800b049200070088800b3
:1049200013a1a90012c1a90091088000f0fc2f007a
:1049300000806000900888001221a90084e0a9008e
:104940008ce0a900b1048000f0ff28000080600026
:10495000b00488004227a9000080fa000000060089
:104960000000fa000000eb0030168800d202a90017
:104970000080eb004015880036fd070088ff070027
:10498000e0ff07008dfe070010002000bcfe0700be
:1049900072002000817d29000080200018f00700af
:1049a000a7fc070068ff0700b3fb07000060fe00dc
:0449b000fdff3700d0
:020000040000fa
:0200000401f009
:04000000f7bf000046
:020000040000fa
:0200000401f009
:04000400ff7f00007a
:00000001FF
