:020000040000fa
:080000000001040000000000f3
:020000040000fa
:10020000cfc520000eff20000e0188000000000076
:100210000c000700c094220001002000110007001c
:10022000000020000000e000020032000000020098
:100230000000000028350200000000000040da0045
:100240000000fe004440a900401920000000e0002a
:100250000300320000002000a00188004440a800f4
:100260000000060091018800800078000000eb008b
:1002700015003700e280400032a0b4009101ba00be
:10028000e280400032a0b4009102ba00e280400057
:1002900032a0b4000002eb00472bde00f507b200ed
:1002a000602ce10004003a000059eb008301e900f2
:1002b000fdff3e00040037006128e100010032002c
:1002c0000082eb00040007001101ba000200e00008
:1002d000e8ff3a00000006003159ba008301e90046
:1002e0000c0032002159ba008301e90008003200f5
:1002f0000400e00003003a00e280400032a0b400b5
:10030000f5ff370011d9ba008301e900faff3a007e
:100310008100e800e180400032a0b4000000060047
:100320000040da000000fe001004b10003003500b8
:100330009001b10001003c00100005000000050024
:10034000800078001104b100030035009101b10074
:1003500001003c000050a000000006001004b100a5
:10036000070035009001b100040034007000b100b6
:10037000030035009001b10001003c0010000500b1
:10038000000005006900e100040035006d00e10097
:10039000030034000002b10001003200000005003b
:1003a000100005000a00fa0080017800e20f5000fa
:1003b00028003e00c05a8000e10f500008003200c3
:1003c000e02120000000e000050032006421200050
:1003d00085212000a621200080017800040037003c
:1003e000c4202000e5202000062120004321200019
:1003f000144090000004e000040035008009eb0088
:10040000144090000074a000104298001540900025
:100410000028a30003003a00154090000024a0002b
:10042000904298008001eb000700370015409000d3
:100430000008a300fdff320063c078000000fb004d
:10044000000b78008301e800828f5100f7ff3a002b
:100450000800370030002000b0bf9f00c3bf9f00de
:10046000d1bf9f00e2bf9f006a80570000c0da0042
:100470006fb99700020078000080fa0000000600c3
:100480000a00fa00881f7800800178000000e00070
:1004900029003a00c05a8000e10f500008003200e5
:1004a000e02120000000e00005003200642120006f
:1004b00085212000c721200080017800040037003a
:1004c000c4202000e5202000272120004321200017
:1004d000144090000004e000040035008009eb00a7
:1004e000144090000074a000104298000002eb003d
:1004f0000c003700130a20001544780061406400a6
:1005000002003a008301e900fbff3a000402e80020
:100510009541780061c06100050032001700780045
:100520008058780004035100820f5200f1ff3a0016
:10053000060051000800370020002000a0bf9f00e7
:10054000b3bf9f00c1bf9f00d2bf9f006c80570008
:1005500000c0da005fb897004f0478000080fa000e
:1005600000000600020ab900001bb9000200b80032
:10057000810042008100430000000600889fbe0009
:100580008a9fbe00010578000100e00004003500ec
:1005900008003c000000e0002000320005003700a9
:1005a00060001000e080180002003b0001f02c0009
:1005b0001a0037000004be006011b8006b0920006b
:1005c0000982cf00020039000882cf000441b00048
:1005d000694252000e00320008003b008281710027
:1005e000610164008904d1000884d3008b05e80010
:1005f0000442e800f9ff3a0005003700080444000f
:1006000089844c008b05e9000442e900fbff3a00b5
:10061000c00107000af0a70001f0a0004f05be00ce
:100620004f04be0000000600889fbe008a9fbe00e7
:100630008c1f7800dd010700e401330003866c00a5
:100640006450e1002e0032006420e10033003200eb
:100650006150e1002f0032006120e10031003200e2
:1006600085855500eb07b000090020000804200034
:10067000050037000804440089844c000a0031005a
:100680000603430087834b000001530081815b0018
:10069000f8ff33000203be000800a0000804440075
:1006a00089844c00f6ff3900c639dd0083017300f0
:1006b00001003200130020008904d1000884d30017
:1006c0000998a300050032000800a7000300a0005d
:1006d0008904d1000884d3008b05e8008904d10087
:1006e0000884d3000001eb000281d20089010700d9
:1006f00001f0a1000cf0a70001f0a000bc01370040
:100700006420e100be0132000801be000200be000c
:10071000f7ff37006120e100b90132006000b80046
:10072000f3ff37000000200001f82700f0ff37003a
:10073000f4ff2f00b501370014002000b30137008b
:1007400003f0a200889fbe008a9fbe008c1f780025
:10075000960107009d0133006450e1004f00320014
:100760006420e1005200320003826c0007003b006d
:100770000905d0000306d000820f54000c065d006e
:100780000200390002003200890178000306780077
:100790008582550004003d000003fd008103fd003b
:1007a0008502ea008b854200840f720002003b0044
:1007b00060001000e08018006011b8000005eb0038
:1007c0007a28e1000a00390006007800c75ddd00e4
:1007d000f707b200878075002d0037008281710015
:1007e0000a017800610560008180d1000080d3009b
:1007f0008502e900f9ff3b000604400087844800b9
:1008000002003b0060041400e0841c000988a3007f
:10081000070032008a8171008281710061016400e9
:100820008904d1000884d3008b05e8001700370045
:100830000978a30013003a000b00e0001300340015
:100840008b05e9000804440089844c000a447400c4
:100850000978a3000d003a000b00e0000700340007
:100860008b05e9000804440089844c0001003a002b
:100870000b0020000978a300f7ff32000001eb0015
:1008800002003700828171000a017800210107000f
:100890000cf0a70001f0a000550137006420e10032
:1008a00002003a00838f6c00550133000801be003e
:1008b0000200be004e0137000c00fa00889fbe0007
:1008c0008a9fbe008c9fbe00380107000206be0052
:1008d000840578000200be000200200066010700c7
:1008e00005003a008b02b3001200200062010700ed
:1008f00001003a00f8856d000c01be00c60007003b
:100900000800be009b0032000b08a3009e003a00c6
:100910000df0a7000be0a00009f0a7000bf0a0006d
:1009200009f0a1000801be00bb0007000bf0a60003
:100930009500320001003c000bd0a0008acf75006a
:10094000b20033006000b8006250e1009900390045
:10095000a1003e000b28a300a2003a000bf8a30060
:10096000060032000b58a300a70032000801be00a9
:10097000a90007000800be00940032000800be0075
:10098000640107000004be00050578000bf0a70015
:100990000b30a6000bf0a1005b079800324f20003f
:1009a00053f3230064ff070005003d000800be006c
:1009b00012002000640107000004be000a05e900df
:1009c0004a0798006150b900ecfe0700008fbe0096
:1009d0000c01be009b0007007d0107003007980056
:1009e0000100e00002003d0060001000e0801800ff
:1009f000f2ff2700820f5000e08f580064003e0095
:100a00000c00be007201070020079800f2072000ca
:100a1000820f5000e08f580005003c0012f82f00b4
:100a2000f3ff2f00820f5000838f580009003d0014
:100a30000a00e0000300320001003c000201ea006d
:100a4000020578006000b800200798003a07980077
:100a5000190037003e0090006100b900c7fe070092
:100a6000809fbe000c00be004109dd004811de0081
:100a70007208b100000107000005be001e01be00a3
:100a8000700007004f01be002dff0700809fbe00d1
:100a90000c00be000a01be0029ff07001e01be00b7
:100aa000680007004f01be0026ff070082212700d3
:100ab00013f32300630007000005be002e00900022
:100ac0006100b900adfe070001f0a2000c01be00fc
:100ad0001cff07000006be000800be005d01070005
:100ae0000c01be00570007000a01be0015ff0700f9
:100af000809fbe004a0007002e0590000af0a70064
:100b00000a05ea00050037000800be000801be0023
:100b10004c0007000004be000c00be000801be002f
:100b20000a00a700470007000006be000a05d10022
:100b3000f5ff3a005e01900002e0a60003003700d6
:100b40000001be0036000700b7fe07000004be002b
:100b50004f00be00960107000801be0039000700e3
:100b60003e019000f8000700de0590000bf0a700a2
:100b700001f0a2004f06be004f05be004f04be00ac
:100b80000080fa000000060025000700f9ff37008a
:100b9000270007006000b8000bd0a7000bc0a00022
:100ba0000be0a7000bc0a2000bc0a70001f82700b4
:100bb000f0ff37000df8a300020032001e0007000e
:100bc000190007000bf8a300eaff32000b30a70062
:100bd00001f0a200e7ff37000df8a300f9ff3a008b
:100be000f7ff37000801be000b000700e6ff3200e8
:100bf00001003c000df0a2006000b8000df0a7005d
:100c000009000700dbff37000b000700f1ff27009a
:100c1000f0ff2f00d7ff370001000700c6fe3700a6
:100c200001f823000000050001f82700000005007e
:100c30002002200001003700100220000048880038
:100c400000000600889fbe008a9fbe008c1f7800af
:100c5000560007005d00330003866c006450e1001d
:100c6000240032006420e100270032006150e100de
:100c7000220032006120e100210032008b85420019
:100c8000eb07b1000134b800003ab8000804420094
:100c900089844a00013ab8000030b80088804000da
:100ca00009014a0004003300000040008180480030
:100cb000020149008b05e900c909dd0083017000cc
:100cc0000100320013002000c814de004814dd00cb
:100cd0004709de001200b200c808de000884700078
:100ce0000c00070001f0a1000cf0a70001f0a0002b
:100cf0003f0037006120e100410032000801be00e2
:100d00000200be00f7ff37006150e100fcff3a002f
:100d10003b00370081002000618055000b003d0042
:100d20000b00200061fe2f000100e1001d003400d7
:100d300082817100610164008904d1000884d300bc
:100d40000000e800faff3a00710020006100640032
:100d500003007000020060000900320061044400da
:100d6000e0844c000988a500050032008b05e800ee
:100d70006808e10002003a008904d1000884d30029
:100d8000f20f20000258e10005003d00c75ddd00c4
:100d9000f907b2008980750008007800000006009d
:100da0000bf827008b007800000005000004be004f
:100db000610107000003be000405be000200be0082
:100dc0005d010700844f7500000006000200be00b0
:100dd0006450e100050036006420e10002003600a6
:100de0000968a30001003a000800be000160a000ed
:100df0004f0678004f05be004f04be0000000600fd
:100e0000f0ff2f00f1ff2700f9ff3700889fbe0099
:100e10008a9fbe00841f7800e4ff07004f0078001f
:100e200011003300f0ff2f00838f6c0006003b00a1
:100e3000040565000a00a7000800370009f0a600b5
:100e40001000200008003700820f5400838f5c00e0
:100e5000030039001000200001003e0000002000c7
:100e600009f0a7000000ea004f05be004f04be00d5
:100e70000000e00000000600889fbe008a9fbe00c0
:100e80000003be002c010700850578008281520016
:100e9000020020006220e10004003a00f307b100e4
:100ea000040035007718e100040035000600be009c
:100eb000140037006000b8000f003700f50f200065
:100ec000faff2f008502d1000a85d3008301e900d3
:100ed000fcff3b008184620000046500890f740000
:100ee000f2ff32008582ea000a85ea00818462000e
:100ef0000004650087ff070007f0a70001f0a000cd
:100f00000081eb000200e0004f05be004f04be0070
:100f1000000006000003be00070107006220e10098
:100f2000020032000600be0005000500e507b10022
:100f3000f107b20004f023008480700007f0a700de
:100f400001f0a000240005000003be00fa00070025
:100f50006220e100020032000600be000000060030
:100f600085024100e30f20000328e10005003c005a
:100f7000a3fe2f000328e10007003d00050020002c
:100f800001003700f50f20002002200000488800f3
:100f90006000b80008003700130020008381520071
:100fa00005003d008100d1000080d3008301e800ee
:100fb000fcff3a0005002000c72add00f107b2005f
:100fc0008580700007f0a70001f0a0000000060077
:100fd0000001be00d80007000470a70003f0a100c4
:100fe0006509b100160032000d0035006828e100e7
:100ff00006003500f0ff2f00f1ff27000300e0009e
:1010000013003b0001002800000005000000400024
:10101000818048008502e900fcff3a0008003700a3
:10102000f88f420002003c008000eb000000050049
:101030008100d1000080d3008502e800fcff3a0067
:101040000300e00002003b0060001000e080180098
:1010500000000600889fbe008a9fbe008c9fbe00d5
:10106000acff0700850478000005be006420e100a5
:1010700049003e006220e100030032000900350013
:101080000bf8a300440032000bf8a3000800320064
:101090001002200000488800f0ff2f00f1ff270019
:1010a0003d00370001f82f00000020003a00370013
:1010b0003d000700a2fd07000006be000a00be00ba
:1010c000324f200053f3230099fd0700060034003f
:1010d0000c00be003400070099fd07000006be00aa
:1010e0000a00be00020037008904e9000c00be00bf
:1010f0002d000700d3fe07002b00070091fd07001d
:101100000001be000c00be0047fd07000005be0048
:101110000001be00cbfe07000006be00a2f32300c4
:10112000430d2c0087fd0700809fbe000c00be0011
:10113000d2e32700d3f02b00c2fe07004f01be0010
:1011400039fd07000006be000a01be00bdfe070013
:101150000a01be007bfd07000006be006148b90021
:1011600006fd07000005be0032082800e3952b00ad
:10117000b4fe07000c01be0072fd07000006be00b1
:101180000a00be000200280013f32300adfe070092
:101190000c01be006bfd07004f06be004f05be00f0
:1011a0004f04be000000060003f02300020005000b
:1011b000889fbe008a9fbe008c9fbe000004be00b8
:1011c0005d0007000800be006420e10048003e000a
:1011d0005500320072212700132b240054fd070014
:1011e00047003c000800be00c2ec2800e32c2c00a5
:1011f00051fd0700470035000800be0001f0a100c6
:1012000002002000033823004bfd07004300350097
:101210000800be00b2a32a0083fb230089fe07005a
:101220000200200003f0230001f0a70003f0a0005b
:1012300044fd070066ff07000005be00cffc070065
:1012400001f0a2000006be000200280013f32300f4
:101250007cfe07000801be003afd0700809fbe002b
:101260000c00be0032082800e3952b0075fe070035
:101270004f01be0033fd07000006be000001be00a6
:1012800070fe0700809fbe004241250083b8230006
:101290006cfe07000200200003e8230029fd070080
:1012a0000c01be0067fe07000006be004f00be0036
:1012b000f2f92b00c3d4230062fe070002002000d5
:1012c00003f023001ffd07000c01be001cfd0700fa
:1012d0000001be000c00be00d3fc0700020020008d
:1012e00003f0230017fd07006101450016ff07000a
:1012f0004f06be004f05be004f04be0000000600b2
:1013000001f8270000002000220220000248880087
:10131000f7ff37006000b800fbff370001f823003b
:1013200000002000f2ff370009f8a300f0ff3200b0
:101330006000b800eeff3700c70ade00f107b20018
:10134000f50fb20008003200e1cf42000200320087
:101350000170a00024000500810f70000100320020
:101360000408050044000500810f700002003a00e7
:10137000140005008502e9000000400081c048001b
:10138000fcff3b000170a00024000500881f7800ce
:10139000000478005001be004000be000400400080
:1013a000858048000601490087814900009cbe00f5
:1013b0000294be000400e1000588e1000690e1000f
:1013c0000798e10002003100680044001008e800be
:1013d0004f04780000000600f4874700889fbe0095
:1013e0008a9fbe008c9fbe008e1f78000205be0043
:1013f0000004be00d4b79f00e5b79f00f6b79f007a
:1014000087bf9f000000eb00c0b79f00b0b79f00f0
:10141000a0b79f0090b79f0080b79f000d042000e9
:10142000bfb097004fb09700000140000000e000ff
:101430000f003d004f08de0000007100c0b79f00a4
:101440009e00070001003d0012002000a1000700df
:1014500001003d0012002000a6000700b1000700b7
:10146000b60007000f004000c8ff07002200370049
:101470004f08de0000067100ccb79f008f00070008
:1014800001003d00120020009200070001003d0015
:101490001200200097000700a20007000fb297007b
:1014a0009fb297002fb39700bfb39700a900070022
:1014b0000000520081805a0002015b0083815b00c2
:1014c00080b79f0091b79f00a2b79f00b3b79f005e
:1014d0000007eb009f0007000020e10001a8e100e9
:1014e00002b0e10003b8e100010031001e0020005d
:1014f0000e005600c0b79f004fb297000400e000f6
:101500000700350010002000010020006011b80025
:1015100008047000898470000a0571008b857100d1
:101520008d06e900beff3a000400e00003003d0024
:10153000820007000f00400094ff07004fa89700ab
:101540000000e00004003a000fb497009fb4970039
:101550002fb59700bfb59700940007004f0778009c
:101560004f06be004f05be004f04be004f01b10044
:1015700000000600881f780018002000881f7800ef
:1015800095ff07008f87e9004f04780000000600f0
:10159000801feb0090ff07008f87e9000000060026
:1015a000889fbe008a9fbe008c1f78006e000700d7
:1015b00007003d0073000700e00f5b00e08f5b0059
:1015c00007003d00320007000006eb000400370072
:1015d0003400070002003d002a0007001c00200024
:1015e00072000700e3ff07000203be000002be0016
:1015f0000c00e00001003200220007000400be00e1
:101600000601be004f0678004f05be004f04be0025
:1016100000000600889fbe008a9fbe008c1f7800d5
:101620005100070005003d0056000700e00f5b0079
:10163000e08f5b0006003d00040037001900070042
:1016400003003d006000b8006011b8001000070002
:1016500056000700ceff07000203be000002be00d6
:101660000c00e00001003200060007000400be008c
:101670000601be004f0678004f05be004f04be00b5
:10168000000006006000b8006011b80000003700dc
:1016900004025000858258000603590087835900d0
:1016a000000006000006eb00e00f5200e08f5a0039
:1016b000e00f5b00e08f5b0000000600018040004f
:1016c00090b79f000001eb008fb097000100e00091
:1016d000000006000200700090b79f0001804000eb
:1016e00080b79f000001eb00ffa897000100e00019
:1016f000000006000200700080b79f0001804000db
:101700006faa9700cf20de0001007000f0af9f00ad
:1017100004024200250007004f18de00000272009c
:1017200000000600e4af9f000804440089844c00d8
:101730000a054d008b854d00000006003fb2970062
:10174000cfb297005fb39700efb3970000fe2f0072
:10175000000006003fb09700cfb097005fb1970040
:10176000efb19700000006000205be000004be00b5
:10177000e00f5000e08f5800e00f5900e08f590053
:10178000000006006000b8006011b80008045000b6
:10179000898458000a0559008b8559001c002000d7
:1017a000e00f5200e08f5a00000006000800be0063
:1017b0000a01be00000006002800fa00889fbe0053
:1017c0008a9fbe008c9fbe0003866b000c02070040
:1017d0000028a30064003a000128a30067003a0033
:1017e0000008a30062003a000108a30065003a0067
:1017f0001e009000be08900081064000ed3fb10041
:10180000f4805700ee019000111ab8008e09900084
:10181000311bb8009e099000311cb800511db80062
:10182000f485570046000700fe0190003a000700cb
:101830008b85e8003e0007008e09900040000700fd
:10184000ee019000340007008b85e80038000700a7
:101850008e099000400007009e0990001b18b800f8
:10186000890440000a854800fe019000340007000a
:101870008b85e80038000700ee019000300007007b
:101880008e0990001b18b800890440000a854800a2
:101890000a98a30008003a000402420085824a0028
:1018a00006034b0087834b0008044c0089844c00de
:1018b0000a054d008d06e9008482720085027300de
:1018c0004c3add0085027200010032001500200054
:1018d000443ade001400b2004538de00cb45dd009e
:1018e0000b007000c540de00cb4ddd008b8070002a
:1018f0004549de00cb55dd000b017100c551de000e
:101900000d037800d701070003f0a1000cf0a70039
:1019100003f0a000ce0137001b18b800850240007c
:1019200006834800e0834b0060044c00070037004a
:101930001b18b8000603400087834800faff3700f1
:101940001b18b8008703400008844800e0844c005e
:1019500060054d00000006001b18b8000804400098
:1019600089844800faff37000108a300b5013a0056
:101970005800be005801be00e3ff37000008a30076
:10198000b0013a0009047800f9ff370081037800bc
:1019900069fe07000001be006000b8000478a300e3
:1019a00013003a006220e10015003e000d003900ee
:1019b0008301d1000281d3008180d3008301d10053
:1019c0000281d3008180d3008301d1000281d30042
:1019d0008180d3000538b000c42add00f300b200d6
:1019e0008381720007f0a70003f0a000000006004a
:1019f000f3ff2700f2ff2f006110b900fbff370053
:101a000003ff2700f7ff37008f1fd100c101070038
:101a10008f87e9000000e00000000600801feb0057
:101a2000bc0107008f87e9000000e000000006000d
:101a30001400fa00889fbe008a9fbe008c9fbe00e3
:101a40000005be000206be00680047000c90be0004
:101a50000a90be00d80107006400e1001a003200bd
:101a600016003e006100e1001a0032006e04900092
:101a7000fe0490000e0b90009e0b90006011b800c9
:101a80009e0590000b38b100d501200082817100c5
:101a9000610164008703d1000683d3008984d300e9
:101aa0000884d3008502e900f8ff3a0099fc07009a
:101ab0000df0a70001f0a00065013700f1ff27003d
:101ac000f0ff2f006201370001f82700000020001e
:101ad000f7ff37006000b800f5ff37000dfd070085
:101ae0000509780000000600809feb0089010700cf
:101af0008f87e9000000e000000006002800fa00df
:101b0000889fbe008a9fbe008c9fbe00070678009b
:101b1000878669000c003b00030478008704780086
:101b200008f0a10009f0a100840f5000858f580033
:101b3000860f5900890f5c00030033000cf0a200ef
:101b400001003a000cf0a1002d0107006400e10043
:101b50005f003200780147006408e1006100320054
:101b60006c014700748557003200be001201be00b0
:101b70003a04be001a05be001e039000be0a900083
:101b80008503530006003d000004fd008104fd00b4
:101b90000205fd008305fd008703ea0005037800c8
:101ba0000df8a3000400320060041400e0841c005f
:101bb00060051d00e0851d006022b8007d03200047
:101bc0000d38e1008006eb000b0039004433dd00e6
:101bd000f300b20083017300390037008482720081
:101be0000d027800e10664008b85d1000a85d300e0
:101bf0008984d3000884d3008703e900f7ff3b0002
:101c000008004000898048000a0149008b81490092
:101c100004003b0060001000e08018006001190023
:101c2000e08119000358a300090032008d82720080
:101c300084827200610260008301d1000281d300be
:101c40008180d3000080d3000603e8001b0037002a
:101c50000348a30017003a000600e0001700340014
:101c60000603e9000d00a300000048008180480041
:101c700002014900838149000348a3000f003a0094
:101c80000600e000090034000603e90000004000ff
:101c900081804800020149008381490001003a0027
:101ca0000003eb000348a300f5ff32006022b800f8
:101cb000020037008482720061826600e90007003a
:101cc00003f0a1000cf0a70003f0a000e000370033
:101cd000640147006408e10002003a000df8a30027
:101ce000d8003a003200be001201be00d800370012
:101cf0001400fa00889fbe008a9fbe008c9fbe0021
:101d00000004be000205be00680047000a90be0045
:101d10000890be00280107000070a7000bf0a1008a
:101d20000bf8a30020003a009e0990000e099000d5
:101d3000fe0090006e0090009e0290003443200050
:101d400084825200c20032000a003c00b4fc2f0022
:101d50000428e100140034008301d1000281d30083
:101d60008180d3000080d3008502e800faff3a00aa
:101d7000b7003700b40020000428e10007003c0051
:101d80000000400081804800020149008381490031
:101d90008502e900faff3a00ad0037000300280091
:101da00002002000010037006011b8006000b80098
:101db000a70037002800fa00889fbe008a9fbe0057
:101dc0008c9fbe0003866b008d0007006400e1005d
:101dd000440032006408e1004a0032006100e10082
:101de000460032006108e10049003200ec0647007d
:101df0006000b8003d02be003d03be00f4865700ff
:101e00006011b8003d04be003d05be007d0320000a
:101e10000b0037000000a0008d06e900130032001f
:101e20000402420085824a0006034b0087834b0070
:101e30000000400081804800020149008381490080
:101e40000802520089825a000a035b008b835b0000
:101e5000f0ff3b000802420089824a000a034b005f
:101e60008b834b008d06e900edff3a0084827200ff
:101e700086827200f707b20087827200010032008a
:101e8000150020001e0490003e0b90000603540035
:101e9000e63fb0000368a300070032000000a7007f
:101ea0000500a0008301d1000281d3008180d3000e
:101eb0000080d3000603e8008301d1000281d30033
:101ec0008180d3000080d3000002eb000482d200a6
:101ed0006400070003f0a1000cf0a70003f0a000cd
:101ee0005b003700640247006408e10055003200df
:101ef0003400be003401be00f6ff37006108e10087
:101f0000500032006011b8006000b800f1ff3700e7
:101f100003ff270002002000fbff3700889fbe0060
:101f2000830478000300e0002c00350003003c002f
:101f30000082700004027100260032003643200047
:101f4000c50020008383cf000a0039000541b1009d
:101f50008283cf00070039000541b1008183cf00a3
:101f6000040039000541b1008083cf000100390031
:101f70000541b10085c353006022b8001200320051
:101f80000a003b0084827200610260008301d1007c
:101f90000281d3008180d3000080d3000603e800d3
:101fa0008743e800f7ff3a000700370000004000d1
:101fb0008180480002014900838149000603e9004d
:101fc0008743e900f9ff3a002600070009f0a7005f
:101fd00003f0a0004f04be000000060060001000e7
:101fe000e080180060011900e0811900d3ff3b0078
:101ff000033e2c00f7ff370007f0a200bffe3700ba
:10200000680447000294be000094be00fc04470030
:102010008694be008494be00090078006600070024
:10202000080078006400070099007800814f700074
:102030000b003b000800be00860007004f00b10007
:1020400003003700f3ff2700f2ff2f006110b900f3
:102050004f06be004f05be004f04be000080fa00d0
:10206000000006001800200057002000080453005c
:102070000d003d000600200097fc2f000740e10006
:102080001e00340084827200610260008301d1006e
:102090000281d3008180d3000080d3000804e800cf
:1020a000f8ff3a0047002000610460000504740056
:1020b000040464000d00320061004000e08048002c
:1020c00060014900e081490003b8a5000700320023
:1020d0000603e8006538e10004003a008301d100fe
:1020e0000281d3008180d3000080d300f87f2000dc
:1020f0000830e10003003500080378006000b800f4
:102100006011b8004433dd00f300b20083017300b6
:1021100000000600889fbe008a9fbe008c9fbe0004
:102120000404be000605be00809fbe00829fbe0064
:1021300056000700040678000800be000a01be0031
:1021400052000700840678004f03be004f02be0015
:102150008d4f76007fb0970013003300f0ff2f0003
:102160008b8f6b0006003b000d0666000c00a7007d
:102170000a00370007f0a600100020000a00370010
:10218000880f5200898f5a008a0f5b008b8f5b008b
:10219000030039001000200001003e000000200074
:1021a00007f0a7000000ea004f06be004f05be0082
:1021b0004f04be0000000600800078005002be0000
:1021c0005003be004439de00f700b200f37f200068
:1021d00003016100090032000218e10016003a0014
:1021e0008501720083017300838173000008200061
:1021f00015003a00400020001300370085017200ee
:10220000830173008381730005003a0004a8be00b7
:1022100006a8be00100020000b0037000201e900f4
:102220000402420085824a0006034b0087834b006c
:102230000748a300f9ff32000740a00004a8be0031
:1022400006a8be00200020008000980092009800a0
:1022500000000600e48240001078a300070032006e
:10226000640240001178a3003400be001401be00d7
:10227000040032000330a700000006003500be0055
:102280001501be000330a0000000060005ff270076
:1022900005826100070032000428e10001003200dd
:1022a000240005000600070001003a004400050074
:1022b0000408050002000700f9ff3a0014000500b9
:1022c0006f826100810270008502710085027200d8
:1022d0000000060016c2bf0066406000e64f5000d6
:1022e00002003a00e010800000000600e0108000cc
:1022f000f00fb2000000060010417800b14151001b
:1023000003003a000000e8000204e000faff3a008f
:102310000300fb0000000600889fbe00000178005b
:1023200001047800b10090000118a3003d003200c4
:102330000198a30003003a00180090000000e0009c
:1023400038003a000190a00031049800820478001f
:10235000f90fb200180090000000e00002003a00ff
:1023600028009000000c7800ea8f540006003a0024
:10237000380090000078a30003003a00880078003d
:10238000d0002000e4ff0700980090005800900063
:10239000808f50000b0032000100e800100498000c
:1023a0001800780009587800000c780011c0b300bc
:1023b00060b5200001487800ea8f54000600320022
:1023c0001900370088007800094078006000070095
:1023d0008004780014003700380090000088a300c3
:1023e0001100320018019000a800900048009000f1
:1023f000ecf7070098009000810f500004003200b5
:10240000380090000003b300300498008084eb0093
:102410000000eb001004980028009000000c7800e9
:10242000010037008084eb00090078004f04be00f3
:1024300000000600810178000002eb000b0037006d
:10244000e44078000104e000030032000402e800e8
:1024500093cf5000040032008180fb001380fb000a
:1024600000805000000006008301e800820f520047
:10247000f3ff3a00000005000c00fa00a0bf9f0027
:10248000c0bf9f0075000700b0bf9f00f0bf9f0056
:10249000100c2000d0bf9f0074815700efb0970050
:1024a0006c8057009f0007000080fa0000000600c3
:1024b0008001eb000200370061f079008301e80041
:1024c000828f5100fcff3a00000006000400fa0071
:1024d000e0bf9f00e4815700812978000002eb00f3
:1024e0000f0037006fb89700904078007fb89700d2
:1024f000104078000402e80080cf50000400320051
:102500008180fb000080fb00008050000700370046
:102510006fb897000000e800e0bf9f009309e80053
:10252000820f5200efff3a000000eb000080fa003b
:10253000000006000000fa00cfb89700688157003d
:10254000a0b32000ef0107000080fa0000000600a1
:102550000200fa00889fbe00a0ff9f0001047800df
:10256000b1009000810478000904b200020032003a
:102570000000fb00360037000118a30005003a00f8
:102580000103b30031049800190498000080eb00a7
:102590002f003700580090000000e00006003a00cd
:1025a0004800900012002000e68057007df70700e9
:1025b0001904980024003700280090000000e00073
:1025c00008003a0020b5200020049800000c780094
:1025d0002000200050049800100498000130a00052
:1025e0003104980018019000a80090004800900065
:1025f0006cf7070028009000000c78000080eb00ca
:102600001004980018007800aff89700015878007f
:10261000000c78002ff89700ea4f50000a003a00ab
:10262000380090000088a3000700320018019000d5
:10263000a8009000480090005af70700190498007d
:10264000a8009000010c7800aff897000100fb0093
:102650004f04be000080fa000000060080007800f1
:102660003004e000feff3a00010050000000e900e5
:1026700000000600889fbe000004780081447800b6
:1026800000fd2f0000004400e90f500002003e0052
:10269000000178000d0037000800780022f70700dd
:1026a0000000e000030032000800780024f7070073
:1026b000000478000800780028f707000000e00018
:1026c0000700320090fa2f00000144000980fb004f
:1026d000800f510002003d000280fb000100370026
:1026e000f00f20004f04be0000000600881f780095
:1026f000d05a8000810607000004780021f7070007
:102700000000e000faff3a00e10f4400030032004d
:10271000d15a800008007800ac0607004f0478000a
:1027200000000600ec874700889fbe008a9fbe001d
:102730008c9fbe008e1f780081bf9f00020778002b
:10274000d05a88008046eb00040137008884fb00e3
:10275000090078000bf70700800078000000e00017
:1027600002003200e1ff0700fc00370050c2b30056
:10277000804f5400f0003a000fbd970020c0b30016
:10278000c0ef9f00d1ef9f0081ef9f000300370053
:1027900040c0b300c0ef9f000fbd97000fb9970076
:1027a000b240780082bf9f008184fb0090c6b300d6
:1027b00080cf50003500320017003e0066405000c8
:1027c00080cf5000620032000c003e007740500085
:1027d00080cf50002800320006003e000104e000d7
:1027e0009b003200a0c2b30080cf50006e003a00c0
:1027f0001d00370080c5b3001600370040c6b30087
:1028000080cf5000210032006440400080cf500053
:1028100065003a001200370030c7b30080cf500087
:102820001e00320007003e006740500080cf50007d
:10283000110032006340400080cf50005a003a003f
:102840001400370050c7b30080cf50000f00320093
:102850006340400080cf500053003a0065003700cd
:1028600020c0b300cbff3700dfe897008140e800cd
:10287000d1ef9f00c8ff37004fe9970080c0b30039
:10288000e24f5100c3ff3a00c1ff3700acc0b300b4
:10289000590037008cc0b3005700370093ff070082
:1028a000dfe897000104e00002003a004e017800e2
:1028b000d2b79f00d05a80001006070000047800ad
:1028c000e10f4000a20032008fec970012003700a9
:1028d0000a85e8008abf9f00160037008fb897006e
:1028e0001100fb00800f5400f9ff32005fe99700f0
:1028f0000204e00003003a005fb097000858780037
:10290000d0b79f008944e9000a003200d05a800005
:10291000fa050700000478000800e800e10f500005
:10292000040036000800780096f607000000e0007a
:10293000eaff3200dfe897000104e00087003a0078
:102940008d46e8005fb197000149780083003700a9
:102950005fe897000004e00003003a008d46e800bd
:10296000ce007800d1b79f00d05a8000e305070061
:10297000e10f4000760032005fe997000204e000ba
:1029800003003a00dfb0970080587800d1b79f006d
:102990000fe997000241e90082ef9f004240a90041
:1029a0006e003400f0ff37000180fb0008fd2f00af
:1029b00008004000e90f50005f003e000a00780068
:1029c0001f06070080ef9f00880078000300370093
:1029d0000fb897000000e80080bf9f000fb9970074
:1029e0001200fb0001004000e90f5000f8ff360024
:1029f00069ff37000cc1b3003cff0700d05a8000cc
:102a0000be050700000578000040eb00e0ef9f00e6
:102a1000d0022000800f550005003a00d05a8000f7
:102a2000b60507000005780011c0b300e1ef9f0074
:102a30008c4078000a0078000eff0700e14f40004c
:102a40000a003a00d15a80000a007800df0507002a
:102a50000d04e0004b003a00d05a80003000900096
:102a60000048a30043003200480037008fed970074
:102a70006044b8000c81fb00030020000800be0089
:102a8000b8f607000004be008c4078000a00780009
:102a9000f8fe07000080fb00010020000804400051
:102aa000898448008b45e90007003200d05a800035
:102ab00092050700000578008c407800edfe0700c5
:102ac000e14f4000ebff3a008c4078000a007800ac
:102ad000e8fe0700e14f400003003a00d15a8000b1
:102ae0000a007800b90507006fe997000204e000ca
:102af0000200320060041400e0841c005fe89700cc
:102b00000004e00015003a008d46e800cfe8970089
:102b1000e4cf500003003a004e0078000888be0061
:102b20000e0037000e81e9000207780012007800dd
:102b30000808780009003700d05a80006f050700a8
:102b4000808f540005003200e10f40000b003a0076
:102b50000d04e0000d0032000a0037008fb8970026
:102b60003144780081bf9f000804e000f7fe3a007e
:102b7000040037000000eb0005003700d15a800048
:102b8000920507000d80fb00010037000080eb007c
:102b90004f0778004f06be004f05be004f04be0031
:102ba000cf00b10000000600889fbe008a1f780099
:102bb000804078000004e00021003d008040ea00f1
:102bc000d0c6b30080cf5000090034008104fb0060
:102bd00042062000110009008204d800000178009c
:102be000010078004311dd002a9020001f0037000b
:102bf0000100fb002390200039003700a2002000d4
:102c0000110009000200d8000001780001007800de
:102c10004311dd00030141004300dd0003004000db
:102c20003002be002003be0042209000d22090005f
:102c3000f221900062219000dffa07002e00370099
:102c4000d0c6b30080cf5000230034008104fb00c5
:102c500042062000110009008204d800000178001b
:102c6000010078004311dd002a9b20000a01410089
:102c7000a8002000110009000800d8004300dd0072
:102c80000a00400040229000d02290006023900073
:102c9000f02390000288900092889000b289900002
:102ca00022899000c4fa0700801f78000102780092
:102cb000110009008804d8000102fd004f007800cf
:102cc0000402fb004322dd000a0242005403be005e
:102cd0004402be00d8ff37000100fb00239b200008
:102ce000eacf5000c5ff3c004300dd000300400078
:102cf0005001be004000be004f0578004f04be00ea
:102d0000000006008f03b000889fbe008a9fbe00af
:102d10008c9fbe008e1f7800e0b79f00f1b79f0028
:102d200082bf9f000000eb00a0b79f00e6043700c1
:102d30008001eb0050c2b30080cf50000900320088
:102d40000100fb00efb0970073fd0700e10f4000aa
:102d5000dd043200afb097008100e800a1b79f000a
:102d6000d90437007fb1970092407800d0c2b300f9
:102d700080cf50000c00320007003c006d40500036
:102d800080cf50000d0032006b40400080cf5000db
:102d900019003a000e00370000c3b30080cf500086
:102da00015003a000f0037000330a0007fb29700f3
:102db0000402e800f4b79f00eaff37000300a00018
:102dc000ffb297008502e800f5b79f00e5ff3700e6
:102dd0000310a0007fb697000c06e800fcb79f0028
:102de000e0ff37000320a0007fb097000000e8005c
:102df000f0b79f00dbff37000318a300010032008b
:102e00000300a1000338a300010032000320a10049
:102e10000100fb0002fd2f0002004000e90f5000fe
:102e200010003e008000eb00c1b79f000202780056
:102e30004fb197006a10b900ffb297001501fb006f
:102e40000001410004014100c2b79f005500fb0092
:102e5000f5b79f0004004000e90f50000d003e0050
:102e6000f3ff37000006eb00ccb79f00a0c2b30011
:102e700080cf500007003a000fb89700c0007800dc
:102e800080bf9f00c1b79f007fb197000201e8009b
:102e9000f2b79f00e0c2b3007fb29700944f1000da
:102ea00021003a00830678000de0a0008400e800cd
:102eb00064405000914f100004003200f1b79f00b1
:102ec0008002eb00b5b79f00100037000fbe9700df
:102ed0004c0078008cbf9f00b0b79f00ffb09700f8
:102ee0008180e800f1b79f00130037003fb29700e0
:102ef0006a20b9000000410003004000b0b79f0005
:102f0000ffb297008502e800f5b79f007fb69700f3
:102f10001c01fb0003fd2f0003004100e90f5000de
:102f2000f2ff360004003700830678000dc0a000d1
:102f30000000eb00b0b79f007fb19700b24078006f
:102f4000f2b79f00c17f9f00c0c6b30080cf500082
:102f50002700320014003c006840500080cf500031
:102f60009d00320009003c006c40500080cf5000b2
:102f7000290032006b40400080cf500072003200c8
:102f80000104e000560432008e00370060c6b30032
:102f900080cf50001c0032006340400080cf5000c2
:102fa00088003a008c00370030c7b30080cf500053
:102fb0001c00320007003c006440500080cf5000ed
:102fc000130032000040e80080cf50007d003a003e
:102fd0001100370050c7b30080cf50007d00320091
:102fe0006340400080cf500076003a000b0037006d
:102ff000000028000d48a30001003a000001200055
:1030000080867600ccff37000da0a000720037004c
:103010000d60a000700037000d50a0000d70a000e2
:103020006d0037008fb997004300780083bf9f0081
:10303000000478000000e00001003a0028b0200001
:103040008004eb00010037008104e800890078006b
:10305000088044001004e000fbff3a003fb29700f4
:103060000400e00003003200890f5200010031002b
:10307000840478000007eb00cfb29700898f5200dc
:1030800001003600098752004368de00e106600057
:1030900019003a000d06780009003700efb09700dc
:1030a000000220009cfc0700e10f400003003200fa
:1030b0002fb097000000e800a0b79f000c06e800c2
:1030c0008e0f5600f5ff3a000087eb000a0037002c
:1030d000880078003100fb0001047800efb0970011
:1030e0008dfc0700e10f400003003200afb09700f5
:1030f0008100e800a1b79f000900e9008004780082
:10310000e10f4000f2ff3a000006eb000d00e00086
:103110000a003a00ec033700efb0970000022000ed
:103120007dfc0700e10f4000030032002fb1970043
:103130000201e800a2b79f000c06e8008e0f5600bf
:10314000f5ff3a00e00337008fb99700430078009d
:1031500083bf9f00cf80de000101780082017800ec
:103160000205be000004be000203be000002be0055
:103170004822de00482edd0004027600c47f9f0056
:103180000d48a3000a0032000404e00008003200e9
:10319000e14f420006003200d1fb2f0001804700c2
:1031a00004487800184098002900200002003700e9
:1031b000d07f9f0019002000d2fb2f00028447001f
:1031c000a6ff3700c3fb2f0003844700190020002f
:1031d000a2ff37000d0cb3000070200000826600d3
:1031e000270232000dc8a300020032006400200054
:1031f000b4b79f000d48a300050032000fba970036
:103200004401be004400be0084bf9f00040037009c
:103210008fba97004500be0085bf9f00dbf907000d
:10322000e0af9f00f1af9f0082b79f0093b79f0070
:103230006022b8006033b8006fa89700ffa897001d
:103240000fb197009fb19700eff907000000e00071
:103250000a003d006fa89700ffa897000fb19700e4
:103260009fb1970003f0a200e0af9f00f1af9f0075
:1032700082b79f0093b79f003d00b3000000eb00b2
:1032800080a79f006022b8006033b8006fa8970045
:10329000ffa897000fb197009fb19700dff90700d3
:1032a0000000e000340032006fa89700ffa89700ec
:1032b0000fb197009fb19700ddf9070003fc2f00c5
:1032c0000381470005fa07000fa097000000e900fe
:1032d0006300b900a2002000110009000200d8001c
:1032e0008000fd0081a79f000100e00002003d007a
:1032f0000100e90080a79f000fa497000840ea00a2
:1033000029fe07006faa9700ffaa97000fb3970046
:103310009fb3970028f90700a0af9f00b1af9f00af
:10332000c2af9f00d3af9f006022b800060020000c
:1033300007ff2300b4f907000000e00002003d0091
:103340000800e9000b0037006022b80006002000ea
:10335000470224002fa89700bfa897004fa9970005
:10336000dfa99700e0f907000000e0000200350047
:103370000800e80080a79f003fb29700f80f5200b6
:1033800057003c00d0c6b300804f520029003600e1
:103390000485fb0042062000110009000285d800c8
:1033a00000017800010478004311dd002b9020001b
:1033b0000b0141006022b8000600200007fe230038
:1033c0000288900092889000b28990002289900033
:1033d000f9f80700a9002000809fbe001100090035
:1033e0000984d800000478004f00be004344dd008b
:1033f0000b04440048229000d822900068239000db
:10340000f8239000ecf80700801f78000102780094
:10341000110009000985d8000102fd004f00780065
:103420004322dd000b0242005403be004402be00f2
:103430001f0037000480fb0029902000ea4f520053
:1034400014003600a2002000110009000280d800fc
:1034500000017800010478004311dd0009014100fa
:103460006022b8000600200007fe230042209000e2
:10347000d2209000f221900062219000cef8070047
:103480004344dd00090444003802be002803be00a6
:10349000070037004300dd00090040006022b8004b
:1034a0000600200007fe23005001be004000be00c1
:1034b000c1f807000002be000203be006fa897001b
:1034c000ffa897000fb197009fb197008bf90700f5
:1034d000e0af9f00f1af9f0082b79f0093b79f00be
:1034e0000fa49700e90f540015003c006022b800bb
:1034f0006033b8006fa89700ffa897000fb197003e
:103500009fb1970045f907000000e000320032004b
:103510006fa89700ffa897000fb197009fb1970081
:10352000f3f90700e00f5000e08f5800e00f59005a
:10353000e08f590028003a00e10f540026003400c3
:103540000400200005002e00b6e022001701240030
:103550002fa89700bfa897004fa99700dfa9970051
:1035600029f907000000e00002003d00730054004c
:10357000010037007200540080a79f000fc0970021
:1035800089fd0700a0af9f00b1af9f00c2af9f00b1
:10359000d3af9f000002be000203be006fa89700d9
:1035a000ffa897000fb197009fb1970001fa07009d
:1035b000cff907000205be000004be006000b8009d
:1035c0006011b800a0a79f00b1a79f00c2a79f00ed
:1035d000d3a79f002e0037006fa89700ffa8970081
:1035e0000fb197009fb19700c1f907000205be0017
:1035f0000004be00e00f5000e08f5800e00f5900bb
:10360000e08f59000200350044fa0700130037002c
:1036100010002000010020006011b80008006000c8
:10362000898060000a0161008b8161008b03d100f9
:103630000a83d3008982d3000882d300000072007d
:1036400081807200020173008381730033fa0700e6
:103650000002be000203be0028f907000002be00ff
:103660000203be006fa89700ffa897000fb1970054
:103670009fb1970060fa0700a0a79f00b1a79f0025
:10368000c2a79f00d3a79f000000eb0080a79f0068
:1036900014c0b30025a620000b0037000400fb0077
:1036a0004300dd00050040005001be004000be00a8
:1036b0000040e10001c8e10002d0e10003d8e100d0
:1036c000030039000442e800f44f5200f3ff3a00cf
:1036d000c47f9f000400fb00bfb097000080400043
:1036e0008fa09700010040004fb1970000075100e4
:1036f000bfb197000300e000010032000e07e900af
:1037000063806600010032000e07e9000d28a30067
:1037100026003200e18066000d18a3000c00320084
:10372000d00220000100e00001003a000080e90022
:10373000efb09700f8fa0700e10f400018003200e0
:103740002fb297000402e800a4b79f0014003700ce
:103750000100e00012003200efb0970000022000ec
:10376000edfa0700e10f40000d003200afb2970004
:103770008502e800a5b79f0009003700efb0970069
:1037800000032000e4fa0700e10f400003003200cc
:103790002fb697000c06e800acb79f000e07e900b3
:1037a0000e00e000f5ff3c003d0037000d38a3009f
:1037b0000a0032000b003700efb097000002200033
:1037c000d5fa0700e10f4000030032002fb0970048
:1037d0000000e800a0b79f000e07e9000e00e0001f
:1037e000f5ff3c00e18066000d18a3000c003200dc
:1037f000d00220000100e00001003a000080e90052
:10380000efb09700c4fa0700e10f40002400320037
:10381000afb097008100e800a1b79f0020003700fb
:103820000100e0001e003200efb09700000220000f
:10383000b9fa0700e10f4000190032002fb19700dc
:103840000201e800a2b79f00150037000000fb004e
:103850004300dd0021a62000010040003002be0030
:103860002003be000800be000a01be0041f70700a9
:10387000a4002000050020006033b80044f70700d2
:103880000003b000efb09700a3fa0700e10f40007b
:1038900003003200afb197008301e800a3b79f0097
:1038a0004f7a97000440e900c07f9f00e14f40003d
:1038b000e6ff3a000b003700efb09700000320004e
:1038c00095fa0700e10f400003003200afb2970005
:1038d0008502e800a5b79f000fa097000000e9004f
:1038e00080a79f000fa097000000e000f2ff3c00bf
:1038f0003fb6970020c1b300f20f560001003c0014
:103900006fe09700c07f9f00cf7897000100fb0019
:103910003fb1970000005100e0a79f000104e000c4
:1039200008003200efb09700e00220007afa0700aa
:10393000e10f400003003200afb197008301e800bf
:10394000a3b79f004f78970097fc07000002be00c6
:103950000203be002fa09700bfa097004fa19700c1
:10396000dfa1970094f70700e1f807001e00370079
:103970000000fb004300dd002ca620000c004000ee
:103980003002be002003be000800be000a01be00d7
:10399000f8f60700a4002000050020006033b800fe
:1039a000fbf607000003b000efb097005afa0700db
:1039b000e10f4000030032002fb297000402e8003c
:1039c000a4b79f00cf7a97000500fb004300dd00fd
:1039d0000c0040003002be002003be000800be0004
:1039e0000a01be00eaf607000205be000004be00a0
:1039f0004f7e97000c40e900c07f9f00e14f4000e0
:103a0000dbff3a000006eb0009003700efb097003b
:103a10000003200040fa0700e10f400003003200dd
:103a20002fb097000000e800a0b79f000c06e80048
:103a3000efa09700810f5600f4ff3a000d38a30065
:103a4000a10132000e00e0009f0134000006eb00ef
:103a5000efb09700000220002ffa0700e10f4000ae
:103a6000030032002fb197000201e800a2b79f00c7
:103a70000c06e8008e0f560093013200f4ff370069
:103a80000d007800000cb20028003a000d00e000a4
:103a900005003d008fb997004305be004304be00fa
:103aa00083bf9f00140037000d48a3000b003200b5
:103ab0000fba97004400be0084bf9f004f89de000c
:103ac000cf91de000002be0002037800820378007e
:103ad0000605be000404be00070037008fba970039
:103ae0004500780085bf9f0000047800cfc4de0049
:103af000090578008a057800e00f5400e08f5c002b
:103b0000e00f5d00e08f5d0020003d003d00b30050
:103b10006000b8006011b8000804500089845800a3
:103b20000a0559008b855900180037000d00e00088
:103b300005003d000fbe97004c05be004c04be00c2
:103b40008cbf9f00110037000d48a3000800320011
:103b50008fba97004500be0085bf9f000401780022
:103b6000840178000205be000004be000700370093
:103b70000fbe97004c0078008cbf9f0000047800b7
:103b8000090020000a0020000b0020003fb0970031
:103b90000000e00007003a00e00f5400e08f5c00f6
:103ba000e00f5d00e08f5d0002003a001100200090
:103bb000b1b79f000d0778000e0cb2000004200082
:103bc000800f57002f00320003003c000e00e00081
:103bd000070032003f00370000082000800f570028
:103be00014003200000c2000800f570039003a000a
:103bf00014c0b30025a620000b0037000400fb0012
:103c00004300dd00050040005001be004000be0042
:103c10000040e10001c8e10002d0e10003d8e1006a
:103c20002b0039000442e800f44f5200f3ff3a0041
:103c30002700370000012000010020006011b800bb
:103c400014c0b3000040e10001c8e10002d0e1006f
:103c500003d8e1001e003900450020000000d0001c
:103c60008180d2000281d2008381d2008502e900e6
:103c7000faff3a000442e800f04f5200f1ff3a0028
:103c80001300370080002000010020006011b80000
:103c900014c0b3000040e10001c8e10002d0e1001f
:103ca00003d8e1000a0039003c0020000000d000e9
:103cb0008180d2000281d2008381d2000c06e9000b
:103cc000faff3a000442e800f54f5200f1ff3a00d3
:103cd000c47f9f00cf7897000100fb003fb19700a1
:103ce000820f500002003d00c27f9f000400370099
:103cf000bfb19700808f510001003d00b0b79f0019
:103d00004fb297000400e0000400320063806600b8
:103d1000020032000402e900c4b79f000de8a300ce
:103d20000b003200cfb297003fb697008c8f520045
:103d300003003c000000eb00c0b79f000400370008
:103d4000cfb097003fb1970082805000c1b79f006d
:103d5000cf7997000300fb000002eb0094a79f00bf
:103d6000cfb29700808f52000200340000805200d2
:103d700090a79f000d28a30037003200e180660065
:103d80000d18a3000c003200d00220000100e0005a
:103d900001003a000080e900efb097005ef90700eb
:103da000e10f40000e0032002fb697000c06e8002d
:103db000acb79f000a0037000100e00008003200a5
:103dc000efb097000002200053f90700e10f400018
:103dd000030032002fb097000000e800a0b79f005a
:103de0009fa097000100e0000f0032000006eb00ea
:103df000efb097000003200047f90700e10f4000f3
:103e0000030032002fb197000201e800a2b79f0023
:103e10000c06e8009fa19700830f5600f4ff3a00bc
:103e20000002eb0094a79f00bfb29700c328dd00fb
:103e3000a0a520008080400091af9f004228dd00b7
:103e40006400500080af9f006328b900f0a79f0076
:103e500063065000820037001fa697000c00e000a8
:103e600011003200688066000f003a0000067800fa
:103e7000efb097000002200027f90700e10f400093
:103e8000030032002fb097000000e800a0b79f00a9
:103e90000c06e8009fa09700810f5600f4ff3a003f
:103ea0000001eb0092a79f00e18066000d18a300bf
:103eb0000c003200d00220000100e00001003a00b6
:103ec0000080e900efb0970013f90700e10f400010
:103ed000d5ff3200afb197008301e800a3b79f0080
:103ee000d1ff37000100e000cfff3200efb09700b4
:103ef0000002200008f90700e10f4000caff32006d
:103f00002fb297000402e800a4b79f00c6ff370055
:103f100000042000800f57003000320003003c00f6
:103f20000e00e000070032003d00370000082000ce
:103f3000800f570011003200000c2000800f570046
:103f400037003a001fa897003002be002003be00d1
:103f50000800be000a01be0086f50700a40020008c
:103f6000050020006033b80089f5070004c3b300e2
:103f700004424000c47f9f002900370095b0200014
:103f8000d5b79f000d58a30002003a00a0b1200051
:103f9000d0b79f0014002000050020006033b80057
:103fa0008fa897008100e900050033000402d000cb
:103fb0008582d2000683d2008783d200f9ff3700c2
:103fc0000800be000a01be006af507006f0060002d
:103fd0005fb19700624078001000370014002000a5
:103fe000050020006033b8008c0178008301e900ef
:103ff000050033000402d0008582d2000683d2007f
:104000008783d200f9ff37000800be000a01be0016
:1040100058f50700674060000043b000c07f9f0074
:104020004f7a97000400fb00efb09700baf8070042
:10403000e10f400003003200afb297008502e800b4
:10404000a5b79f001fa897006800500090af9f0081
:104050008fa89700e480500081af9f006306560050
:10406000d0ff2f003fb197000090b900ffa197004b
:104070000080410063005000800f5600a4ff3a000a
:104080000d38a300100032001fa297000400e000ca
:104090000d0034000006eb00efb097000002200096
:1040a0009df80700e10f400003003200afb2970017
:1040b0008502e800a5b79f000c06e8001fa0970046
:1040c000800f5600f4ff3a007fb19700b2407800ad
:1040d000f2b79f00c17f9f000104e00014fb3a008b
:1040e0002fb097004f0778004f06be004f05be0067
:1040f0004f04be008f03b10000000600881f780047
:1041000000047800b00090000148a30007003a00c6
:104110000108a300050032000198a3000800320046
:10412000100090000000e000050032003800900010
:104130000040a000300498008080eb002000370091
:104140000190a10031049800180090000000e000e8
:10415000060034000000e900100498001800780000
:10416000b080fb00000c780006003700380090009b
:104170000068a300edff3a00080078005400070033
:1041800080007800380090000078a3000c003a000e
:10419000fa8f500008003a00280090000000e0006c
:1041a000e2ff3200180090000000e80010049800c0
:1041b000180ce900ddff3700ed8f5000e2ff320000
:1041c000010078004f0478000000060080017800ac
:1041d000e10f400017003200310090000008a300fa
:1041e000140032000098a30012003a00210290004f
:1041f0000400e0000f003200110190005100900017
:10420000800f51000b00320011007800840f500025
:1042100002003a008008e800020037000200e800cf
:10422000900098001100e9008008780003487800a9
:10423000010037008081eb000300780000000600d9
:104240000001780000c2b300010037000201e8005d
:104250009240780080cf5000fcff3200e9cf500040
:10426000faff3200d0c2b30080cf500003003a0002
:104270000201e80014c0b300050037000042eb0063
:10428000b0c2b30080cf500001003a000201e80044
:104290008000eb0005fd2f00040037006a08b9001c
:1042a00000804100850040000201e8009201fb000f
:1042b00005804100e90f5000f8ff36000404e000db
:1042c000010032008100ea000100780000000600d1
:1042d0000200fa00889fbe008a1f78000004780060
:1042e0000000eb0010049800380090008080eb0084
:1042f0000008a3003f00320060b520001004e00079
:1043000010003200e9b220004ab320001a00780001
:104310006c0545002010b20021102000810f5000d4
:1043200002003a000900780037000700ec844400de
:1043300020b52000808f5400f4ff3a0060b52000c3
:104340000048eb0048009000580190000200e00097
:104350000d003a001204980012002000e880570077
:1043600047f00700e10f500003003a000ff89700f4
:104370008080fb001f003700380090000040a00044
:104380003004980012003700a80090003cf00700ad
:10439000100498000000e00003003200e10f40002c
:1043a0000d003a0003003700380090000040a000e4
:1043b00002003700380090000003b300300498007a
:1043c000a8009000010c78000000eb001004980099
:1043d0008080eb0007003700a8009000010c7800f7
:1043e0000000e9001004980001007800b080fb0094
:1043f000000c7800010078004f0578004f04be00e3
:104400000080fa0000000600881f78000004780091
:10441000300090000008a300070032008000780000
:104420000120b20004003a0011049800a800900096
:10443000010c7800170037000018a30019003200a3
:104440000098a30017003200a80090000100e000cf
:1044500014003200180190000200e0001100320048
:1044600048009000cfef070098009000810f5000a7
:1044700003003200380090000003b30030049800bd
:104480000000eb001004980028009000000c780059
:10449000380090000058a300020032000080eb00ba
:1044a000010037000000eb004f0478000000060018
:020000040000fa
:0200000401f009
:04000000f7bf000046
:020000040000fa
:0200000401f009
:04000400ffff0000fa
:020000040000fa
:0200000401f009
:040008007cff000079
:020000040000fa
:0200000401f009
:04001400ffff0000ea
:020000040000fa
:1000080090010000900100009001000090010000a4
:100018009001000090010000900100009001000094
:100028009001000090010000900100009001000084
:10003800900100009001000090010000a626000039
:1000480090010000b62c0000222d0000ee260000d2
:100058009001000090010000900100009001000054
:100068009001000090010000900100009001000044
:100078009001000090010000900100009001000034
:100088007a3100009001000090010000900100000a
:100098009001000090010000900100009001000014
:1000a8009001000090010000900100009001000004
:1000b80090010000900100009001000090010000f4
:1000c80090010000900100009001000090010000e4
:1000d80090010000900100009001000090010000d4
:1000e80090010000900100009001000090010000c4
:0800f8009001000090010000de
:020000040000fa
:1001080090010000900100009001000090010000a3
:100118009001000090010000900100009001000093
:100128009001000090010000900100009001000083
:10013800900100009001000090010000a626000038
:1001480090010000b62c0000222d0000ee260000d1
:100158009001000090010000900100009001000053
:100168009001000090010000900100009001000043
:100178009001000090010000900100009001000033
:100188007a31000090010000900100009001000009
:100198009001000090010000900100009001000013
:1001a8009001000090010000900100009001000003
:1001b80090010000900100009001000090010000f3
:1001c80090010000900100009001000090010000e3
:1001d80090010000900100009001000090010000d3
:1001e80090010000900100009001000090010000c3
:0801f8009001000090010000dd
:020000040000fa
:1044b0004944000053090000454c000041420000ff
:1044c0005f4c0000414e0000474d00005549000080
:1044d000525f0000505200004f420000455f000054
:1044e0004453000050490000435f00005630000074
:1044f0002e31000009250000730d0000005300005c
:10450000544f000050450000440000005354000088
:104510004f500000504900004e470000005200007c
:104520004553000045540000494e0000470000007c
:10453000696400007300000063660000670000000b
:10454000252a0000730900002564000009250000e9
:1045500064090000256400000925000064090000ca
:10456000256400000925000064090000256400009e
:104570000d000000434600004709000025640000cc
:1045800009250000640900002564000009250000d9
:10459000640900002564000009250000640900008a
:1045a000256400000d000000434f00004e4600004f
:1045b0004947000055520000494e000047000000e6
:1045c00063750000720000004355000052090000ae
:1045d0000025000064090000256400000925000092
:1045e000640900002564000009250000640900003a
:1045f0002564000009250000640d00000073000020
:104600007472000000530000544100005254000036
:10461000494e00004700000053540000520d0000b6
:1046200000530000545000000d00000053540000df
:104630004f500000504900004e470000005300005a
:10464000544f000050450000440000005354000047
:10465000504f00004b0d0000004300004f4e000083
:104660004649000047550000524900004e470000ef
:10467000005300005441000052540000494e000015
:104680004700000052450000534500005449000017
:104690004e470000004300004f4e00004649000016
:1046a000475500005245000044000000434600000a
:1046b000474f00004b0d0000005300005441000024
:1046c00052540000454400000053000054520000c2
:1046d0004f4b00000d000000524500005345000004
:1046e000544500004400000052530000544f0000a5
:1046f0004b0d0000000000000a0d000020700000bb
:104700007265000073730000616f00003a250000bd
:10471000662000000a0000000a0d00002070000062
:1047200075660000666900006e6700000a00000000
:104730000a0d000020700000726500007373000015
:10474000616f00003a25000066200000636f0000e2
:10475000756e0000743a000020250000640a000015
:1047600000440000415400000d000000454e0000d0
:10477000440d000000000000303000003030000028
:1047800030300000003000003031000030300000d8
:104790003734000030300000323d00003f3100006f
:1047a00030360000003000003031000031300000b1
:1047b0003734000030300000360000005354000051
:1047c0004f5000004544000000000000525300001c
:0847d000540d00000000000080
:020000040000fa
:1047d8000000fa000080fa00000006000000fa005d
:1047e800d1458000401f2000808f50000200340017
:1047f800401f2000d0458800d04580000000e00020
:1048080002003d000000eb00d0458800d045800044
:10481800a0468800e045800090468800f04580006a
:10482800b046880000468000c04688009146800057
:10483800b046800000004000000178001100090027
:104848008200d80050468800a04680000000400042
:10485800b2468000110009000200d8008046880096
:10486800504680000000e00002003a0010002000de
:1048780050468800804680000000e00002003a00b0
:10488800100020008046880030468000e0468800fe
:104898000080fa00000006003200fa000000eb0079
:1048a800701798000000eb0060179800dec2a9009e
:1048b800e2c2a9000000200001f82b004017980070
:1048c800511798006000b800201798003117980019
:1048d8006000b80000179800111798006000b80031
:1048e800600f9800710f98006000b800400f9800a2
:1048f800510f98006000b800200f9800310f980001
:104908006000b800000f9800110f98006000b80010
:1049180060079800710798006000b8004007980089
:10492800510798006000b8002007980031079800e8
:104938006000b800008fbe0010468000cf80de0007
:104948000cef070002002000a347240034ef070003
:10495800201798003117980020468000cf80de008d
:1049680004ef070002002000a34724002cef0700f3
:10497800001798001117980011e1a800d024200012
:1049880060088800390107004017980051179800ff
:10499800d202a900d602a8000000eb006017980018
:1049a8001000370031010700401798005117980090
:1049b8004e109000de109000809fbe00c0372a0085
:1049c800801f7800d9f60700e687570040062000c8
:1049d800ea0707000060fe006e1090000000e80083
:1049e800601798008040eb00117798000e11900036
:1049f8009e1190004e109000de1090004aef0700c4
:104a08000000e00001003c000200370010c0b300c5
:104a1800107798001e7090000004a2000004e000c7
:104a280003003a006e109000e90f5000ddff3400db
:104a3800d602a900c05d2000d0070700e2c2a80086
:104a4800c05d2000cd070700c0382a00801f78000d
:104a5800b6f607008f87e900d882a900dc82a80093
:104a680060088000000040003200200011000900aa
:104a78000280d800600c88000000eb0060179800e6
:104a880012003700f90007004017980051179800e6
:104a980020032000b90707006e1090000000e8000e
:104aa80060179800ee109000811f78004e1090005b
:104ab800de109000809fbe0080392a00801f780099
:104ac8009af60700e88757000060fe008040eb0078
:104ad800017798002e119000be1190004e109000a2
:104ae800de10900012ef07000000e0000100350022
:104af8000200370010c0b300007798000e709000d5
:104b08000004a2000004e00003003a006e109000c8
:104b1800f30f5000dbff3400d02420007008880019
:104b2800103b2a00801f780080f607008f87e90075
:104b38000000eb00404688000000eb00704688004b
:104b48000000eb00900c880013e1a800a1e2a80087
:104b580084e0a9008560a90058003700d04680008d
:104b6800e10f500055003a005047800042062000ef
:104b7800110009000200d800f04688005247800062
:104b8800f1468000400620000088b900000051006e
:104b9800a2002000110009000200d8000047880088
:104ba80050478000a2002000110009000200d80030
:104bb8008000fd0010478800604780004206200002
:104bc800110009000200d8002047880062478000d1
:104bd80021478000400620000088b90000005100ed
:104be800a2002000110009000200d8003047880008
:104bf80060478000a2002000110009000200d800d0
:104c08008000fd0040478800a1b32000d0002000ac
:104c1800bff50700a1b32000f04680000000fb00ac
:104c28000003b000baf50700a1b3200000478000d8
:104c38000000fb000003b000b5f50700a1b3200099
:104c4800104780000000fb000003b000b0f507002b
:104c5800a1b3200090002000adf50700a1b320000b
:104c6800204780000000fb000003b000a8f5070003
:104c7800a1b32000304780000000fb000003b00013
:104c8800a3f50700a1b32000404780000000fb0007
:104c98000003b0009ef50700a1b32000900020009b
:104ca8009bf50700a1b320000003200098f507003a
:104cb800a1b32000a000200095f50700b1468000b0
:104cc800c04680000088b9008000780070468000e7
:104cd800808f5000a1ff3c00603b2a00801f7800b5
:104ce80012f607008f87e90013e1a9000000eb0026
:104cf800600c8800007d200020070700d402a9006e
:104d0800a00020001d07070011e1a900a1e2a900e9
:104d180084e0a90011e1a9000080fa000000060063
:104d28000000fa0011e1a8000000eb00600c880008
:104d3800da82a900d402a900e2c2a9000080fa0020
:104d480000000600809fbe003400f800000020002c
:104d5800a00188000000fa0084e0a9004046800015
:104d68000000e80040468800414680005046800028
:104d7800808f5000130035000000eb00404688008b
:104d8800a022a800910c800080468000008040008e
:104d9800900c8800a046800080007800900c80006d
:104da800808f500003003900900c8000e90f5000fc
:104db80003003e00804680000000ea00804688002c
:104dc8000060fe000080fa003400f9004f00be00c9
:104dd80000400600801f78003400f8000000200022
:104de800a00188000000fa008560a9001014800066
:104df8005047880000148000604788001000200099
:104e0800d0468800704680000000e80070468800a0
:104e18000080fa003400f9004f00780000400600d6
:104e28000200fa00000f7800f04780000000e00060
:104e380006003a001e007800218f200005000900b6
:104e4800315878006000b100050037001e00780076
:104e5800c13b2a0005000900315878006000b10004
:104e6800f04780000080fa00000006002400fa00e5
:104e78000000200001f82300008fbe006a004700f0
:104e8800313c2a000e00090031587800f000b100ca
:104e9800ea004700d0c0b300f04898006a00470015
:104ea80001012000490207006a0047009101200023
:104eb80071020700400798004e0090000000e000d3
:104ec80010003d00d10020000000eb005e0007004c
:104ed800704780000000e800704788007047800035
:104ee800e40f500004003c000000200001f82b00f3
:104ef800200798003107980060ff2f00f0478800ce
:104f08004d0037004e009000f40f500010003200a2
:104f1800d10020000000eb004b0007007047800024
:104f28000000e8007047880070478000e40f5000d8
:104f380004003c000000200001f82b002007980026
:104f48003107980050ff2f00f04788003a003700db
:104f58006a004700a2002000313d2a0059f50700e9
:104f68000000e00010003200d10020000000eb003b
:104f780035000700704780000000e800704788008f
:104f880070478000e40f500004003c00000020003f
:104f980001f82b00200798003107980040ff2f00e8
:104fa800f0478800240037006a004700f60307002e
:104fb8000000e00010003d00d10020000000eb00e0
:104fc80021000700704780000000e8007047880053
:104fd80070478000e40f500004003c0000002000ef
:104fe80001f82b00200798003107980030ff2f00a8
:104ff800f0478800100037000000eb007047880079
:105008006a0047006a004000218f2000050009005f
:10501800b05878006000b1000000eb00f04788004d
:10502800208f200036000700008fbe001e00be0043
:1050380020079800310798002e009000be009000cd
:105048000080fa00000006000800fa001007980027
:10505800210798002e009000300798003e0090002d
:10506800ec0f5000140032003e009000ed0f50008d
:10507800040032003e009000ea0f50001700320092
:105088001c0037001e0090000000e0000100320004
:105098001800370080478000e10f4000030032000d
:1050a800804780000000e800804788000000eb008f
:1050b800000f78000f0037001e0090000000e0008d
:1050c800010032000b0037000000eb008047880029
:1050d8000000eb00000f7800060037001e0090006b
:1050e8000000e00001003200020037008047800025
:1050f800000f78001e0078000080fa00000006000b
:105108000c00fa00500798005e00900010407800ec
:105118008080fb0000fd2f0080804000803e200042
:105128000088b900cf80de0012ed07003007980034
:10513800410798005e0090000000e80010407800e9
:105148008080fb00400620000088b90080007800bd
:1051580000d42e0000804000cf80de0005ed07005f
:105168000001be003e009000ce00900073ed0700e5
:1051780030079800410798005e0090000080e80022
:10518800104078000080fb006a00b90080007800b9
:1051980000e22f0000804000cf80de00f5ec070021
:1051a8000001be003e009000ce00900063ed0700b5
:1051b80030079800410798005e00900063004000a7
:1051c800104078008080fb0000fd2f000080400028
:1051d800cf80de00e7ec07000001be003e00900033
:1051e800ce00900055ed0700300798004107980061
:1051f80002002000a34724003e009000ce0090004b
:1052080007ed070030079800410798005e009000fe
:1052180064004000104078000080fb006a00b9007c
:105228008000780000e22f00008f40005e009000b0
:1052380065004000104078000080fb009e004000a0
:1052480000fd2f00008f40001e007800740f5000f2
:105258001e007800cf80de00c6ec07000001be000b
:10526800000020000112240091ed07003e0190008b
:10527800ce01900071ee07001007980021079800f2
:105288001e009000ae0090000080fa0000000600aa
:020000040000fa
:10529800540800005200000000000000c808000088
:1052a80016000000020000000000000000000000de
:1052b8000000000000000000f401000000000000f1
:1052c8000000000000000000de08000010000000e0
:1052d80000000000f80800000400000002000000c0
:1052e8000000000000000000a608000022000000e6
:1052f80000000000fc08000002000000020000009e
:105308000000000000080000540000000000000039
:10531800fe0800000200000002000000ffff00007d
:10532800ee0800000a00000000000000580b000012
:105338000200000002000000010000000009000057
:1053480002000000000000002c0b000026000000f6
:10535800020000002e0b54000b000000540b090043
:1053680000000000020052000b000000520b060073
:10537800020100000000000000000000000006001c
:105388000202000000000000520b000006000000ae
:10539800000000005a0b000002000000000000009e
:1053a800620a0000a00000000200000001000000e6
:1053b8000000000000000a000000000000000000db
:1053c800006400000000000000000000e803000086
:1053d800000000000000100027000000000000008e
:1053e80000a08600010000000000000040420f00fd
:1053f80000000000000080009698000000000000f7
:105408000000e100f50500000000000000ca9a0055
:105418003b00000000000000e40b54000200000004
:105428000000e80076481700000000000010a50002
:10543800d4e8000000000000a0724e001809000027
:10544800000040007a10f3005a0000000080c600f7
:10545800a47e8d000300000000c16f00f2862300c7
:10546800000000008a5d78004563010000006400c8
:10547800a7b3b600e00d000000e889000423c700c8
:105488008a000000020b00002a0000000200000051
:10549800286e75006c6c29000030310032333400fe
:1054a800353637003839410042434400454600004c
:1054b8003031320033343500363738003961620014
:1054c80063646500660000000209000060010000d6
:1054d800020000000000000000000000f03f000093
:1054e8000000a0009999b9003f0000000040e100c9
:1054f8007a843f0000000000e04d6200503f000049
:105508000000e000e2361a003f0000000080b5000d
:10551800f8e43e0000000000a0f7c600b03e00001e
:105528000000a000f2d77a003e00000000e08e00e4
:1055380079453e0000000000e00b2e00113e0000ff
:105548000000e000df7cdb003d0000000000a1005f
:105558009cc73b0000000000004c4800b439000024
:1055680000000000206ca1003700000000000000cf
:105578000000000000000000000000000000000023
:105588000000000000000000000000000000000013
:105598000000000000000000000000000000000003
:1055a80000000000000000000000000000000000f3
:1055b80000000000000000000000000000000000e3
:1055c800000000000000f0003f00000000000000a4
:1055d80000244000000000000000000059400000c6
:1055e8000000000000408f004000000000000000a4
:1055f80088c340000000000000006a00f840000076
:105608000000000080842e00410000000000d0004f
:1056180012634100000000000084d7009741000099
:105628000000000065cdcd004100000000205f00b3
:10563800a002420000000000801daf0015440000d9
:1056480000004000593e290046000000000000000c
:1056580000f07f000000000000000000f07f000064
:10566800000000000000f0007f00000000000000c3
:1056780000f07f000000000000000000f07f000044
:10568800000000000000f0007f00000000000000a3
:1056980000f07f000000000000000000f07f000024
:1056a800000000000000f0007f0000000000000083
:020000040000fa
:1056b8000200fa00e04780000000e00040003a00e5
:1056c80010002000e04788000000eb0040418800ff
:1056d8000000eb00000f7800180037001e0178006a
:1056e8009e007800400220000088b9008000780001
:1056f8004082200080814000400220000090b900d4
:1057080021022000808040000080200000804000ae
:10571800030878009e007800400220000088b90045
:10572800010220008080400000802000808040002e
:105738000000eb00800878001e0fe8001e00e00063
:10574800e6ff350000802000104188000000eb00d3
:10575800004188000080200030418800008020003f
:10576800204188000c02a900c12020009140780047
:1057780090cfb30000c060000ce2b700f00b20002f
:10578800a01088000de2a8000f42a8000d42a80052
:10579800dec2a900c702a900e2c2a900cb02a90083
:1057a8000ec2bf00f043b2000ee2b7000fe2a9003c
:1057b8008520a9008540a9008d40a9008d20a8005a
:1057c8000000eb000080fa00000006004800fa0024
:1057d80010279800212798000000eb00000f7800a0
:1057e8002e2190000e80e8009e2090002ef30700e6
:1057f8002e2090000000e00003003a000080eb003b
:105808003027980019003700e04780000000e000ca
:1058180003003a000080eb0030279800130037009f
:105828001e007800800078001e2090000080400054
:10583800104078000080fb00801088001e0fe800f0
:105848000fc2bf00614060000004e000fcff3200ae
:105858002e2090009e0f1000f1ff3500200320003d
:10586800460407000000eb00302798003e20900017
:105878000080fa00000006000e00fa0020079800d9
:1058880031079800be00900000022000808f500071
:10589800030034000080eb00400798002e0037001a
:1058a800e04780000000e00003003a008080eb0041
:1058b80041079800280037008d20a900404180004a
:1058c800000f78008d20a8001e00e00003003a00b9
:1058d8008080eb00410798001f0037008d20a90049
:1058e8003041800000109000be00900061079800d1
:1058f800500798005e009000ee009000810f500065
:10590800020034006e00900050079800de009000fe
:10591800110798001e019000304180008000780037
:105928002e009000e0f20700314180000000eb00fb
:1059380080109800404180000000e9004041880044
:105948003041800010109000304188008d20a80060
:105958001e009000400798004e0090000080fa005a
:1059680000000600809fbe000400fa008520a90000
:105978000ec2bf00614060000004e000fcff32007e
:105988000ec2bf000080fb004200de0061406000e4
:105998000080fb00000f78009010800020479800de
:1059a8001e00e00004003200214180000000eb00ee
:1059b8008010980016003700404180000000e00089
:1059c80013003c002141800020418000001090001d
:1059d80001004000ae40900001487800214180005d
:1059e800011090000000e800801098002e40900000
:1059f800ed4f500006003a00404180000000e800ea
:105a0800404188002041800010109000204188000b
:105a18002041800000109000ff0f50000300340068
:105a2800214180000000eb00801098000e22a900a0
:105a38000080fa004f00be00004006000000fa0097
:105a48008540a9000080fa00004006000000fa0026
:105a580061312a00608a200025f207000000e0007a
