:020000040000fa
:080000000001040000000000f3
:020000040000fa
:10020000efbc200000ff200000018800000000007b
:100210000c00070000b123000100200011000700be
:10022000000020000000e000020032000000020098
:1002300000000000ca460200000000000040da0092
:100240000000fe004440a900c01620000000e000ad
:100250000300320000002000a00188004440a800f4
:100260000000060091018800800078000000eb008b
:1002700015003700e280400032a0b4009101ba00be
:10028000e280400032a0b4009102ba00e280400057
:1002900032a0b4000002eb00472bde00f507b200ed
:1002a000602ce10004003a000059eb008301e900f2
:1002b000fdff3e00040037006128e100010032002c
:1002c0000082eb00040007001101ba000200e00008
:1002d000e8ff3a00000006003159ba008301e90046
:1002e0000c0032002159ba008301e90008003200f5
:1002f0000400e00003003a00e280400032a0b400b5
:10030000f5ff370011d9ba008301e900faff3a007e
:100310008100e800e180400032a0b4000000060047
:1003200000000000000000000000000000000000cd
:1003300000000000000000000000000000000000bd
:10034000040037000204e0000a0032000000e80068
:100350008100e80010417800914f5100f9ff320010
:100360000081eb0010407800914f500004003900ec
:10037000020037000001eb000100370012002000ee
:100380000200780000000600889fbe00800478000c
:100390000100780002047800890178001100200033
:1003a00070000700880f5000010032008004eb004d
:1003b000090078004f04be00000006000000fa00ab
:1003c0004fb99700e8815700a1932000401c2000fe
:1003d000b90007000080fa0000000600889fbe00f8
:1003e0008a1f7800800478000104780000457800b6
:1003f000c100900068009000808f50000400390018
:1004000008007800650107000000e00015003500d5
:1004100048009000095878004004980018007800bf
:1004200000b8a30004003a0000a8a30006003200b0
:10043000ea4f550004003a00080078009a010700ce
:100440000000e00007003a0000c020001800600033
:100450000200320048009000600498000a80fb000f
:10046000010037000080eb004f0578004f04be000c
:1004700000000600000278000000eb000b003700cf
:100480009441780091cf5100030032000080eb00ce
:1004900009003900100005000000e8000304e00036
:1004a000040032000402e8008100e800820f5000de
:1004b000f3ff3a000000eb00000006009001780016
:1004c0000200e00002003a000308e90005003700de
:1004d0008080eb001304e000020032000308e80013
:1004e0009300fb0001007800000006000200fa0003
:1004f000f0bf9f003fb99700ea8157008f80e90065
:10050000e0252000a50107000080fa000000060099
:100510008001eb000200370061f079008301e80000
:10052000828f5100fcff3a00000006008001eb00c2
:1005300008003700e342780063c278008301e800d6
:1005400084cf5200030032000080eb000400390029
:1005500010000500828f5100f6ff3a000000eb000a
:1005600000000600889fbe008a9fbe008c9fbe00d0
:100570008e1f7800810678008304780000067800da
:100580000288b900000778000000e00002003a008d
:1005900000017800420037000d00e000400032000a
:1005a00000057800c900900069009000808f50001d
:1005b0000400390009007800f80007000000e0009e
:1005c00029003500004020001900600003003a00b7
:1005d0000a047800800578000b0037000a017800d3
:1005e000a10020000c00780034020700800578008c
:1005f0000000e00002003a000a0478000200370020
:100600000c0050000004e800c9019000690090004f
:1006100003005000880f50000200310000047800f1
:100620008005eb00080178008c007800030078005a
:10063000b7ff07000806460008055500490090006e
:1006400000004400c00498000b00e00004003200e9
:1006500009007800140107000000e00002003a00e1
:100660000a00e000cfff3a0000802000190060007f
:1006700002003200090078000b01070000c02000d2
:10068000190060000200320049009000e004980068
:100690000a005700110009000d80d8000001780001
:1006a000020078004f0778004f06be004f05be00dd
:1006b0004f04be00000006006200fa00889fbe00e2
:1006c0008a9fbe000004be00020578008300780007
:1006d00060f92f000f0040000202070088979f007a
:1006e00099979f000000eb00a09f9f009a4578001b
:1006f0000b80fb000000ea00cf04de0050c2b30014
:1007000080cf550002003200090478000100370054
:100710000904e9000800e0000b0034001f90970076
:10072000080178008a0078008f919700030001008b
:1007300090979f000000e000930032002f989700f0
:1007400000004400a09f9f000905450050c2b3006f
:1007500080cf5500040032000b04e000e3ff3a00b4
:100760002f989700890037000000eb00809f9f00c2
:10077000f0979f00e0979f00d0979f00c0979f0041
:10078000b0979f00c09f9f000900370020aa20005b
:10079000008050000000400061a92000e1007800c6
:1007a0004f98970001007000c09f9f000a05e80065
:1007b0001a4478008800fb0020aa2000ce01070020
:1007c000800078000000e000f0ff3a00a0c2b30013
:1007d000804f54000e003a00bf8897000180e90066
:1007e000b08f9f0010007800b09f9f000000e000d5
:1007f00005003d000000ea00b09f9f004f98970061
:100800000020a000c09f9f000a05e80010003700ec
:10081000b19f9f0003fd2f00f4ff27000800370061
:100820003f989700840f5000040032006a00b9001e
:100830000000410003004000b09f9f000a05e8004f
:100840001a01fb0003004100e90f5000f4ff3600dd
:10085000e0c2b3009a4f1000040032000080eb00a9
:10086000909f9f008a0478001c0037008a04e800eb
:10087000a0c2b300994f100007003a00bf8897004c
:100880000180e900b08f9f0010007800909f9f00ca
:100890008a84e800110037000000eb00909f9f0061
:1008a00003fd2f00f4ff2700080037001f98970072
:1008b000840f5000040032006a00b90000004100bb
:1008c00003004000909f9f008904e8001901fb008d
:1008d00003004100e90f5000f4ff3600194478008e
:1008e0008800fb0040ab2000830107000000e0000f
:1008f00002003a0000447800010037008904e80053
:10090000a87f9f0080c6b300804f540004003a00c7
:10091000994f14000a003a00664050000600370064
:10092000c0c6b300804f540005003a00994f140030
:1009300003003a0065404000a07f9f008904e80062
:100940000905e800c8fb2f000f04440060f92f00e0
:100950000f0040008085e800880178001941780088
:10096000800078000b007800360207000000e000ed
:1009700005003a00880078000b0078006701070046
:100980000000e00059ff3d000080eb004f05be0075
:100990004f04be000080fa0000000600889fbe00e1
:1009a00000047800c0019000600090008000eb001f
:1009b000808f51003900390018017800200029008b
:1009c00000006100e20f500007003200002020000c
:1009d0000200e0000100350000202400000c71003e
:1009e0008080eb002d00370001002600010061002f
:1009f000810f500008003a0038009000808f5100ad
:100a00000500390008007800270007008080eb000f
:100a10000000e00021003a0000c020001800600043
:100a200017003a00a804900060022000080040006f
:100a3000808f540012003a00002020007e0307003f
:100a400080007800200498000000e00005003a00d3
:100a500029049800490498000900e800300498002f
:100a6000060037001860a000400498000020b00085
:100a700030049800410c9800510c9800c003070006
:100a800028009000500498003800900060049800fe
:100a900000002600180c70008000eb0001007800b8
:100aa0004f04be0000000600889fbe0000047800ce
:100ab0000000e0000e003a0080047800289020003a
:100ac000180078000000e00004003200f6ff070084
:100ad0000000e00001003d008084eb000884e80095
:100ae00020912000800f540029003200f4ff3700cd
:100af000000022001800600024003200a8049000ca
:100b00000800370009015000384090000000fb0049
:100b1000890078006a0e07000000e000130034002e
:100b20008084440048009000808f5400f5ff390015
:100b300028009000400498001801780000c02000b0
:100b40000000610002003200a800900001003700a0
:100b5000b800900000002400000061000a0032008c
:100b6000610498008004eb00090037002800900021
:100b70004004980060049800500c98001890a00061
:100b80008084eb0002003700510c9800800478004c
:100b9000090078004f04be00000006001200fa00b1
:100ba000889fbe008a9fbe008c1f780002047800d8
:100bb000a0b79f00b1b79f008300780078805700ee
:100bc000c80007000000eb00e0b79f00d8b79f0007
:100bd00000067800dfb49700194578000a80fb0012
:100be0000000ea00cf05de000a00fb00bc0307009e
:100bf0000000e0001a0032006fb097000000e8002b
:100c0000e0b79f003fb09700120020008000eb008b
:100c1000afb197000300010000047800b0030700a3
:100c2000000178000000e000f3ff3a006fb0970089
:100c3000e10f4400070032000000e900e0b79f0028
:100c40003fb0970088007800afb197000300010023
:100c5000230037000000e900e0b79f0020003700c4
:100c600050c2b300804f5500020032000b047800e0
:100c7000190037000b04e900170037006fb0970028
:100c80000000e800e0b79f003fb09700120020008e
:100c90008000eb00afb197000300010080007800f6
:100ca0001900fb00808f50000a003200e18f4000e5
:100cb0007c0032006fb097000000e900e0b79f00b1
:100cc0003fb097000001eb00afb1970003000100b7
:100cd000740037008904e8000804e900e7ff3b00de
:100ce0005fb0970080804500d1b79f0050c2b3002d
:100cf000804f5500030032000a04e000b5ff3a00bf
:100d000068003700a2c2b3000040eb00914f110011
:100d100003003a000100e800d0b79f0002407800cd
:100d2000a0f79f000000eb0080bf9f0003fd2f0095
:100d3000f4ff27000a0037000fb89700840f500017
:100d4000040032006a00b9000000410003004000c6
:100d500080bf9f005fb097000000e800d0b79f0001
:100d6000dfb49700194478000801fb00030041003c
:100d7000e90f5000f0ff36008200780080aa2000c2
:100d80005d0007000000e00002003a000044780027
:100d9000020037000900e800d0b79f00b8f79f00b5
:100da00080c6b300804f540005003a00dfb09700c2
:100db000914f14000c003a006640500007003700c5
:100dc000c0c6b300804f540007003a00dfb0970060
:100dd000914f140004003a0065404000b0f79f00b6
:100de0000100e800d0b79f005fb097009000fb00c3
:100df000f0aa2000400007000000e00019003a00bf
:100e00006fb097000000e800e0b79f003fb0970088
:100e1000120020008000eb00afb19700030001003a
:100e2000000478002e030700000178000000e000b5
:100e3000f3ff3a006fb09700e10f44000700320063
:100e40000000e900e0b79f003fb0970088007800fd
:100e5000afb1970003000100020037000000e90075
:100e6000e0b79f007c805700250307000000e000ea
:100e700003003c000c00e0000900320009003700cc
:100e80004ff097000004e000010032000c06e8007b
:100e90005fb097000000e800d0b79f004dff37001b
:100ea000000678000c0078004f0678004f05be0061
:100eb0004f04be000080fa00000006008001eb0035
:100ec000040037008301e80090cf100004003200d6
:100ed0000000e800828f5100faff3a000000eb00aa
:100ee000000006000200fa00f1bf9f000108780030
:100ef0000080fa0000000600040037000204e00051
:100f000001003a00000005000000e80010417800f0
:100f1000814f5100f9ff3a00000006000400fa007a
:100f2000889fbe008a9fbe008c1f78000004780056
:100f30000106780070089000f80090000100500051
:100f400088089000010050009808900001005000af
:100f5000a808900001005000b8089000010050005f
:100f6000c8089000810550000002220090bf9f0039
:100f700000032300a0bf9f00081090000028a300da
:100f800018003a000b00e000160034008b047800d3
:100f900009057800e28f5400020036002a00200084
:100fa000020037000900e0000b00340058009000f8
:100fb000c80190000a017800ee805700030001008c
:100fc000500498000000e00096003200680890008d
:100fd00000004500600c98008a8454004240a9003b
:100fe000ebff3c00780190000200e0000b003400b1
:100ff00058009000c80190008c00780003000100a8
:10100000500498000000e00086003200680890005c
:10101000f800900001004000600c9800880c9000df
:101020000900e0001500340009057800e28f540043
:10103000020036002a002000020037000900e0000c
:101040000b00340058009000c80190000a0178009d
:10105000ec80570003000100500498000000e000fd
:10106000700032006808900000004500600c980095
:101070008a8454004240a900ebff3c00180990000c
:101080000200e0000b003400e800900058009000df
:10109000c801900003000100500498000000e00027
:1010a000600032006808900098089000010040003d
:1010b000600c9800a80c90000900e00015003400b6
:1010c00009057800e28f5400020036002a00200053
:1010d000020037000900e0000b00340058009000c7
:1010e000c80190000a017800ec805700030001005d
:1010f000500498000000e0004a00320068089000a8
:1011000000004500600c98008a8454004240a90009
:10111000ebff3c00380990000200e0000d003400b5
:10112000e80090001808900080804000580090006f
:10113000c801900003000100500498000000e00086
:101140003800320068089000b808900001004000a4
:10115000600c9800c80c90000900e00015003400f5
:1011600009057800e28f5400020036002a002000b2
:10117000020037000900e0000b0034005800900026
:10118000c80190000a017800ec80570003000100bc
:10119000500498000000e00022003200680890002f
:1011a00000004500600c98008a8454004240a90069
:1011b000ebff3c00081090000028a3001b00320049
:1011c0000b00e000190034008b047800090578005a
:1011d000e28f5400020036002a002000020037008f
:1011e0000900e0000b00340058009000c801900096
:1011f0000a017800ee8057000300010050049800b7
:101200000000e00007003200680890000000450080
:10121000600c98008a8454004240a9000300340006
:10122000eaff37000080eb00010037000000eb0010
:101230004f0678004f05be004f04be000080fa0044
:1012400000000600889fbe008a1f78000004780016
:1012500001027800824478000305780070c6b3006c
:10126000804f510021003c0000c0e900804f510038
:10127000de003d0072405000804f51004b013200b3
:101280000d003c006c405000804f51005e013c005e
:1012900000c0e900804f5100d4003d0050c2b300af
:1012a000804f5100550132007c404000804f51007a
:1012b00055013a00cd00370010c6b300804f5100f1
:1012c000ca00320004003c0069405000804f5100c9
:1012d0004d013a007200370030c6b300804f510014
:1012e000180032000040e8000900370000c7b300d2
:1012f000804f51001e01320008003c0000c0e90090
:10130000804f5100e400320065003c006540500011
:1013100080cf54003c013a000f00370050c7b300a3
:10132000804f51005e00320063404000804f51000a
:101330005b00320065405000804f510032013a009e
:101340001a0137009180e900010a780078009000c6
:101350009171780032013700a8609000c0c6b300d8
:1013600080cf50000a003a0094007800648050005a
:10137000000a78001000be004f89de00cf91de0029
:101380000002be00020378008203780013003700d9
:1013900010c7b30080cf500003003200a0c6b300d6
:1013a00080cf500006003a0094007800688050001a
:1013b000000a78003002be002003be00070037009c
:1013c0001480e900000a780010007800000278001c
:1013d000cfa2de000503780086037800049cbe00df
:1013e0000694be00a860900080c6b30080cf500075
:1013f0000e00320020c6b30080cf500005003a0036
:101400000400fb00cf80de0001017800820178003b
:101410000a00370040c7b30080cf500003003200fd
:101420006640400080cf500006003a00040078007b
:10143000cf80de000101780082017800009cbe00b0
:101440000294be003800be002801be00e00f50002c
:10145000e08f5800e00f5900e08f590003003d0075
:1014600078009000d1c2b3000a0037000810900045
:101470000018a3000300320078009000b1c2b3004e
:10148000040037000008a3005300320078009000e9
:1014900001c2b300017578000000e8004d0037007c
:1014a000a8609000c0c6b30080cf500006003a008c
:1014b0009400780064805000000a78001002be009a
:1014c0006033b8001300370010c7b30080cf50005e
:1014d00003003200a0c6b30080cf500006003a00df
:1014e0009400780068805000000a78003002be0046
:1014f0002003be00070037001480e900000a7800ce
:10150000100078000002780005002000060020008e
:1015100007002000049cbe000694be00a860900056
:1015200080c6b30080cf50000e00320020c6b3004a
:1015300080cf500005003a000480fb00010020002d
:1015400002002000030020000a00370040c7b3005b
:1015500080cf5000030032006640400080cf500032
:1015600006003a000400780001002000020020007c
:1015700003002000009cbe000294be0008109000f2
:101580000038a300140032003800be002801be005d
:10159000e00f5000e08f5800e00f5900e08f590035
:1015a0000d00320080c7b30080cf5400030032002a
:1015b00080c5b30080cf540007003a007800900047
:1015c00001c3b300017578008000e80009f57800d8
:1015d0000080e8007004980078009000000045004a
:1015e00060049800894078006d003700a860900082
:1015f000c0c4b30080cf500006003a0094007800c9
:1016000068805000000a78005001be004000be0013
:10161000050037009400780064805000000a7800cc
:101620001000be009e0f0700009cbe000294be008a
:10163000380090000000e00003003d0078009000ba
:10164000d1c2b3000a003700081090000018a300b0
:101650000300320078009000b1c2b30004003700ec
:101660000008a300050032007800900001c2b3001a
:10167000017578000000e800700498007800900080
:101680000000450060049800894078000800780058
:101690004203070064003700a8609000c0c6b30092
:1016a00080cf5000250032000a003c00644050000a
:1016b00080cf50002800320000c0e80080cf5000ea
:1016c000140032006840500080cf500022003a00e1
:1016d0000a00370040c7b30080cf50001e00320020
:1016e0006640400080cf50001b003200694050002f
:1016f00080cf500018003a00060037001480e9003f
:10170000000a780010007800485c900008487800d3
:10171000450037001480e900000a780010027800c4
:1017200068089000cf80de00010178008201780017
:10173000009abe000292be003b0037001480e90010
:10174000000a78001001780068089000cf80de0061
:101750000089be00340037001480e900000a7800d8
:1017600010007800680c9000080878002e00370000
:101770001180e9008008780010007800cf80de003a
:101780000101780082017800009cbe000294be0036
:1017900078009000000045006004980081c7b30005
:1017a000080078006d0107001f0037001480e90071
:1017b000000a780010007800600498005809900032
:1017c0000200e00002003d00ed02070009003700c2
:1017d0008000eb00b9fd0700800078000000e00009
:1017e00003003200680090000080500001003700c4
:1017f00058089000100c98000b00370078009000fb
:1018000002757800060037007800900080004500df
:101810000904e00001003a0059c2b3008948780089
:101820000000e800700498000000eb004f0578000d
:101830004f04be0000000600889fbe00e304400085
:101840000900a100808f54004a003600e38f540045
:1018500001003e0049002000f25580000200e00037
:1018600002003200820078000c00370001ac20003a
:1018700003003700908f5400230036008080e8007a
:10188000110078000000e000faff3a000f00370076
:10189000908f54001c0036008080e8001100780012
:1018a0000000e000faff3a001201780001ac2000cd
:1018b00003003700908f5400130036008080e8004a
:1018c00011007800820f5000faff3a00e8558000be
:1018d000890f5400010031000904780008007800e5
:1018e000d70407000000e00004003a00890f54000c
:1018f000200032000804d100f5ff370008187800f6
:10190000d6040700d4ff3700110178009201780057
:1019100064805100890f50000300310012009000d4
:10192000800878000700370009004100800878002f
:1019300092019000130098001100780012881400a2
:1019400009097800910078000100e00005003200ec
:10195000110090000000e000020032000180e80069
:10196000010037000000eb00f05588000280e8001d
:10197000010037000000eb004f04be00000006002d
:10198000881f780048ac20001804e00004003a00ea
:1019900080d52000e504070020c0b300004c78008b
:1019a0004f04780000000600889fbe000004780005
:1019b0003dfc07008004780000042000180060004f
:1019c0000200320028009000a40407000000eb0091
:1019d00020049800384090000004e0000500350025
:1019e0000000fb00ed0a07000000e00001003200eb
:1019f0008084eb00181090000000e0000800320026
:101a0000ef0a07000000e000010032008084eb00d4
:101a100018109000910407000000eb0010149800cb
:101a20000008200018006000100032000000eb00e9
:101a300021902000910f1400070032000000e80000
:101a40008180e800e80f5000faff3a0008007800b3
:101a50008204070013003700000140008000eb0003
:101a60002090200001307900f8ff3700000c78004a
:101a700000c0eb00304498006002200008004000e5
:101a8000200498004004980050049800400c9800ee
:101a900060049800500c9800700498007600440090
:101aa000000c9800090078004f04be0000000600fa
:101ab000881f780008912000180078000000e000de
:101ac00001003200b8ff07000884e9000090200000
:101ad000800f5400f8ff3a004f0478000000060021
:101ae0006900e100040035006d00e10003003400ee
:101af0000002b100010032000000050010000500e6
:101b0000881f7800000478000040eb000054980023
:101b1000380090009040780090c6b30080cf50000d
:101b20002a00320013003c007140500080cf50006a
:101b30002600320005003c0050c2b30080cf5000a8
:101b40006400320030c5b3001b00370030c6b3005c
:101b500080cf50001b0032000040e80080cf5000d2
:101b60001a0032006940500080cf50006e003a00e9
:101b70007300370000c7b30080cf500007003c005f
:101b80000040e90080cf500010003d000040e90017
:101b900080cf500064003a000f00370050c7b300f8
:101ba00080cf5000090032006340400080cf5000d9
:101bb000060032006540500080cf500043003200e4
:101bc000590037008000eb005e0037000800780005
:101bd000630407005f003700684890000004e000dd
:101be0005b003a00f8489000c0c6b30080cf5000b8
:101bf000270032000a003c006440500080cf5000b3
:101c00002b00320000c0e80080cf500015003200e9
:101c10006840500080cf500025003a000a0037008d
:101c200040c7b30080cf5000210032006640400022
:101c300080cf50001e0032006940500080cf50001d
:101c40001b003a0007003700280090000080e900e0
:101c50002004980010007800084c90000848780094
:101c60003b003700280090000080e9002004980025
:101c70001002780048009000cf80de00010178005b
:101c800082017800009abe000292be003000370048
:101c9000280090000080e9002004980010017800de
:101ca00048009000cf80de000089be002800370089
:101cb000280090000080e9002004980010007800bf
:101cc0004804900008087800210037001100200027
:101cd0001c003700480090000000e8004004980015
:101ce0001800900098017800120020008000eb009e
:101cf000030001008000780050022000808f500017
:101d00001300320048009000e18f400008003200cc
:101d10000000e90040049800180090009801780045
:101d20000001eb00030001000000eb000900370098
:101d30000000e90040049800010078000500370029
:101d40008080eb00080078005e0507000100370086
:101d5000100020004f047800000006002f03b000a0
:101d6000889fbe008a9fbe008c9fbe008e1f780099
:101d70000007780050a82000c0b79f0080c5b300be
:101d800080cf50000800320042a72000c2b79f0059
:101d90007740400080cf500003003a0083002000cd
:101da000b3b79f000a00370080c7b30080cf500050
:101db00005003200a4002000b4b79f0080c5b30026
:101dc00080cf500002003a0005012000b5b79f0007
:101dd0003e04be002e05be0040c6b30080cf5000ba
:101de000030032006540400080cf50000b003a00f5
:101df000e00f5400e08f5c00e00f5d00e08f5d00bd
:101e000006003d006000b8006011b80008045000f2
:101e1000898458000a0559008b855900bfb3970083
:101e2000e88f530003003200f08f530045003a0062
:101e30000200370036002000010037004600200075
:101e4000e00f5400e08f5c00e00f5d00e08f5d006c
:101e500005003a005e08900081012000a1b79f00b4
:101e60000000e000080032003fb197000200e900e6
:101e700008006000cfb197006340780090df9f00ba
:101e800074012000a4b79f00860278008502e90053
:101e9000050033008b05d1000a85d3008984d30067
:101ea0000884d300f9ff3700089fbe000a97be00e0
:101eb000afb397000700e90021fc2f008f8040009e
:101ec000008240003fb197008202e9001200370013
:101ed000afb397008703e900a7b79f0000806200b7
:101ee000cfb09700615278003e00be002e01be00c8
:101ef000860378008703e900050033008381d10061
:101f00000281d3008180d3000080d300f9ff370025
:101f1000009fbe000297be003e00be002e01be0024
:101f2000e00f5000e08f5800e00f5900e08f59009b
:101f3000d6003400afb397000700e000e4ff3c0098
:101f4000d2003700ae60900080c6b30080cf500052
:101f50000b00320006003c000104e00008003200e3
:101f60006640500080cf500073003a0004003700f4
:101f7000c0c6b30080cf50006f003a003100370078
:101f8000080178000800e00005003a005e089000b3
:101f900081012000a1b79f000000e000090032008d
:101fa000bfb19700110009000381d8008000fd0037
:101fb0004fb297006440780090df9f0075012000c9
:101fc000a5b79f00bfb39700110009000781d80093
:101fd00080017800afb097000100e90022fc2f00db
:101fe0000f014100000241000c003700bfb2970012
:101ff000110009008501d80000017800afb39700f7
:102000008703e900a7b79f000590b9000080510041
:10201000cfb0970061527800820178000300e000a1
:10202000030034002fb197000200e000efff3c00f6
:1020300003007800cf80de00010178008201780083
:102040003a0037000806be00e00f5400e08f5c0045
:1020500005003a005e08900083012000a3b79f00ae
:102060000000e000090032003fb297006121b90092
:102070000c00be00290d0700cfb297006540780024
:1020800090df9f0077012000a7b79f003fb2970025
:102090006121b9000c00be00230d07000006be0040
:1020a000afb297000500e90027fc2f008f834300a3
:1020b0008083430097b79f00110037003fb197001e
:1020c0006114b9000801be000c00be00260d070017
:1020d0000005be00afb197008301e900a3b79f00e0
:1020e0000801be0064090700000056001fb29700f7
:1020f000cfb297006552780094b79f000a06be00e1
:10210000e00f5600e08f5e0003003400afb397008d
:102110000700e000e9ff3c004feade00cfa2de004e
:102120000c00be000401780084017800009fbe000e
:102130000297be0055003700e00f5400e08f5c00ae
:10214000e00f5d00e08f5d0005003a005e08900042
:1021500081012000a1b79f000000e0000d003200c7
:102160003fb1970002027800cfa2de00050378009d
:10217000860378000800be000a01be008a0d070031
:102180004fb297006440780090df9f0075012000f7
:10219000a5b79f003fb1970002027800cfa2de00f2
:1021a00005037800860378000800be000a01be001f
:1021b000760d0700009fbe000297be00afb19700ea
:1021c0000300e90024fc2f000f0242000006420039
:1021d00020003700bfb2970005047800cfc4de00ae
:1021e000090578008a0578000802be000a03be00cf
:1021f0005fa89700efa897007fa997008fb197007d
:102200006d0d0700d0b79f00e1b79f00f2b79f00a8
:1022100083bf9f00afb397008703e900a7b79f0074
:102220000802be000a03be00e90d07005faa97007e
:1022300000005200cfb29700655678005fb097005b
:10224000efb097007fb197008fb99700009fbe0055
:102250000297be003e00be002e01be00d0af9f0020
:10226000e1af9f00f2af9f0083b79f00e00f5000e7
:10227000e08f5800e00f5900e08f59000300340050
:10228000afb097000100e000d2ff3c003fb19700e3
:10229000e80f510013003a000e1090000038a30020
:1022a00010003200afb19700f78f510006003e00da
:1022b00024fc2f000f0242008300420000c3b30041
:1022c000914f100007003200afb297008502e9007d
:1022d000a5b79f0000c3b30027fc2f008f834300e6
:1022e00080f37a00afb1970078811100120f980047
:1022f0006e00900024fc2f000f0242008300420079
:1023000083f807001e0990005e089000800f5100be
:1023100006003d0002005000000f98000e109000d3
:102320000040a100001798000f0037000000e000f7
:102330000d003d000e10900074006000f00f500082
:1023400009003a007e089000fe0090000100500055
:102350008e08900001005000020050004240a90089
:1023600001003400000f98004f0778004f06be00b0
:102370004f05be004f04be002f03b1000000060051
:1023800080007800010037000000e8001004e00041
:10239000fdff3a0001005000000006008f04b0006d
:1023a000889fbe008a9fbe008c9fbe008e1f780053
:1023b000f0b79f0081f79f005001be004000be00b3
:1023c000f0979f00819f9f00929f9f00a39f9f0077
:1023d00010c6b3000ff19700804f51001600320075
:1023e00010c4b300804f510013003200ffb19700ba
:1023f000530890000000e00003003d006000200052
:10240000d00998000c0037000000e0000a003a00f4
:1024100070c6b3000ff29700804f520003003200e5
:1024200070c4b300804f520003003a001000200037
:10243000ffb29700d00a9800ffb09700c0fa2f00b3
:102440000f0040008c04070080017800e20f50006c
:1024500015003a0030002000ffb097009008980067
:1024600010c6b3000ff19700804f51000a003200f0
:1024700064404000804f5100070032000040e800f7
:10248000804f510004003200c1a120000040e8004c
:10249000804f510001003a0001a22000ffb19700d7
:1024a00063009000160037000000e00018003400c0
:1024b000300020007fb29700100a980010c6b300c9
:1024c0008ff2970080cf52000a0032006440400033
:1024d00080cf5200070032000040e80080cf520059
:1024e0000400320041a220000040e80080cf5200ea
:1024f00001003a0081a220007fb1970062009000a5
:10250000315878003158780011487800c6013700fa
:1025100014c6b3008ff2970084cf5200030032003c
:1025200010c4b30080cf520013003a007fb0970070
:10253000600190008200780000c3b30080587800ea
:10254000ffb29700e102980080c7b3008ff29700b6
:1025500084cf52000100320080c5b300804878006b
:102560000280e800ffb09700e00098007100900042
:102570000080e800f00098000300e00005003a0049
:10258000e3979f0064fb2f000f01420003077800d0
:10259000a0013700c5a22000e5b79f0010c6b30018
:1025a0008ff0970080cf50000500320010c4b300b8
:1025b00080cf5000a7003a00d2a32000e2b79f00ce
:1025c000ffb19700530890001e0220000000e000b9
:1025d000010035000007e8000e02e800d4b79f00b4
:1025e0006022b8006033b8007f9097008f98970002
:1025f0001f999700af999700230d0700ffb0970030
:102600003102be002103be000000e00004003d00d6
:102610000400be000601be0003f0a2000200370065
:102620000400be000601be00f0979f00819f9f003e
:10263000929f9f00a39f9f006f919700640151009c
:10264000e2979f00c3fa2f008f8141006a8041000a
:102650000048eb006b824100c4b79f003100370097
:10266000c201200003002000e5fa2f000f80420085
:102670002d0407007f9497008f9c97001f9d970063
:10268000af9d97000800be000a01be00030d0700c1
:102690000006be005fb1970067015100d2b79f00ee
:1026a0004240a9000a003400280d07000002be00c5
:1026b0000203be000800be000a01be00260d07008e
:1026c000f0979f00819f9f00929f9f00a39f9f0074
:1026d000cfb19700678041007100200005003700ee
:1026e0006f6066004c6add004466de000c06720016
:1026f000c4eede00e00f5600e08f5e0005003400ff
:102700008100e900e18f4000f5ff3a000100370049
:102710000060eb008100e900fdff3b006700400026
:10272000c0b79f00dfb297000500e0000900340049
:102730006022b8006033b8007f9097008f989700b0
:102740001f999700af999700050d07000000e00062
:10275000c3ff3c0060fb2f008f0040004fb197008b
:10276000010051000000e9008e0f500001003d0003
:10277000000778000e00e00003003d0073fb2f000f
:102780000f8141002c003700800f570005003d00ed
:102790000e80400010409000f3c0b300e74f50009f
:1027a00001003c008041eb00c4fa2f000f02420000
:1027b0000e0042006a0040008e00780001003700e1
:1027c0000000e9008100e90010417800834f5100ca
:1027d000fbff32000107e800efcf510001003a0093
:1027e0000248e8000100e0000300350075fb2f00ff
:1027f0000f814200060037000e07e8006f90970037
:1028000064004000e0979f0061fb2f000f814000b3
:102810008e0041008e017800030037001100fb009c
:102820006fb29700e44878008301e9008100e90075
:102830000300e000f9ff3d00ffb29700550890004b
:102840000000e000f3003d000e00e900d00a98000f
:10285000f00037007f9497008f9c97001f9d970092
:10286000af9d97006022b8006033b8000800be003a
:102870000a01be00840c07000000e00005003d00d6
:102880000bf0a200f8979f00899f9f009a9f9f00de
:10289000ab9f9f006f909700725927000280b9008c
:1028a000026a2800130020002f0b0700e4005000ec
:1028b000e1979f0015003b00e3801000c0ff2f0050
:1028c000008460000800ea00e0979f007f90970076
:1028d0008f9897001f999700af999700499d200006
:1028e000070037000808a300030032003902be00c9
:1028f0002903be009f0c07000884d100e88444002f
:102900000800e000f7ff3c001b0037000100e0007a
:102910001d003400c0ff2f0000806000e0979f0082
:10292000000478006000b8000200200003ff2300cc
:10293000499d2000070037000808a300030032006b
:102940003902be002903be008a0c07000884d100aa
:10295000e88444000800e000f7ff3c000002be00ed
:102960000203be007f9097008f9897001f999700f1
:10297000af999700f40c0700f0979f00819f9f008c
:10298000929f9f00a39f9f00ffb097005109900066
:1029900060c6b3008ff1970080cf51000400320071
:1029a0006100200060c4b30080cf510002003a00f3
:1029b0006f929700ea00420001074100f30f5700b1
:1029c000010034003e01200000c3b300e0779f0007
:1029d00075fb2f008f824200b5b79f003300370090
:1029e0000800be000a01be002c0c07000006be0055
:1029f000680757004240a9000e003400530c07003e
:102a00000002be000203be000800be000a01be00b4
:102a1000510c07006022b80046782d007719240079
:102a2000540c0700f0979f00819f9f00929f9f008a
:102a3000a39f9f003fb097006804400089002000da
:102a40000d003700a4002000050020000c01be008e
:102a5000e0fd2f000f004000ae0307007fa89700a5
:102a60008fb097001fb19700afb1970004c3b300b8
:102a7000046441000006be00e00f5600e08f5e00d7
:102a8000060034008904e900e18f4400edff3a00bc
:102a90000200370000c3b300006478008904e90035
:102aa000fcff3b0068044400b8b79f000e00e00044
:102ab0000b0034007f9497008f9c97001f9d970018
:102ac000af9d97006022b8006033b8000800be00d8
:102ad0000a01be00220c07000000e000c0ff3c001d
:102ae000c5fa2f008f8242006a804200bfb0970073
:102af000008050008001e9006f919700e7004100dd
:102b00006b81420000c3b300010037000201e800fe
:102b1000924f1000fdff320074fb2f000f004200a7
:102b200080804000828050000080410002025000fe
:102b3000e1979f00ffb29700d509900060c6b300ef
:102b40008ff2970080cf52000300320060c4b300c0
:102b500080cf520002003a008100e8000a003700ee
:102b600050c6b3008ff0970080cf500005003200b0
:102b70008000eb0050c4b3008ff2970080cf52006a
:102b800001003a0011002000018741008e0f520021
:102b900001003d00040778000e00e0001d00350034
:102ba000840f570005003d00e2407f0095c3b3004d
:102bb00040c3b30080cf500001003c0005c3b30008
:102bc0000e0041008000e9008e017800010037000e
:102bd0008100e9008301e90011427800854f52002d
:102be000fbff32000307e80090c3b30080cf520020
:102bf00001003a008448e8000300e00005003d00c1
:102c00000201e9000e07e8006f9097000000e8005d
:102c1000e0979f006f9297008e0178008ff09700e9
:102c20007fb09700580307004f0778004f06be009b
:102c30004f05be004f04be008f04b1000000060027
:102c40000000e0000300340066060700e10f4000ca
:102c500001003a000000eb00000006000000e00068
:102c6000310032008080e90091027800e38f520049
:102c70002d0036000508a3002b003a000256800004
:102c80000200e00002003200828f50000400310098
:102c9000020878000156880016003700030178000a
:102ca000920190000300e00002003200818f510089
:102cb000faff39001202780004004100808f5000b2
:102cc00019003900810f500003003a000509420045
:102cd00082007800070037000300e00003003200a4
:102ce00005804000808f51000f003900930098004c
:102cf00011019800110190000200e0000a0032006a
:102d000011804000820f500007003a00e0ab200025
:102d10000008eb00110090001101780090084100bc
:102d2000100090009000980000000600000178005c
:102d3000000020000000e0000800320000008000d9
:102d40000000e000050032000000e90000008800fb
:102d5000000040000100800002b078000000060082
:102d60002f02b000889fbe008a9fbe008c9fbe00cd
:102d70008e1f780080047800600090000000e00062
:102d800001003c00f0ff27000000e900d00498009b
:102d9000c90090000c0033000100e800c004980056
:102da0001900900099017800120020008000eb00cb
:102db0000300010000057800b0022000800f5500dc
:102dc00006003a000b0037000100e800c00498003c
:102dd0002cfd2f000f0646001b003700d0022000fc
:102de000800f5500030032002cfd2f000f06460017
:102df0001600370030fd2f000f044000aad79f00b7
:102e0000590090000000e900d0049800c90090002b
:102e10000a0033000100e800c00498001900900087
:102e200099017800120020008000eb0003000100ef
:102e30000005780008067800040037000100e8006b
:102e4000c0049800080678000085eb0058a5200013
:102e5000390090009000fb000800780026f8070079
:102e600008005000e1a42000614478008805fb00c0
:102e700000032000800f550033003a0059009000f5
:102e80000000e900d0049800c90090000c00330055
:102e90000100e800c0049800190090009901780032
:102ea000120020008000eb00030001000005780004
:102eb00080072000800f550005003a00070037000a
:102ec0000100e800c00498000085eb001b003700fb
:102ed00080052000800f550018003a000804e0002b
:102ee00002003200f04f54001d003a0059009000db
:102ef0000000e900d0049800c900900009003300e8
:102f00000100e800c00498001900900099017800c1
:102f1000120020008000eb00030001000005780093
:102f2000030037000100e800c00498000085eb00b2
:102f30000047eb000b012000110037000804e000ff
:102f4000b8003200060037000047eb000804e0003c
:102f500004003a00ad002000084778001c0037004c
:102f60001ec0b300ad002000ea4f5400180032002c
:102f7000e88f550002003a008b06780014003700f5
:102f80006d01200012003700590090000000e90098
:102f9000d0049800c9009000090033000100e80047
:102fa000c0049800190090009901780012002000d8
:102fb0008000eb00030001000005780003003700eb
:102fc0000100e800c00498000085eb001ec0b300bb
:102fd00000032000800f5500ebff32000e04e000dc
:102fe00018003200005e7800160037006f8057002e
:102ff000800f5600010031000a5e780059009000f1
:103000000000e900d0049800c900900009003300d6
:103010000100e800c00498001900900099017800b0
:10302000120020008000eb00030001000005780082
:10303000030037000100e800c00498000085eb00a1
:103040001ec0b300e10f4500070032000d017800fb
:103050008a007800d0a5200098f707000000e00063
:10306000e2ff3a0066003700490090000000e900e6
:10307000c00498000e04e00008003a0020fd2f0074
:103080000f004000800f56005b003a00e10f450042
:1030900059003a008a00780065003700004eeb00c6
:1030a00069489000110020000004e00060003a0030
:1030b000390090009040780040c6b30080cf5000a7
:1030c000030032006540400080cf50000a003a0003
:1030d0000b0178008000eb0020fd2f000f00400066
:1030e0005d0307000203be000002be0010c0b30073
:1030f000805498000d0037000b0178008000eb0031
:1031000020fd2f000f004000ad0307000203be00aa
:103110000002be0010c0b30080549800b9009000b7
:1031200000c7b300914f10002c003200f948900006
:10313000c0c6b30080cf5000220032000a003c001d
:103140006440500080cf50002400320000c0e800ee
:1031500080cf5000140032006840500080cf5000f3
:103160001e003a000a00370040c7b30080cf50006d
:103170001a0032006640400080cf50001700320035
:103180006940500080cf500014003a00060037001c
:10319000290090000080e900a00498001000780049
:1031a0000448780012003700290090000080e900f0
:1031b000a0049800100078000498be000690be009d
:1031c0000b003700290090000080e900a00498005f
:1031d000100078000488be00050037002900900028
:1031e0000080e900a004980010007800040878002e
:1031f000110020000e0037008000eb000c003700ab
:10320000490090000000e900c004980019009000f7
:10321000990178000001eb008a00780003000100aa
:1032200094ff37001ec0b3008b00200052ff370010
:10323000010078004f0778004f06be004f05be0022
:103240004f04be002f02b10000000600800178008c
:10325000d4c2b3000f0037000300e800904f120003
:1032600008003a0093cf100003003e002340900076
:1032700080cf500012003600e3814100630151000d
:103280000400370093cf10000d0032000201e90066
:1032900080017800e20f5100efff3e000002eb00da
:1032a0000400370064c079000402e800814f500038
:1032b00003003200820f5200faff3a0000000500be
:1032c00010000500f0874700889fbe008a9fbe005f
:1032d0008c9fbe008e1f7800000478008106780065
:1032e0000000eb00c0b79f00f8489000c0c6b300d4
:1032f00080cf500002003a0011002000c1b79f00ab
:103300000d00e00023003d00b80090000100e8003f
:1033100030049800e2c5b3008041eb0083f79f00c2
:10332000904f110003003a000180e800300498003b
:1033300082f79f00b8049000d0c5b300994f1000e9
:103340000200320009007800010037000900e8009f
:10335000d1052000e8f60700d0b79f008000eb0001
:103360000000e000bd00320009065000e20f5600e8
:10337000080034000c81e9000900e800d1022000b7
:10338000cef6070011c0b300c1ef9f000000e000bf
:1033900002003a008041eb00c3ef9f0068009000fc
:1033a0000000e00004003c00f0ff27000d00e000fa
:1033b00001003a0010002000500498006848900076
:1033c0000004e0000d003a0028009000cfb0970004
:1033d0000100e000050032000080e90020049800b0
:1033e00010007800b0b79f00040037000080e900ab
:1033f0002004980010007800f0b79f000045eb0013
:103400005e0037000d00e000030034000900780082
:10341000b3f907001e0037000d00e0001e00320067
:10342000cfe997000304e0000c003a003800900058
:103430008ff097000104e00004003a000c017800ce
:10344000890078009df607000b0037000c0178001a
:103450008900780099f607000d00370038009000c9
:103460008ff197000304e00006003a000c01780099
:103470008900780075ff07000000e00006003a00b0
:103480006d0037000c017800890078006fff07009d
:103490000000e00068003a004fb097000000e00034
:1034a00009003a00684890000004e00032003a0049
:1034b000ffb0970089587800f1b79f0010c0b300a3
:1034c000005498002c003700c9e79f008905fb00d5
:1034d0000b00780001003200100020000005780089
:1034e0001e0020000000e00016003a000904e00081
:1034f00004003a007c805700a1fb07000005e800ab
:10350000100037000e07e900fc81570063407f0080
:103510008000fb0048019000e14f400007003200ae
:103520000200e9004004980018009000980178001b
:103530000001eb0003000100020037000200e90077
:10354000400498008e0f5500eeff3500684890004b
:103550000004e00005003a003fb097000b18780027
:10356000b0b79f0010c0b3000054980068009000ee
:103570000000e900600498002ac0b30058009000e1
:103580000000e90050049800480190000b0033004f
:103590000200e800400498001800900098017800ac
:1035a000120020008000eb0003000100800478007e
:1035b000e10f400093ff3a00020037000200e800ec
:1035c00040049800480090000000e9004004980082
:1035d0000d00e00002003200e24f5500040032000e
:1035e0000a00fb008080eb001c0032001000370056
:1035f000684890000004e00009003a00cfb097004e
:103600000100e00003003200bfb197008009eb0029
:10361000030037008fe897007fb0970001487800db
:103620000d00e00002003d00dfb197003304980078
:103630001100200009003700480090000000e90058
:103640004004980018009000980178000001eb00f9
:103650008900780003000100ddff370001007800d9
:103660004f0778004f06be004f05be004f04be0056
:103670000f01b10000000600889fbe0080047800a2
:103680006684400000ff2700180060004401de004f
:10369000f07f2000800f51000e003a00800ceb00fc
:1036a000180478006f0064001c003a0021009000ac
:1036b0000000e00019003a00110090000000e00056
:1036c00016003a00100020001100e0001400320043
:1036d000120037000200e00005003c000100780005
:1036e00019030700000178000000e00008003c001a
:1036f000f00028001800600001fe2300010c70009b
:1037000020c02f00800c41000080eb000400370037
:10371000800ceb000000eb000100370020002000cf
:103720004f04be0000000600889fbe008a1f78007c
:103730008c9fbe00000478000206be00e604400034
:10374000190178000200d0004505de008a007800eb
:10375000f07f2000800f55000c003a006f006100e0
:1037600067003a00280090000000e00064003a0082
:10377000180090000000e00061003a0010002000f6
:103780001800e0005f0032005d0037000a00e00032
:1037900007003a0008007800eb020700800078007c
:1037a0000000e000020034000a00780055003700f5
:1037b0006108b9000c0140008d814800e07f2000c5
:1037c000800f5100e08f59000d0034001900e00017
:1037d00004003d006000b8000200200003ff2f003d
:1037e000030037006000b8000200200003ff27003c
:1037f000009cbe000294be00100020004100370073
:10380000e00f5100e08f590005003400f00028005f
:1038100019006000c410dd00810c70003600370014
:103820001900780001002800010360006f006000ab
:103830000040a000800c780061015100e081590037
:10384000c0fc2f00f1ff2f00800f5100818f590025
:1038500006003d00860c78000000eb002004980074
:1038600010049800000c7800260037000200780051
:103870000881e800e400440005003700120c7800dd
:103880001109780099087800800ceb007000400066
:10389000f00f4000f9ff34008002ea00150032000a
:1038a0008881e80070821200980078008508de00a8
:1038b000130078000400dd00008c700064014400f7
:1038c000930078008508de00120078000400dd0017
:1038d00080897000920078008508de001900780069
:1038e0000400dd0000897000190078000500de008a
:1038f000800c7800990c73000080eb000100370009
:10390000200020004f06be004f0578004f04be0087
:10391000000006000400fa00889fbe008a9fbe00d7
:103920008c1f78000006780092bf9f00a3bf9f0005
:103930000404be000401be001fb89700afb8970092
:10394000090707000005be000001be000800be0018
:10395000490307001fb99700afb997000000510055
:103960008180590020069800310698000a8ebe001a
:103970000c0078004f0678004f05be004f04be00d3
:103980000080fa00000006000e00fa00889fbe00ca
:103990008a9fbe008c9fbe0000047800014578001d
:1039a0000206780083047800840678000300e000b3
:1039b00002003c00190020008cac200060c6b3005f
:1039c000804f55000e00320060c4b300804f550098
:1039d0000b00320070c6b300804f55000300320068
:1039e00070c4b300804f55009c003a00e48f46003d
:1039f0008000350058089000808f56007d003d0003
:103a00008d05e80060c6b300804f550010003200fd
:103a100060c4b300804f55000d00320008109000c4
:103a20000038a30004003a0058089000808f54002a
:103a300001003d00590c9800580890000b00500000
:103a4000500c980002003b000000eb00500c980066
:103a50000b00e00027003c0018099000680090006f
:103a600001c3b300017079008201e800130c9800d3
:103a7000580890000000e00003003c00081090008f
:103a80000038a3000500320068009000e1c2b300d6
:103a900001f079000280e800100c9800d80890002e
:103aa0000b00ea00808f500001003d008105ea0014
:103ab0000b00ea00200c980001804500500c980093
:103ac000890f500001003d0080047800390c9800f7
:103ad00068009000980890000100400009017800fb
:103ae0008c0078008af20700580890000900500006
:103af0001a00370098089000680090008b8f5400df
:103b000018003d0001004000090178008c00780099
:103b10007ff207001808900000814400120c980002
:103b200009805500200c9800580890000000e00023
:103b300003003c00081090000038a300060032008b
:103b4000e8009000e0c2b30080707900380890006f
:103b50000000e800300c980058089000400c9800d5
:103b6000a6003700010040000b0178008c007800af
:103b700067f207001808900000814500120c9800b9
:103b80008b845400580890000000e00003003c00c3
:103b9000081090000038a300050032006800900073
:103ba000e1c2b300017079000200e800100c980037
:103bb00058089000890f500001003d0080047800f3
:103bc0006800900098089000010040008b004600bb
:103bd000090178004ef207001808900000804400a8
:103be000100c98005808900009005000200c980014
:103bf0008200370070c6b300804f550003003200ca
:103c000070c4b300804f550014003a00580890006b
:103c1000808f540004003d00081090000038a3007d
:103c200001003a00590c9800580890000000e90083
:103c3000500c980002003b000000eb00500c980074
:103c400070c6b300804f550002003a005ac6b30058
:103c50000b0037005ac4b3000900370010c6b30088
:103c6000804f550002003a000ac7b3000400370035
:103c700010c4b300804f550001003a000ac5b300dc
:103c800018099000680090003c7079008201e800fb
:103c9000130c98000c027800580890000000e00017
:103ca00003003c00081090000038a3001700320009
:103cb000e8009000e0c2b30080f079008280e80064
:103cc000110c9800580890000000e0000f0034002c
:103cd0008904e900890f500001003d00800478004c
:103ce000680090000080400009017800840078009e
:103cf00007f207001808900000804400100c98009c
:103d00005808900009005000200c980068009000ae
:103d100098089000010040000086e8000a587800ea
:103d2000800078000d00e00004003500b0c2b30050
:103d3000804878008c04780004003700d0c2b300bb
:103d4000804878008c0478008d06ea008005eb003e
:103d50000a003700a20020008d0078007080570014
:103d6000c50107000fb897009fb897007a815500ea
:103d700001f17f008b05e800800678000d00e0006f
:103d8000f4ff3c00e18f550009003c0050c6b30031
:103d9000804f55000300320050c4b300804f5500df
:103da00003003a0000c3b300005e78008c04780082
:103db0000b00e000040032000b00e900fa8057001d
:103dc000008040000600370000c3b300805c78002c
:103dd000050037008b05e90002c3b300a05c410079
:103de0000b00e000fbff3c0068009000980890008a
:103df0000100400000805400300c98000810900032
:103e000074006000f00f50000e003a00780090003f
:103e10009808900001004000a808900001004000b0
:103e2000b808900001004000c808900081004000e0
:103e300078089000808f500002003d000100500083
:103e4000000c98004f06be004f05be004f04be0098
:103e50000080fa00000006000200fa00889fbe0001
:103e60008a9fbe008c1f78008005780001057800cd
:103e7000020678000100e00001003a006c8557005e
:103e80000b047800010037000804e800984478002b
:103e90000900fb0012f707000000e000faff3a00fb
:103ea000d0c2b30080cf54000500320000c0e9004a
:103eb00080cf5400020032008044780001003700b7
:103ec0000804e8000c0178008a00780008007800f7
:103ed0003b0007000203be000002be009a0f540020
:103ee00001003a000b0d78009a8f550005003a004a
:103ef000e00f5200e08f5a00e00f5b00e08f5b00a4
:103f000014003a00b0c2b30080cf540006003a005b
:103f1000e00f5200e08f5a00e00f5b00e08f5b0083
:103f200020003d000b003700d0c2b30080cf54000a
:103f30001c003a006000b8000200200003002800c6
:103f40000020e10001a8e10002b0e10003b8e100b7
:103f50000e00360020022000004888006b40400020
:103f600080cf540004003a006000b8000200200036
:103f7000030028000d003700f0ff2f00f1ff2f0095
:103f8000f2ff2f00f3ff2700080037006000b800a1
:103f90006011b800040250008582580006035900e1
:103fa000878359000400be000601be004f0678005a
:103fb0004f05be004f04be000080fa00000006005e
:103fc000fc874700889fbe008a9fbe008c9fbe0072
:103fd0008e1f780000077800810678008204780040
:103fe00000047800010037000804e8001846780053
:103ff0000c00fb00baf607000000e000faff3a00f0
:10400000d0c2b300804f56000500320000c0e90066
:10401000804f560002003200004678000100370051
:104020000804e8000900e00005003500e18f5400b5
:104030000300320040022000808f5400040034004e
:104040000d00e000b00032008e0e7800ae003700a8
:104050000900e0000e003400f08f54001a003a000e
:1040600000c3b300984f100016003a00984090002b
:1040700080c7b30080cf50000300320080c5b3007a
:1040800080cf50000f003a000884e8000e0037008f
:10409000a900200000c3b300984f10000a003a00a6
:1040a0009840900080c7b30080cf500004003200d9
:1040b0008900200080c5b30080cf500002003a0084
:1040c0000884e800090120000805780000c3b30057
:1040d000010037000a05e8009a4f1000fdff32008a
:1040e0008a0578006022b8006033b80026003700e7
:1040f000f09a200080c0500081ef9f0009027800f4
:10410000cfa2de0005037800860378000fb0970089
:104110009fb097002fb19700bfb197002c06070002
:10412000d0b79f00e1b79f00f2b79f0083bf9f0009
:104130000fe897000002fb00cfa2de000503780025
:10414000860378008b05e8000fb097009fb09700ba
:104150002fb19700bfb19700c0af9f00d1af9f00b4
:10416000e2af9f00f3af9f005fb09700efb0970002
:104170007fb197008fb997000002420081824a0008
:1041800002034b0083834b0084b79f0095b79f00c9
:10419000a6b79f00b7b79f001b00fb00c100070038
:1041a0008000780009017800f09a200043f30700ae
:1041b000800078000000e000cdff3a008b0f540033
:1041c0000a003a000d00e0004f0032008e0e780029
:1041d0006022b8006033b80084b79f0095b79f0095
:1041e000a6b79f00b7b79f004d0037008a805500e3
:1041f000a098200060c07c000000fb000080500000
:104200002c0033004240a90020003c008fea9700b8
:104210000500fb00cf80de000101780082017800fc
:104220000fb297009fb297002fb39700bfb39700cc
:104230000000520081805a0002015b0083815b0014
:104240000020e10001a8e10002b0e10003b8e100b4
:104250000e00390009027800cfa2de0005037800c5
:1042600086037800490507004faa9700dfaa970048
:104270006fab9700ffab97000400e1000588e100f9
:104280000690e1000798e1000a00320020022000b9
:1042900000488800f0ff2f00f1ff2f000001be0052
:1042a00080b79f0091b79f00a2b79f00b3b79f0050
:1042b00011003700d0c2b300804f56000e003a0004
:1042c0006000b8006011b8000fb297009fb297006d
:1042d0002fb39700bfb397000402500085825800a7
:1042e000060359008783590084b79f0095b79f0044
:1042f000a6b79f00b7b79f000d00e000080032008e
:104300008b0e7800060037006000b8006011b8001e
:1043100080b79f0091b79f00a2b79f00b3b79f00df
:104320000fb097009fb097002fb19700bfb19700d3
:104330004f0778004f06be004f05be004f04be0079
:10434000cf01b1000000060000017800e601400046
:104350001300780001002800810360006f006000f6
:104360008009780012003a00220090000000e0006e
:104370000f003a00120090000000e0000c003a002c
:10438000160020001200e00038003200080037005c
:10439000e4004100910978000280e800900878006c
:1043a000120878000009eb00700353000100370089
:1043b000160020001300e000f5ff3200e402410087
:1043c0000282e800110037008000400015007800ec
:1043d0004f00de00808970009500780081804000e9
:1043e000140078004f00de00808a7000940078008e
:1043f00081804000120078004f00de00008a7000cb
:1044000012007800000940000603e900130078005c
:10441000ef0f5000ecff36008282e800640241009a
:104420000e0037009200d100150078004f00dd002b
:10443000008970009500d100140078004f00dd0065
:10444000808a70009400d100130078004f00dd00d6
:10445000008a70009309d1000603e8001300780079
:10446000ff0f5000efff3e00ef09600093897300db
:10447000060078000000060002027800809fbe005f
:10448000110009008200d800000178004f00be0032
:1044900002a2b90084805000110098000208780040
:1044a00000000600800078001104b1000300350010
:1044b0009101b10001003c000050a0000000060086
:1044c0000a00fa0080017800e20f500028003e0048
:1044d00010568000e10f500008003200e02120005b
:1044e0000000e0000500320064212000852120004a
:1044f000a62120008001780004003700c42020009d
:10450000e5202000062120004321200014409000d7
:104510000004e000040035008009eb001440900026
:104520000074a00010429800154090000028a300dd
:1045300003003a00154090000024a000904298002b
:104540008001eb0007003700154090000008a30031
:10455000fdff320063c078000000fb00000b780014
:104560008301e800828f5100f7ff3a00080037000e
:1045700030002000b0bf9f00c3bf9f00d1bf9f008d
:10458000e2bf9f006a80570000c0da006fb9970051
:10459000020078000080fa00000006000a00fa001d
:1045a00011002000b1bf9f00c0bf9f006a8057006c
:1045b00000c0da004fb897000080fa000000060043
:1045c0000a00fa0051002000b1bf9f00c0bf9f0049
:1045d0006a80570000c0da005fb897000080fa00d8
:1045e00000000600889fbe008004780060568000ae
:1045f0000000e00003003a00100007000000e000a7
:104600000a003500605680000900e00002003a0010
:10461000000478000600370000047800090040001c
:10462000060007000000e00001003d000084eb00f0
:10463000080078004f04be000000060080007800eb
:104640000000e00004003a00e0ac20006056880062
:1046500001017800060037000081eb00e0bc20007b
:10466000808f500002003e00615688000001eb0080
:104670000200780000000600020ab900001bb90021
:104680000200b800810042008100430000000600e3
:10469000889fbe008a9fbe00010578000100e000ef
:1046a0000400350008003c000000e000200032005b
:1046b0000500370060001000e080180002003b0099
:1046c00001f02c001a0037000004be006011b80091
:1046d0006b0920000982cf00020039000882cf0058
:1046e0000441b000694252000e00320008003b0055
:1046f00082817100610164008904d1000884d300c3
:104700008b05e8000442e800f9ff3a000500370095
:104710000804440089844c008b05e9000442e90048
:10472000fbff3a00c00107000af0a70001f0a0005b
:104730004f05be004f04be0000000600889fbe006b
:104740008a9fbe008c1f7800dd010700e401330062
:1047500003866c006450e1002e0032006420e1000a
:10476000330032006150e1002f0032006120e1008f
:104770003100320085855500eb07b00009002000ac
:1047800008042000050037000804440089844c0018
:104790000a0031000603430087834b0000015300e9
:1047a00081815b00f8ff33000203be000800a00017
:1047b0000804440089844c00f6ff3900c639dd0046
:1047c0008301730001003200130020008904d1002e
:1047d0000884d3000998a300050032000800a70050
:1047e0000300a0008904d1000884d3008b05e800f1
:1047f0008904d1000884d3000001eb000281d200bb
:104800008901070001f0a1000cf0a70001f0a00051
:10481000bc0137006420e100be0132000801be0087
:104820000200be00f7ff37006120e100b90132004d
:104830006000b800f3ff37000000200001f82700f7
:10484000f0ff3700f4ff2f00b501370014002000ff
:10485000b301370003f0a200889fbe008a9fbe000c
:104860008c1f7800960107009d0133006450e10021
:104870004f0032006420e1005200320003826c00dd
:1048800007003b000905d0000306d000820f54004a
:104890000c065d0002003900020032008901780038
:1048a000030678008582550004003d000003fd00ea
:1048b0008103fd008502ea008b854200840f7200af
:1048c00002003b0060001000e08018006011b8009a
:1048d0000005eb007a28e1000a00390006007800a4
:1048e000c75ddd00f707b200878075002d00370037
:1048f000828171000a017800610560008180d10029
:104900000080d3008502e900f9ff3b000604400067
:104910008784480002003b0060041400e0841c000f
:104920000988a300070032008a817100828171002a
:10493000610164008904d1000884d3008b05e8007c
:10494000170037000978a30013003a000b00e000bd
:10495000130034008b05e9000804440089844c00ee
:104960000a4474000978a3000d003a000b00e0002f
:10497000070034008b05e9000804440089844c00da
:1049800001003a000b0020000978a300f7ff320075
:104990000001eb0002003700828171000a017800fb
:1049a000210107000cf0a70001f0a000550137001d
:1049b0006420e10002003a00838f6c00550133004f
:1049c0000801be000200be004e0137000c00fa00d4
:1049d000889fbe008a9fbe008c9fbe0038010700e2
:1049e0000206be00840578000200be00020020001e
:1049f0006601070005003a008b02b3001200200098
:104a00006201070001003a00f8856d000c01be004c
:104a1000c60007000800be009b0032000b08a30080
:104a20009e003a000df0a7000be0a00009f0a700df
:104a30000bf0a00009f0a1000801be00bb000700b8
:104a40000bf0a6009500320001003c000bd0a00046
:104a50008acf7500b20033006000b8006250e100f8
:104a600099003900a1003e000b28a300a2003a00e3
:104a70000bf8a300060032000b58a300a700320079
:104a80000801be00a90007000800be009400320023
:104a90000800be00640107000004be0005057800a0
:104aa0000bf0a7000b30a6000bf0a1005b079800ed
:104ab000324f200053f3230064ff070005003d0040
:104ac0000800be0012002000640107000004be00c0
:104ad0000a05e9004a0798006150b900ecfe07009a
:104ae000008fbe000c01be009b0007007d01070087
:104af000300798000100e00002003d006000100057
:104b0000e0801800f2ff2700820f5000e08f58006d
:104b100064003e000c00be007201070020079800f0
:104b2000f2072000820f5000e08f580005003c0083
:104b300012f82f00f3ff2f00820f5000838f5800d0
:104b400009003d000a00e0000300320001003c00c3
:104b50000201ea00020578006000b8002007980012
:104b60003a079800190037003e0090006100b90034
:104b7000c7fe0700809fbe000c00be004109dd009b
:104b80004811de007208b100000107000005be00f8
:104b90001e01be00700007004f01be002dff070080
:104ba000809fbe000c00be000a01be0029ff070066
:104bb0001e01be00680007004f01be0026ff07006f
:104bc0008221270013f32300630007000005be00c5
:104bd0002e0090006100b900adfe070001f0a200b8
:104be0000c01be001cff07000006be000800be004e
:104bf0005d0107000c01be00570007000a01be005e
:104c000015ff0700809fbe004a0007002e05900098
:104c10000af0a7000a05ea00050037000800be00f8
:104c20000801be004c0007000004be000c00be00de
:104c30000801be000a00a700470007000006be00ea
:104c40000a05d100f5ff3a005e01900002e0a600df
:104c5000030037000001be0036000700b7fe070062
:104c60000004be004f00be00960107000801be0010
:104c7000390007003e019000f8000700de059000b3
:104c80000bf0a70001f0a2004f06be004f05be00ca
:104c90004f04be000080fa00000006002500070057
:104ca000f9ff3700270007006000b8000bd0a7000d
:104cb0000bc0a0000be0a7000bc0a2000bc0a70018
:104cc00001f82700f0ff37000df8a30002003200c2
:104cd0001e000700190007000bf8a300eaff3200ce
:104ce0000b30a70001f0a200e7ff37000df8a3008a
:104cf000f9ff3a00f7ff37000801be000b0007007c
:104d0000e6ff320001003c000df0a2006000b80098
:104d10000df0a70009000700dbff37000b000700bc
:104d2000f1ff2700f0ff2f00d7ff37000100070039
:104d3000c6fe370001f823000000050001f8270037
:104d400000000500200220000100370010022000b2
:104d50000048880000000600889fbe008a9fbe00b1
:104d60008c1f7800560007005d00330003866c003e
:104d70006450e100240032006420e100270032008a
:104d80006150e100220032006120e1002100320088
:104d90008b854200eb07b1000134b800003ab8003f
:104da0000804420089844a00013ab8000030b80083
:104db0008880400009014a000400330000004000e0
:104dc00081804800020149008b05e900c909dd0026
:104dd000830170000100320013002000c814de00bf
:104de0004814dd004709de001200b200c808de00ea
:104df000088470000c00070001f0a1000cf0a7006f
:104e000001f0a0003f0037006120e10041003200c6
:104e10000801be000200be00f7ff37006150e1004c
:104e2000fcff3a003b003700810020006180550004
:104e30000b003d000b00200061fe2f000100e1008f
:104e40001d00340082817100610164008904d10079
:104e50000884d3000000e800faff3a007100200047
:104e6000610064000300700002006000090032006d
:104e700061044400e0844c000988a500050032006c
:104e80008b05e8006808e10002003a008904d100bf
:104e90000884d300f20f20000258e10005003d0015
:104ea000c75ddd00f907b200898075000800780051
:104eb000000006000bf827008b00780000000500ba
:104ec0000004be00610107000003be000405be002f
:104ed0000200be005d010700844f7500000006005f
:104ee0000200be006450e100050036006420e100cd
:104ef000020036000968a30001003a000800be0065
:104f00000160a0004f0678004f05be004f04be00b0
:104f100000000600f0ff2f00f1ff2700f9ff370027
:104f2000889fbe008a9fbe00841f7800e4ff0700b0
:104f30004f00780011003300f0ff2f00838f6c00ca
:104f400006003b00040565000a00a70008003700c2
:104f500009f0a6001000200008003700820f54005e
:104f6000838f5c00030039001000200001003e0028
:104f70000000200009f0a7000000ea004f05be0075
:104f80004f04be000000e00000000600889fbe0045
:104f90008a9fbe000003be002c0107008505780033
:104fa00082815200020020006220e10004003a00e9
:104fb000f307b100040035007718e1000400350064
:104fc0000600be00140037006000b8000f00370074
:104fd000f50f2000faff2f008502d1000a85d300cb
:104fe0008301e900fcff3b0081846200000465004e
:104ff000890f7400f2ff32008582ea000a85ea0018
:10500000818462000004650087ff070007f0a700a5
:1050100001f0a0000081eb000200e0004f05be009f
:105020004f04be00000006000003be000701070099
:105030006220e100020032000600be00050005000b
:10504000e507b100f107b20004f02300848070008e
:1050500007f0a70001f0a000240005000003be0037
:10506000fa0007006220e100020032000600be00e4
:105070000000060085024100e30f20000328e10044
:1050800005003c00a3fe2f000328e10007003d00bf
:105090000500200001003700f50f2000200220004d
:1050a000004888006000b8000800370013002000a6
:1050b0008381520005003d008100d1000080d300b3
:1050c0008301e800fcff3a0005002000c72add004c
:1050d000f107b2008580700007f0a70001f0a00082
:1050e000000006000001be00d80007000470a70001
:1050f00003f0a1006509b100160032000d00350073
:105100006828e10006003500f0ff2f00f1ff2700be
:105110000300e00013003b00010028000000050030
:1051200000004000818048008502e900fcff3a0051
:1051300008003700f88f420002003c008000eb00be
:10514000000005008100d1000080d3008502e80046
:10515000fcff3a000300e00002003b00600010008a
:10516000e080180000000600889fbe008a9fbe00f5
:105170008c9fbe00acff0700850478000005be00d0
:105180006420e10049003e006220e100030032009b
:10519000090035000bf8a300440032000bf8a3000f
:1051a000080032001002200000488800f0ff2f00a5
:1051b000f1ff27003d00370001f82f00000020001c
:1051c0003a0037003d000700a2fd07000006be00c0
:1051d0000a00be00324f200053f3230099fd070060
:1051e000060034000c00be003400070099fd0700e3
:1051f0000006be000a00be00020037008904e90074
:105200000c00be002d000700d3fe07002b00070096
:1052100091fd07000001be000c00be0047fd070025
:105220000005be000001be00cbfe07000006be0068
:10523000a2f32300430d2c0087fd0700809fbe00d2
:105240000c00be00d2e32700d3f02b00c2fe070003
:105250004f01be0039fd07000006be000a01be0076
:10526000bdfe07000a01be007bfd07000006be0070
:105270006148b90006fd07000005be00320828009d
:10528000e3952b00b4fe07000c01be0072fd070081
:105290000006be000a00be000200280013f323002f
:1052a000adfe07000c01be006bfd07004f06be00ff
:1052b0004f05be004f04be000000060003f02300af
:1052c00002000500889fbe008a9fbe008c9fbe0022
:1052d0000004be005d0007000800be006420e1007d
:1052e00048003e005500320072212700132b240095
:1052f00054fd070047003c000800be00c2ec280037
:10530000e32c2c0051fd0700470035000800be00cb
:1053100001f0a10002002000033823004bfd07002c
:10532000430035000800be00b2a32a0083fb23001f
:1053300089fe07000200200003f0230001f0a7000f
:1053400003f0a00044fd070066ff07000005be0053
:10535000cffc070001f0a2000006be0002002800fa
:1053600013f323007cfe07000801be003afd07008e
:10537000809fbe000c00be0032082800e3952b0081
:1053800075fe07004f01be0033fd07000006be009a
:105390000001be0070fe0700809fbe004241250054
:1053a00083b823006cfe07000200200003e82300fe
:1053b00029fd07000c01be0067fe07000006be00c5
:1053c0004f00be00f2f92b00c3d4230062fe070099
:1053d0000200200003f023001ffd07000c01be00a7
:1053e0001cfd07000001be000c00be00d3fc07003e
:1053f0000200200003f0230017fd070061014500b3
:1054000016ff07004f06be004f05be004f04be004a
:105410000000060001f82700000020002202200002
:1054200002488800f7ff37006000b800fbff370034
:1054300001f8230000002000f2ff370009f8a30064
:10544000f0ff32006000b800eeff3700c70ade0050
:10545000f107b200f50fb20008003200e1cf4200c0
:10546000020032000170a00024000500810f7000ce
:10547000010032000408050044000500810f70009f
:1054800002003a00140005008502e9000000400017
:1054900081c04800fcff3b000170a0002400050013
:1054a00081037800e9ff07000001be006000b8003a
:1054b0000478a30013003a006220e10015003e00ca
:1054c0000d0039008301d1000281d3008180d30017
:1054d0008301d1000281d3008180d3008301d100f8
:1054e0000281d3008180d3000538b000c42add00da
:1054f000f300b2008381720007f0a70003f0a00060
:1055000000000600f3ff2700f2ff2f006110b90032
:10551000fbff370003ff2700f7ff370002000700fb
:105520000400be00000006006022b8000602200051
:105530000000d0008180d2000482d2008582d20097
:105540000000a0000202520083825a0003003100d2
:105550000202420083824a000000a1000603e90023
:10556000f3ff3a0000000600839f68000100e0009e
:1055700002003d0060001000e08018000300e00021
:1055800002003d0060011100e0811900e6ff070004
:105590004f00e00002003b0060001000e0801800b7
:1055a00000000600881f7800000478005001be004b
:1055b0004000be000400400085804800060149000c
:1055c00087814900009cbe000294be000400e100f7
:1055d0000588e1000690e1000798e1000200310033
:1055e000680044001008e8004f047800000006003e
:1055f000f4874700889fbe008a9fbe008c9fbe0034
:105600008e1f78000205be000004be00d4b79f00c4
:10561000e5b79f00f6b79f0087bf9f000000eb0033
:10562000c0b79f00b0b79f00a0b79f0090b79f0082
:1056300080b79f000d042000bfb097004fb09700c7
:10564000000140000000e0000f003d004f08de00b8
:1056500000007100c0b79f009e00070001003d00e0
:1056600012002000a100070001003d0012002000f0
:10567000a6000700b1000700b60007000f004000b9
:10568000c8ff0700220037004f08de000006710047
:10569000ccb79f008f00070001003d0012002000e2
:1056a0009200070001003d00120020009700070053
:1056b000a20007000fb297009fb297002fb3970088
:1056c000bfb39700a90007000000520081805a0074
:1056d00002015b0083815b0080b79f0091b79f0050
:1056e000a2b79f00b3b79f000007eb009f00070021
:1056f0000020e10001a8e10002b0e10003b8e100f0
:10570000010031001e0020000e005600c0b79f00af
:105710004fb297000400e0000700350010002000a1
:10572000010020006011b800080470008984700036
:105730000a0571008b8571008d06e900beff3a00f5
:105740000400e00003003d00820007000f0040005d
:1057500094ff07004fa897000000e00004003a0003
:105760000fb497009fb497002fb59700bfb597006f
:10577000940007004f0778004f06be004f05be009b
:105780004f04be004f01b10000000600881f7800e2
:1057900018002000881f780095ff07008f87e90018
:1057a0004f04780000000600801feb0090ff070008
:1057b0008f87e90000000600889fbe008a9fbe0018
:1057c0008c1f78006e00070007003d007300070083
:1057d000e00f5b00e08f5b0007003d003200070038
:1057e0000006eb00040037003400070002003d0013
:1057f0002a0007001c00200072000700e3ff0700da
:105800000203be000002be000c00e00001003200f6
:10581000220007000400be000601be004f0678000b
:105820004f05be004f04be0000000600889fbe006a
:105830008a9fbe008c1f78005100070005003d00c4
:1058400056000700e00f5b00e08f5b0006003d00a4
:10585000040037001900070003003d006000b80095
:105860006011b8001000070056000700ceff0700c7
:105870000203be000002be000c00e0000100320086
:10588000060007000400be000601be004f067800b7
:105890004f05be004f04be00000006006000b800c7
:1058a0006011b800000037000402500085825800e3
:1058b0000603590087835900000006000006eb002c
:1058c000e00f5200e08f5a00e00f5b00e08f5b00ba
:1058d000000006000180400090b79f000001eb002f
:1058e0008fb097000100e000000006000200700089
:1058f00090b79f000180400080b79f000001eb003f
:10590000ffa897000100e000000006000200700000
:1059100080b79f00018040006faa9700cf20de0073
:1059200001007000f0af9f00040242002500070054
:105930004f18de000002720000000600e4af9f0076
:105940000804440089844c000a054d008b854d00f5
:10595000000006003fb29700cfb297005fb39700f8
:10596000efb3970000fe2f00000006003fb0970045
:10597000cfb097005fb19700efb19700000006002d
:105980000205be000004be00e00f5000e08f58008a
:10599000e00f5900e08f5900000006006000b800d9
:1059a0006011b80008045000898458000a055900a5
:1059b0008b8559001c002000e00f5200e08f5a0038
:1059c000000006000800be000a01be00000006003c
:1059d000889fbe008a9fbe008c1f78000205be0013
:1059e0000004be000006eb00e00f5000e08f5800fe
:1059f000e00f5900e08f590007003d006000b8003b
:105a00006011b80008045000898458000a05590044
:105a10008b8559001c002000e00f5200e08f5a00d7
:105a2000e00f5b00e08f5b0002003d000f0007000d
:105a30000c00a2000800be000a01be001c01070005
:105a40000203be000002be000c00e00001003200b4
:105a5000060007000400be000601be004f067800e5
:105a60004f05be004f04be00000006006000b800f5
:105a70006011b800040250008582580006035900e6
:105a800087835900000006008f1fd1002a010700fc
:105a90008f87e9000000e000000006001400fa0013
:105aa000889fbe008a9fbe008c9fbe000004be007f
:105ab0000205be00680047000a90be000890be00c4
:105ac000460107000070a7000bf0a1003043200042
:105ad0009e02900080825200b0fe2f000028e1005c
:105ae00011003d00b0fc2f000028e100150034003b
:105af0001e0990008e0890007e0090000501b00005
:105b00000201d1008180d3000080d3008502e8002b
:105b1000fbff3a000b00e0006b013b00600010004f
:105b2000e080180068013700f0ff2f00f1ff270028
:105b30000b00e00064013b00010028000000200091
:105b4000610137006000b8005f0137004f89de0057
:105b5000820178006101370007f0a200960137004a
:105b6000809feb00f40007008f87e9000000e00051
:105b7000000006002800fa00889fbe008a9fbe0031
:105b80008c9fbe0003866b003b0107000028a3002a
:105b900064003a000128a30067003a000008a3004f
:105ba00062003a000108a30065003a001e00900060
:105bb000be08900081064000ed3fb100f480570020
:105bc000ee019000111ab8008e099000311bb80048
:105bd0009e099000311cb800511db800f485570093
:105be00046000700fe0190003a0007008b85e800a0
:105bf0003e0007008e09900040000700ee01900073
:105c0000340007008b85e800380007008e099000fb
:105c1000400007009e0990001b18b800890440004e
:105c20000a854800fe019000340007008b85e800db
:105c300038000700ee019000300007008e09900048
:105c40001b18b800890440000a8548000a98a30080
:105c500008003a000402420085824a0006034b0015
:105c600087834b0008044c0089844c000a054d00d2
:105c70008d06e90084827200850273004c3add00d3
:105c8000850272000100320015002000443ade0057
:105c90001400b2004538de00cb45dd000b0070007b
:105ca000c540de00cb4ddd008b8070004549de0035
:105cb000cb55dd000b017100c551de000d037800ee
:105cc000ba01070003f0a1000cf0a70003f0a00048
