:020000040000fa
:080000000001040000000000f3
:020000040000fa
:100200004fbc200000ff200000018800000000001b
:100210000c00070000ba24000100200011000700b4
:10022000000020000000e000020032000000020098
:100230000000000024530200000000000040da002b
:100240000000fe004440a900601a20000000e00009
:100250000300320000002000a00188004440a800f4
:100260000000060091018800800078000000eb008b
:1002700015003700e280400032a0b4009101ba00be
:10028000e280400032a0b4009102ba00e280400057
:1002900032a0b4000002eb00472bde00f507b200ed
:1002a000602ce10004003a000059eb008301e900f2
:1002b000fdff3e00040037006128e100010032002c
:1002c0000082eb00040007001101ba000200e00008
:1002d000e8ff3a00000006003159ba008301e90046
:1002e0000c0032002159ba008301e90008003200f5
:1002f0000400e00003003a00e280400032a0b400b5
:10030000f5ff370011d9ba008301e900faff3a007e
:100310008100e800e180400032a0b4000000060047
:1003200000000000000000000000000000000000cd
:1003300000000000000000000000000000000000bd
:10034000889fbe00800478000100780002047800d5
:10035000890178001100200047000700880f500035
:10036000010032008004eb00090078004f04be0059
:10037000000006000000fa004fb99700e88157001e
:10038000e18d2000001a2000900007000080fa0094
:1003900000000600040037000204e0000a003200fa
:1003a0000000e8008100e80010417800914f510002
:1003b000f9ff32000081eb0010407800914f5000af
:1003c00004003900020037000001eb000100370093
:1003d00012002000020078000000060000027800f1
:1003e0000000eb000b0037009441780091cf5100e2
:1003f000030032000080eb00090039001000050006
:100400000000e8000304e000040032000402e800f9
:100410008100e800820f5000f3ff3a000000eb007b
:1004200000000600900178000200e00002003a009f
:100430000308e900050037008080eb001304e000aa
:10044000020032000308e8009300fb00010078007e
:10045000000006000200fa00f0bf9f003fb99700bd
:10046000ea8157008f80e900202120001001070059
:100470000080fa0000000600889fbe008a9fbe0030
:100480008c9fbe008e1f7800810678008304780060
:10049000000678000288b900000778000000e0003c
:1004a00002003a0000017800420037000d00e00031
:1004b0004000320000057800c900900069009000fb
:1004c000808f50000400390009007800c001070047
:1004d0000000e00029003500004020001900600005
:1004e00003003a000a047800800578000b0037000a
:1004f0000a017800a10020000c007800f701070035
:10050000800578000000e00002003a000a0478004c
:10051000020037000c0050000004e800c901900000
:100520006900900003005000880f50000200310065
:10053000000478008005eb00080178008c0078004a
:1005400003007800ef010700080646000805550083
:100550004900900000004400c00498000b00e00037
:100560000400320009007800ed0107000000e000ff
:1005700002003a000a00e000cfff3a0000802000ad
:10058000190060000200320009007800e401070051
:1005900000c02000190060000200320049009000f5
:1005a000e00498000a005700110009000d80d800ef
:1005b00000017800020078004f0778004f06be0067
:1005c0004f05be004f04be00000006006200fa00a6
:1005d000889fbe008a9fbe000004be00020578000e
:1005e0008300780060f92f000f0040000902070027
:1005f00088979f0099979f000000eb00a09f9f00a5
:100600009a4578000b80fb000000ea00cf04de0072
:1006100050c2b30080cf55000200320009047800b8
:10062000010037000904e9000800e0000b00340075
:100630001f909700080178008a0078008f9197003a
:100640000300010090979f000000e000930032003b
:100650002f98970000004400a09f9f0009054500c7
:1006600050c2b30080cf5500040032000b04e000fc
:10067000e3ff3a002f989700890037000000eb0055
:10068000809f9f00f0979f00e0979f00d0979f006a
:10069000c0979f00b0979f00c09f9f000900370040
:1006a00040b12000008050000000400081b02000d8
:1006b000e10078004f98970001007000c09f9f00f4
:1006c0000a05e8001a4478008800fb0040b12000c9
:1006d000d5010700800078000000e000f0ff3a003c
:1006e000a0c2b300804f54000e003a00bf889700ac
:1006f0000180e900b08f9f0010007800b09f9f003c
:100700000000e00005003d000000ea00b09f9f00ef
:100710004f9897000020a000c09f9f000a05e800a6
:1007200010003700b19f9f0003fd2f00f4ff27004a
:10073000080037003f989700840f500004003200f3
:100740006a00b9000000410003004000b09f9f0014
:100750000a05e8001a01fb0003004100e90f500000
:10076000f4ff3600e0c2b3009a4f100004003200dc
:100770000080eb00909f9f008a0478001c003700e7
:100780008a04e800a0c2b300994f100007003a00a5
:10079000bf8897000180e900b08f9f0010007800ab
:1007a000909f9f008a84e800110037000000eb0052
:1007b000909f9f0003fd2f00f4ff270008003700e3
:1007c0001f989700840f5000040032006a00b9009f
:1007d0000000410003004000909f9f008904e80052
:1007e0001901fb0003004100e90f5000f4ff36003f
:1007f000194478008800fb0060b220008a010700dd
:100800000000e00002003a000044780001003700d8
:100810008904e800a87f9f0080c6b300804f540081
:1008200004003a00994f14000a003a006640500054
:1008300006003700c0c6b300804f540005003a00e0
:10084000994f140003003a0065404000a07f9f00cc
:100850008904e8000905e800c8fb2f000f044400e4
:1008600060f92f000f0040008085e80088017800c3
:1008700019417800800078000b00780073010700b0
:100880000000e00005003a00880078000b007800c6
:10089000eb0207000000e00059ff3d000080eb0084
:1008a0004f05be004f04be000080fa0000000600a5
:1008b0001200fa00889fbe008a9fbe008c1f78003d
:1008c00002047800a0b79f00b1b79f0083007800b2
:1008d000788057004f0107000000eb00e0b79f0051
:1008e000d8b79f0000067800dfb49700194578005c
:1008f0000a80fb000000ea00cf05de000a00fb00d2
:10090000990307000000e0001a0032006fb0970062
:100910000000e800e0b79f003fb097001200200001
:100920008000eb00afb197000300010000047800e5
:100930008d030700000178000000e000f3ff3a009b
:100940006fb09700e10f4400070032000000e9009b
:10095000e0b79f003fb0970088007800afb19700e4
:1009600003000100230037000000e900e0b79f000a
:100970002000370050c2b300804f55000200320003
:100980000b047800190037000b04e900170037004a
:100990006fb097000000e800e0b79f003fb09700fd
:1009a000120020008000eb00afb1970003000100af
:1009b000800078001900fb00808f50000a00320090
:1009c000e18f40007c0032006fb097000000e9002a
:1009d000e0b79f003fb097000001eb00afb1970078
:1009e00003000100740037008904e8000804e900ee
:1009f000e7ff3b005fb0970080804500d1b79f00c4
:100a000050c2b300804f5500030032000a04e000da
:100a1000b5ff3a0068003700a2c2b3000040eb0007
:100a2000914f110003003a000100e800d0b79f0089
:100a300002407800a0f79f000000eb0080bf9f00fd
:100a400003fd2f00f4ff27000a0037000fb89700be
:100a5000840f5000040032006a00b9000000410019
:100a60000300400080bf9f005fb097000000e800d7
:100a7000d0b79f00dfb49700194478000801fb004d
:100a800003004100e90f5000f0ff360082007800bb
:100a9000a0b12000e40007000000e00002003a00de
:100aa00000447800020037000900e800d0b79f003a
:100ab000b8f79f0080c6b300804f540005003a008d
:100ac000dfb09700914f14000c003a0066405000d0
:100ad00007003700c0c6b300804f540007003a003b
:100ae000dfb09700914f140004003a0065404000c9
:100af000b0f79f000100e800d0b79f005fb09700fb
:100b00009000fb0010b22000c70007000000e000ca
:100b100019003a006fb097000000e800e0b79f00ae
:100b20003fb09700120020008000eb00afb19700ab
:100b300003000100000478000b03070000017800a7
:100b40000000e000f3ff3a006fb09700e10f4400af
:100b5000070032000000e900e0b79f003fb09700b7
:100b600088007800afb19700030001000200370051
:100b70000000e900e0b79f007c80570002030700f7
:100b80000000e00003003c000c00e000090032001f
:100b9000090037004ff097000004e0000100320028
:100ba0000c06e8005fb097000000e800d0b79f0097
:100bb0004dff3700000678000c0078004f067800e3
:100bc0004f05be004f04be000080fa000000060082
:100bd000889fbe0000047800c00190006000900073
:100be0008000eb00808f5100390039001801780037
:100bf0002000290000006100e20f500007003200d1
:100c0000002020000200e000010035000020240048
:100c1000000c71008080eb002d00370001002600e1
:100c200001006100810f500008003a003800900078
:100c3000808f510005003900080078003800070057
:100c40008080eb000000e00021003a0000c020009e
:100c50001800600017003a00a8049000600220000d
:100c600008004000808f540012003a00002020004d
:100c70007203070080007800200498000000e00064
:100c800005003a0029049800490498000900e8008a
:100c900030049800060037001860a0004004980057
:100ca0000020b00030049800410c9800510c9800ce
:100cb000b40307002800900050049800380090000a
:100cc0006004980000002600180c70008000eb0003
:100cd000010078004f04be00000006008001eb0018
:100ce000040037008301e80090cf100004003200b8
:100cf0000000e800828f5100faff3a000000eb008c
:100d0000000006008001eb000200370061f079006e
:100d10008301e800828f5100fcff3a0000000600ca
:100d2000889fbe00000478000000e0000e003a003a
:100d300080047800688a2000180078000000e00035
:100d400004003200f6ff07000000e00001003d0053
:100d50008084eb000884e800608b2000800f540042
:100d600029003200f4ff3700000022001800600064
:100d700024003200a8049000080037000901500048
:100d8000384090000000fb0089007800a51407009f
:100d90000000e0001300340080844400480090000c
:100da000808f5400f5ff390028009000400498001f
:100db0001801780000c0200000006100020032002d
:100dc000a800900001003700b80090000000240047
:100dd000000061000a003200610498008004eb000a
:100de0000900370028009000400498006004980033
:100df000500c98001890a0008084eb00020037008f
:100e0000510c980080047800090078004f04be005f
:100e1000000006000200fa00f1bf9f000108780000
:100e20000080fa0000000600040037000204e00021
:100e300001003a00000005000000e80010417800c1
:100e4000814f5100f9ff3a0000000600889fbe0064
:100e50008a1f78000004780001027800824478003c
:100e60000305780070c6b300804f510021003c009c
:100e700000c0e900804f5100de003d00724050008c
:100e8000804f51004b0132000d003c006c4050007f
:100e9000804f51005e013c0000c0e900804f5100ce
:100ea000d4003d0050c2b300804f510055013200c4
:100eb0007c404000804f510055013a00cd00370082
:100ec00010c6b300804f5100ca00320004003c003d
:100ed00069405000804f51004d013a0072003700c8
:100ee00030c6b300804f5100180032000040e800c7
:100ef0000900370000c7b300804f51001e013200c7
:100f000008003c0000c0e900804f5100e4003200be
:100f100065003c006540500080cf54003c013a0021
:100f20000f00370050c7b300804f51005e00320001
:100f300063404000804f51005b003200654050002c
:100f4000804f510032013a001a0137009180e900c8
:100f5000010a780078009000917178003201370022
:100f6000a8609000c0c6b30080cf50000a003a00cd
:100f70009400780064805000000a78001000be00e1
:100f80004f89de00cf91de000002be000203780030
:100f9000820378001300370010c7b30080cf5000e1
:100fa00003003200a0c6b30080cf500006003a0014
:100fb0009400780068805000000a78003002be007b
:100fc0002003be00070037001480e900000a780003
:100fd0001000780000027800cfa2de000503780040
:100fe00086037800049cbe000694be00a8609000b2
:100ff00080c6b30080cf50000e00320020c6b30080
:1010000080cf500005003a000400fb00cf80de00d6
:1010100001017800820178000a00370040c7b30060
:1010200080cf5000030032006640400080cf500067
:1010300006003a0004007800cf80de00010178004d
:1010400082017800009cbe000294be003800be0001
:101050002801be00e00f5000e08f5800e00f59005b
:10106000e08f590003003d0078009000d1c2b3002a
:101070000a003700081090000018a3000300320097
:1010800078009000b1c2b300040037000008a3004c
:10109000530032007800900001c2b300017578005f
:1010a0000000e8004d003700a8609000c0c6b30003
:1010b00080cf500006003a00940078006480500011
:1010c000000a78001002be006033b8001300370039
:1010d00010c7b30080cf500003003200a0c6b30099
:1010e00080cf500006003a009400780068805000dd
:1010f000000a78003002be002003be00070037005f
:101100001480e900000a78001000780000027800de
:10111000050020000600200007002000049cbe00ff
:101120000694be00a860900080c6b30080cf500037
:101130000e00320020c6b30080cf500005003a00f8
:101140000480fb00010020000200200003002000ba
:101150000a00370040c7b30080cf500003003200c0
:101160006640400080cf500006003a00040078003e
:10117000010020000200200003002000009cbe00af
:101180000294be00081090000038a3001400320042
:101190003800be002801be00e00f5000e08f58006c
:1011a000e00f5900e08f59000d00320080c7b300f6
:1011b00080cf54000300320080c5b30080cf5400bc
:1011c00007003a007800900001c3b3000175780071
:1011d0008000e80009f578000080e80070049800bd
:1011e0007800900000004500600498008940780075
:1011f0006d003700a8609000c0c4b30080cf5000dd
:1012000006003a009400780068805000000a7800d8
:101210005001be004000be00050037009400780079
:1012200064805000000a78001000be009e15070080
:10123000009cbe000294be00380090000000e00058
:1012400003003d0078009000d1c2b3000a003700cf
:10125000081090000018a3000300320078009000ee
:10126000b1c2b300040037000008a300050032003b
:101270007800900001c2b300017578000000e8001a
:101280007004980078009000000045006004980009
:101290008940780008007800920207006400370057
:1012a000a8609000c0c6b30080cf50002500320077
:1012b0000a003c006440500080cf500028003200fb
:1012c00000c0e80080cf5000140032006840500099
:1012d00080cf500022003a000a00370040c7b30018
:1012e00080cf50001e0032006640400080cf50008a
:1012f0001b0032006940500080cf500018003a00b7
:10130000060037001480e900000a78001000780019
:10131000485c900008487800450037001480e900d8
:10132000000a78001002780068089000cf80de0084
:101330000101780082017800009abe000292be008e
:101340003b0037001480e900000a780010017800a3
:1013500068089000cf80de000089be0034003700ae
:101360001480e900000a780010007800680c9000f2
:10137000080878002e0037001180e9008008780006
:1013800010007800cf80de00010178008201780033
:10139000009cbe000294be00780090000000450052
:1013a0006004980081c7b300080078007604070045
:1013b0001f0037001480e900000a78001000780050
:1013c00060049800580990000200e00002003d000f
:1013d000f6050700090037008000eb003ffe07001c
:1013e000800078000000e0000300320068009000f8
:1013f000008050000100370058089000100c980041
:101400000b00370078009000027578000600370066
:1014100078009000800045000904e00001003a00d7
:1014200059c2b300894878000000e80070049800b1
:101430000000eb004f0578004f04be0000000600de
:101440000400fa00889fbe008a9fbe008c1f7800af
:10145000000478000106780070089000f800900001
:10146000010050008808900001005000980890008a
:1014700001005000a808900001005000b80890003a
:1014800001005000c80890008105500000022200b1
:1014900090bf9f0000032300a0bf9f000810900092
:1014a0000028a30018003a000b00e00016003400ea
:1014b0008b04780009057800e28f540002003600a2
:1014c0002a002000020037000900e0000b00340071
:1014d00058009000c80190000a017800ee80570083
:1014e00003000100500498000000e0009600320064
:1014f0006808900000004500600c98008a84540041
:101500004240a900ebff3c00780190000200e0009f
:101510000b00340058009000c80190008c00780047
:1015200003000100500498000000e0008600320033
:1015300068089000f800900001004000600c9800de
:10154000880c90000900e0001500340009057800bf
:10155000e28f5400020036002a002000020037000b
:101560000900e0000b00340058009000c801900012
:101570000a017800ec805700030001005004980035
:101580000000e00070003200680890000000450094
:10159000600c98008a8454004240a900ebff3c0094
:1015a000180990000200e0000b003400e8009000f1
:1015b00058009000c80190000300010050049800fa
:1015c0000000e00060003200680890009808900079
:1015d00001004000600c9800a80c90000900e00099
:1015e0001500340009057800e28f5400020036002f
:1015f0002a002000020037000900e0000b00340040
:1016000058009000c80190000a017800ec80570053
:1016100003000100500498000000e0004a0032007e
:101620006808900000004500600c98008a8454000f
:101630004240a900ebff3c00380990000200e000a6
:101640000d003400e80090001808900080804000f1
:1016500058009000c8019000030001005004980059
:101660000000e0003800320068089000b8089000e0
:1016700001004000600c9800c80c90000900e000d8
:101680001500340009057800e28f5400020036008e
:101690002a002000020037000900e0000b0034009f
:1016a00058009000c80190000a017800ec805700b3
:1016b00003000100500498000000e0002200320006
:1016c0006808900000004500600c98008a8454006f
:1016d0004240a900ebff3c00081090000028a30046
:1016e0001b0032000b00e000190034008b0478006e
:1016f00009057800e28f5400020036002a0020001d
:10170000020037000900e0000b0034005800900090
:10171000c80190000a017800ee8057000300010024
:10172000500498000000e0000700320068089000b4
:1017300000004500600c98008a8454004240a900d3
:1017400003003400eaff37000080eb00010037009f
:101750000000eb004f0678004f05be004f04be00ae
:101760000080fa00000006006900e1000400350076
:101770006d00e100030034000002b10001003200fe
:101780000000050010000500881f780000047800a4
:101790000040eb0000549800380090009040780022
:1017a00040c6b30080cf50003d00320020003c0016
:1017b0007140500080cf50007c0032000d003c0092
:1017c0006c40500080cf50008f003c0000c0e9000a
:1017d00080cf500035003d0050c2b30080cf500094
:1017e000740032007c40400080cf500086003a00f8
:1017f0002e00370010c6b30080cf50002b003200ff
:1018000007003c006940500080cf500024003200a7
:101810006340400080cf50007b003a0080003700da
:1018200030c6b30080cf500077003a001a0037006e
:1018300000c7b30080cf50000d003c000040e9001d
:1018400080cf500016003d006840500080cf50000f
:101850001600340000c0e80080cf500010003200b5
:101860006540400080cf500067003a00120037000a
:1018700050c7b30080cf50000900320063404000e1
:1018800080cf5000060032006540500080cf5000ed
:10189000460032005c0037008000eb00610037003a
:1018a00008007800c80407006200370008007800cc
:1018b000000607005f003700684890000004e00061
:1018c0005b003a00f8489000c0c6b30080cf5000db
:1018d000270032000a003c006440500080cf5000d6
:1018e0002b00320000c0e80080cf5000150032000d
:1018f0006840500080cf500025003a000a003700b1
:1019000040c7b30080cf5000210032006640400045
:1019100080cf50001e0032006940500080cf500040
:101920001b003a0007003700280090000080e90003
:101930002004980010007800084c900008487800b7
:101940003b003700280090000080e9002004980048
:101950001002780048009000cf80de00010178007e
:1019600082017800009abe000292be00300037006b
:10197000280090000080e900200498001001780001
:1019800048009000cf80de000089be0028003700ac
:10199000280090000080e9002004980010007800e2
:1019a000480490000808780021003700110020004a
:1019b0001c003700480090000000e8004004980038
:1019c0001800900098017800120020008000eb00c1
:1019d000030001008000780050022000808f50003a
:1019e0001300320048009000e18f400008003200f0
:1019f0000000e90040049800180090009801780069
:101a00000001eb00030001000000eb0009003700bb
:101a10000000e9004004980001007800050037004c
:101a20008080eb0008007800c7080700010037003d
:101a3000100020004f04780000000600889fbe00c0
:101a4000e30440000900a100808f54004a003600e2
:101a5000e38f540001003e004900200082598000bd
:101a60000200e00002003200820078000c00370023
:101a700021b3200003003700908f5400230036006c
:101a80008080e800110078000000e000faff3a00d2
:101a90000f003700908f54001c0036008080e80053
:101aa000110078000000e000faff3a00120178000f
:101ab00021b3200003003700908f5400130036003c
:101ac0008080e80011007800820f5000faff3a0091
:101ad00078598000890f5400010031000904780012
:101ae00008007800850907000000e00004003a00c3
:101af000890f5400200032000804d100f5ff3700a0
:101b00000818780084090700d4ff37001101780015
:101b10009201780064805100890f50000300310069
:101b2000120090008008780007003700090041008b
:101b3000800878009201900013009800110078004e
:101b40001288140009097800910078000100e00073
:101b500005003200110090000000e0000200320099
:101b60000180e800010037000000eb008059880088
:101b70000280e800010037000000eb004f04be00c7
:101b800000000600881f7800a8b320001804e000b9
:101b900004003a00a0e520009309070020c0b3002c
:101ba000004c78004f04780000000600889fbe00bb
:101bb000000478005afc070080047800000420002c
:101bc000180060000200320028009000520907004f
:101bd0000000eb0020049800384090000004e00072
:101be000050035000000fb00451107000000e00083
:101bf000010032008084eb00181090000000e0002b
:101c000008003200471107000000e0000100320028
:101c10008084eb00181090003f0907000000eb00e3
:101c20001014980000082000180060001000320016
:101c30000000eb00618a2000910f140007003200c1
:101c40000000e8008180e800e80f5000faff3a0049
:101c50000800780030090700130037000001400039
:101c60008000eb00608a200001307900f8ff370027
:101c7000000c780000c0eb003044980060022000a7
:101c80000800400020049800400498005004980088
:101c9000400c980060049800500c98007004980064
:101ca00076004400000c9800090078004f04be0044
:101cb00000000600881f7800488b2000180078007c
:101cc0000000e00001003200b8ff07000884e900ce
:101cd000408a2000800f5400f8ff3a004f0478003b
:101ce000000006008f04b000889fbe008a9fbe00df
:101cf0008c9fbe008e1f7800f0b79f0081f79f0079
:101d00005001be004000be00f0979f00819f9f00e1
:101d1000929f9f00a39f9f0010c6b3000ff19700f2
:101d2000804f51001600320010c4b300804f5100a4
:101d300013003200ffb19700530890000000e0004c
:101d400003003d0060002000d00998000c0037001f
:101d50000000e0000a003a0070c6b3000ff29700de
:101d6000804f52000300320070c4b300804f520015
:101d700003003a0010002000ffb29700d00a98003c
:101d8000ffb09700c0fa2f000f00400023090700a2
:101d900080017800e20f500015003a00300020006a
:101da000ffb097009008980010c6b3000ff197009d
:101db000804f51000a00320064404000804f5100c3
:101dc000070032000040e800804f5100040032005c
:101dd00081a020000040e800804f510001003a003f
:101de000c1a02000ffb197006300900016003700eb
:101df0000000e00018003400300020007fb297009f
:101e0000100a980010c6b3008ff2970080cf5200de
:101e10000a0032006440400080cf520007003200c8
:101e20000040e80080cf52000400320001a12000f1
:101e30000040e80080cf520001003a0041a120009c
:101e40007fb19700620090003158780031587800d7
:101e500011487800c601370014c6b3008ff297000e
:101e600084cf52000300320010c4b30080cf520070
:101e700013003a007fb09700600190008200780064
:101e800000c3b30080587800ffb29700e1029800c9
:101e900080c7b3008ff2970084cf52000100320058
:101ea00080c5b300804878000280e800ffb097004a
:101eb000e0009800710090000080e800f0009800b9
:101ec0000300e00005003a00e3979f0064fb2f0049
:101ed0000f01420003077800a001370085a1200010
:101ee000e5b79f0010c6b3008ff0970080cf500079
:101ef0000500320010c4b30080cf5000a7003a00a4
:101f000092a22000e2b79f00ffb197005308900013
:101f10001e0220000000e000010035000007e8007c
:101f20000e02e800d4b79f006022b8006033b8000a
:101f30007f9097008f9897001f999700af9997000f
:101f400078120700ffb097003102be002103be00e7
:101f50000000e00004003d000400be000601be00d9
:101f600003f0a200020037000400be000601be001c
:101f7000f0979f00819f9f00929f9f00a39f9f00cb
:101f80006f91970064015100e2979f00c3fa2f0000
:101f90008f8141006a8041000048eb006b82410064
:101fa000c4b79f0031003700c201200003002000a9
:101fb000e5fa2f000f804200c40807007f949700c5
:101fc0008f9c97001f9d9700af9d97000800be0053
:101fd0000a01be00581207000006be005fb197005c
:101fe00067015100d2b79f004240a9000a003400a7
:101ff0007d1207000002be000203be000800be0002
:102000000a01be007b120700f0979f00819f9f008e
:10201000929f9f00a39f9f00cfb1970067804100d0
:1020200071002000050037006f6066004c6add001b
:102030004466de000c067200c4eede00e00f5600bf
:10204000e08f5e00050034008100e900e18f400070
:10205000f5ff3a00010037000060eb008100e90065
:10206000fdff3b0067004000c0b79f00dfb2970054
:102070000500e000090034006022b8006033b800b9
:102080007f9097008f9897001f999700af999700be
:102090005a1207000000e000c3ff3c0060fb2f0065
:1020a0008f0040004fb19700010051000000e9008f
:1020b0008e0f500001003d00000778000e00e00088
:1020c00003003d0073fb2f000f8141002c003700ff
:1020d000800f570005003d000e804000104090002a
:1020e000f3c0b300e74f500001003c008041eb001b
:1020f000c4fa2f000f0242000e0042006a004000a6
:102100008e007800010037000000e9008100e9003e
:1021100010417800834f5100fbff32000107e800b7
:10212000efcf510001003a000248e8000100e00052
:102130000300350075fb2f000f81420006003700b9
:102140000e07e8006f90970064004000e0979f0042
:1021500061fb2f000f8140008e0041008e0178004e
:10216000030037001100fb006fb29700e4487800cd
:102170008301e9008100e9000300e000f9ff3d0070
:10218000ffb29700550890000000e000f3003d000a
:102190000e00e900d00a9800f00037007f94970005
:1021a0008f9c97001f9d9700af9d97006022b800fd
:1021b0006033b8000800be000a01be00d911070054
:1021c0000000e00005003d000bf0a200f8979f0022
:1021d000899f9f009a9f9f00ab9f9f006f909700e1
:1021e000725927000280b900026a280013002000fb
:1021f00007120700e4005000e1979f0015003b0024
:10220000e3801000c0ff2f00008460000800ea0097
:10221000e0979f007f9097008f9897001f999700f5
:10222000af99970089972000070037000808a3009e
:10223000030032003902be002903be00031207006a
:102240000884d100e88444000800e000f7ff3c0067
:102250001b0037000100e0001d003400c0ff2f000c
:1022600000806000e0979f00000478006000b800e4
:102270000200200003ff2300899720000700370099
:102280000808a300030032003902be002903be0083
:10229000ee1107000884d100e88444000800e00043
:1022a000f7ff3c000002be000203be007f909700d3
:1022b0008f9897001f999700af99970058120700c1
:1022c000f0979f00819f9f00929f9f00a39f9f0078
:1022d000ffb097005109900060c6b3008ff19700de
:1022e00080cf5100040032006100200060c4b300c0
:1022f00080cf510002003a006f929700ea0042003e
:1023000001074100f30f5700010034003e01200097
:1023100000c3b300e0779f0075fb2f008f8242005f
:10232000b5b79f00330037000800be000a01be00a9
:10233000811107000006be00680757004240a9004f
:102340000e003400a81107000002be000203be0008
:102350000800be000a01be00a61107006022b800f6
:1023600046782d0077192400b8110700f0979f00d8
:10237000819f9f00929f9f00a39f9f003fb0970067
:1023800068044000890020000d003700a4002000f0
:10239000050020000c01be00e0fd2f000f004000f2
:1023a000450807007fa897008fb097001fb19700de
:1023b000afb1970004c3b300046441000006be003f
:1023c000e00f5600e08f5e00060034008904e9004b
:1023d000e18f4400edff3a000200370000c3b30074
:1023e000006478008904e900fcff3b0068044400b5
:1023f000b8b79f000e00e0000b0034007f949700f8
:102400008f9c97001f9d9700af9d97006022b8009a
:102410006033b8000800be000a01be007711070053
:102420000000e000c0ff3c00c5fa2f008f82420090
:102430006a804200bfb09700008050008001e90030
:102440006f919700e70041006b81420000c3b30029
:10245000010037000201e800924f1000fdff32003a
:1024600074fb2f000f0042008080400082805000eb
:102470000080410002025000e1979f00ffb29700e8
:10248000d509900060c6b3008ff2970080cf52004c
:102490000300320060c4b30080cf520002003a0053
:1024a0008100e8000a00370050c6b3008ff09700a3
:1024b00080cf5000050032008000eb0050c4b30014
:1024c0008ff2970080cf520001003a0011002000e7
:1024d000018741008e0f520001003d000407780083
:1024e0000e00e0001d003500840f570005003d0080
:1024f000e2407f0095c3b30040c3b30080cf5000db
:1025000001003c0005c3b3000e0041008000e9005b
:102510008e017800010037008100e9008301e900a5
:1025200011427800854f5200fbff32000307e8009c
:1025300090c3b30080cf520001003a008448e80005
:102540000300e00005003d000201e9000e07e8007d
:102550006f9097000000e800e0979f006f9297004f
:102560008e0178008ff097007fb09700ef0707008b
:102570004f0778004f06be004f05be004f04be0057
:102580008f04b100000006002f03b000889fbe003a
:102590008a9fbe008c9fbe008e1f780000077800c7
:1025a000f0a92000c0b79f0080c5b30080cf5000c5
:1025b00008003200e2a82000c2b79f007740400028
:1025c00080cf500003003a0083002000b3b79f0083
:1025d0000a00370080c7b30080cf500005003200ea
:1025e000a4002000b4b79f0080c5b30080cf500086
:1025f00002003a0005012000b5b79f003e04be006e
:102600002e05be0040c6b30080cf5000030032004c
:102610006540400080cf50000b003a00e00f5400ae
:10262000e08f5c00e00f5d00e08f5d0006003d0084
:102630006000b8006011b800080450008984580098
:102640000a0559008b855900bfb39700e88f5300e6
:1026500003003200f08f530045003a0002003700bb
:10266000360020000100370046002000e00f540033
:10267000e08f5c00e00f5d00e08f5d0005003a0038
:102680005e08900081012000a1b79f000000e000db
:10269000080032003fb197000200e9000800600026
:1026a000cfb197006340780090df9f007401200055
:1026b000a4b79f00860278008502e9000500330078
:1026c0008b05d1000a85d3008984d3000884d30008
:1026d000f9ff3700089fbe000a97be00afb397000e
:1026e0000700e90021fc2f008f804000008240009d
:1026f0003fb197008202e90012003700afb39700a4
:102700008703e900a7b79f0000806200cfb0970061
:10271000615278003e00be002e01be0086037800a4
:102720008703e900050033008381d1000281d300d3
:102730008180d3000080d300f9ff3700009fbe00e6
:102740000297be003e00be002e01be00e00f50000a
:10275000e08f5800e00f5900e08f5900d600340098
:10276000afb397000700e000e4ff3c00d200370061
:10277000ae60900080c6b30080cf50000b003200e6
:1027800006003c000104e0000800320066405000f2
:1027900080cf500073003a0004003700c0c6b30079
:1027a00080cf50006f003a003100370008017800f8
:1027b0000800e00005003a005e089000810120005a
:1027c000a1b79f000000e00009003200bfb19700f0
:1027d000110009000381d8008000fd004fb297006e
:1027e0006440780090df9f0075012000a5b79f002e
:1027f000bfb39700110009000781d800800178005d
:10280000afb097000100e90022fc2f000f0141004a
:10281000000241000c003700bfb297001100090010
:102820008501d80000017800afb397008703e90065
:10283000a7b79f000590b90000805100cfb0970066
:1028400061527800820178000300e0000300340048
:102850002fb197000200e000efff3c00030078007a
:10286000cf80de0001017800820178003a00370055
:102870000806be00e00f5400e08f5c0005003a003f
:102880005e08900083012000a3b79f000000e000d5
:10289000090032003fb297006121b9000c00be0070
:1028a00039110700cfb297006540780090df9f0094
:1028b00077012000a7b79f003fb297006121b900c0
:1028c0000c00be00331107000006be00afb2970037
:1028d0000500e90027fc2f008f834300808343001d
:1028e00097b79f00110037003fb197006114b900fe
:1028f0000801be000c00be00451007000005be0028
:10290000afb197008301e900a3b79f000801be00a3
:10291000320e0700000056001fb29700cfb297009a
:102920006552780094b79f000a06be00e00f56007b
:10293000e08f5e0003003400afb397000700e000b3
:10294000e9ff3c004feade00cfa2de000c00be0033
:102950000401780084017800009fbe000297be0049
:1029600055003700e00f5400e08f5c00e00f5d0081
:10297000e08f5d0005003a005e08900081012000b4
:10298000a1b79f000000e0000d0032003fb19700aa
:1029900002027800cfa2de000503780086037800eb
:1029a0000800be000a01be008b1107004fb297005d
:1029b0006440780090df9f0075012000a5b79f005c
:1029c0003fb1970002027800cfa2de000503780035
:1029d000860378000800be000a01be0077110700d8
:1029e000009fbe000297be00afb197000300e90050
:1029f00024fc2f000f024200000642002000370096
:102a0000bfb2970005047800cfc4de000905780046
:102a10008a0578000802be000a03be005fa897007e
:102a2000efa897007fa997008fb197006e1107005c
:102a3000d0b79f00e1b79f00f2b79f0083bf9f0010
:102a4000afb397008703e900a7b79f000802be0055
:102a50000a03be00ea1107005faa970000005200b7
:102a6000cfb29700655678005fb09700efb097003f
:102a70007fb197008fb99700009fbe000297be00fc
:102a80003e00be002e01be00d0af9f00e1af9f0010
:102a9000f2af9f0083b79f00e00f5000e08f580017
:102aa000e00f5900e08f590003003400afb09700e9
:102ab0000100e000d2ff3c003fb19700e80f510059
:102ac00013003a000e1090000038a30010003200ee
:102ad000afb19700f78f510006003e0024fc2f0095
:102ae0000f0242008300420000c3b300914f100068
:102af00007003200afb297008502e900a5b79f003a
:102b000000c3b30027fc2f008f83430080f37a00bb
:102b1000afb1970078811100120f98006e009000fd
:102b200024fc2f000f0242008300420075f80700ca
:102b30001e0990005e089000800f510006003d00c5
:102b400002005000000f98000e1090000040a100fd
:102b5000001798000f0037000000e0000d003d0056
:102b60000e10900074006000f00f500009003a0051
:102b70007e089000fe009000010050008e0890003a
:102b800001005000020050004240a9000100340042
:102b9000000f98004f0778004f06be004f05be009b
:102ba0004f04be002f03b100000006008000780033
:102bb000010037000000e8001004e000fdff3a00cb
:102bc00001005000000006002f02b000889fbe00e8
:102bd0008a9fbe008c9fbe008e1f78008004780004
:102be000600090000000e00001003c00f0ff2700c2
:102bf0000000e900d0049800c90090000c003300e8
:102c00000100e800c00498001900900099017800c4
:102c1000120020008000eb00030001000005780096
:102c2000b0022000800f550006003a000b0037006c
:102c30000100e800c00498002cfd2f000f0646009c
:102c40001b003700d0022000800f55000300320027
:102c50002cfd2f000f0646001600370030fd2f0018
:102c60000f044000aad79f00590090000000e9001f
:102c7000d0049800c90090000a0033000100e80069
:102c8000c0049800190090009901780012002000fb
:102c90008000eb00030001000005780008067800c2
:102ca000040037000100e800c0049800080678001e
:102cb0000085eb00f8a62000390090009000fb0092
:102cc0000800780058f807000800500081a620008e
:102cd000614478008805fb0000032000800f550048
:102ce00033003a00590090000000e900d004980039
:102cf000c90090000c0033000100e800c0049800f7
:102d00001900900099017800120020008000eb006b
:102d1000030001000005780080072000800f5500a7
:102d200005003a00070037000100e800c0049800e1
:102d30000085eb001b00370080052000800f550048
:102d400018003a000804e00002003200f04f54007e
:102d50001d003a00590090000000e900d0049800de
:102d6000c9009000090033000100e800c004980089
:102d70001900900099017800120020008000eb00fb
:102d80000300010000057800030037000100e8009f
:102d9000c00498000085eb000047eb000b01200009
:102da000110037000804e000b800320006003700c8
:102db0000047eb000804e00004003a00ad002000ea
:102dc000084778001c0037001ec0b300ad0020008b
:102dd000ea4f540018003200e88f550002003a0014
:102de0008b067800140037006d01200012003700b8
:102df000590090000000e900d0049800c90090003c
:102e0000090033000100e800c00498001900900098
:102e100099017800120020008000eb0003000100ff
:102e200000057800030037000100e800c0049800a6
:102e30000085eb001ec0b30000032000800f55008a
:102e4000ebff32000e04e00018003200005e780054
:102e5000160037006f805700800f560001003100c8
:102e60000a5e7800590090000000e900d004980044
:102e7000c9009000090033000100e800c004980078
:102e80001900900099017800120020008000eb00ea
:102e90000300010000057800030037000100e8008e
:102ea000c00498000085eb001ec0b300e10f450090
:102eb000070032000d0178008a00780070a720001a
:102ec00086f707000000e000e2ff3a0066003700e6
:102ed000490090000000e900c00498000e04e000e2
:102ee00008003a0020fd2f000f004000800f560020
:102ef0005b003a00e10f450059003a008a00780073
:102f000065003700004eeb0069489000110020007a
:102f10000004e00060003a00390090009040780022
:102f200040c6b30080cf500003003200654040002f
:102f300080cf50000a003a000b0178008000eb00bf
:102f400020fd2f000f004000ac0607000203be006a
:102f50000002be0010c0b300805498000d0037007e
:102f60000b0178008000eb0020fd2f000f004000d7
:102f7000fc0607000203be000002be0010c0b30042
:102f800080549800b900900000c7b300914f100022
:102f90002c003200f9489000c0c6b30080cf50002a
:102fa000220032000a003c006440500080cf5000f4
:102fb0002400320000c0e80080cf5000140032002e
:102fc0006840500080cf50001e003a000a003700d1
:102fd00040c7b30080cf50001a0032006640400066
:102fe00080cf5000170032006940500080cf500061
:102ff00014003a0006003700290090000080e90024
:10300000a0049800100078000448780012003700ef
:10301000290090000080e900a004980010007800ca
:103020000498be000690be000b00370029009000f7
:103030000080e900a0049800100078000488be0019
:1030400005003700290090000080e900a0049800e6
:103050001000780004087800110020000e003700ee
:103060008000eb000c003700490090000000e900f0
:10307000c004980019009000990178000001eb004d
:103080008a0078000300010094ff37001ec0b300df
:103090008b00200052ff3700010078004f077800b6
:1030a0004f06be004f05be004f04be002f02b10008
:1030b000000006006f04b000889fbe008a9fbe001b
:1030c0008c9fbe008e1f7800000478006000900086
:1030d0000000e00001003c00f0ff27000000e900d4
:1030e00050049800c80190000c0033000300e80071
:1030f0004004980018009000980178001200200009
:103100008000eb000300010080047800b002200082
:10311000808f540007003a00090037000300e800e0
:103120004004980060fb2f000f0540008084eb00f6
:1031300051003700d0022000808f540015003a0063
:1031400071fb2f000f854000e9779f005800900029
:103150000000e90050049800c80190000900330005
:103160000300e800400498001800900098017800df
:10317000120020008000eb000300010080047800b2
:10318000060037000300e800400498008084eb004c
:10319000b500370064fb2f000f054200000320003c
:1031a000808f540034003a00580090000000e9007d
:1031b00050049800c80190000c0033000300e800a0
:1031c0004004980018009000980178001200200038
:1031d0008000eb00030001008004780080072000dd
:1031e000808f540006003a000a0037000300e80010
:1031f000400498008084eb00ae0020006901370095
:10320000ae0020001cc0b30080052000808f540059
:1032100065013a0000c3b300004d780080c7b300d9
:10322000104598000a85e800580090000000e90069
:1032300050049800c8019000090033000300e80022
:1032400040049800180090009801780012002000b7
:103250008000eb00030001008004780003003700c9
:103260000300e800400498008084eb006e01200019
:103270000046eb004c013700e1062000818f54002e
:1032800003003200e0042000808f540076003a00f2
:103290008a057800815d7800580090000000e90000
:1032a00050049800c8019000110133000300e800a9
:1032b0004004980018009000980178001200200047
:1032c0008000eb000300010080047800100620005d
:1032d000808f54000300320010042000808f5400bf
:1032e00009013a0010c6b300804d78008a85e800d5
:1032f000580090000000e90050049800c8019000b8
:10330000fb0033000300e800400498001800900020
:1033100098017800120020008000eb0003000100fb
:1033200080047800e0062000808f54000300320003
:10333000e0042000808f5400f3003a005800900011
:103340000000e90050049800c80190000c00330010
:103350000300e800400498001800900098017800ed
:10336000120020008000eb000300010080007800c4
:1033700080022000808f500004003a0011003700c6
:103380000300e800400498000a003700e18f400085
:1033900008003200480090000000e9004004980056
:1033a00018009000980178000001eb000300010074
:1033b0002b003700480090000000e900400498000e
:1033c00027003700580090000000e90050049800e2
:1033d000c8019000090033000300e8004004980091
:1033e0001800900098017800120020008000eb0087
:1033f0000300010080047800030037000300e800a8
:10340000400498008084eb0009007800b7060700ac
:10341000000178000000e000eaff3a00f00520001b
:10342000808f5400e7ff320090022000808f54000c
:103430000b003200c8019000e18f4400050032000b
:103440000300e900400498001800900098017800fb
:10345000b50037000300e90040049800cd013700b3
:10346000e0c6b300b900370091062000818f5400f8
:1034700005003200ae0020000046eb009004200062
:10348000808f5400c8003a008a057800815d78007a
:10349000580090000000e90050049800c801900016
:1034a000930033000300e8004004980018009000e7
:1034b00098017800120020008000eb00030001005a
:1034c00080047800e0062000808f54000300320062
:1034d000e0042000808f54008b003a00e0c6b30067
:1034e000804d78008a85e800580090000000e900cf
:1034f00050049800c80190007d0033000300e800ec
:1035000040049800180090009801780012002000f4
:103510008000eb00030001008004780060062000ba
:10352000808f54000300320060042000808f54001c
:1035300075003a00580090000000e900500498001f
:10354000c80190000c0033000300e800400498001c
:103550001800900098017800120020008000eb0015
:10356000030001008000780090062000808f50004a
:1035700004003a00140037000300e80040049800fb
:103580000d00370090042000808f50000e003200a4
:10359000e18f400008003200480090000000e90080
:1035a0004004980018009000980178000001eb009a
:1035b0000300010064003700480090000000e900ab
:1035c0004004980060003700580090000000e900b7
:1035d00050049800c8019000450033000300e80043
:1035e0004004980018009000980178001200200014
:1035f0008000eb000300010080047800e00620005a
:10360000808f540003003200e0042000808f5400bb
:103610003d003a00580090000000e9005004980076
:10362000c8019000320033000300e8004004980015
:103630001800900098017800120020008000eb0034
:10364000030001008004780090062000808f540061
:103650000300320090042000808f54002a003a00ba
:10366000580090000000e90050049800c801900044
:103670001f0033000300e800400498001800900089
:1036800098017800120020008000eb000300010088
:103690008004780040072000808f5400030032002f
:1036a00040052000808f540017003a005800900019
:1036b0000000e90050049800c80190000c0033009d
:1036c0000300e8004004980018009000980178007a
:1036d000120020008000eb0003000100800478004d
:1036e00090072000808f540004003a001600370035
:1036f0000300e800400498000e0037009005200009
:10370000808f540010003200e18f44000900320025
:10371000480090000000e900400498001800900064
:10372000980178000001eb00890078000300010097
:1037300018013700480090000000e900400498009c
:103740008084eb001301370060c6b300804d780021
:10375000e30545008006eb000d07780015013700f2
:10376000580090000000e90050049800c801900043
:10377000090033000300e80040049800180090009e
:1037800098017800120020008000eb000300010087
:1037900080047800030037000300e800400498002c
:1037a0008084eb001cc0b30000032000808f540015
:1037b000ebff32000c04e00001003200005d7800f5
:1037c0008a0578008006eb000d05780019003700a7
:1037d00030022000800f550003003c00895d780016
:1037e0000a05e800010037008d06e8005800900047
:1037f0000000e90050049800c8019000090033005f
:103800000300e80040049800180090009801780038
:10381000120020008000eb0003000100800478000b
:10382000030037000300e800400498008084eb00a8
:103830001cc0b300e18f44001b0032000e01780071
:103840008900780000af200024f507008000780090
:103850000000e000deff3a00e0022000808f54000c
:1038600011003a00895d7800580090000000e900de
:1038700050049800c8019000080033000300e800dd
:103880004004980018009000980178001200200071
:103890000300010080047800030037000300e80003
:1038a000400498008084eb000a00e000140032001d
:1038b000330037008d06e900580090000000e90051
:1038c00050049800c8019000090033000300e8008c
:1038d0004004980018009000980178001200200021
:1038e0008000eb0003000100800478000300370033
:1038f0000300e800400498008084eb001cc0b30083
:1039000000032000808f5400eaff32000005eb0026
:103910000d00e0001a003d00805d78008d06e80093
:103920001700370030022000800f550002003c00d5
:10393000895d78000a05e800580090000000e90061
:1039400050049800c8019000090033000300e8000b
:1039500040049800180090009801780012002000a0
:103960008000eb00030001008004780003003700b2
:103970000300e800400498008084eb001cc0b30002
:10398000e18f4400060032000e01780089007800c3
:1039900000af2000d1f407000000e000e1ff3a0092
:1039a0000c04e0006c003200ea0f570005003a00fa
:1039b00050062000808f5400080032005004200080
:1039c0000400370000072000808f540003003200fd
:1039d00000052000808f54005f003a000b0578003e
:1039e000095d7800580090000000e900500498003c
:1039f000c80190001e0033000300e8004004980056
:103a00001800900098017800120020008000eb0060
:103a10000300010080047800b0022000808f540071
:103a200003003200d0022000808f540013003a00bf
:103a3000094d78000b85e800580090000000e9006f
:103a400050049800c8019000090033000300e8000a
:103a5000400498001800900098017800120020009f
:103a60008000eb00030001008004780003003700b1
:103a70000300e800400498008084eb000046eb005f
:103a800012003700580090000000e9005004980030
:103a9000c8019000090033000300e80040049800ca
:103aa0001800900098017800120020008000eb00c0
:103ab0000300010080047800030037000300e800e1
:103ac000400498008084eb001cc0b3000003200079
:103ad000808f5400ebff32000c04e0000100320044
:103ae000005d78008a0578000005eb0016003700bd
:103af000e70f550002003c00895d78000a05e800e8
:103b0000580090000000e90050049800c80190009f
:103b1000090033000300e8004004980018009000fa
:103b200098017800120020008000eb0003000100e3
:103b300080047800030037000300e8004004980088
:103b40008084eb001cc0b30000fd2f000080440007
:103b5000e90f5000e6ff3600c8019000e18f4400f5
:103b6000080032000300e9004004980018009000ab
:103b7000980178000001eb00890078000300010043
:103b8000020037000300e900400498000c04e00044
:103b900008003a0065fb2f000f804200808f55001f
:103ba00043003a00e18f440041003a008900780068
:103bb00040003700804deb00684890001100200065
:103bc0000004e0003b003a0066fb2f000f004300ba
:103bd000ea0f570008003c006169b9008000eb0063
:103be000d0040700f0979f00819f9f00929f9f0045
:103bf000a39f9f000c0037006011b8008000eb000d
:103c0000c8040700f0979f00819f9f00929f9f002c
:103c1000a39f9f004269dd00cf91de00e0fa2f00f4
:103c20000f004000a901070010c0b3000054980025
:103c300078499000c0c6b300804f510003003a009d
:103c4000280090000080e90005003700a8009000df
:103c5000c0c4b300804f51000a0032000180e90067
:103c600020049800100478007f9097008f989700a8
:103c70001f999700af9997008f0d0700008cbe0029
:103c8000090037000180e900200498001000780046
:103c90007f9297008f9a97001f9b9700af9b97008a
:103ca0000498be000690be001100200001003700fd
:103cb0008000eb00010078004f0778004f06be003f
:103cc0004f05be004f04be006f04b10000000600a7
:103cd00080017800d4c2b3000f0037000300e80071
:103ce000904f120008003a0093cf100003003e00ee
:103cf0002340900080cf500012003600e381410045
:103d0000630151000400370093cf10000d00320012
:103d10000201e90080017800e20f5100efff3e0050
:103d20000002eb000400370064c079000402e800e0
:103d3000814f500003003200820f5200faff3a0018
:103d40000000050010000500f0874700889fbe00b6
:103d50008a9fbe008c9fbe008e1f780000047800f2
:103d6000810678000000eb00c0b79f00f848900083
:103d7000c0c6b30080cf500002003a0011002000fe
:103d8000c1b79f000d00e00023003d00b800900087
:103d90000100e80030049800e2c5b3008041eb0068
:103da00083f79f00904f110003003a000180e80064
:103db0003004980082f79f00b8049000d0c5b3008b
:103dc000994f10000200320009007800010037000e
:103dd0000900e800d105200013f40700d0b79f00c8
:103de0008000eb000000e000bd003200090650003a
:103df000e20f5600080034000c81e9000900e800d9
:103e0000d1022000b5f3070011c0b300c1ef9f003d
:103e10000000e00002003a008041eb00c3ef9f0089
:103e2000680090000000e00004003c00f0ff270064
:103e30000d00e00001003a0010002000500498003e
:103e4000684890000004e0000d003a00280090004f
:103e5000cfb097000100e000050032000080e900cb
:103e60002004980010007800b0b79f0004003700cd
:103e70000080e9002004980010007800f0b79f004f
:103e80000045eb005e0037000d00e0000300340049
:103e90000900780034f607001e0037000d00e0002e
:103ea0001e003200cfe997000304e0000c003a0046
:103eb000380090008ff097000104e00004003a0001
:103ec0000c0178008900780084f307000b003700ac
:103ed0000c0178008900780080f307000d0037009e
:103ee000380090008ff197000304e00006003a00cc
:103ef0000c0178008900780075ff07000000e000e1
:103f000006003a006d0037000c0178008900780047
:103f10006fff07000000e00068003a004fb0970014
:103f20000000e00009003a00684890000004e0004a
:103f300032003a00ffb0970089587800f1b79f002f
:103f400010c0b300005498002c003700c9e79f0050
:103f50008905fb000b0078000100320010002000f2
:103f6000000578001e0020000000e00016003a0066
:103f70000904e00004003a007c8057000bfb0700b6
:103f80000005e800100037000e07e900fc8157002b
:103f900063407f008000fb0048019000e14f40003b
:103fa000070032000200e900400498001800900069
:103fb000980178000001eb000300010002003700c7
:103fc0000200e900400498008e0f5500eeff350016
:103fd000684890000004e00005003a003fb09700f8
:103fe0000b187800b0b79f0010c0b30000549800c1
:103ff000680090000000e900600498002ac0b30047
:10400000580090000000e90050049800480190001a
:104010000b0033000200e8004004980018009000f4
:1040200098017800120020008000eb0003000100de
:1040300080047800e10f400093ff3a00020037004f
:104040000200e80040049800480090000000e900e9
:10405000400498000d00e00002003200e24f5500dd
:10406000040032000a00fb008080eb001c003200dc
:1040700010003700684890000004e00009003a0092
:10408000cfb097000100e00003003200bfb19700fd
:104090008009eb00030037008fe897007fb097009e
:1040a000014878000d00e00002003d00dfb19700fc
:1040b00033049800110020000900370048009000e8
:1040c0000000e90040049800180090009801780072
:1040d0000001eb008900780003000100ddff3700dc
:1040e000010078004f0778004f06be004f05be0064
:1040f0004f04be000f01b100000006000000e00008
:104100000300340010080700e10f400001003a00ee
:104110000000eb00000006000000e000310032006b
:104120008080e90091027800e38f52002d00360074
:104130000508a3002b003a00925980000200e0001d
:1041400002003200828f5000040031000208780023
:104150009159880016003700030178009201900001
:104160000300e00002003200818f5100faff3900a5
:104170001202780004004100808f500019003900bd
:10418000810f500003003a000509420082007800c8
:10419000070037000300e000030032000580400004
:1041a000808f51000f003900930098001101980092
:1041b000110190000200e0000a003200118040006e
:1041c000820f500007003a0000b320000008eb0007
:1041d000110090001101780090084100100090003b
:1041e0009000980000000600000178000000200008
:1041f0000000e00008003200000080000000e00045
:10420000050032000000e9000000880000004000c6
:104210000100800002b0780000000600889fbe0008
:10422000800478006684400000ff270018006000ca
:104230004401de00f07f2000800f51000e003a00a4
:10424000800ceb00180478006f0064001c003a003a
:10425000210090000000e00019003a0011009000d9
:104260000000e00016003a00100020001100e000fd
:1042700014003200120037000200e00005003c008c
:1042800001007800df030700000178000000e00073
:1042900008003c00f00028001800600001fe230028
:1042a000010c700020c02f00800c41000080eb004a
:1042b00004003700800ceb000000eb000100370029
:1042c000200020004f04be0000000600889fbe00b2
:1042d0008a1f78008c9fbe00000478000206be0092
:1042e000e6044000190178000200d0004505de0018
:1042f0008a007800f07f2000800f55000c003a0003
:104300006f00610067003a00280090000000e000a4
:1043100064003a00180090000000e00061003a00dc
:10432000100020001800e0005f0032005d00370040
:104330000a00e00007003a0008007800b103070017
:10434000800078000000e000020034000a007800dd
:10435000550037006108b9000c0140008d8148000c
:10436000e07f2000800f5100e08f59000d003400e5
:104370001900e00004003d006000b80002002000c9
:1043800003ff2f00030037006000b8000200200088
:1043900003ff2700009cbe000294be001000200016
:1043a00041003700e00f5100e08f59000500340054
:1043b000f000280019006000c410dd00810c7000be
:1043c0003600370019007800010028000103600062
:1043d0006f0060000040a000800c78006101510077
:1043e000e0815900c0fc2f00f1ff2f00800f510029
:1043f000818f590006003d00860c78000000eb001c
:104400002004980010049800000c78002600370063
:10441000020078000881e800e4004400050037004d
:10442000120c78001109780099087800800ceb00d4
:1044300070004000f00f4000f9ff34008002ea00f5
:10444000150032008881e800708212009800780020
:104450008508de00130078000400dd00008c700089
:1044600064014400930078008508de0012007800a3
:104470000400dd0080897000920078008508de006d
:10448000190078000400dd00008970001900780030
:104490000500de00800c7800990c73000080eb00b2
:1044a00001003700200020004f06be004f057800b5
:1044b0004f04be00000006000400fa00889fbe0002
:1044c0008a9fbe008c1f78000006780092bf9f0074
:1044d000a3bf9f000404be000401be001fb89700e4
:1044e000afb897004a0907000005be000001be00f2
:1044f0000800be00390707001fb99700afb9970041
:104500000000510081805900200698003106980073
:104510000a8ebe000c0078004f0678004f05be00e2
:104520004f04be000080fa00000006000e00fa00f2
:10453000889fbe008a9fbe008c9fbe00000478004a
:10454000014578000206780083047800840678002c
:104550000300e00002003c0019002000ecb3200042
:1045600060c6b300804f55000e00320060c4b30037
:10457000804f55000b00320070c6b300804f5500cd
:104580000300320070c4b300804f55009c003a0015
:10459000e48f46008000350058089000808f560058
:1045a0007d003d008d05e80060c6b300804f5500da
:1045b0001000320060c4b300804f55000d0032007f
:1045c000081090000038a30004003a00580890003a
:1045d000808f540001003d00590c9800580890004d
:1045e0000b005000500c980002003b000000eb0054
:1045f000500c98000b00e00027003c0018099000c8
:104600006800900001c3b300017079008201e800e6
:10461000130c9800580890000000e00003003c00d4
:10462000081090000038a3000500320068009000d8
:10463000e1c2b30001f079000280e800100c98009c
:10464000d80890000b00ea00808f500001003d0068
:104650008105ea000b00ea00200c9800018045006b
:10466000500c9800890f500001003d008004780034
:10467000390c9800680090009808900001004000f4
:10468000090178008c0078009ef10700580890001e
:10469000090050001a003700980890006800900048
:1046a0008b8f540018003d00010040000901780084
:1046b0008c00780093f107001808900000814400f6
:1046c000120c980009805500200c980058089000a2
:1046d0000000e00003003c00081090000038a30038
:1046e00006003200e8009000e0c2b300807079005c
:1046f000380890000000e800300c9800580890003e
:10470000400c9800a6003700010040000b01780023
:104710008c0078007bf107001808900000814500ac
:10472000120c98008b845400580890000000e000a0
:1047300003003c00081090000038a3000500320080
:1047400068009000e1c2b300017079000200e80047
:10475000100c980058089000890f500001003d008f
:1047600080047800680090009808900001004000e4
:104770008b0046000901780062f1070018089000dc
:1047800000804400100c9800580890000900500068
:10479000200c98008200370070c6b300804f55008f
:1047a0000300320070c4b300804f550014003a007b
:1047b00058089000808f540004003d0008109000bd
:1047c0000038a30001003a00590c980058089000e6
:1047d0000000e900500c980002003b000000eb00d4
:1047e000500c980070c6b300804f550002003a008c
:1047f0005ac6b3000b0037005ac4b3000900370093
:1048000010c6b300804f550002003a000ac7b3003b
:104810000400370010c4b300804f550001003a0077
:104820000ac5b30018099000680090003c70790038
:104830008201e800130c98000c02780058089000e0
:104840000000e00003003c00081090000038a300c6
:1048500017003200e8009000e0c2b30080f0790059
:104860008280e800110c9800580890000000e000d9
:104870000f0034008904e900890f500001003d0059
:1048800080047800680090000080400009017800f2
:10489000840078001bf10700180890000080440095
:1048a000100c98005808900009005000200c980047
:1048b0006800900098089000010040000086e80021
:1048c0000a587800800078000d00e00004003500f0
:1048d000b0c2b300804878008c0478000400370030
:1048e000d0c2b300804878008c0478008d06ea00be
:1048f0008005eb000a003700a20020008d00780040
:10490000708057008b0207000fb897009fb8970080
:104910007a81550001f17f008b05e8008006780060
:104920000d00e000f4ff3c00e18f550009003c0061
:1049300050c6b300804f55000300320050c4b3008e
:10494000804f550003003a0000c3b300005e7800ba
:104950008c0478000b00e000040032000b00e9003a
:10496000fa805700008040000600370000c3b30003
:10497000805c7800050037008b05e90002c3b300b6
:10498000a05c41000b00e000fbff3c0068009000d1
:10499000980890000100400000805400300c9800fe
:1049a0000810900074006000f00f50000e003a00f4
:1049b000780090009808900001004000a80890003e
:1049c00001004000b808900001004000c8089000b5
:1049d0008100400078089000808f500002003d0068
:1049e00001005000000c98004f06be004f05be00ad
:1049f0004f04be000080fa00000006000200fa002a
:104a0000889fbe008a9fbe008c1f780080057800ba
:104a100001057800020678000100e00001003a007c
:104a20006c8557000b047800010037000804e8008b
:104a3000984478000900fb004bf307000000e000f9
:104a4000faff3a00d0c2b30080cf54000500320014
:104a500000c0e90080cf540002003200804478009a
:104a6000010037000804e8000c0178008a00780093
:104a7000080078003b0007000203be000002be00f1
:104a80009a0f540001003a000b0d78009a8f5500e0
:104a900005003a00e00f5200e08f5a00e00f5b0083
:104aa000e08f5b0014003a00b0c2b30080cf540026
:104ab00006003a00e00f5200e08f5a00e00f5b0062
:104ac000e08f5b0020003d000b003700d0c2b30038
:104ad00080cf54001c003a006000b80002002000a3
:104ae000030028000020e10001a8e10002b0e1007d
:104af00003b8e1000e00360020022000b059880003
:104b00006b40400080cf540004003a006000b800c1
:104b100002002000030028000d003700f0ff2f00e6
:104b2000f1ff2f00f2ff2f00f3ff270008003700ee
:104b30006000b8006011b80004025000858258007f
:104b400006035900878359000400be000601be0019
:104b50004f0678004f05be004f04be000080fa00eb
:104b600000000600fc874700889fbe008a9fbe00a9
:104b70008c9fbe008e1f78000007780081067800a9
:104b80008204780000047800010037000804e8007f
:104b9000184678000c00fb00f3f207000000e0006c
:104ba000faff3a00d0c2b300804f56000500320031
:104bb00000c0e900804f5600020032000046780035
:104bc000010037000804e8000900e0000500350096
:104bd000e18f54000300320040022000808f540017
:104be000040034000d00e000b00032008e0e7800aa
:104bf000ae0037000900e0000e003400f08f5400d2
:104c00001a003a0000c3b300984f100016003a0093
:104c10009840900080c7b30080cf5000030032005e
:104c200080c5b30080cf50000f003a000884e80030
:104c30000e003700a900200000c3b300984f1000f9
:104c40000a003a009840900080c7b30080cf50001f
:104c5000040032008900200080c5b30080cf5000de
:104c600002003a000884e8000901200008057800e5
:104c700000c3b300010037000a05e8009a4f100096
:104c8000fdff32008a0578006022b8006033b8006a
:104c9000260037003095200080c0500081ef9f0033
:104ca00009027800cfa2de000503780086037800b1
:104cb0000fb097009fb097002fb19700bfb197003a
:104cc0004f090700d0b79f00e1b79f00f2b79f00e0
:104cd00083bf9f000fe897000002fb00cfa2de0019
:104ce00005037800860378008b05e8000fb0970075
:104cf0009fb097002fb19700bfb19700c0af9f0042
:104d0000d1af9f00e2af9f00f3af9f005fb097006d
:104d1000efb097007fb197008fb997000002420073
:104d200081824a0002034b0083834b0084b79f00bb
:104d300095b79f00a6b79f00b7b79f001b00fb0069
:104d40008d0107008000780009017800309520006f
:104d5000e2ef0700800078000000e000cdff3a009d
:104d60008b0f54000a003a000d00e0004f003200a3
:104d70008e0e78006022b8006033b80084b79f00c0
:104d800095b79f00a6b79f00b7b79f004d003700ab
:104d90008a805500e092200060c07c000000fb008b
:104da000008050002c0033004240a90020003c004d
:104db0008fea97000500fb00cf80de00010178003c
:104dc000820178000fb297009fb297002fb397002f
:104dd000bfb397000000520081805a0002015b00bf
:104de00083815b000020e10001a8e10002b0e10046
:104df00003b8e1000e00390009027800cfa2de00fe
:104e000005037800860378006c0807004faa970016
:104e1000dfaa97006fab9700ffab97000400e1009b
:104e20000588e1000690e1000798e1000a003200e1
:104e300020022000b0598800f0ff2f00f1ff2f0062
:104e40000001be0080b79f0091b79f00a2b79f00ee
:104e5000b3b79f0011003700d0c2b300804f560097
:104e60000e003a006000b8006011b8000fb2970061
:104e70009fb297002fb39700bfb397000402500072
:104e800085825800060359008783590084b79f0024
:104e900095b79f00a6b79f00b7b79f000d00e00031
:104ea000080032008b0e7800060037006000b80062
:104eb0006011b80080b79f0091b79f00a2b79f0014
:104ec000b3b79f000fb097009fb097002fb1970026
:104ed000bfb197004f0778004f06be004f05be00d8
:104ee0004f04be00cf01b100000006000003b10076
:104ef0000b0035009000b100080034008000b100c4
:104f0000070035009001b100040034007000b100ca
:104f1000030035009001b10001003c0010000500c5
:104f2000000005002600fa00889fbe008a9fbe0090
:104f30008c9fbe0090b79f00010478000206be005f
:104f4000800478007e80570012010700e8056000a9
:104f50000030a100e10f50003f003a0060fd2f003b
:104f60000f0540009fb09700240020008a017800c0
:104f700008017800090078008b01070080047800a0
:104f80006000b8006011b8000900e000290032009c
:104f9000424cdd00080045001000be0092060700ec
:104fa000e0b79f00f1b79f0082bf9f0093bf9f00b3
:104fb00064045400080545000904780009ac200089
:104fc000150037001a00be00e00f5000e08f5800b7
:104fd0000f003200840607003902be002903be001c
:104fe0009a0607000002be000203be006fb09700e1
:104ff000ffb097000fb997009fb99700d908070035
:10500000e0b79f00f1b79f0082bf9f0093bf9f0052
:10501000e8844400640555000804e9004240a90002
:10502000e8ff3c006fb09700ffb097000fb9970002
:105030009fb99700f0a79f0081af9f0092af9f009c
:10504000a3af9f0061fd2f000f804000300246009b
:10505000a0824e0042003700e20f500046003a00a6
:1050600062fd2f000f0541009fb0970000027800fd
:105070008a01780008017800090078002c020700f6
:10508000800478006000b8006011b8000900e000fa
:1050900029003200424cdd00080045001000be002f
:1050a00051060700a0b79f00b1b79f00c2b79f008d
:1050b000d3b79f0064045400080545000904780034
:1050c00009ab2000150037001a00be00e00f5000a9
:1050d000e08f58000f003200430607003902be007f
:1050e0002903be00590607000002be000203be00ed
:1050f0002fb09700bfb097004fb19700dfb1970076
:1051000098080700a0b79f00b1b79f00c2b79f00e3
:10511000d3b79f00e8844400640555000804e90003
:105120004240a900e8ff3c002fb09700bfb09700b5
:105130004fb19700dfb19700f0a79f0081af9f00ac
:1051400092af9f00a3af9f003fa99700cfa9970000
:10515000e0fc2f000f0040005cfc07000c02be00ca
:105160007fa097008fa897001fa99700afa997006d
:10517000fe02070013003700e30f500004003a005e
:105180006000b8000200200003ff2700060037007f
:10519000e40f500009003a00f0ff2f00f1ff2f004c
:1051a000f2ff2f00f3ff2700f0a79f0081af9f00c1
:1051b00092af9f00a3af9f00060037006000b800c9
:1051c0006011b800f0a79f0081af9f0092af9f00d1
:1051d000a3af9f007fa097008fa897001fa99700fb
:1051e000afa997000b00e0000100320003f0a2001d
:1051f0004f06be004f05be004f04be000080fa00ff
:105200000000060000017800e6014000130078006d
:1052100001002800810360006f00600080097800b1
:1052200012003a00220090000000e0000f003a0057
:10523000120090000000e0000c003a001600200070
:105240001200e0003800320008003700e40041009e
:10525000910978000280e800900878001208780030
:105260000009eb0070035300010037001600200016
:105270001300e000f5ff3200e40241000282e80082
:105280001100370080004000150078004f00de005c
:1052900080897000950078008180400014007800bb
:1052a0004f00de00808a700094007800818040000a
:1052b000120078004f00de00008a700012007800b3
:1052c000000940000603e90013007800ef0f5000ca
:1052d000ecff36008282e800640241000e003700d5
:1052e0009200d100150078004f00dd0000897000a9
:1052f0009500d100140078004f00dd00808a700016
:105300009400d100130078004f00dd00008a700087
:105310009309d1000603e80013007800ff0f500046
:10532000efff3e00ef0960009389730006007800ec
:105330000000060002027800809fbe0011000900f4
:105340008200d800000178004f00be0002a2b90020
:1053500084805000110098000208780000000600c8
:10536000a05980000000e0000100320000000100b0
:1053700060b3200000000600800078001104b10036
:10538000030035009101b10001003c000050a00075
:1053900000000600889fbe008a9fbe008c1f780018
:1053a0000006780081057800100578000a0478006e
:1053b000010037000804e800984478000900fb0069
:1053c000e9f00700800078000000e000f9ff3a00f3
:1053d000d0c2b30080cf540003003a000804e800b4
:1053e0008200200005003700b0c2b30080cf540017
:1053f00001003a000804e8000101780098407800b4
:10540000e5c6b30085cf500003003200e3c4b3000b
:1054100083cf500022003a009840900010c6b3009d
:1054200080cf50000300320010c4b30080cf500082
:1054300050003a00a840900085cf50000300320091
:10544000e0c4b30080cf50004a003a006305440036
:1054500080c2b3009a4f1000020032000a047800a4
:10546000090037000a047800d84478000900fb00de
:105470009efe07000000e000fbff3a00f0c5b3000d
:1054800080cf5400f8ff32004200200090c2b300e9
:10549000984f100038003a000805e8003600370041
:1054a00094c6b30084cf50000300320090c4b30010
:1054b00080cf500034003a0018409000854f5000d3
:1054c00002003200834f50002a003a00a8409000aa
:1054d00060c6b30080cf50000300320060c4b30048
:1054e00080cf500023003a00630544003200b3002f
:1054f0009a40780084cf50000300320090c4b3007b
:1055000080cf50001c003a0048409000854f50006a
:1055100002003200834f500017003a00d84090003c
:1055200084cf50000300320090c4b30080cf5000fd
:1055300011003a00e840900040c7b30080cf50000f
:105540000300320040c5b30080cf50000a003a008b
:10555000f840900090c7b30080cf500003003200a5
:1055600090c5b30080cf500003003a0068054400a6
:10557000010037000001eb000b00e00004003200e6
:105580008a0d7800020037000200a00008057800ac
:105590000a0e7800020078004f0678004f05be0022
:1055a0004f04be0000000600e4874700889fbe004d
:1055b0008a9fbe008c9fbe008e1f780080bf9f0018
:1055c0008104780002077800030678006922b90098
:1055d000040578008006eb0000c3b300020037002a
:1055e0008904e8001d002000994f1000fcff3200e4
:1055f000000eeb003c1678000c0478008005eb00f0
:10560000280037008a8f550016003d0092002000c8
:10561000110009008205d800010078000000e000b8
:1056200003003a0064044400000ceb0038147800d6
:10563000a2002000030020001800be00e7020700bf
:10564000194178000201fb00cf91de00000041000b
:10565000818049000003b1000180b100008cbe00d0
:105660000d00370010002000010020001c0e40003b
:105670005c9648008a8f550008003a0040c3b3008a
:10568000994f100005003400100020000100200098
:10569000180c4000589448008b05e8008904e80085
:1056a0001d002000194178000200fb000003b1003a
:1056b000e90f5000d3ff36008b0f550001003d006d
:1056c0008a057800e0c2b300804f510001003a0023
:1056d0008904e8000b00e0000700320029003700d1
:1056e0000080eb008080eb001c0e40005c964800c0
:1056f0008904e8001d00200000c3b300994f10008a
:10570000f7ff32008005eb001e0037008a8f55003e
:105710001a003d0092002000110009008205d80007
:10572000010078000000e00003003a006404440037
:10573000000ceb0038147800a200200003002000c9
:105740001800be00a5020700194178000201fb0005
:10575000cf91de0000004100818049000003b100cc
:105760000180b100008cbe008b05e8000080eb00da
:105770008080eb001c0e40005c9648008904e80025
:105780001d0020001900fb000003b100e90f5000cc
:10579000deff360092002000110009008205d800cb
:1057a000010078000000e0001700320069051000d9
:1057b0001802be00e00f5200e08f5a0007003200ce
:1057c0004250dd00c1ac2000010040001001be00cd
:1057d0000400be0081020700008cbe008a854500df
:1057e0006150b9001c1e10001c96180006003700fe
:1057f000e985550090002000010020001c0e4000ab
:105800005c96480064045400e88f5500040034009e
:105810001800be00e00f5000e08f5800f4ff320087
:105820000d00e000330032009940780050c6b3000c
:1058300080cf50000300320050c4b30080cf50002e
:105840002c003a008900e80011447800b2c2b3008d
:10585000824f540005003200d0c2b300804f540084
:105860000200320002447800010037008980e8001d
:10587000810478008006eb006022b8001100370038
:10588000f00f2e00515f2000800f5200818f5a00d0
:105890000a003c00a2002000030020000400be001b
:1058a0004e0207000a01fb00cf91de00000241001a
:1058b000818249000403b1000580b1008904e80039
:1058c0001d002000194578000a00fb000003b1000c
:1058d000e90f5000eaff3600d0c2b300804f5400f9
:1058e00002003a0060021200e0821a001c0e420020
:1058f0005c964a000e00e000040032000d00e0005b
:1059000001003a008fbc9700090f78009200200038
:10591000110009008205d8004f0778004f06be002d
:105920004f05be004f04be004f00b100000006004e
:10593000e8874700889fbe008a9fbe008c9fbe00fc
:105940008e1f780080bf9f008104780002077800d6
:10595000030578006722b900040678008006eb0092
:1059600000c3b300020037008904e8001d002000d6
:10597000994f1000fcff3200000deb003a15780043
:105980000a0478008005eb002c0037008c8f55004e
:1059900019003d0072002000811f780011000900ed
:1059a0008205d80001007800cf0078000000e000f8
:1059b00003003a0064044400000ceb003814780043
:1059c0001801be004418dd00cc11de008301700018
:1059d0004411dd0000a5200000805000a1a320009c
:1059e000614078000000fb00cf80de00001c410019
:1059f000019449000e00370012002000030020002f
:105a00001a0d41005a9549008c8f550009003a0043
:105a100000a5200000805000a1a320006140780074
:105a2000e74f500003003400180c4100589449001f
:105a30008b05e8008904e8001d0020009900fb00a8
:105a40006201200000a52000a4ec0700800078007f
:105a50000000e000cdff3a008b0f560001003d0032
:105a60008c057800e0c2b300994f100001003a00a5
:105a70008904e8000b00e000070032002c0037002a
:105a80000080eb008080eb001a0d40005a95480022
:105a90008904e8001d00200000c3b300994f1000e6
:105aa000f7ff32008005eb00210037008c8f550096
:105ab0001d003d0072002000811f780011000900c8
:105ac0008205d80001007800cf0078000000e000d7
:105ad00003003a0064044400000ceb003814780022
:105ae0001801be004418dd00cc11de0083017000f7
:105af0004411dd0000a5200000805000a1a320007b
:105b0000614078000000fb00cf80de00001c4100f7
:105b1000019449008b05e8000081eb008081eb00d7
:105b20001a0d41005a9549008904e8001d00200023
:105b30009900fb006201200000a5200067ec07002f
:105b4000800078000000e000d8ff3a0072002000da
:105b5000110009008205d800010078000000e00073
:105b600014003200670010004202dd001801be0080
:105b70000402e9000300330002014100838149006f
:105b8000fbff3700028cbe0080854500cf80de0021
:105b90001a1d10001a95180006003700e7855500f9
:105ba00070002000010020001a0d40005a954800a6
:105bb00064045400e68f5500040034001800be0051
:105bc000e00f5000e08f5800f4ff32001a00be00d2
:105bd0004209dd00ce01de00830171004201dd00db
:105be000e2b79f00f3b79f00028dbe000d00e000fa
:105bf000350032009940780000c7b30080cf5000d4
:105c00000300320000c5b30080cf50002e003a00e0
:105c10008900e80011447800b2c2b300824f5400fa
:105c200005003200d0c2b300804f540002003200a1
:105c300002447800010037008980e8008104780080
:105c40008006eb006022b80011003700f00f2e0034
:105c5000515f2000800f5200818f5a000a003c00e3
:105c6000a2002000030020000400be005b0107002a
:105c70000c01fb00cf91de0000024100818249004f
:105c80000403b1000580b1008904e8001d00200074
:105c9000194678000c00fb000003b100e90f50002a
:105ca000eaff3600d0c2b300804f540002003a0031
:105cb00060021200e0821a006fb09700ffb09700f8
:105cc000041d4000059548000e00e000040032006d
